{
  "address": "0xB1ba9274a27C27b848186A8504f4409DD30E6Ec7",
  "abi": [
    {
      "inputs": [
        {
          "internalType": "address",
          "name": "_token",
          "type": "address"
        },
        {
          "internalType": "address",
          "name": "_lzEndpoint",
          "type": "address"
        }
      ],
      "stateMutability": "nonpayable",
      "type": "constructor"
    },
    {
      "anonymous": false,
      "inputs": [
        {
          "indexed": true,
          "internalType": "uint16",
          "name": "_srcChainId",
          "type": "uint16"
        },
        {
          "indexed": false,
          "internalType": "bytes",
          "name": "_srcAddress",
          "type": "bytes"
        },
        {
          "indexed": false,
          "internalType": "uint64",
          "name": "_nonce",
          "type": "uint64"
        },
        {
          "indexed": false,
          "internalType": "bytes32",
          "name": "_hash",
          "type": "bytes32"
        }
      ],
      "name": "CallOFTReceivedSuccess",
      "type": "event"
    },
    {
      "anonymous": false,
      "inputs": [
        {
          "indexed": false,
          "internalType": "uint16",
          "name": "_srcChainId",
          "type": "uint16"
        },
        {
          "indexed": false,
          "internalType": "bytes",
          "name": "_srcAddress",
          "type": "bytes"
        },
        {
          "indexed": false,
          "internalType": "uint64",
          "name": "_nonce",
          "type": "uint64"
        },
        {
          "indexed": false,
          "internalType": "bytes",
          "name": "_payload",
          "type": "bytes"
        },
        {
          "indexed": false,
          "internalType": "bytes",
          "name": "_reason",
          "type": "bytes"
        }
      ],
      "name": "MessageFailed",
      "type": "event"
    },
    {
      "anonymous": false,
      "inputs": [
        {
          "indexed": false,
          "internalType": "address",
          "name": "_address",
          "type": "address"
        }
      ],
      "name": "NonContractAddress",
      "type": "event"
    },
    {
      "anonymous": false,
      "inputs": [
        {
          "indexed": true,
          "internalType": "address",
          "name": "previousOwner",
          "type": "address"
        },
        {
          "indexed": true,
          "internalType": "address",
          "name": "newOwner",
          "type": "address"
        }
      ],
      "name": "OwnershipTransferred",
      "type": "event"
    },
    {
      "anonymous": false,
      "inputs": [
        {
          "indexed": true,
          "internalType": "uint16",
          "name": "_srcChainId",
          "type": "uint16"
        },
        {
          "indexed": true,
          "internalType": "address",
          "name": "_to",
          "type": "address"
        },
        {
          "indexed": false,
          "internalType": "uint256",
          "name": "_amount",
          "type": "uint256"
        }
      ],
      "name": "ReceiveFromChain",
      "type": "event"
    },
    {
      "anonymous": false,
      "inputs": [
        {
          "indexed": false,
          "internalType": "uint16",
          "name": "_srcChainId",
          "type": "uint16"
        },
        {
          "indexed": false,
          "internalType": "bytes",
          "name": "_srcAddress",
          "type": "bytes"
        },
        {
          "indexed": false,
          "internalType": "uint64",
          "name": "_nonce",
          "type": "uint64"
        },
        {
          "indexed": false,
          "internalType": "bytes32",
          "name": "_payloadHash",
          "type": "bytes32"
        }
      ],
      "name": "RetryMessageSuccess",
      "type": "event"
    },
    {
      "anonymous": false,
      "inputs": [
        {
          "indexed": true,
          "internalType": "uint16",
          "name": "_dstChainId",
          "type": "uint16"
        },
        {
          "indexed": true,
          "internalType": "address",
          "name": "_from",
          "type": "address"
        },
        {
          "indexed": true,
          "internalType": "bytes32",
          "name": "_toAddress",
          "type": "bytes32"
        },
        {
          "indexed": false,
          "internalType": "uint256",
          "name": "_amount",
          "type": "uint256"
        }
      ],
      "name": "SendToChain",
      "type": "event"
    },
    {
      "anonymous": false,
      "inputs": [
        {
          "indexed": false,
          "internalType": "uint16",
          "name": "feeBp",
          "type": "uint16"
        }
      ],
      "name": "SetDefaultFeeBp",
      "type": "event"
    },
    {
      "anonymous": false,
      "inputs": [
        {
          "indexed": false,
          "internalType": "uint16",
          "name": "dstchainId",
          "type": "uint16"
        },
        {
          "indexed": false,
          "internalType": "bool",
          "name": "enabled",
          "type": "bool"
        },
        {
          "indexed": false,
          "internalType": "uint16",
          "name": "feeBp",
          "type": "uint16"
        }
      ],
      "name": "SetFeeBp",
      "type": "event"
    },
    {
      "anonymous": false,
      "inputs": [
        {
          "indexed": false,
          "internalType": "address",
          "name": "feeOwner",
          "type": "address"
        }
      ],
      "name": "SetFeeOwner",
      "type": "event"
    },
    {
      "anonymous": false,
      "inputs": [
        {
          "indexed": false,
          "internalType": "uint16",
          "name": "_dstChainId",
          "type": "uint16"
        },
        {
          "indexed": false,
          "internalType": "uint16",
          "name": "_type",
          "type": "uint16"
        },
        {
          "indexed": false,
          "internalType": "uint256",
          "name": "_minDstGas",
          "type": "uint256"
        }
      ],
      "name": "SetMinDstGas",
      "type": "event"
    },
    {
      "anonymous": false,
      "inputs": [
        {
          "indexed": false,
          "internalType": "address",
          "name": "precrime",
          "type": "address"
        }
      ],
      "name": "SetPrecrime",
      "type": "event"
    },
    {
      "anonymous": false,
      "inputs": [
        {
          "indexed": false,
          "internalType": "uint16",
          "name": "_remoteChainId",
          "type": "uint16"
        },
        {
          "indexed": false,
          "internalType": "bytes",
          "name": "_path",
          "type": "bytes"
        }
      ],
      "name": "SetTrustedRemote",
      "type": "event"
    },
    {
      "anonymous": false,
      "inputs": [
        {
          "indexed": false,
          "internalType": "uint16",
          "name": "_remoteChainId",
          "type": "uint16"
        },
        {
          "indexed": false,
          "internalType": "bytes",
          "name": "_remoteAddress",
          "type": "bytes"
        }
      ],
      "name": "SetTrustedRemoteAddress",
      "type": "event"
    },
    {
      "anonymous": false,
      "inputs": [
        {
          "indexed": false,
          "internalType": "bool",
          "name": "_useCustomAdapterParams",
          "type": "bool"
        }
      ],
      "name": "SetUseCustomAdapterParams",
      "type": "event"
    },
    {
      "inputs": [],
      "name": "BP_DENOMINATOR",
      "outputs": [
        {
          "internalType": "uint256",
          "name": "",
          "type": "uint256"
        }
      ],
      "stateMutability": "view",
      "type": "function"
    },
    {
      "inputs": [],
      "name": "NO_EXTRA_GAS",
      "outputs": [
        {
          "internalType": "uint256",
          "name": "",
          "type": "uint256"
        }
      ],
      "stateMutability": "view",
      "type": "function"
    },
    {
      "inputs": [],
      "name": "PT_SEND",
      "outputs": [
        {
          "internalType": "uint8",
          "name": "",
          "type": "uint8"
        }
      ],
      "stateMutability": "view",
      "type": "function"
    },
    {
      "inputs": [],
      "name": "PT_SEND_AND_CALL",
      "outputs": [
        {
          "internalType": "uint8",
          "name": "",
          "type": "uint8"
        }
      ],
      "stateMutability": "view",
      "type": "function"
    },
    {
      "inputs": [
        {
          "internalType": "uint16",
          "name": "_srcChainId",
          "type": "uint16"
        },
        {
          "internalType": "bytes",
          "name": "_srcAddress",
          "type": "bytes"
        },
        {
          "internalType": "uint64",
          "name": "_nonce",
          "type": "uint64"
        },
        {
          "internalType": "bytes32",
          "name": "_from",
          "type": "bytes32"
        },
        {
          "internalType": "address",
          "name": "_to",
          "type": "address"
        },
        {
          "internalType": "uint256",
          "name": "_amount",
          "type": "uint256"
        },
        {
          "internalType": "bytes",
          "name": "_payload",
          "type": "bytes"
        },
        {
          "internalType": "uint256",
          "name": "_gasForCall",
          "type": "uint256"
        }
      ],
      "name": "callOnOFTReceived",
      "outputs": [],
      "stateMutability": "nonpayable",
      "type": "function"
    },
    {
      "inputs": [
        {
          "internalType": "uint16",
          "name": "",
          "type": "uint16"
        }
      ],
      "name": "chainIdToFeeBps",
      "outputs": [
        {
          "internalType": "uint16",
          "name": "feeBP",
          "type": "uint16"
        },
        {
          "internalType": "bool",
          "name": "enabled",
          "type": "bool"
        }
      ],
      "stateMutability": "view",
      "type": "function"
    },
    {
      "inputs": [],
      "name": "circulatingSupply",
      "outputs": [
        {
          "internalType": "uint256",
          "name": "",
          "type": "uint256"
        }
      ],
      "stateMutability": "view",
      "type": "function"
    },
    {
      "inputs": [
        {
          "internalType": "uint16",
          "name": "",
          "type": "uint16"
        },
        {
          "internalType": "bytes",
          "name": "",
          "type": "bytes"
        },
        {
          "internalType": "uint64",
          "name": "",
          "type": "uint64"
        }
      ],
      "name": "creditedPackets",
      "outputs": [
        {
          "internalType": "bool",
          "name": "",
          "type": "bool"
        }
      ],
      "stateMutability": "view",
      "type": "function"
    },
    {
      "inputs": [],
      "name": "defaultFeeBp",
      "outputs": [
        {
          "internalType": "uint16",
          "name": "",
          "type": "uint16"
        }
      ],
      "stateMutability": "view",
      "type": "function"
    },
    {
      "inputs": [
        {
          "internalType": "uint16",
          "name": "_dstChainId",
          "type": "uint16"
        },
        {
          "internalType": "bytes32",
          "name": "_toAddress",
          "type": "bytes32"
        },
        {
          "internalType": "uint256",
          "name": "_amount",
          "type": "uint256"
        },
        {
          "internalType": "bytes",
          "name": "_payload",
          "type": "bytes"
        },
        {
          "internalType": "uint64",
          "name": "_dstGasForCall",
          "type": "uint64"
        },
        {
          "internalType": "bool",
          "name": "_useZro",
          "type": "bool"
        },
        {
          "internalType": "bytes",
          "name": "_adapterParams",
          "type": "bytes"
        }
      ],
      "name": "estimateSendAndCallFee",
      "outputs": [
        {
          "internalType": "uint256",
          "name": "nativeFee",
          "type": "uint256"
        },
        {
          "internalType": "uint256",
          "name": "zroFee",
          "type": "uint256"
        }
      ],
      "stateMutability": "view",
      "type": "function"
    },
    {
      "inputs": [
        {
          "internalType": "uint16",
          "name": "_dstChainId",
          "type": "uint16"
        },
        {
          "internalType": "bytes32",
          "name": "_toAddress",
          "type": "bytes32"
        },
        {
          "internalType": "uint256",
          "name": "_amount",
          "type": "uint256"
        },
        {
          "internalType": "bool",
          "name": "_useZro",
          "type": "bool"
        },
        {
          "internalType": "bytes",
          "name": "_adapterParams",
          "type": "bytes"
        }
      ],
      "name": "estimateSendFee",
      "outputs": [
        {
          "internalType": "uint256",
          "name": "nativeFee",
          "type": "uint256"
        },
        {
          "internalType": "uint256",
          "name": "zroFee",
          "type": "uint256"
        }
      ],
      "stateMutability": "view",
      "type": "function"
    },
    {
      "inputs": [
        {
          "internalType": "uint16",
          "name": "",
          "type": "uint16"
        },
        {
          "internalType": "bytes",
          "name": "",
          "type": "bytes"
        },
        {
          "internalType": "uint64",
          "name": "",
          "type": "uint64"
        }
      ],
      "name": "failedMessages",
      "outputs": [
        {
          "internalType": "bytes32",
          "name": "",
          "type": "bytes32"
        }
      ],
      "stateMutability": "view",
      "type": "function"
    },
    {
      "inputs": [],
      "name": "feeOwner",
      "outputs": [
        {
          "internalType": "address",
          "name": "",
          "type": "address"
        }
      ],
      "stateMutability": "view",
      "type": "function"
    },
    {
      "inputs": [
        {
          "internalType": "uint16",
          "name": "_srcChainId",
          "type": "uint16"
        },
        {
          "internalType": "bytes",
          "name": "_srcAddress",
          "type": "bytes"
        }
      ],
      "name": "forceResumeReceive",
      "outputs": [],
      "stateMutability": "nonpayable",
      "type": "function"
    },
    {
      "inputs": [
        {
          "internalType": "uint16",
          "name": "_version",
          "type": "uint16"
        },
        {
          "internalType": "uint16",
          "name": "_chainId",
          "type": "uint16"
        },
        {
          "internalType": "address",
          "name": "",
          "type": "address"
        },
        {
          "internalType": "uint256",
          "name": "_configType",
          "type": "uint256"
        }
      ],
      "name": "getConfig",
      "outputs": [
        {
          "internalType": "bytes",
          "name": "",
          "type": "bytes"
        }
      ],
      "stateMutability": "view",
      "type": "function"
    },
    {
      "inputs": [
        {
          "internalType": "uint16",
          "name": "_remoteChainId",
          "type": "uint16"
        }
      ],
      "name": "getTrustedRemoteAddress",
      "outputs": [
        {
          "internalType": "bytes",
          "name": "",
          "type": "bytes"
        }
      ],
      "stateMutability": "view",
      "type": "function"
    },
    {
      "inputs": [
        {
          "internalType": "uint16",
          "name": "_srcChainId",
          "type": "uint16"
        },
        {
          "internalType": "bytes",
          "name": "_srcAddress",
          "type": "bytes"
        }
      ],
      "name": "isTrustedRemote",
      "outputs": [
        {
          "internalType": "bool",
          "name": "",
          "type": "bool"
        }
      ],
      "stateMutability": "view",
      "type": "function"
    },
    {
      "inputs": [],
      "name": "lzEndpoint",
      "outputs": [
        {
          "internalType": "contract ILayerZeroEndpoint",
          "name": "",
          "type": "address"
        }
      ],
      "stateMutability": "view",
      "type": "function"
    },
    {
      "inputs": [
        {
          "internalType": "uint16",
          "name": "_srcChainId",
          "type": "uint16"
        },
        {
          "internalType": "bytes",
          "name": "_srcAddress",
          "type": "bytes"
        },
        {
          "internalType": "uint64",
          "name": "_nonce",
          "type": "uint64"
        },
        {
          "internalType": "bytes",
          "name": "_payload",
          "type": "bytes"
        }
      ],
      "name": "lzReceive",
      "outputs": [],
      "stateMutability": "nonpayable",
      "type": "function"
    },
    {
      "inputs": [
        {
          "internalType": "uint16",
          "name": "",
          "type": "uint16"
        },
        {
          "internalType": "uint16",
          "name": "",
          "type": "uint16"
        }
      ],
      "name": "minDstGasLookup",
      "outputs": [
        {
          "internalType": "uint256",
          "name": "",
          "type": "uint256"
        }
      ],
      "stateMutability": "view",
      "type": "function"
    },
    {
      "inputs": [
        {
          "internalType": "uint16",
          "name": "_srcChainId",
          "type": "uint16"
        },
        {
          "internalType": "bytes",
          "name": "_srcAddress",
          "type": "bytes"
        },
        {
          "internalType": "uint64",
          "name": "_nonce",
          "type": "uint64"
        },
        {
          "internalType": "bytes",
          "name": "_payload",
          "type": "bytes"
        }
      ],
      "name": "nonblockingLzReceive",
      "outputs": [],
      "stateMutability": "nonpayable",
      "type": "function"
    },
    {
      "inputs": [],
      "name": "outboundAmount",
      "outputs": [
        {
          "internalType": "uint256",
          "name": "",
          "type": "uint256"
        }
      ],
      "stateMutability": "view",
      "type": "function"
    },
    {
      "inputs": [],
      "name": "owner",
      "outputs": [
        {
          "internalType": "address",
          "name": "",
          "type": "address"
        }
      ],
      "stateMutability": "view",
      "type": "function"
    },
    {
      "inputs": [],
      "name": "precrime",
      "outputs": [
        {
          "internalType": "address",
          "name": "",
          "type": "address"
        }
      ],
      "stateMutability": "view",
      "type": "function"
    },
    {
      "inputs": [
        {
          "internalType": "uint16",
          "name": "_dstChainId",
          "type": "uint16"
        },
        {
          "internalType": "uint256",
          "name": "_amount",
          "type": "uint256"
        }
      ],
      "name": "quoteOFTFee",
      "outputs": [
        {
          "internalType": "uint256",
          "name": "fee",
          "type": "uint256"
        }
      ],
      "stateMutability": "view",
      "type": "function"
    },
    {
      "inputs": [],
      "name": "renounceOwnership",
      "outputs": [],
      "stateMutability": "nonpayable",
      "type": "function"
    },
    {
      "inputs": [
        {
          "internalType": "uint16",
          "name": "_srcChainId",
          "type": "uint16"
        },
        {
          "internalType": "bytes",
          "name": "_srcAddress",
          "type": "bytes"
        },
        {
          "internalType": "uint64",
          "name": "_nonce",
          "type": "uint64"
        },
        {
          "internalType": "bytes",
          "name": "_payload",
          "type": "bytes"
        }
      ],
      "name": "retryMessage",
      "outputs": [],
      "stateMutability": "payable",
      "type": "function"
    },
    {
      "inputs": [
        {
          "internalType": "address",
          "name": "_from",
          "type": "address"
        },
        {
          "internalType": "uint16",
          "name": "_dstChainId",
          "type": "uint16"
        },
        {
          "internalType": "bytes32",
          "name": "_toAddress",
          "type": "bytes32"
        },
        {
          "internalType": "uint256",
          "name": "_amount",
          "type": "uint256"
        },
        {
          "internalType": "uint256",
          "name": "_minAmount",
          "type": "uint256"
        },
        {
          "internalType": "bytes",
          "name": "_payload",
          "type": "bytes"
        },
        {
          "internalType": "uint64",
          "name": "_dstGasForCall",
          "type": "uint64"
        },
        {
          "components": [
            {
              "internalType": "address payable",
              "name": "refundAddress",
              "type": "address"
            },
            {
              "internalType": "address",
              "name": "zroPaymentAddress",
              "type": "address"
            },
            {
              "internalType": "bytes",
              "name": "adapterParams",
              "type": "bytes"
            }
          ],
          "internalType": "struct ICommonOFT.LzCallParams",
          "name": "_callParams",
          "type": "tuple"
        }
      ],
      "name": "sendAndCall",
      "outputs": [],
      "stateMutability": "payable",
      "type": "function"
    },
    {
      "inputs": [
        {
          "internalType": "address",
          "name": "_from",
          "type": "address"
        },
        {
          "internalType": "uint16",
          "name": "_dstChainId",
          "type": "uint16"
        },
        {
          "internalType": "bytes32",
          "name": "_toAddress",
          "type": "bytes32"
        },
        {
          "internalType": "uint256",
          "name": "_amount",
          "type": "uint256"
        },
        {
          "internalType": "uint256",
          "name": "_minAmount",
          "type": "uint256"
        },
        {
          "components": [
            {
              "internalType": "address payable",
              "name": "refundAddress",
              "type": "address"
            },
            {
              "internalType": "address",
              "name": "zroPaymentAddress",
              "type": "address"
            },
            {
              "internalType": "bytes",
              "name": "adapterParams",
              "type": "bytes"
            }
          ],
          "internalType": "struct ICommonOFT.LzCallParams",
          "name": "_callParams",
          "type": "tuple"
        }
      ],
      "name": "sendFrom",
      "outputs": [],
      "stateMutability": "payable",
      "type": "function"
    },
    {
      "inputs": [
        {
          "internalType": "uint16",
          "name": "_version",
          "type": "uint16"
        },
        {
          "internalType": "uint16",
          "name": "_chainId",
          "type": "uint16"
        },
        {
          "internalType": "uint256",
          "name": "_configType",
          "type": "uint256"
        },
        {
          "internalType": "bytes",
          "name": "_config",
          "type": "bytes"
        }
      ],
      "name": "setConfig",
      "outputs": [],
      "stateMutability": "nonpayable",
      "type": "function"
    },
    {
      "inputs": [
        {
          "internalType": "uint16",
          "name": "_feeBp",
          "type": "uint16"
        }
      ],
      "name": "setDefaultFeeBp",
      "outputs": [],
      "stateMutability": "nonpayable",
      "type": "function"
    },
    {
      "inputs": [
        {
          "internalType": "uint16",
          "name": "_dstChainId",
          "type": "uint16"
        },
        {
          "internalType": "bool",
          "name": "_enabled",
          "type": "bool"
        },
        {
          "internalType": "uint16",
          "name": "_feeBp",
          "type": "uint16"
        }
      ],
      "name": "setFeeBp",
      "outputs": [],
      "stateMutability": "nonpayable",
      "type": "function"
    },
    {
      "inputs": [
        {
          "internalType": "address",
          "name": "_feeOwner",
          "type": "address"
        }
      ],
      "name": "setFeeOwner",
      "outputs": [],
      "stateMutability": "nonpayable",
      "type": "function"
    },
    {
      "inputs": [
        {
          "internalType": "uint16",
          "name": "_dstChainId",
          "type": "uint16"
        },
        {
          "internalType": "uint16",
          "name": "_packetType",
          "type": "uint16"
        },
        {
          "internalType": "uint256",
          "name": "_minGas",
          "type": "uint256"
        }
      ],
      "name": "setMinDstGas",
      "outputs": [],
      "stateMutability": "nonpayable",
      "type": "function"
    },
    {
      "inputs": [
        {
          "internalType": "address",
          "name": "_precrime",
          "type": "address"
        }
      ],
      "name": "setPrecrime",
      "outputs": [],
      "stateMutability": "nonpayable",
      "type": "function"
    },
    {
      "inputs": [
        {
          "internalType": "uint16",
          "name": "_version",
          "type": "uint16"
        }
      ],
      "name": "setReceiveVersion",
      "outputs": [],
      "stateMutability": "nonpayable",
      "type": "function"
    },
    {
      "inputs": [
        {
          "internalType": "uint16",
          "name": "_version",
          "type": "uint16"
        }
      ],
      "name": "setSendVersion",
      "outputs": [],
      "stateMutability": "nonpayable",
      "type": "function"
    },
    {
      "inputs": [
        {
          "internalType": "uint16",
          "name": "_srcChainId",
          "type": "uint16"
        },
        {
          "internalType": "bytes",
          "name": "_path",
          "type": "bytes"
        }
      ],
      "name": "setTrustedRemote",
      "outputs": [],
      "stateMutability": "nonpayable",
      "type": "function"
    },
    {
      "inputs": [
        {
          "internalType": "uint16",
          "name": "_remoteChainId",
          "type": "uint16"
        },
        {
          "internalType": "bytes",
          "name": "_remoteAddress",
          "type": "bytes"
        }
      ],
      "name": "setTrustedRemoteAddress",
      "outputs": [],
      "stateMutability": "nonpayable",
      "type": "function"
    },
    {
      "inputs": [
        {
          "internalType": "bool",
          "name": "_useCustomAdapterParams",
          "type": "bool"
        }
      ],
      "name": "setUseCustomAdapterParams",
      "outputs": [],
      "stateMutability": "nonpayable",
      "type": "function"
    },
    {
      "inputs": [],
      "name": "sharedDecimals",
      "outputs": [
        {
          "internalType": "uint8",
          "name": "",
          "type": "uint8"
        }
      ],
      "stateMutability": "view",
      "type": "function"
    },
    {
      "inputs": [
        {
          "internalType": "bytes4",
          "name": "interfaceId",
          "type": "bytes4"
        }
      ],
      "name": "supportsInterface",
      "outputs": [
        {
          "internalType": "bool",
          "name": "",
          "type": "bool"
        }
      ],
      "stateMutability": "view",
      "type": "function"
    },
    {
      "inputs": [],
      "name": "token",
      "outputs": [
        {
          "internalType": "address",
          "name": "",
          "type": "address"
        }
      ],
      "stateMutability": "view",
      "type": "function"
    },
    {
      "inputs": [
        {
          "internalType": "address",
          "name": "newOwner",
          "type": "address"
        }
      ],
      "name": "transferOwnership",
      "outputs": [],
      "stateMutability": "nonpayable",
      "type": "function"
    },
    {
      "inputs": [
        {
          "internalType": "uint16",
          "name": "",
          "type": "uint16"
        }
      ],
      "name": "trustedRemoteLookup",
      "outputs": [
        {
          "internalType": "bytes",
          "name": "",
          "type": "bytes"
        }
      ],
      "stateMutability": "view",
      "type": "function"
    },
    {
      "inputs": [],
      "name": "useCustomAdapterParams",
      "outputs": [
        {
          "internalType": "bool",
          "name": "",
          "type": "bool"
        }
      ],
      "stateMutability": "view",
      "type": "function"
    }
  ],
  "transactionHash": "0x73f013456ae67fc49ff949f667d8e6ae79a20e9d7a7b0e68b0a2d8406fce4f58",
  "args": [
    "0x3D1Bf401Fa74a8711fA3e09AB3B3ECA24CCF9218",
    "0x93f54D755A063cE7bB9e6Ac47Eccc8e33411d706"
  ],
  "numDeployments": 1,
  "solcInputHash": "ea68fb748d6c1744c26f1fdc6dd96104",
  "bytecode": "0x6101006040523480156200001257600080fd5b5060405162004965380380620049658339810160408190526200003591620002ba565b816008828181818180806200004a336200024d565b6001600160a01b0316608052505060ff1660a052620000716000546001600160a01b031690565b600880546001600160a01b03928316620100000262010000600160b01b0319909116179055851660c081905260408051600481526024810182526020810180516001600160e01b031663313ce56760e01b179052905160009450849350620000da9190620002f2565b600060405180830381855afa9150503d806000811462000117576040519150601f19603f3d011682016040523d82523d6000602084013e6200011c565b606091505b5091509150816200018a5760405162461bcd60e51b815260206004820152602d60248201527f50726f78794f4654576974684665653a206661696c656420746f20676574207460448201526c6f6b656e20646563696d616c7360981b60648201526084015b60405180910390fd5b600081806020019051810190620001a2919062000330565b90508060ff168560ff161115620002225760405162461bcd60e51b815260206004820152603360248201527f50726f78794f4654576974684665653a20736861726564446563696d616c732060448201527f6d757374206265203c3d20646563696d616c7300000000000000000000000000606482015260840162000181565b6200022e858262000372565b6200023b90600a62000497565b60e05250620004a89650505050505050565b600080546001600160a01b038381166001600160a01b0319831681178455604051919092169283917f8be0079c531659141344cd1fd0a4f28419497f9722a3daafe3b4186f6b6457e09190a35050565b80516001600160a01b0381168114620002b557600080fd5b919050565b60008060408385031215620002ce57600080fd5b620002d9836200029d565b9150620002e9602084016200029d565b90509250929050565b6000825160005b81811015620003155760208186018101518583015201620002f9565b8181111562000325576000828501525b509190910192915050565b6000602082840312156200034357600080fd5b815160ff811681146200035557600080fd5b9392505050565b634e487b7160e01b600052601160045260246000fd5b600060ff821660ff8416808210156200038f576200038f6200035c565b90039392505050565b600181815b80851115620003d9578160001904821115620003bd57620003bd6200035c565b80851615620003cb57918102915b93841c93908002906200039d565b509250929050565b600082620003f25750600162000491565b81620004015750600062000491565b81600181146200041a5760028114620004255762000445565b600191505062000491565b60ff8411156200043957620004396200035c565b50506001821b62000491565b5060208310610133831016604e8410600b84101617156200046a575081810a62000491565b62000476838362000398565b80600019048211156200048d576200048d6200035c565b0290505b92915050565b60006200035560ff841683620003e1565b60805160a05160c05160e05161440c62000559600039600081816126df0152818161287e0152612f5801526000818161090e0152818161131b015281816123ac0152818161243701528181612470015281816124b901526127b4015260006105200152600081816106d10152818161093501528181610bbb01528181610c4401528181610e5f0152818161164401528181611c7501528181611f61015281816122fa0152612a1b015261440c6000f3fe60806040526004361061027c5760003560e01c80639689cb051161014f578063d1deba1f116100c1578063eb8d72b71161007a578063eb8d72b714610865578063ecd8f21214610885578063ed629c5c146108a5578063f2fde38b146108bf578063f5ecbdbc146108df578063fc0c546a146108ff57600080fd5b8063d1deba1f146107af578063d8882968146107c2578063df2a5b3b146107f0578063e6a20ae614610810578063eab45d9c14610825578063eaffd49a1461084557600080fd5b8063abe685cd11610113578063abe685cd146106a9578063b353aaa7146106bf578063b9818be1146106f3578063baf3292d14610719578063c83330ce14610739578063cbed8b9c1461078f57600080fd5b80639689cb05146105e15780639bdb9812146105f75780639f38369a14610649578063a4c51df514610669578063a6c3d1651461068957600080fd5b80634c42899a116101f357806379c0ad4b116101ac57806379c0ad4b146104ee578063857749b01461050e5780638cfd8f5c146105425780638da5cb5b1461057a5780639358928b146105ac578063950c8a74146105c157600080fd5b80634c42899a146103f65780635a359dc51461041d5780635b8c41e61461043d57806366ad5c8a1461048c578063715018a6146104ac5780637533d788146104c157600080fd5b8063365260b411610245578063365260b41461032b5780633d8b38f61461036057806342d65a8d1461038057806344770515146103a0578063455ba27d146103c35780634b104eff146103d657600080fd5b80621d35671461028157806301ffc9a7146102a357806307e0db17146102d857806310ddb137146102f85780632cdf0b9514610318575b600080fd5b34801561028d57600080fd5b506102a161029c3660046135eb565b610932565b005b3480156102af57600080fd5b506102c36102be36600461367e565b610b63565b60405190151581526020015b60405180910390f35b3480156102e457600080fd5b506102a16102f33660046136a8565b610b9a565b34801561030457600080fd5b506102a16103133660046136a8565b610c23565b6102a16103263660046136f0565b610c7b565b34801561033757600080fd5b5061034b610346366004613779565b610d1e565b604080519283526020830191909152016102cf565b34801561036c57600080fd5b506102c361037b3660046137e0565b610d73565b34801561038c57600080fd5b506102a161039b3660046137e0565b610e40565b3480156103ac57600080fd5b506103b5600081565b6040519081526020016102cf565b6102a16103d1366004613832565b610ec6565b3480156103e257600080fd5b506102a16103f13660046138ee565b610fa7565b34801561040257600080fd5b5061040b600081565b60405160ff90911681526020016102cf565b34801561042957600080fd5b506102a16104383660046136a8565b611064565b34801561044957600080fd5b506103b5610458366004613978565b6004602090815260009384526040808520845180860184018051928152908401958401959095209452929052825290205481565b34801561049857600080fd5b506102a16104a73660046135eb565b6110d6565b3480156104b857600080fd5b506102a16111aa565b3480156104cd57600080fd5b506104e16104dc3660046136a8565b6111be565b6040516102cf9190613a70565b3480156104fa57600080fd5b506102a1610509366004613a83565b611258565b34801561051a57600080fd5b5061040b7f000000000000000000000000000000000000000000000000000000000000000081565b34801561054e57600080fd5b506103b561055d366004613abf565b600260209081526000928352604080842090915290825290205481565b34801561058657600080fd5b506000546001600160a01b03165b6040516001600160a01b0390911681526020016102cf565b3480156105b857600080fd5b506103b5611314565b3480156105cd57600080fd5b50600354610594906001600160a01b031681565b3480156105ed57600080fd5b506103b560095481565b34801561060357600080fd5b506102c3610612366004613978565b6006602090815260009384526040808520845180860184018051928152908401958401959095209452929052825290205460ff1681565b34801561065557600080fd5b506104e16106643660046136a8565b6113aa565b34801561067557600080fd5b5061034b610684366004613af2565b6114ba565b34801561069557600080fd5b506102a16106a43660046137e0565b611549565b3480156106b557600080fd5b506103b561271081565b3480156106cb57600080fd5b506105947f000000000000000000000000000000000000000000000000000000000000000081565b3480156106ff57600080fd5b50600854610594906201000090046001600160a01b031681565b34801561072557600080fd5b506102a16107343660046138ee565b6115cf565b34801561074557600080fd5b506107756107543660046136a8565b60076020526000908152604090205461ffff81169062010000900460ff1682565b6040805161ffff90931683529015156020830152016102cf565b34801561079b57600080fd5b506102a16107aa366004613baf565b611625565b6102a16107bd3660046135eb565b6116af565b3480156107ce57600080fd5b506008546107dd9061ffff1681565b60405161ffff90911681526020016102cf565b3480156107fc57600080fd5b506102a161080b366004613c1d565b6118c5565b34801561081c57600080fd5b5061040b600181565b34801561083157600080fd5b506102a1610840366004613c59565b611977565b34801561085157600080fd5b506102a1610860366004613c76565b6119c0565b34801561087157600080fd5b506102a16108803660046137e0565b611adf565b34801561089157600080fd5b506103b56108a0366004613d3e565b611b39565b3480156108b157600080fd5b506005546102c39060ff1681565b3480156108cb57600080fd5b506102a16108da3660046138ee565b611bcb565b3480156108eb57600080fd5b506104e16108fa366004613d68565b611c44565b34801561090b57600080fd5b507f0000000000000000000000000000000000000000000000000000000000000000610594565b337f00000000000000000000000000000000000000000000000000000000000000006001600160a01b0316146109af5760405162461bcd60e51b815260206004820152601e60248201527f4c7a4170703a20696e76616c696420656e64706f696e742063616c6c6572000060448201526064015b60405180910390fd5b61ffff8616600090815260016020526040812080546109cd90613db5565b80601f01602080910402602001604051908101604052809291908181526020018280546109f990613db5565b8015610a465780601f10610a1b57610100808354040283529160200191610a46565b820191906000526020600020905b815481529060010190602001808311610a2957829003601f168201915b50505050509050805186869050148015610a61575060008151115b8015610a89575080516020820120604051610a7f9088908890613dea565b6040518091039020145b610ae45760405162461bcd60e51b815260206004820152602660248201527f4c7a4170703a20696e76616c696420736f757263652073656e64696e6720636f6044820152651b9d1c9858dd60d21b60648201526084016109a6565b610b5a8787878080601f01602080910402602001604051908101604052809392919081815260200183838082843760009201919091525050604080516020601f8a018190048102820181019092528881528a935091508890889081908401838280828437600092019190915250611cf592505050565b50505050505050565b60006001600160e01b03198216630d30953d60e31b1480610b9457506301ffc9a760e01b6001600160e01b03198316145b92915050565b610ba2611d6e565b6040516307e0db1760e01b815261ffff821660048201527f00000000000000000000000000000000000000000000000000000000000000006001600160a01b0316906307e0db17906024015b600060405180830381600087803b158015610c0857600080fd5b505af1158015610c1c573d6000803e3d6000fd5b5050505050565b610c2b611d6e565b6040516310ddb13760e01b815261ffff821660048201527f00000000000000000000000000000000000000000000000000000000000000006001600160a01b0316906310ddb13790602401610bee565b610c86868685611dc8565b509250610cf486868686610c9d60208701876138ee565b610cad60408801602089016138ee565b610cba6040890189613dfa565b8080601f016020809104026020016040519081016040528093929190818152602001838380828437600092019190915250611e1192505050565b925081831015610d165760405162461bcd60e51b81526004016109a690613e40565b505050505050565b600080610d648888888888888080601f016020809104026020016040519081016040528093929190818152602001838380828437600092019190915250611f3592505050565b91509150965096945050505050565b61ffff831660009081526001602052604081208054829190610d9490613db5565b80601f0160208091040260200160405190810160405280929190818152602001828054610dc090613db5565b8015610e0d5780601f10610de257610100808354040283529160200191610e0d565b820191906000526020600020905b815481529060010190602001808311610df057829003601f168201915b505050505090508383604051610e24929190613dea565b60405180910390208180519060200120149150505b9392505050565b610e48611d6e565b6040516342d65a8d60e01b81526001600160a01b037f000000000000000000000000000000000000000000000000000000000000000016906342d65a8d90610e9890869086908690600401613eb6565b600060405180830381600087803b158015610eb257600080fd5b505af1158015610b5a573d6000803e3d6000fd5b610ed1898988611dc8565b5080965050610f7a8989898988888080601f0160208091040260200160405190810160405280939291908181526020018383808284376000920191909152508a9250610f2391505060208901896138ee565b610f3360408a0160208b016138ee565b610f4060408b018b613dfa565b8080601f016020809104026020016040519081016040528093929190818152602001838380828437600092019190915250611fed92505050565b955084861015610f9c5760405162461bcd60e51b81526004016109a690613e40565b505050505050505050565b610faf611d6e565b6001600160a01b0381166110055760405162461bcd60e51b815260206004820152601a60248201527f4665653a206665654f776e65722063616e6e6f7420626520307800000000000060448201526064016109a6565b6008805462010000600160b01b031916620100006001600160a01b038416908102919091179091556040519081527f047912631afa564eebd3db2efe191a0dec62da1fede6bbbc1ffc89d87845b1b5906020015b60405180910390a150565b61106c611d6e565b6127108161ffff1611156110925760405162461bcd60e51b81526004016109a690613ed4565b6008805461ffff191661ffff83169081179091556040519081527fd26030ef4a8c225ee12b646eb4466acb41fb96b6cd4660b22d0ba0124e7bdc7490602001611059565b3330146111345760405162461bcd60e51b815260206004820152602660248201527f4e6f6e626c6f636b696e674c7a4170703a2063616c6c6572206d7573742062656044820152650204c7a4170760d41b60648201526084016109a6565b610d168686868080601f01602080910402602001604051908101604052809392919081815260200183838082843760009201919091525050604080516020601f8901819004810282018101909252878152899350915087908790819084018382808284376000920191909152506120e992505050565b6111b2611d6e565b6111bc6000612170565b565b600160205260009081526040902080546111d790613db5565b80601f016020809104026020016040519081016040528092919081815260200182805461120390613db5565b80156112505780601f1061122557610100808354040283529160200191611250565b820191906000526020600020905b81548152906001019060200180831161123357829003601f168201915b505050505081565b611260611d6e565b6127108161ffff1611156112865760405162461bcd60e51b81526004016109a690613ed4565b60408051808201825261ffff83811680835285151560208085018281528985166000818152600784528890209651875492511515620100000262ffffff1990931696169590951717909455845192835292820192909252918201527fdd9c9685af3e6dcb56d8f4b88d2595d4add6837a150034e7781c46b6dcf8aaab906060015b60405180910390a1505050565b60006009547f00000000000000000000000000000000000000000000000000000000000000006001600160a01b03166318160ddd6040518163ffffffff1660e01b8152600401602060405180830381865afa158015611377573d6000803e3d6000fd5b505050506040513d601f19601f8201168201806040525081019061139b9190613f19565b6113a59190613f48565b905090565b61ffff81166000908152600160205260408120805460609291906113cd90613db5565b80601f01602080910402602001604051908101604052809291908181526020018280546113f990613db5565b80156114465780601f1061141b57610100808354040283529160200191611446565b820191906000526020600020905b81548152906001019060200180831161142957829003601f168201915b5050505050905080516000141561149f5760405162461bcd60e51b815260206004820152601d60248201527f4c7a4170703a206e6f20747275737465642070617468207265636f726400000060448201526064016109a6565b610e396000601483516114b29190613f48565b8391906121c0565b6000806115378b8b8b8b8b8080601f01602080910402602001604051908101604052809392919081815260200183838082843760009201919091525050604080516020601f8d018190048102820181019092528b81528e93508d9250908c908c90819084018382808284376000920191909152506122cd92505050565b91509150995099975050505050505050565b611551611d6e565b81813060405160200161156693929190613f5f565b60408051601f1981840301815291815261ffff8516600090815260016020908152919020825161159b93919290910190613468565b507f8c0400cfe2d1199b1a725c78960bcc2a344d869b80590d0f2bd005db15a572ce83838360405161130793929190613eb6565b6115d7611d6e565b600380546001600160a01b0319166001600160a01b0383169081179091556040519081527f5db758e995a17ec1ad84bdef7e8c3293a0bd6179bcce400dff5d4c3d87db726b90602001611059565b61162d611d6e565b6040516332fb62e760e21b81526001600160a01b037f0000000000000000000000000000000000000000000000000000000000000000169063cbed8b9c906116819088908890889088908890600401613f85565b600060405180830381600087803b15801561169b57600080fd5b505af1158015610f9c573d6000803e3d6000fd5b61ffff861660009081526004602052604080822090516116d29088908890613dea565b90815260408051602092819003830190206001600160401b038716600090815292529020549050806117525760405162461bcd60e51b815260206004820152602360248201527f4e6f6e626c6f636b696e674c7a4170703a206e6f2073746f726564206d65737360448201526261676560e81b60648201526084016109a6565b808383604051611763929190613dea565b6040518091039020146117c25760405162461bcd60e51b815260206004820152602160248201527f4e6f6e626c6f636b696e674c7a4170703a20696e76616c6964207061796c6f616044820152601960fa1b60648201526084016109a6565b61ffff871660009081526004602052604080822090516117e59089908990613dea565b90815260408051602092819003830181206001600160401b038916600090815290845282902093909355601f8801829004820283018201905286825261187d918991899089908190840183828082843760009201919091525050604080516020601f8a018190048102820181019092528881528a9350915088908890819084018382808284376000920191909152506120e992505050565b7fc264d91f3adc5588250e1551f547752ca0cfa8f6b530d243b9f9f4cab10ea8e587878787856040516118b4959493929190613fb3565b60405180910390a150505050505050565b6118cd611d6e565b600081116119155760405162461bcd60e51b81526020600482015260156024820152744c7a4170703a20696e76616c6964206d696e47617360581b60448201526064016109a6565b61ffff83811660008181526002602090815260408083209487168084529482529182902085905581519283528201929092529081018290527f9d5c7c0b934da8fefa9c7760c98383778a12dfbfc0c3b3106518f43fb9508ac090606001611307565b61197f611d6e565b6005805460ff19168215159081179091556040519081527f1584ad594a70cbe1e6515592e1272a987d922b097ead875069cebe8b40c004a490602001611059565b333014611a0f5760405162461bcd60e51b815260206004820152601f60248201527f4f4654436f72653a2063616c6c6572206d757374206265204f4654436f72650060448201526064016109a6565b611a1a308686612388565b9350846001600160a01b03168a61ffff167fbf551ec93859b170f9b2141bd9298bf3f64322c6f7beb2543a0cb669834118bf86604051611a5c91815260200190565b60405180910390a3604051633fe79aed60e11b81526001600160a01b03861690637fcf35da908390611aa0908e908e908e908e908e908d908d908d90600401613fee565b600060405180830381600088803b158015611aba57600080fd5b5087f1158015611ace573d6000803e3d6000fd5b505050505050505050505050505050565b611ae7611d6e565b61ffff83166000908152600160205260409020611b059083836134ec565b507ffa41487ad5d6728f0b19276fa1eddc16558578f5109fc39d2dc33c3230470dab83838360405161130793929190613eb6565b61ffff828116600090815260076020908152604080832081518083019092525493841681526201000090930460ff1615801591840191909152909190611b9e57805161271090611b8d9061ffff1685614049565b611b97919061407e565b9150611bc4565b60085461ffff1615611bbf5760085461271090611b8d9061ffff1685614049565b600091505b5092915050565b611bd3611d6e565b6001600160a01b038116611c385760405162461bcd60e51b815260206004820152602660248201527f4f776e61626c653a206e6577206f776e657220697320746865207a65726f206160448201526564647265737360d01b60648201526084016109a6565b611c4181612170565b50565b604051633d7b2f6f60e21b815261ffff808616600483015284166024820152306044820152606481018290526060907f00000000000000000000000000000000000000000000000000000000000000006001600160a01b03169063f5ecbdbc90608401600060405180830381865afa158015611cc4573d6000803e3d6000fd5b505050506040513d6000823e601f3d908101601f19168201604052611cec9190810190614092565b95945050505050565b600080611d585a60966366ad5c8a60e01b89898989604051602401611d1d94939291906140ff565b60408051601f198184030181529190526020810180516001600160e01b03166001600160e01b03199093169290921790915230929190612530565b9150915081610d1657610d1686868686856125ba565b6000546001600160a01b031633146111bc5760405162461bcd60e51b815260206004820181905260248201527f4f776e61626c653a2063616c6c6572206973206e6f7420746865206f776e657260448201526064016109a6565b600080611dd58484611b39565b9050611de18184613f48565b91508015611e0957600854611e079086906201000090046001600160a01b031683612388565b505b935093915050565b6000611e1f87828481612657565b611e28856126d7565b509050611e3788888884612717565b905060008111611e855760405162461bcd60e51b815260206004820152601960248201527813d19510dbdc994e88185b5bdd5b9d081d1bdbc81cdb585b1b603a1b60448201526064016109a6565b6000611ed087611e9484612876565b6040805160006020820152602181019390935260c09190911b6001600160c01b0319166041830152805160298184030181526049909201905290565b9050611ee08882878787346128fc565b86896001600160a01b03168961ffff167fd81fc9b8523134ed613870ed029d6170cbb73aa6a6bc311b9a642689fb9df59a85604051611f2191815260200190565b60405180910390a450979650505050505050565b6000806000611f4787611e9488612876565b60405163040a7bb160e41b81529091506001600160a01b037f000000000000000000000000000000000000000000000000000000000000000016906340a7bb1090611f9e908b90309086908b908b9060040161413d565b6040805180830381865afa158015611fba573d6000803e3d6000fd5b505050506040513d601f19601f82011682018060405250810190611fde9190614191565b92509250509550959350505050565b6000612005896001846001600160401b038916612657565b61200e876126d7565b50905061201d8a8a8a84612717565b90506000811161206b5760405162461bcd60e51b815260206004820152601960248201527813d19510dbdc994e88185b5bdd5b9d081d1bdbc81cdb585b1b603a1b60448201526064016109a6565b6000612082338a61207b85612876565b8a8a612a97565b90506120928a82878787346128fc565b888b6001600160a01b03168b61ffff167fd81fc9b8523134ed613870ed029d6170cbb73aa6a6bc311b9a642689fb9df59a856040516120d391815260200190565b60405180910390a4509998505050505050505050565b60006120f58282612ad8565b905060ff81166121105761210b85858585612b34565b610c1c565b60ff8116600114156121285761210b85858585612bc4565b60405162461bcd60e51b815260206004820152601c60248201527f4f4654436f72653a20756e6b6e6f776e207061636b657420747970650000000060448201526064016109a6565b600080546001600160a01b038381166001600160a01b0319831681178455604051919092169283917f8be0079c531659141344cd1fd0a4f28419497f9722a3daafe3b4186f6b6457e09190a35050565b6060816121ce81601f6141b5565b101561220d5760405162461bcd60e51b815260206004820152600e60248201526d736c6963655f6f766572666c6f7760901b60448201526064016109a6565b61221782846141b5565b8451101561225b5760405162461bcd60e51b8152602060048201526011602482015270736c6963655f6f75744f66426f756e647360781b60448201526064016109a6565b60608215801561227a57604051915060008252602082016040526122c4565b6040519150601f8416801560200281840101858101878315602002848b0101015b818310156122b357805183526020928301920161229b565b5050858452601f01601f1916604052505b50949350505050565b60008060006122e0338a61207b8b612876565b60405163040a7bb160e41b81529091506001600160a01b037f000000000000000000000000000000000000000000000000000000000000000016906340a7bb1090612337908d90309086908b908b9060040161413d565b6040805180830381865afa158015612353573d6000803e3d6000fd5b505050506040513d601f19601f820116820180604052508101906123779190614191565b925092505097509795505050505050565b6040516370a0823160e01b81526001600160a01b03838116600483015260009182917f000000000000000000000000000000000000000000000000000000000000000016906370a0823190602401602060405180830381865afa1580156123f3573d6000803e3d6000fd5b505050506040513d601f19601f820116820180604052508101906124179190613f19565b90506001600160a01b0385163014156124635761245e6001600160a01b037f0000000000000000000000000000000000000000000000000000000000000000168585612dd2565b612498565b6124986001600160a01b037f000000000000000000000000000000000000000000000000000000000000000016868686612e3a565b6040516370a0823160e01b81526001600160a01b03858116600483015282917f0000000000000000000000000000000000000000000000000000000000000000909116906370a0823190602401602060405180830381865afa158015612502573d6000803e3d6000fd5b505050506040513d601f19601f820116820180604052508101906125269190613f19565b611cec9190613f48565b6000606060008060008661ffff166001600160401b038111156125555761255561390b565b6040519080825280601f01601f19166020018201604052801561257f576020820181803683370190505b50905060008087516020890160008d8df191503d9250868311156125a1578692505b828152826000602083013e909890975095505050505050565b8180519060200120600460008761ffff1661ffff168152602001908152602001600020856040516125eb91906141cd565b9081526040805191829003602090810183206001600160401b0388166000908152915220919091557fe183f33de2837795525b4792ca4cd60535bd77c53b7e7030060bfcf5734d6b0c9061264890879087908790879087906141e9565b60405180910390a15050505050565b60055460ff16156126735761266e84848484612e72565b6126d1565b8151156126d15760405162461bcd60e51b815260206004820152602660248201527f4f4654436f72653a205f61646170746572506172616d73206d7573742062652060448201526532b6b83a3c9760d11b60648201526084016109a6565b50505050565b6000806127047f00000000000000000000000000000000000000000000000000000000000000008461423b565b90506127108184613f48565b9150915091565b60006001600160a01b03851633146127835760405162461bcd60e51b815260206004820152602960248201527f50726f78794f4654576974684665653a206f776e6572206973206e6f7420736560448201526837321031b0b63632b960b91b60648201526084016109a6565b61278e853084612388565b915060008061279c846126d7565b909250905080156127db576127db6001600160a01b037f0000000000000000000000000000000000000000000000000000000000000000168883612dd2565b81600960008282546127ed91906141b5565b90915550600090506128056001600160401b03612f51565b905060095481101561286a5760405162461bcd60e51b815260206004820152602860248201527f50726f78794f4654576974684665653a206f7574626f756e64416d6f756e74206044820152676f766572666c6f7760c01b60648201526084016109a6565b50909695505050505050565b6000806128a37f00000000000000000000000000000000000000000000000000000000000000008461407e565b90506001600160401b03811115610b945760405162461bcd60e51b815260206004820152601a60248201527f4f4654436f72653a20616d6f756e745344206f766572666c6f7700000000000060448201526064016109a6565b61ffff86166000908152600160205260408120805461291a90613db5565b80601f016020809104026020016040519081016040528092919081815260200182805461294690613db5565b80156129935780601f1061296857610100808354040283529160200191612993565b820191906000526020600020905b81548152906001019060200180831161297657829003601f168201915b50505050509050805160001415612a055760405162461bcd60e51b815260206004820152603060248201527f4c7a4170703a2064657374696e6174696f6e20636861696e206973206e6f742060448201526f61207472757374656420736f7572636560801b60648201526084016109a6565b60405162c5803160e81b81526001600160a01b037f0000000000000000000000000000000000000000000000000000000000000000169063c5803100908490612a5c908b9086908c908c908c908c9060040161424f565b6000604051808303818588803b158015612a7557600080fd5b505af1158015612a89573d6000803e3d6000fd5b505050505050505050505050565b6060600185856001600160a01b0389168587604051602001612abe969594939291906142b6565b604051602081830303815290604052905095945050505050565b6000612ae58260016141b5565b83511015612b2b5760405162461bcd60e51b8152602060048201526013602482015272746f55696e74385f6f75744f66426f756e647360681b60448201526064016109a6565b50016001015190565b600080612b4083612f86565b90925090506001600160a01b038216612b595761dead91505b6000612b6482612f51565b9050612b7187848361300b565b9050826001600160a01b03168761ffff167fbf551ec93859b170f9b2141bd9298bf3f64322c6f7beb2543a0cb669834118bf83604051612bb391815260200190565b60405180910390a350505050505050565b6000806000806000612bd58661304f565b945094509450945094506000600660008b61ffff1661ffff16815260200190815260200160002089604051612c0a91906141cd565b90815260408051602092819003830190206001600160401b038b166000908152925281205460ff169150612c3d85612f51565b905081612cab57612c4f8b308361300b565b61ffff8c16600090815260066020526040908190209051919250600191612c77908d906141cd565b90815260408051602092819003830190206001600160401b038d16600090815292529020805460ff19169115159190911790555b6001600160a01b0386163b612d02576040516001600160a01b03871681527f9aedf5fdba8716db3b6705ca00150643309995d4f818a249ed6dde6677e7792d9060200160405180910390a1505050505050506126d1565b8a8a8a8a8a8a868a60008a612d20578b6001600160401b0316612d22565b5a5b9050600080612d545a609663eaffd49a60e01b8e8e8e8d8d8d8d8d604051602401611d1d989796959493929190614317565b915091508115612dad578751602089012060405161ffff8d16907fb8890edbfc1c74692f527444645f95489c3703cc2df42e4a366f5d06fa6cd88490612d9f908e908e90869061438b565b60405180910390a250612dba565b612dba8b8b8b8b856125ba565b50505050505050505050505050505050505050505050565b6040516001600160a01b038316602482015260448101829052612e3590849063a9059cbb60e01b906064015b60408051601f198184030181529190526020810180516001600160e01b03166001600160e01b031990931692909217909152613106565b505050565b6040516001600160a01b03808516602483015283166044820152606481018290526126d19085906323b872dd60e01b90608401612dfe565b6000612e7d836131d8565b61ffff808716600090815260026020908152604080832093891683529290529081205491925090612eaf9084906141b5565b905060008111612f015760405162461bcd60e51b815260206004820152601a60248201527f4c7a4170703a206d696e4761734c696d6974206e6f742073657400000000000060448201526064016109a6565b80821015610d165760405162461bcd60e51b815260206004820152601b60248201527f4c7a4170703a20676173206c696d697420697320746f6f206c6f77000000000060448201526064016109a6565b6000610b947f00000000000000000000000000000000000000000000000000000000000000006001600160401b038416614049565b60008080612f948482612ad8565b60ff16148015612fa5575082516029145b612fec5760405162461bcd60e51b815260206004820152601860248201527713d19510dbdc994e881a5b9d985b1a59081c185e5b1bd85960421b60448201526064016109a6565b612ff783600d613234565b9150613004836021613299565b9050915091565b6000816009600082825461301f9190613f48565b90915550506001600160a01b03831630141561303c575080610e39565b613047308484612388565b949350505050565b6000808060608160016130628783612ad8565b60ff16146130ad5760405162461bcd60e51b815260206004820152601860248201527713d19510dbdc994e881a5b9d985b1a59081c185e5b1bd85960421b60448201526064016109a6565b6130b886600d613234565b93506130c5866021613299565b92506130d28660296132f6565b94506130df866049613299565b90506130fb60518088516130f39190613f48565b8891906121c0565b915091939590929450565b600061315b826040518060400160405280602081526020017f5361666545524332303a206c6f772d6c6576656c2063616c6c206661696c6564815250856001600160a01b03166133549092919063ffffffff16565b805190915015612e35578080602001905181019061317991906143b9565b612e355760405162461bcd60e51b815260206004820152602a60248201527f5361666545524332303a204552433230206f7065726174696f6e20646964206e6044820152691bdd081cdd58d8d9595960b21b60648201526084016109a6565b600060228251101561322c5760405162461bcd60e51b815260206004820152601c60248201527f4c7a4170703a20696e76616c69642061646170746572506172616d730000000060448201526064016109a6565b506022015190565b60006132418260146141b5565b835110156132895760405162461bcd60e51b8152602060048201526015602482015274746f416464726573735f6f75744f66426f756e647360581b60448201526064016109a6565b500160200151600160601b900490565b60006132a68260086141b5565b835110156132ed5760405162461bcd60e51b8152602060048201526014602482015273746f55696e7436345f6f75744f66426f756e647360601b60448201526064016109a6565b50016008015190565b60006133038260206141b5565b8351101561334b5760405162461bcd60e51b8152602060048201526015602482015274746f427974657333325f6f75744f66426f756e647360581b60448201526064016109a6565b50016020015190565b60606130478484600085856001600160a01b0385163b6133b65760405162461bcd60e51b815260206004820152601d60248201527f416464726573733a2063616c6c20746f206e6f6e2d636f6e747261637400000060448201526064016109a6565b600080866001600160a01b031685876040516133d291906141cd565b60006040518083038185875af1925050503d806000811461340f576040519150601f19603f3d011682016040523d82523d6000602084013e613414565b606091505b509150915061342482828661342f565b979650505050505050565b6060831561343e575081610e39565b82511561344e5782518084602001fd5b8160405162461bcd60e51b81526004016109a69190613a70565b82805461347490613db5565b90600052602060002090601f01602090048101928261349657600085556134dc565b82601f106134af57805160ff19168380011785556134dc565b828001600101855582156134dc579182015b828111156134dc5782518255916020019190600101906134c1565b506134e8929150613560565b5090565b8280546134f890613db5565b90600052602060002090601f01602090048101928261351a57600085556134dc565b82601f106135335782800160ff198235161785556134dc565b828001600101855582156134dc579182015b828111156134dc578235825591602001919060010190613545565b5b808211156134e85760008155600101613561565b803561ffff8116811461358757600080fd5b919050565b60008083601f84011261359e57600080fd5b5081356001600160401b038111156135b557600080fd5b6020830191508360208285010111156135cd57600080fd5b9250929050565b80356001600160401b038116811461358757600080fd5b6000806000806000806080878903121561360457600080fd5b61360d87613575565b955060208701356001600160401b038082111561362957600080fd5b6136358a838b0161358c565b909750955085915061364960408a016135d4565b9450606089013591508082111561365f57600080fd5b5061366c89828a0161358c565b979a9699509497509295939492505050565b60006020828403121561369057600080fd5b81356001600160e01b031981168114610e3957600080fd5b6000602082840312156136ba57600080fd5b610e3982613575565b6001600160a01b0381168114611c4157600080fd5b6000606082840312156136ea57600080fd5b50919050565b60008060008060008060c0878903121561370957600080fd5b8635613714816136c3565b955061372260208801613575565b945060408701359350606087013592506080870135915060a08701356001600160401b0381111561375257600080fd5b61375e89828a016136d8565b9150509295509295509295565b8015158114611c4157600080fd5b60008060008060008060a0878903121561379257600080fd5b61379b87613575565b9550602087013594506040870135935060608701356137b98161376b565b925060808701356001600160401b038111156137d457600080fd5b61366c89828a0161358c565b6000806000604084860312156137f557600080fd5b6137fe84613575565b925060208401356001600160401b0381111561381957600080fd5b6138258682870161358c565b9497909650939450505050565b60008060008060008060008060006101008a8c03121561385157600080fd5b893561385c816136c3565b985061386a60208b01613575565b975060408a0135965060608a0135955060808a0135945060a08a01356001600160401b038082111561389b57600080fd5b6138a78d838e0161358c565b90965094508491506138bb60c08d016135d4565b935060e08c01359150808211156138d157600080fd5b506138de8c828d016136d8565b9150509295985092959850929598565b60006020828403121561390057600080fd5b8135610e39816136c3565b634e487b7160e01b600052604160045260246000fd5b604051601f8201601f191681016001600160401b03811182821017156139495761394961390b565b604052919050565b60006001600160401b0382111561396a5761396a61390b565b50601f01601f191660200190565b60008060006060848603121561398d57600080fd5b61399684613575565b925060208401356001600160401b038111156139b157600080fd5b8401601f810186136139c257600080fd5b80356139d56139d082613951565b613921565b8181528760208385010111156139ea57600080fd5b81602084016020830137600060208383010152809450505050613a0f604085016135d4565b90509250925092565b60005b83811015613a33578181015183820152602001613a1b565b838111156126d15750506000910152565b60008151808452613a5c816020860160208601613a18565b601f01601f19169290920160200192915050565b602081526000610e396020830184613a44565b600080600060608486031215613a9857600080fd5b613aa184613575565b92506020840135613ab18161376b565b9150613a0f60408501613575565b60008060408385031215613ad257600080fd5b613adb83613575565b9150613ae960208401613575565b90509250929050565b600080600080600080600080600060e08a8c031215613b1057600080fd5b613b198a613575565b985060208a0135975060408a0135965060608a01356001600160401b0380821115613b4357600080fd5b613b4f8d838e0161358c565b9098509650869150613b6360808d016135d4565b955060a08c01359150613b758261376b565b90935060c08b01359080821115613b8b57600080fd5b50613b988c828d0161358c565b915080935050809150509295985092959850929598565b600080600080600060808688031215613bc757600080fd5b613bd086613575565b9450613bde60208701613575565b93506040860135925060608601356001600160401b03811115613c0057600080fd5b613c0c8882890161358c565b969995985093965092949392505050565b600080600060608486031215613c3257600080fd5b613c3b84613575565b9250613c4960208501613575565b9150604084013590509250925092565b600060208284031215613c6b57600080fd5b8135610e398161376b565b6000806000806000806000806000806101008b8d031215613c9657600080fd5b613c9f8b613575565b995060208b01356001600160401b0380821115613cbb57600080fd5b613cc78e838f0161358c565b909b509950899150613cdb60408e016135d4565b985060608d0135975060808d01359150613cf4826136c3565b90955060a08c0135945060c08c01359080821115613d1157600080fd5b50613d1e8d828e0161358c565b9150809450508092505060e08b013590509295989b9194979a5092959850565b60008060408385031215613d5157600080fd5b613d5a83613575565b946020939093013593505050565b60008060008060808587031215613d7e57600080fd5b613d8785613575565b9350613d9560208601613575565b92506040850135613da5816136c3565b9396929550929360600135925050565b600181811c90821680613dc957607f821691505b602082108114156136ea57634e487b7160e01b600052602260045260246000fd5b8183823760009101908152919050565b6000808335601e19843603018112613e1157600080fd5b8301803591506001600160401b03821115613e2b57600080fd5b6020019150368190038213156135cd57600080fd5b6020808252602d908201527f426173654f4654576974684665653a20616d6f756e74206973206c657373207460408201526c1a185b881b5a5b905b5bdd5b9d609a1b606082015260800190565b81835281816020850137506000828201602090810191909152601f909101601f19169091010190565b61ffff84168152604060208201526000611cec604083018486613e8d565b60208082526025908201527f4665653a20666565206270206d757374206265203c3d2042505f44454e4f4d496040820152642720aa27a960d91b606082015260800190565b600060208284031215613f2b57600080fd5b5051919050565b634e487b7160e01b600052601160045260246000fd5b600082821015613f5a57613f5a613f32565b500390565b8284823760609190911b6bffffffffffffffffffffffff19169101908152601401919050565b600061ffff808816835280871660208401525084604083015260806060830152613424608083018486613e8d565b61ffff86168152608060208201526000613fd1608083018688613e8d565b6001600160401b0394909416604083015250606001529392505050565b61ffff8916815260c06020820152600061400c60c08301898b613e8d565b6001600160401b038816604084015286606084015285608084015282810360a084015261403a818587613e8d565b9b9a5050505050505050505050565b600081600019048311821515161561406357614063613f32565b500290565b634e487b7160e01b600052601260045260246000fd5b60008261408d5761408d614068565b500490565b6000602082840312156140a457600080fd5b81516001600160401b038111156140ba57600080fd5b8201601f810184136140cb57600080fd5b80516140d96139d082613951565b8181528560208385010111156140ee57600080fd5b611cec826020830160208601613a18565b61ffff8516815260806020820152600061411c6080830186613a44565b6001600160401b038516604084015282810360608401526134248185613a44565b61ffff861681526001600160a01b038516602082015260a06040820181905260009061416b90830186613a44565b841515606084015282810360808401526141858185613a44565b98975050505050505050565b600080604083850312156141a457600080fd5b505080516020909101519092909150565b600082198211156141c8576141c8613f32565b500190565b600082516141df818460208701613a18565b9190910192915050565b61ffff8616815260a06020820152600061420660a0830187613a44565b6001600160401b038616604084015282810360608401526142278186613a44565b905082810360808401526141858185613a44565b60008261424a5761424a614068565b500690565b61ffff8716815260c06020820152600061426c60c0830188613a44565b828103604084015261427e8188613a44565b6001600160a01b0387811660608601528616608085015283810360a085015290506142a98185613a44565b9998505050505050505050565b60ff60f81b8760f81b16815285600182015260006001600160401b0360c01b808760c01b166021840152856029840152808560c01b166049840152508251614305816051850160208701613a18565b91909101605101979650505050505050565b600061010061ffff8b1683528060208401526143358184018b613a44565b6001600160401b038a166040850152606084018990526001600160a01b038816608085015260a0840187905283810360c085015290506143758186613a44565b9150508260e08301529998505050505050505050565b60608152600061439e6060830186613a44565b6001600160401b039490941660208301525060400152919050565b6000602082840312156143cb57600080fd5b8151610e398161376b56fea264697066735822122058994cc2e1c152165d05f2c0add9b1667ca791410a2f1e2d91e562f9f4924e2864736f6c634300080c0033",
  "devdoc": {
    "kind": "dev",
    "methods": {
      "circulatingSupply()": {
        "details": "returns the circulating amount of tokens on current chain"
      },
      "estimateSendFee(uint16,bytes32,uint256,bool,bytes)": {
        "details": "estimate send token `_tokenId` to (`_dstChainId`, `_toAddress`) _dstChainId - L0 defined chain id to send tokens too _toAddress - dynamic bytes array which contains the address to whom you are sending tokens to on the dstChain _amount - amount of the tokens to transfer _useZro - indicates to use zro to pay L0 fees _adapterParam - flexible bytes array to indicate messaging adapter services in L0"
      },
      "owner()": {
        "details": "Returns the address of the current owner."
      },
      "renounceOwnership()": {
        "details": "Leaves the contract without owner. It will not be possible to call `onlyOwner` functions anymore. Can only be called by the current owner. NOTE: Renouncing ownership will leave the contract without an owner, thereby removing any functionality that is only available to the owner."
      },
      "sendFrom(address,uint16,bytes32,uint256,uint256,(address,address,bytes))": {
        "details": "send `_amount` amount of token to (`_dstChainId`, `_toAddress`) from `_from` `_from` the owner of token `_dstChainId` the destination chain identifier `_toAddress` can be any size depending on the `dstChainId`. `_amount` the quantity of tokens in wei `_minAmount` the minimum amount of tokens to receive on dstChain `_refundAddress` the address LayerZero refunds if too much message fee is sent `_zroPaymentAddress` set to address(0x0) if not paying in ZRO (LayerZero Token) `_adapterParams` is a flexible bytes array to indicate messaging adapter services"
      },
      "token()": {
        "details": "returns the address of the ERC20 token"
      },
      "transferOwnership(address)": {
        "details": "Transfers ownership of the contract to a new account (`newOwner`). Can only be called by the current owner."
      }
    },
    "version": 1
  },
  "userdoc": {
    "kind": "user",
    "methods": {},
    "version": 1
  },
  "storageLayout": {
    "storage": [
      {
        "astId": 3423,
        "contract": "contracts/BTCbProxyOFT.sol:BTCbProxyOFT",
        "label": "_owner",
        "offset": 0,
        "slot": "0",
        "type": "t_address"
      },
      {
        "astId": 212,
        "contract": "contracts/BTCbProxyOFT.sol:BTCbProxyOFT",
        "label": "trustedRemoteLookup",
        "offset": 0,
        "slot": "1",
        "type": "t_mapping(t_uint16,t_bytes_storage)"
      },
      {
        "astId": 218,
        "contract": "contracts/BTCbProxyOFT.sol:BTCbProxyOFT",
        "label": "minDstGasLookup",
        "offset": 0,
        "slot": "2",
        "type": "t_mapping(t_uint16,t_mapping(t_uint16,t_uint256))"
      },
      {
        "astId": 220,
        "contract": "contracts/BTCbProxyOFT.sol:BTCbProxyOFT",
        "label": "precrime",
        "offset": 0,
        "slot": "3",
        "type": "t_address"
      },
      {
        "astId": 705,
        "contract": "contracts/BTCbProxyOFT.sol:BTCbProxyOFT",
        "label": "failedMessages",
        "offset": 0,
        "slot": "4",
        "type": "t_mapping(t_uint16,t_mapping(t_bytes_memory_ptr,t_mapping(t_uint64,t_bytes32)))"
      },
      {
        "astId": 1031,
        "contract": "contracts/BTCbProxyOFT.sol:BTCbProxyOFT",
        "label": "useCustomAdapterParams",
        "offset": 0,
        "slot": "5",
        "type": "t_bool"
      },
      {
        "astId": 1039,
        "contract": "contracts/BTCbProxyOFT.sol:BTCbProxyOFT",
        "label": "creditedPackets",
        "offset": 0,
        "slot": "6",
        "type": "t_mapping(t_uint16,t_mapping(t_bytes_memory_ptr,t_mapping(t_uint64,t_bool)))"
      },
      {
        "astId": 2265,
        "contract": "contracts/BTCbProxyOFT.sol:BTCbProxyOFT",
        "label": "chainIdToFeeBps",
        "offset": 0,
        "slot": "7",
        "type": "t_mapping(t_uint16,t_struct(FeeConfig)2274_storage)"
      },
      {
        "astId": 2267,
        "contract": "contracts/BTCbProxyOFT.sol:BTCbProxyOFT",
        "label": "defaultFeeBp",
        "offset": 0,
        "slot": "8",
        "type": "t_uint16"
      },
      {
        "astId": 2269,
        "contract": "contracts/BTCbProxyOFT.sol:BTCbProxyOFT",
        "label": "feeOwner",
        "offset": 2,
        "slot": "8",
        "type": "t_address"
      },
      {
        "astId": 2724,
        "contract": "contracts/BTCbProxyOFT.sol:BTCbProxyOFT",
        "label": "outboundAmount",
        "offset": 0,
        "slot": "9",
        "type": "t_uint256"
      }
    ],
    "types": {
      "t_address": {
        "encoding": "inplace",
        "label": "address",
        "numberOfBytes": "20"
      },
      "t_bool": {
        "encoding": "inplace",
        "label": "bool",
        "numberOfBytes": "1"
      },
      "t_bytes32": {
        "encoding": "inplace",
        "label": "bytes32",
        "numberOfBytes": "32"
      },
      "t_bytes_memory_ptr": {
        "encoding": "bytes",
        "label": "bytes",
        "numberOfBytes": "32"
      },
      "t_bytes_storage": {
        "encoding": "bytes",
        "label": "bytes",
        "numberOfBytes": "32"
      },
      "t_mapping(t_bytes_memory_ptr,t_mapping(t_uint64,t_bool))": {
        "encoding": "mapping",
        "key": "t_bytes_memory_ptr",
        "label": "mapping(bytes => mapping(uint64 => bool))",
        "numberOfBytes": "32",
        "value": "t_mapping(t_uint64,t_bool)"
      },
      "t_mapping(t_bytes_memory_ptr,t_mapping(t_uint64,t_bytes32))": {
        "encoding": "mapping",
        "key": "t_bytes_memory_ptr",
        "label": "mapping(bytes => mapping(uint64 => bytes32))",
        "numberOfBytes": "32",
        "value": "t_mapping(t_uint64,t_bytes32)"
      },
      "t_mapping(t_uint16,t_bytes_storage)": {
        "encoding": "mapping",
        "key": "t_uint16",
        "label": "mapping(uint16 => bytes)",
        "numberOfBytes": "32",
        "value": "t_bytes_storage"
      },
      "t_mapping(t_uint16,t_mapping(t_bytes_memory_ptr,t_mapping(t_uint64,t_bool)))": {
        "encoding": "mapping",
        "key": "t_uint16",
        "label": "mapping(uint16 => mapping(bytes => mapping(uint64 => bool)))",
        "numberOfBytes": "32",
        "value": "t_mapping(t_bytes_memory_ptr,t_mapping(t_uint64,t_bool))"
      },
      "t_mapping(t_uint16,t_mapping(t_bytes_memory_ptr,t_mapping(t_uint64,t_bytes32)))": {
        "encoding": "mapping",
        "key": "t_uint16",
        "label": "mapping(uint16 => mapping(bytes => mapping(uint64 => bytes32)))",
        "numberOfBytes": "32",
        "value": "t_mapping(t_bytes_memory_ptr,t_mapping(t_uint64,t_bytes32))"
      },
      "t_mapping(t_uint16,t_mapping(t_uint16,t_uint256))": {
        "encoding": "mapping",
        "key": "t_uint16",
        "label": "mapping(uint16 => mapping(uint16 => uint256))",
        "numberOfBytes": "32",
        "value": "t_mapping(t_uint16,t_uint256)"
      },
      "t_mapping(t_uint16,t_struct(FeeConfig)2274_storage)": {
        "encoding": "mapping",
        "key": "t_uint16",
        "label": "mapping(uint16 => struct Fee.FeeConfig)",
        "numberOfBytes": "32",
        "value": "t_struct(FeeConfig)2274_storage"
      },
      "t_mapping(t_uint16,t_uint256)": {
        "encoding": "mapping",
        "key": "t_uint16",
        "label": "mapping(uint16 => uint256)",
        "numberOfBytes": "32",
        "value": "t_uint256"
      },
      "t_mapping(t_uint64,t_bool)": {
        "encoding": "mapping",
        "key": "t_uint64",
        "label": "mapping(uint64 => bool)",
        "numberOfBytes": "32",
        "value": "t_bool"
      },
      "t_mapping(t_uint64,t_bytes32)": {
        "encoding": "mapping",
        "key": "t_uint64",
        "label": "mapping(uint64 => bytes32)",
        "numberOfBytes": "32",
        "value": "t_bytes32"
      },
      "t_struct(FeeConfig)2274_storage": {
        "encoding": "inplace",
        "label": "struct Fee.FeeConfig",
        "members": [
          {
            "astId": 2271,
            "contract": "contracts/BTCbProxyOFT.sol:BTCbProxyOFT",
            "label": "feeBP",
            "offset": 0,
            "slot": "0",
            "type": "t_uint16"
          },
          {
            "astId": 2273,
            "contract": "contracts/BTCbProxyOFT.sol:BTCbProxyOFT",
            "label": "enabled",
            "offset": 2,
            "slot": "0",
            "type": "t_bool"
          }
        ],
        "numberOfBytes": "32"
      },
      "t_uint16": {
        "encoding": "inplace",
        "label": "uint16",
        "numberOfBytes": "2"
      },
      "t_uint256": {
        "encoding": "inplace",
        "label": "uint256",
        "numberOfBytes": "32"
      },
      "t_uint64": {
        "encoding": "inplace",
        "label": "uint64",
        "numberOfBytes": "8"
      }
    }
  }
}