{
  "address": "0x148DFab73dA1546136F487951F8AF1C3cC57C06D",
  "abi": [
    {
      "inputs": [
        {
          "internalType": "address",
          "name": "_token",
          "type": "address"
        },
        {
          "internalType": "address",
          "name": "_lzEndpoint",
          "type": "address"
        }
      ],
      "stateMutability": "nonpayable",
      "type": "constructor"
    },
    {
      "anonymous": false,
      "inputs": [
        {
          "indexed": false,
          "internalType": "uint16",
          "name": "_srcChainId",
          "type": "uint16"
        },
        {
          "indexed": false,
          "internalType": "bytes",
          "name": "_srcAddress",
          "type": "bytes"
        },
        {
          "indexed": false,
          "internalType": "uint64",
          "name": "_nonce",
          "type": "uint64"
        },
        {
          "indexed": false,
          "internalType": "bytes",
          "name": "_payload",
          "type": "bytes"
        },
        {
          "indexed": false,
          "internalType": "bytes",
          "name": "_reason",
          "type": "bytes"
        }
      ],
      "name": "MessageFailed",
      "type": "event"
    },
    {
      "anonymous": false,
      "inputs": [
        {
          "indexed": true,
          "internalType": "address",
          "name": "previousOwner",
          "type": "address"
        },
        {
          "indexed": true,
          "internalType": "address",
          "name": "newOwner",
          "type": "address"
        }
      ],
      "name": "OwnershipTransferred",
      "type": "event"
    },
    {
      "anonymous": false,
      "inputs": [
        {
          "indexed": true,
          "internalType": "uint16",
          "name": "_srcChainId",
          "type": "uint16"
        },
        {
          "indexed": true,
          "internalType": "address",
          "name": "_to",
          "type": "address"
        },
        {
          "indexed": false,
          "internalType": "uint256",
          "name": "_amount",
          "type": "uint256"
        }
      ],
      "name": "ReceiveFromChain",
      "type": "event"
    },
    {
      "anonymous": false,
      "inputs": [
        {
          "indexed": false,
          "internalType": "uint16",
          "name": "_srcChainId",
          "type": "uint16"
        },
        {
          "indexed": false,
          "internalType": "bytes",
          "name": "_srcAddress",
          "type": "bytes"
        },
        {
          "indexed": false,
          "internalType": "uint64",
          "name": "_nonce",
          "type": "uint64"
        },
        {
          "indexed": false,
          "internalType": "bytes32",
          "name": "_payloadHash",
          "type": "bytes32"
        }
      ],
      "name": "RetryMessageSuccess",
      "type": "event"
    },
    {
      "anonymous": false,
      "inputs": [
        {
          "indexed": true,
          "internalType": "uint16",
          "name": "_dstChainId",
          "type": "uint16"
        },
        {
          "indexed": true,
          "internalType": "address",
          "name": "_from",
          "type": "address"
        },
        {
          "indexed": false,
          "internalType": "bytes",
          "name": "_toAddress",
          "type": "bytes"
        },
        {
          "indexed": false,
          "internalType": "uint256",
          "name": "_amount",
          "type": "uint256"
        }
      ],
      "name": "SendToChain",
      "type": "event"
    },
    {
      "anonymous": false,
      "inputs": [
        {
          "indexed": false,
          "internalType": "uint256",
          "name": "feeBp",
          "type": "uint256"
        }
      ],
      "name": "SetDefaultFeeBp",
      "type": "event"
    },
    {
      "anonymous": false,
      "inputs": [
        {
          "indexed": false,
          "internalType": "uint16",
          "name": "dstchainId",
          "type": "uint16"
        },
        {
          "indexed": false,
          "internalType": "bool",
          "name": "enabled",
          "type": "bool"
        },
        {
          "indexed": false,
          "internalType": "uint16",
          "name": "feeBp",
          "type": "uint16"
        }
      ],
      "name": "SetFeeBp",
      "type": "event"
    },
    {
      "anonymous": false,
      "inputs": [
        {
          "indexed": false,
          "internalType": "address",
          "name": "feeOwner",
          "type": "address"
        }
      ],
      "name": "SetFeeOwner",
      "type": "event"
    },
    {
      "anonymous": false,
      "inputs": [
        {
          "indexed": false,
          "internalType": "uint16",
          "name": "_dstChainId",
          "type": "uint16"
        },
        {
          "indexed": false,
          "internalType": "uint16",
          "name": "_type",
          "type": "uint16"
        },
        {
          "indexed": false,
          "internalType": "uint256",
          "name": "_minDstGas",
          "type": "uint256"
        }
      ],
      "name": "SetMinDstGas",
      "type": "event"
    },
    {
      "anonymous": false,
      "inputs": [
        {
          "indexed": false,
          "internalType": "address",
          "name": "precrime",
          "type": "address"
        }
      ],
      "name": "SetPrecrime",
      "type": "event"
    },
    {
      "anonymous": false,
      "inputs": [
        {
          "indexed": false,
          "internalType": "uint16",
          "name": "_remoteChainId",
          "type": "uint16"
        },
        {
          "indexed": false,
          "internalType": "bytes",
          "name": "_path",
          "type": "bytes"
        }
      ],
      "name": "SetTrustedRemote",
      "type": "event"
    },
    {
      "anonymous": false,
      "inputs": [
        {
          "indexed": false,
          "internalType": "uint16",
          "name": "_remoteChainId",
          "type": "uint16"
        },
        {
          "indexed": false,
          "internalType": "bytes",
          "name": "_remoteAddress",
          "type": "bytes"
        }
      ],
      "name": "SetTrustedRemoteAddress",
      "type": "event"
    },
    {
      "anonymous": false,
      "inputs": [
        {
          "indexed": false,
          "internalType": "bool",
          "name": "_useCustomAdapterParams",
          "type": "bool"
        }
      ],
      "name": "SetUseCustomAdapterParams",
      "type": "event"
    },
    {
      "inputs": [],
      "name": "BP_DENOMINATOR",
      "outputs": [
        {
          "internalType": "uint256",
          "name": "",
          "type": "uint256"
        }
      ],
      "stateMutability": "view",
      "type": "function"
    },
    {
      "inputs": [],
      "name": "NO_EXTRA_GAS",
      "outputs": [
        {
          "internalType": "uint256",
          "name": "",
          "type": "uint256"
        }
      ],
      "stateMutability": "view",
      "type": "function"
    },
    {
      "inputs": [],
      "name": "PT_SEND",
      "outputs": [
        {
          "internalType": "uint8",
          "name": "",
          "type": "uint8"
        }
      ],
      "stateMutability": "view",
      "type": "function"
    },
    {
      "inputs": [
        {
          "internalType": "uint16",
          "name": "",
          "type": "uint16"
        }
      ],
      "name": "chainIdToFeeBps",
      "outputs": [
        {
          "internalType": "uint16",
          "name": "feeBP",
          "type": "uint16"
        },
        {
          "internalType": "bool",
          "name": "enabled",
          "type": "bool"
        }
      ],
      "stateMutability": "view",
      "type": "function"
    },
    {
      "inputs": [],
      "name": "circulatingSupply",
      "outputs": [
        {
          "internalType": "uint256",
          "name": "",
          "type": "uint256"
        }
      ],
      "stateMutability": "view",
      "type": "function"
    },
    {
      "inputs": [],
      "name": "defaultFeeBp",
      "outputs": [
        {
          "internalType": "uint16",
          "name": "",
          "type": "uint16"
        }
      ],
      "stateMutability": "view",
      "type": "function"
    },
    {
      "inputs": [
        {
          "internalType": "uint16",
          "name": "_dstChainId",
          "type": "uint16"
        },
        {
          "internalType": "bytes",
          "name": "_toAddress",
          "type": "bytes"
        },
        {
          "internalType": "uint256",
          "name": "_amount",
          "type": "uint256"
        },
        {
          "internalType": "bool",
          "name": "_useZro",
          "type": "bool"
        },
        {
          "internalType": "bytes",
          "name": "_adapterParams",
          "type": "bytes"
        }
      ],
      "name": "estimateSendFee",
      "outputs": [
        {
          "internalType": "uint256",
          "name": "nativeFee",
          "type": "uint256"
        },
        {
          "internalType": "uint256",
          "name": "zroFee",
          "type": "uint256"
        }
      ],
      "stateMutability": "view",
      "type": "function"
    },
    {
      "inputs": [
        {
          "internalType": "uint16",
          "name": "",
          "type": "uint16"
        },
        {
          "internalType": "bytes",
          "name": "",
          "type": "bytes"
        },
        {
          "internalType": "uint64",
          "name": "",
          "type": "uint64"
        }
      ],
      "name": "failedMessages",
      "outputs": [
        {
          "internalType": "bytes32",
          "name": "",
          "type": "bytes32"
        }
      ],
      "stateMutability": "view",
      "type": "function"
    },
    {
      "inputs": [],
      "name": "feeOwner",
      "outputs": [
        {
          "internalType": "address",
          "name": "",
          "type": "address"
        }
      ],
      "stateMutability": "view",
      "type": "function"
    },
    {
      "inputs": [
        {
          "internalType": "uint16",
          "name": "_srcChainId",
          "type": "uint16"
        },
        {
          "internalType": "bytes",
          "name": "_srcAddress",
          "type": "bytes"
        }
      ],
      "name": "forceResumeReceive",
      "outputs": [],
      "stateMutability": "nonpayable",
      "type": "function"
    },
    {
      "inputs": [
        {
          "internalType": "uint16",
          "name": "_version",
          "type": "uint16"
        },
        {
          "internalType": "uint16",
          "name": "_chainId",
          "type": "uint16"
        },
        {
          "internalType": "address",
          "name": "",
          "type": "address"
        },
        {
          "internalType": "uint256",
          "name": "_configType",
          "type": "uint256"
        }
      ],
      "name": "getConfig",
      "outputs": [
        {
          "internalType": "bytes",
          "name": "",
          "type": "bytes"
        }
      ],
      "stateMutability": "view",
      "type": "function"
    },
    {
      "inputs": [
        {
          "internalType": "uint16",
          "name": "_remoteChainId",
          "type": "uint16"
        }
      ],
      "name": "getTrustedRemoteAddress",
      "outputs": [
        {
          "internalType": "bytes",
          "name": "",
          "type": "bytes"
        }
      ],
      "stateMutability": "view",
      "type": "function"
    },
    {
      "inputs": [
        {
          "internalType": "uint16",
          "name": "_srcChainId",
          "type": "uint16"
        },
        {
          "internalType": "bytes",
          "name": "_srcAddress",
          "type": "bytes"
        }
      ],
      "name": "isTrustedRemote",
      "outputs": [
        {
          "internalType": "bool",
          "name": "",
          "type": "bool"
        }
      ],
      "stateMutability": "view",
      "type": "function"
    },
    {
      "inputs": [],
      "name": "lzEndpoint",
      "outputs": [
        {
          "internalType": "contract ILayerZeroEndpoint",
          "name": "",
          "type": "address"
        }
      ],
      "stateMutability": "view",
      "type": "function"
    },
    {
      "inputs": [
        {
          "internalType": "uint16",
          "name": "_srcChainId",
          "type": "uint16"
        },
        {
          "internalType": "bytes",
          "name": "_srcAddress",
          "type": "bytes"
        },
        {
          "internalType": "uint64",
          "name": "_nonce",
          "type": "uint64"
        },
        {
          "internalType": "bytes",
          "name": "_payload",
          "type": "bytes"
        }
      ],
      "name": "lzReceive",
      "outputs": [],
      "stateMutability": "nonpayable",
      "type": "function"
    },
    {
      "inputs": [
        {
          "internalType": "uint16",
          "name": "",
          "type": "uint16"
        },
        {
          "internalType": "uint16",
          "name": "",
          "type": "uint16"
        }
      ],
      "name": "minDstGasLookup",
      "outputs": [
        {
          "internalType": "uint256",
          "name": "",
          "type": "uint256"
        }
      ],
      "stateMutability": "view",
      "type": "function"
    },
    {
      "inputs": [
        {
          "internalType": "uint16",
          "name": "_srcChainId",
          "type": "uint16"
        },
        {
          "internalType": "bytes",
          "name": "_srcAddress",
          "type": "bytes"
        },
        {
          "internalType": "uint64",
          "name": "_nonce",
          "type": "uint64"
        },
        {
          "internalType": "bytes",
          "name": "_payload",
          "type": "bytes"
        }
      ],
      "name": "nonblockingLzReceive",
      "outputs": [],
      "stateMutability": "nonpayable",
      "type": "function"
    },
    {
      "inputs": [],
      "name": "outboundAmountSD",
      "outputs": [
        {
          "internalType": "uint64",
          "name": "",
          "type": "uint64"
        }
      ],
      "stateMutability": "view",
      "type": "function"
    },
    {
      "inputs": [],
      "name": "owner",
      "outputs": [
        {
          "internalType": "address",
          "name": "",
          "type": "address"
        }
      ],
      "stateMutability": "view",
      "type": "function"
    },
    {
      "inputs": [],
      "name": "precrime",
      "outputs": [
        {
          "internalType": "address",
          "name": "",
          "type": "address"
        }
      ],
      "stateMutability": "view",
      "type": "function"
    },
    {
      "inputs": [
        {
          "internalType": "uint16",
          "name": "_dstChainId",
          "type": "uint16"
        },
        {
          "internalType": "uint256",
          "name": "_amount",
          "type": "uint256"
        }
      ],
      "name": "quoteOFTFee",
      "outputs": [
        {
          "internalType": "uint256",
          "name": "fee",
          "type": "uint256"
        }
      ],
      "stateMutability": "view",
      "type": "function"
    },
    {
      "inputs": [],
      "name": "renounceOwnership",
      "outputs": [],
      "stateMutability": "nonpayable",
      "type": "function"
    },
    {
      "inputs": [
        {
          "internalType": "uint16",
          "name": "_srcChainId",
          "type": "uint16"
        },
        {
          "internalType": "bytes",
          "name": "_srcAddress",
          "type": "bytes"
        },
        {
          "internalType": "uint64",
          "name": "_nonce",
          "type": "uint64"
        },
        {
          "internalType": "bytes",
          "name": "_payload",
          "type": "bytes"
        }
      ],
      "name": "retryMessage",
      "outputs": [],
      "stateMutability": "payable",
      "type": "function"
    },
    {
      "inputs": [
        {
          "internalType": "address",
          "name": "_from",
          "type": "address"
        },
        {
          "internalType": "uint16",
          "name": "_dstChainId",
          "type": "uint16"
        },
        {
          "internalType": "bytes",
          "name": "_toAddress",
          "type": "bytes"
        },
        {
          "internalType": "uint256",
          "name": "_amount",
          "type": "uint256"
        },
        {
          "internalType": "address payable",
          "name": "_refundAddress",
          "type": "address"
        },
        {
          "internalType": "address",
          "name": "_zroPaymentAddress",
          "type": "address"
        },
        {
          "internalType": "bytes",
          "name": "_adapterParams",
          "type": "bytes"
        }
      ],
      "name": "sendFrom",
      "outputs": [],
      "stateMutability": "payable",
      "type": "function"
    },
    {
      "inputs": [
        {
          "internalType": "uint16",
          "name": "_version",
          "type": "uint16"
        },
        {
          "internalType": "uint16",
          "name": "_chainId",
          "type": "uint16"
        },
        {
          "internalType": "uint256",
          "name": "_configType",
          "type": "uint256"
        },
        {
          "internalType": "bytes",
          "name": "_config",
          "type": "bytes"
        }
      ],
      "name": "setConfig",
      "outputs": [],
      "stateMutability": "nonpayable",
      "type": "function"
    },
    {
      "inputs": [
        {
          "internalType": "uint16",
          "name": "_feeBp",
          "type": "uint16"
        }
      ],
      "name": "setDefaultFeeBp",
      "outputs": [],
      "stateMutability": "nonpayable",
      "type": "function"
    },
    {
      "inputs": [
        {
          "internalType": "uint16",
          "name": "_dstChainId",
          "type": "uint16"
        },
        {
          "internalType": "bool",
          "name": "_enabled",
          "type": "bool"
        },
        {
          "internalType": "uint16",
          "name": "_feeBp",
          "type": "uint16"
        }
      ],
      "name": "setFeeBp",
      "outputs": [],
      "stateMutability": "nonpayable",
      "type": "function"
    },
    {
      "inputs": [
        {
          "internalType": "address",
          "name": "_feeOwner",
          "type": "address"
        }
      ],
      "name": "setFeeOwner",
      "outputs": [],
      "stateMutability": "nonpayable",
      "type": "function"
    },
    {
      "inputs": [
        {
          "internalType": "uint16",
          "name": "_dstChainId",
          "type": "uint16"
        },
        {
          "internalType": "uint16",
          "name": "_packetType",
          "type": "uint16"
        },
        {
          "internalType": "uint256",
          "name": "_minGas",
          "type": "uint256"
        }
      ],
      "name": "setMinDstGas",
      "outputs": [],
      "stateMutability": "nonpayable",
      "type": "function"
    },
    {
      "inputs": [
        {
          "internalType": "address",
          "name": "_precrime",
          "type": "address"
        }
      ],
      "name": "setPrecrime",
      "outputs": [],
      "stateMutability": "nonpayable",
      "type": "function"
    },
    {
      "inputs": [
        {
          "internalType": "uint16",
          "name": "_version",
          "type": "uint16"
        }
      ],
      "name": "setReceiveVersion",
      "outputs": [],
      "stateMutability": "nonpayable",
      "type": "function"
    },
    {
      "inputs": [
        {
          "internalType": "uint16",
          "name": "_version",
          "type": "uint16"
        }
      ],
      "name": "setSendVersion",
      "outputs": [],
      "stateMutability": "nonpayable",
      "type": "function"
    },
    {
      "inputs": [
        {
          "internalType": "uint16",
          "name": "_srcChainId",
          "type": "uint16"
        },
        {
          "internalType": "bytes",
          "name": "_path",
          "type": "bytes"
        }
      ],
      "name": "setTrustedRemote",
      "outputs": [],
      "stateMutability": "nonpayable",
      "type": "function"
    },
    {
      "inputs": [
        {
          "internalType": "uint16",
          "name": "_remoteChainId",
          "type": "uint16"
        },
        {
          "internalType": "bytes",
          "name": "_remoteAddress",
          "type": "bytes"
        }
      ],
      "name": "setTrustedRemoteAddress",
      "outputs": [],
      "stateMutability": "nonpayable",
      "type": "function"
    },
    {
      "inputs": [
        {
          "internalType": "bool",
          "name": "_useCustomAdapterParams",
          "type": "bool"
        }
      ],
      "name": "setUseCustomAdapterParams",
      "outputs": [],
      "stateMutability": "nonpayable",
      "type": "function"
    },
    {
      "inputs": [],
      "name": "sharedDecimals",
      "outputs": [
        {
          "internalType": "uint8",
          "name": "",
          "type": "uint8"
        }
      ],
      "stateMutability": "view",
      "type": "function"
    },
    {
      "inputs": [
        {
          "internalType": "bytes4",
          "name": "interfaceId",
          "type": "bytes4"
        }
      ],
      "name": "supportsInterface",
      "outputs": [
        {
          "internalType": "bool",
          "name": "",
          "type": "bool"
        }
      ],
      "stateMutability": "view",
      "type": "function"
    },
    {
      "inputs": [],
      "name": "token",
      "outputs": [
        {
          "internalType": "address",
          "name": "",
          "type": "address"
        }
      ],
      "stateMutability": "view",
      "type": "function"
    },
    {
      "inputs": [
        {
          "internalType": "address",
          "name": "newOwner",
          "type": "address"
        }
      ],
      "name": "transferOwnership",
      "outputs": [],
      "stateMutability": "nonpayable",
      "type": "function"
    },
    {
      "inputs": [
        {
          "internalType": "uint16",
          "name": "",
          "type": "uint16"
        }
      ],
      "name": "trustedRemoteLookup",
      "outputs": [
        {
          "internalType": "bytes",
          "name": "",
          "type": "bytes"
        }
      ],
      "stateMutability": "view",
      "type": "function"
    },
    {
      "inputs": [],
      "name": "useCustomAdapterParams",
      "outputs": [
        {
          "internalType": "bool",
          "name": "",
          "type": "bool"
        }
      ],
      "stateMutability": "view",
      "type": "function"
    }
  ],
  "transactionHash": "0xa5ce364c624394333efd6e244a6118a1f986ddc5bcebeffda674f6491bd98ac0",
  "args": [
    "0x7846b795dAfeaab41AE2D2624289DADFfF69D2BB",
    "0x93f54D755A063cE7bB9e6Ac47Eccc8e33411d706"
  ],
  "numDeployments": 1,
  "solcInputHash": "f3fc90fd4ce920d14a6e393993e40b02",
  "bytecode": "0x6101006040523480156200001257600080fd5b5060405162003e6c38038062003e6c8339810160408190526200003591620002a2565b8160088281818080620000483362000235565b6001600160a01b031660805250620000686000546001600160a01b031690565b600680546001600160a01b03928316620100000262010000600160b01b031990911617905560ff90921660a05250831660c081905260408051600481526024810182526020810180516001600160e01b031663313ce56760e01b179052905160009283929091620000da9190620002da565b600060405180830381855afa9150503d806000811462000117576040519150601f19603f3d011682016040523d82523d6000602084013e6200011c565b606091505b509150915081620001835760405162461bcd60e51b815260206004820152602660248201527f50726f78794f46543a206661696c656420746f2067657420746f6b656e20646560448201526563696d616c7360d01b60648201526084015b60405180910390fd5b6000818060200190518101906200019b919062000318565b90508060ff168560ff1611156200020a5760405162461bcd60e51b815260206004820152602c60248201527f50726f78794f46543a20736861726564446563696d616c73206d75737420626560448201526b203c3d20646563696d616c7360a01b60648201526084016200017a565b6200021685826200035a565b6200022390600a6200047f565b60e05250620004909650505050505050565b600080546001600160a01b038381166001600160a01b0319831681178455604051919092169283917f8be0079c531659141344cd1fd0a4f28419497f9722a3daafe3b4186f6b6457e09190a35050565b80516001600160a01b03811681146200029d57600080fd5b919050565b60008060408385031215620002b657600080fd5b620002c18362000285565b9150620002d16020840162000285565b90509250929050565b6000825160005b81811015620002fd5760208186018101518583015201620002e1565b818111156200030d576000828501525b509190910192915050565b6000602082840312156200032b57600080fd5b815160ff811681146200033d57600080fd5b9392505050565b634e487b7160e01b600052601160045260246000fd5b600060ff821660ff84168082101562000377576200037762000344565b90039392505050565b600181815b80851115620003c1578160001904821115620003a557620003a562000344565b80851615620003b357918102915b93841c939080029062000385565b509250929050565b600082620003da5750600162000479565b81620003e95750600062000479565b81600181146200040257600281146200040d576200042d565b600191505062000479565b60ff84111562000421576200042162000344565b50506001821b62000479565b5060208310610133831016604e8410600b841016171562000452575081810a62000479565b6200045e838362000380565b806000190482111562000475576200047562000344565b0290505b92915050565b60006200033d60ff841683620003c9565b60805160a05160c05160e05161392b6200054160003960008181611c28015281816120aa015261282801526000818161084d015281816112180152818161128d015281816121040152818161219301528181612236015281816127070152612863015260006104d601526000818161063e0152818161087401528181610afa01528181610b8301528181610c2301528181610d9f0152818161151e01528181611a3c0152612467015261392b6000f3fe6080604052600436106102455760003560e01c80639358928b11610139578063cbed8b9c116100b6578063eb8d72b71161007a578063eb8d72b71461079d578063ecd8f212146107bd578063ed629c5c146107dd578063f2fde38b146107fe578063f5ecbdbc1461081e578063fc0c546a1461083e57600080fd5b8063cbed8b9c146106fc578063d1deba1f1461071c578063d88829681461072f578063df2a5b3b1461075d578063eab45d9c1461077d57600080fd5b8063abe685cd116100fd578063abe685cd14610616578063b353aaa71461062c578063b9818be114610660578063baf3292d14610686578063c83330ce146106a657600080fd5b80639358928b14610562578063950c8a74146105775780639f38369a14610597578063a65f9273146105b7578063a6c3d165146105f657600080fd5b806351905636116101c75780637533d7881161018b5780637533d7881461047757806379c0ad4b146104a4578063857749b0146104c45780638cfd8f5c146104f85780638da5cb5b1461053057600080fd5b806351905636146103c05780635a359dc5146103d35780635b8c41e6146103f357806366ad5c8a14610442578063715018a61461046257600080fd5b80633d8b38f61161020e5780633d8b38f61461031657806342d65a8d1461033657806344770515146103565780634b104eff146103795780634c42899a1461039957600080fd5b80621d35671461024a57806301ffc9a71461026c57806307e0db17146102a157806310ddb137146102c15780632a205e3d146102e1575b600080fd5b34801561025657600080fd5b5061026a610265366004612e0a565b610871565b005b34801561027857600080fd5b5061028c610287366004612e9d565b610aa2565b60405190151581526020015b60405180910390f35b3480156102ad57600080fd5b5061026a6102bc366004612ec7565b610ad9565b3480156102cd57600080fd5b5061026a6102dc366004612ec7565b610b62565b3480156102ed57600080fd5b506103016102fc366004612ef0565b610bba565b60408051928352602083019190915201610298565b34801561032257600080fd5b5061028c610331366004612f8e565b610cb3565b34801561034257600080fd5b5061026a610351366004612f8e565b610d80565b34801561036257600080fd5b5061036b600081565b604051908152602001610298565b34801561038557600080fd5b5061026a610394366004612ff5565b610e06565b3480156103a557600080fd5b506103ae600081565b60405160ff9091168152602001610298565b61026a6103ce366004613012565b610ec3565b3480156103df57600080fd5b5061026a6103ee366004612ec7565b610f48565b3480156103ff57600080fd5b5061036b61040e366004613146565b6004602090815260009384526040808520845180860184018051928152908401958401959095209452929052825290205481565b34801561044e57600080fd5b5061026a61045d366004612e0a565b610fba565b34801561046e57600080fd5b5061026a611096565b34801561048357600080fd5b50610497610492366004612ec7565b6110aa565b604051610298919061323e565b3480156104b057600080fd5b5061026a6104bf366004613251565b611144565b3480156104d057600080fd5b506103ae7f000000000000000000000000000000000000000000000000000000000000000081565b34801561050457600080fd5b5061036b61051336600461328d565b600260209081526000928352604080842090915290825290205481565b34801561053c57600080fd5b506000546001600160a01b03165b6040516001600160a01b039091168152602001610298565b34801561056e57600080fd5b5061036b611200565b34801561058357600080fd5b5060035461054a906001600160a01b031681565b3480156105a357600080fd5b506104976105b2366004612ec7565b611313565b3480156105c357600080fd5b506006546105de90600160b81b90046001600160401b031681565b6040516001600160401b039091168152602001610298565b34801561060257600080fd5b5061026a610611366004612f8e565b611423565b34801561062257600080fd5b5061036b61271081565b34801561063857600080fd5b5061054a7f000000000000000000000000000000000000000000000000000000000000000081565b34801561066c57600080fd5b5060065461054a906201000090046001600160a01b031681565b34801561069257600080fd5b5061026a6106a1366004612ff5565b6114a9565b3480156106b257600080fd5b506106e26106c1366004612ec7565b60056020526000908152604090205461ffff81169062010000900460ff1682565b6040805161ffff9093168352901515602083015201610298565b34801561070857600080fd5b5061026a6107173660046132c0565b6114ff565b61026a61072a366004612e0a565b611589565b34801561073b57600080fd5b5060065461074a9061ffff1681565b60405161ffff9091168152602001610298565b34801561076957600080fd5b5061026a61077836600461332e565b61179f565b34801561078957600080fd5b5061026a61079836600461336a565b611851565b3480156107a957600080fd5b5061026a6107b8366004612f8e565b6118a6565b3480156107c957600080fd5b5061036b6107d8366004613387565b611900565b3480156107e957600080fd5b5060065461028c90600160b01b900460ff1681565b34801561080a57600080fd5b5061026a610819366004612ff5565b611992565b34801561082a57600080fd5b506104976108393660046133b1565b611a0b565b34801561084a57600080fd5b507f000000000000000000000000000000000000000000000000000000000000000061054a565b337f00000000000000000000000000000000000000000000000000000000000000006001600160a01b0316146108ee5760405162461bcd60e51b815260206004820152601e60248201527f4c7a4170703a20696e76616c696420656e64706f696e742063616c6c6572000060448201526064015b60405180910390fd5b61ffff86166000908152600160205260408120805461090c906133fe565b80601f0160208091040260200160405190810160405280929190818152602001828054610938906133fe565b80156109855780601f1061095a57610100808354040283529160200191610985565b820191906000526020600020905b81548152906001019060200180831161096857829003601f168201915b505050505090508051868690501480156109a0575060008151115b80156109c85750805160208201206040516109be9088908890613439565b6040518091039020145b610a235760405162461bcd60e51b815260206004820152602660248201527f4c7a4170703a20696e76616c696420736f757263652073656e64696e6720636f6044820152651b9d1c9858dd60d21b60648201526084016108e5565b610a998787878080601f01602080910402602001604051908101604052809392919081815260200183838082843760009201919091525050604080516020601f8a018190048102820181019092528881528a935091508890889081908401838280828437600092019190915250611abc92505050565b50505050505050565b60006001600160e01b03198216630a72677560e11b1480610ad357506301ffc9a760e01b6001600160e01b03198316145b92915050565b610ae1611bc6565b6040516307e0db1760e01b815261ffff821660048201527f00000000000000000000000000000000000000000000000000000000000000006001600160a01b0316906307e0db17906024015b600060405180830381600087803b158015610b4757600080fd5b505af1158015610b5b573d6000803e3d6000fd5b5050505050565b610b6a611bc6565b6040516310ddb13760e01b815261ffff821660048201527f00000000000000000000000000000000000000000000000000000000000000006001600160a01b0316906310ddb13790602401610b2d565b6000806000610c0989898080601f016020809104026020016040519081016040528093929190818152602001838380828437600092019190915250610c0492508b9150611c209050565b611ca6565b60405163040a7bb160e41b81529091506001600160a01b037f000000000000000000000000000000000000000000000000000000000000000016906340a7bb1090610c62908d90309086908c908c908c90600401613472565b6040805180830381865afa158015610c7e573d6000803e3d6000fd5b505050506040513d601f19601f82011682018060405250810190610ca291906134c8565b925092505097509795505050505050565b61ffff831660009081526001602052604081208054829190610cd4906133fe565b80601f0160208091040260200160405190810160405280929190818152602001828054610d00906133fe565b8015610d4d5780601f10610d2257610100808354040283529160200191610d4d565b820191906000526020600020905b815481529060010190602001808311610d3057829003601f168201915b505050505090508383604051610d64929190613439565b60405180910390208180519060200120149150505b9392505050565b610d88611bc6565b6040516342d65a8d60e01b81526001600160a01b037f000000000000000000000000000000000000000000000000000000000000000016906342d65a8d90610dd8908690869086906004016134ec565b600060405180830381600087803b158015610df257600080fd5b505af1158015610a99573d6000803e3d6000fd5b610e0e611bc6565b6001600160a01b038116610e645760405162461bcd60e51b815260206004820152601d60248201527f4f46544665653a206665654f776e65722063616e6e6f7420626520307800000060448201526064016108e5565b6006805462010000600160b01b031916620100006001600160a01b038416908102919091179091556040519081527f047912631afa564eebd3db2efe191a0dec62da1fede6bbbc1ffc89d87845b1b5906020015b60405180910390a150565b610f3d898989898080601f01602080910402602001604051908101604052809392919081815260200183838082843760009201919091525050604080516020601f8a018190048102820181019092528881528c93508b92508a918a908a9081908401838280828437600092019190915250611cd592505050565b505050505050505050565b610f50611bc6565b6127108161ffff161115610f765760405162461bcd60e51b81526004016108e59061350a565b6006805461ffff191661ffff83169081179091556040519081527fd56fd0f83a512cb4e34baf78b277f71fe2e27ccfc0e1c469c345f4cee340766290602001610eb8565b3330146110185760405162461bcd60e51b815260206004820152602660248201527f4e6f6e626c6f636b696e674c7a4170703a2063616c6c6572206d7573742062656044820152650204c7a4170760d41b60648201526084016108e5565b61108e8686868080601f01602080910402602001604051908101604052809392919081815260200183838082843760009201919091525050604080516020601f890181900481028201810190925287815289935091508790879081908401838280828437600092019190915250611d7e92505050565b505050505050565b61109e611bc6565b6110a86000611ded565b565b600160205260009081526040902080546110c3906133fe565b80601f01602080910402602001604051908101604052809291908181526020018280546110ef906133fe565b801561113c5780601f106111115761010080835404028352916020019161113c565b820191906000526020600020905b81548152906001019060200180831161111f57829003601f168201915b505050505081565b61114c611bc6565b6127108161ffff1611156111725760405162461bcd60e51b81526004016108e59061350a565b60408051808201825261ffff83811680835285151560208085018281528985166000818152600584528890209651875492511515620100000262ffffff1990931696169590951717909455845192835292820192909252918201527fdd9c9685af3e6dcb56d8f4b88d2595d4add6837a150034e7781c46b6dcf8aaab906060015b60405180910390a1505050565b6040516370a0823160e01b81523060048201526000907f00000000000000000000000000000000000000000000000000000000000000006001600160a01b0316906370a0823190602401602060405180830381865afa158015611267573d6000803e3d6000fd5b505050506040513d601f19601f8201168201806040525081019061128b9190613552565b7f00000000000000000000000000000000000000000000000000000000000000006001600160a01b03166318160ddd6040518163ffffffff1660e01b8152600401602060405180830381865afa1580156112e9573d6000803e3d6000fd5b505050506040513d601f19601f8201168201806040525081019061130d9190613552565b03905090565b61ffff8116600090815260016020526040812080546060929190611336906133fe565b80601f0160208091040260200160405190810160405280929190818152602001828054611362906133fe565b80156113af5780601f10611384576101008083540402835291602001916113af565b820191906000526020600020905b81548152906001019060200180831161139257829003601f168201915b505050505090508051600014156114085760405162461bcd60e51b815260206004820152601d60248201527f4c7a4170703a206e6f20747275737465642070617468207265636f726400000060448201526064016108e5565b610d7960006014835161141b9190613581565b839190611e3d565b61142b611bc6565b81813060405160200161144093929190613598565b60408051601f1981840301815291815261ffff8516600090815260016020908152919020825161147593919290910190612c87565b507f8c0400cfe2d1199b1a725c78960bcc2a344d869b80590d0f2bd005db15a572ce8383836040516111f3939291906134ec565b6114b1611bc6565b600380546001600160a01b0319166001600160a01b0383169081179091556040519081527f5db758e995a17ec1ad84bdef7e8c3293a0bd6179bcce400dff5d4c3d87db726b90602001610eb8565b611507611bc6565b6040516332fb62e760e21b81526001600160a01b037f0000000000000000000000000000000000000000000000000000000000000000169063cbed8b9c9061155b90889088908890889088906004016135be565b600060405180830381600087803b15801561157557600080fd5b505af1158015610f3d573d6000803e3d6000fd5b61ffff861660009081526004602052604080822090516115ac9088908890613439565b90815260408051602092819003830190206001600160401b0387166000908152925290205490508061162c5760405162461bcd60e51b815260206004820152602360248201527f4e6f6e626c6f636b696e674c7a4170703a206e6f2073746f726564206d65737360448201526261676560e81b60648201526084016108e5565b80838360405161163d929190613439565b60405180910390201461169c5760405162461bcd60e51b815260206004820152602160248201527f4e6f6e626c6f636b696e674c7a4170703a20696e76616c6964207061796c6f616044820152601960fa1b60648201526084016108e5565b61ffff871660009081526004602052604080822090516116bf9089908990613439565b90815260408051602092819003830181206001600160401b038916600090815290845282902093909355601f88018290048202830182019052868252611757918991899089908190840183828082843760009201919091525050604080516020601f8a018190048102820181019092528881528a935091508890889081908401838280828437600092019190915250611d7e92505050565b7fc264d91f3adc5588250e1551f547752ca0cfa8f6b530d243b9f9f4cab10ea8e5878787878560405161178e9594939291906135ec565b60405180910390a150505050505050565b6117a7611bc6565b600081116117ef5760405162461bcd60e51b81526020600482015260156024820152744c7a4170703a20696e76616c6964206d696e47617360581b60448201526064016108e5565b61ffff83811660008181526002602090815260408083209487168084529482529182902085905581519283528201929092529081018290527f9d5c7c0b934da8fefa9c7760c98383778a12dfbfc0c3b3106518f43fb9508ac0906060016111f3565b611859611bc6565b60068054821515600160b01b0260ff60b01b199091161790556040517f1584ad594a70cbe1e6515592e1272a987d922b097ead875069cebe8b40c004a490610eb890831515815260200190565b6118ae611bc6565b61ffff831660009081526001602052604090206118cc908383612d0b565b507ffa41487ad5d6728f0b19276fa1eddc16558578f5109fc39d2dc33c3230470dab8383836040516111f3939291906134ec565b61ffff828116600090815260056020908152604080832081518083019092525493841681526201000090930460ff1615801591840191909152909190611965578051612710906119549061ffff1685613627565b61195e919061365c565b915061198b565b60065461ffff161561198657600654612710906119549061ffff1685613627565b600091505b5092915050565b61199a611bc6565b6001600160a01b0381166119ff5760405162461bcd60e51b815260206004820152602660248201527f4f776e61626c653a206e6577206f776e657220697320746865207a65726f206160448201526564647265737360d01b60648201526084016108e5565b611a0881611ded565b50565b604051633d7b2f6f60e21b815261ffff808616600483015284166024820152306044820152606481018290526060907f00000000000000000000000000000000000000000000000000000000000000006001600160a01b03169063f5ecbdbc90608401600060405180830381865afa158015611a8b573d6000803e3d6000fd5b505050506040513d6000823e601f3d908101601f19168201604052611ab39190810190613670565b95945050505050565b600080611b1f5a60966366ad5c8a60e01b89898989604051602401611ae494939291906136dd565b60408051601f198184030181529190526020810180516001600160e01b03166001600160e01b03199093169290921790915230929190611f4a565b915091508161108e578280519060200120600460008861ffff1661ffff16815260200190815260200160002086604051611b59919061371b565b9081526040805191829003602090810183206001600160401b0389166000908152915220919091557fe183f33de2837795525b4792ca4cd60535bd77c53b7e7030060bfcf5734d6b0c90611bb69088908890889088908790613737565b60405180910390a1505050505050565b6000546001600160a01b031633146110a85760405162461bcd60e51b815260206004820181905260248201527f4f776e61626c653a2063616c6c6572206973206e6f7420746865206f776e657260448201526064016108e5565b600080611c4d7f00000000000000000000000000000000000000000000000000000000000000008461365c565b90506001600160401b03811115610ad35760405162461bcd60e51b815260206004820152601a60248201527f4f4654436f72653a20616d6f756e745344206f766572666c6f7700000000000060448201526064016108e5565b606060008383604051602001611cbe93929190613795565b604051602081830303815290604052905092915050565b611ce28660008381611fd4565b6000611cef88888761205b565b509050611cfb816120a2565b509050611d0a888888846120e2565b90506000611d1b87610c0484611c20565b9050611d2b888287878734612348565b886001600160a01b03168861ffff167f39a4c66499bcf4b56d79f0dde8ed7a9d4925a0df55825206b2b8531e202be0d08985604051611d6b9291906137dd565b60405180910390a3505050505050505050565b6000611d8a82826124e3565b905060ff8116611da557611da08585858561253f565b610b5b565b60405162461bcd60e51b815260206004820152601c60248201527f4f4654436f72653a20756e6b6e6f776e207061636b657420747970650000000060448201526064016108e5565b600080546001600160a01b038381166001600160a01b0319831681178455604051919092169283917f8be0079c531659141344cd1fd0a4f28419497f9722a3daafe3b4186f6b6457e09190a35050565b606081611e4b81601f6137ff565b1015611e8a5760405162461bcd60e51b815260206004820152600e60248201526d736c6963655f6f766572666c6f7760901b60448201526064016108e5565b611e9482846137ff565b84511015611ed85760405162461bcd60e51b8152602060048201526011602482015270736c6963655f6f75744f66426f756e647360781b60448201526064016108e5565b606082158015611ef75760405191506000825260208201604052611f41565b6040519150601f8416801560200281840101858101878315602002848b0101015b81831015611f30578051835260209283019201611f18565b5050858452601f01601f1916604052505b50949350505050565b6000606060008060008661ffff166001600160401b03811115611f6f57611f6f6130d9565b6040519080825280601f01601f191660200182016040528015611f99576020820181803683370190505b50905060008087516020890160008d8df191503d925086831115611fbb578692505b828152826000602083013e909890975095505050505050565b600654600160b01b900460ff1615611ff757611ff2848484846125b8565b612055565b8151156120555760405162461bcd60e51b815260206004820152602660248201527f4f4654436f72653a205f61646170746572506172616d73206d7573742062652060448201526532b6b83a3c9760d11b60648201526084016108e5565b50505050565b6000806120688484611900565b90506120748184613581565b9150801561209a5760065461209a9086906201000090046001600160a01b031683612697565b935093915050565b6000806120cf7f000000000000000000000000000000000000000000000000000000000000000084613817565b90506120db8184613581565b9150915091565b6040516370a0823160e01b815230600482015260009081906001600160a01b037f000000000000000000000000000000000000000000000000000000000000000016906370a0823190602401602060405180830381865afa15801561214b573d6000803e3d6000fd5b505050506040513d601f19601f8201168201806040525081019061216f9190613552565b905061217c863085612697565b6040516370a0823160e01b815230600482015281907f00000000000000000000000000000000000000000000000000000000000000006001600160a01b0316906370a0823190602401602060405180830381865afa1580156121e2573d6000803e3d6000fd5b505050506040513d601f19601f820116820180604052508101906122069190613552565b6122109190613581565b925060008061221e856120a2565b9092509050801561225d5761225d6001600160a01b037f0000000000000000000000000000000000000000000000000000000000000000168983612734565b600061226883611c20565b6006549091506001600160401b038083169161228e91600160b81b90910481169061382b565b6001600160401b031610156122f15760405162461bcd60e51b815260206004820152602360248201527f50726f78794f46543a206f7574626f756e64416d6f756e745344206f766572666044820152626c6f7760e81b60648201526084016108e5565b80600660178282829054906101000a90046001600160401b03166123159190613853565b92506101000a8154816001600160401b0302191690836001600160401b0316021790555082945050505050949350505050565b61ffff861660009081526001602052604081208054612366906133fe565b80601f0160208091040260200160405190810160405280929190818152602001828054612392906133fe565b80156123df5780601f106123b4576101008083540402835291602001916123df565b820191906000526020600020905b8154815290600101906020018083116123c257829003601f168201915b505050505090508051600014156124515760405162461bcd60e51b815260206004820152603060248201527f4c7a4170703a2064657374696e6174696f6e20636861696e206973206e6f742060448201526f61207472757374656420736f7572636560801b60648201526084016108e5565b60405162c5803160e81b81526001600160a01b037f0000000000000000000000000000000000000000000000000000000000000000169063c58031009084906124a8908b9086908c908c908c908c9060040161387e565b6000604051808303818588803b1580156124c157600080fd5b505af11580156124d5573d6000803e3d6000fd5b505050505050505050505050565b60006124f08260016137ff565b835110156125365760405162461bcd60e51b8152602060048201526013602482015272746f55696e74385f6f75744f66426f756e647360681b60448201526064016108e5565b50016001015190565b60008061254b83612797565b91509150600061255a82612821565b9050612567878483612856565b826001600160a01b03168761ffff167fbf551ec93859b170f9b2141bd9298bf3f64322c6f7beb2543a0cb669834118bf836040516125a791815260200190565b60405180910390a350505050505050565b60006125c3836128de565b61ffff8087166000908152600260209081526040808320938916835292905290812054919250906125f59084906137ff565b9050600081116126475760405162461bcd60e51b815260206004820152601a60248201527f4c7a4170703a206d696e4761734c696d6974206e6f742073657400000000000060448201526064016108e5565b8082101561108e5760405162461bcd60e51b815260206004820152601b60248201527f4c7a4170703a20676173206c696d697420697320746f6f206c6f77000000000060448201526064016108e5565b6001600160a01b03831633146126fa5760405162461bcd60e51b815260206004820152602260248201527f50726f78794f46543a206f776e6572206973206e6f742073656e642063616c6c60448201526132b960f11b60648201526084016108e5565b61272f6001600160a01b037f00000000000000000000000000000000000000000000000000000000000000001684848461293a565b505050565b6040516001600160a01b03831660248201526044810182905261272f90849063a9059cbb60e01b906064015b60408051601f198184030181529190526020810180516001600160e01b03166001600160e01b031990931692909217909152612972565b600080806127a584826124e3565b60ff161480156127b657508251601d145b6128025760405162461bcd60e51b815260206004820152601d60248201527f4f4654436f72653a20696e76616c69642073656e64207061796c6f616400000060448201526064016108e5565b61280d836001612a44565b915061281a836015612aa9565b9050915091565b6000610ad37f00000000000000000000000000000000000000000000000000000000000000006001600160401b038416613627565b61288a6001600160a01b037f0000000000000000000000000000000000000000000000000000000000000000168383612734565b61289381611c20565b600680546017906128b5908490600160b81b90046001600160401b031661382b565b92506101000a8154816001600160401b0302191690836001600160401b03160217905550505050565b60006022825110156129325760405162461bcd60e51b815260206004820152601c60248201527f4c7a4170703a20696e76616c69642061646170746572506172616d730000000060448201526064016108e5565b506022015190565b6040516001600160a01b03808516602483015283166044820152606481018290526120559085906323b872dd60e01b90608401612760565b60006129c7826040518060400160405280602081526020017f5361666545524332303a206c6f772d6c6576656c2063616c6c206661696c6564815250856001600160a01b0316612b069092919063ffffffff16565b80519091501561272f57808060200190518101906129e591906138d8565b61272f5760405162461bcd60e51b815260206004820152602a60248201527f5361666545524332303a204552433230206f7065726174696f6e20646964206e6044820152691bdd081cdd58d8d9595960b21b60648201526084016108e5565b6000612a518260146137ff565b83511015612a995760405162461bcd60e51b8152602060048201526015602482015274746f416464726573735f6f75744f66426f756e647360581b60448201526064016108e5565b500160200151600160601b900490565b6000612ab68260086137ff565b83511015612afd5760405162461bcd60e51b8152602060048201526014602482015273746f55696e7436345f6f75744f66426f756e647360601b60448201526064016108e5565b50016008015190565b6060612b158484600085612b1d565b949350505050565b606082471015612b7e5760405162461bcd60e51b815260206004820152602660248201527f416464726573733a20696e73756666696369656e742062616c616e636520666f6044820152651c8818d85b1b60d21b60648201526084016108e5565b6001600160a01b0385163b612bd55760405162461bcd60e51b815260206004820152601d60248201527f416464726573733a2063616c6c20746f206e6f6e2d636f6e747261637400000060448201526064016108e5565b600080866001600160a01b03168587604051612bf1919061371b565b60006040518083038185875af1925050503d8060008114612c2e576040519150601f19603f3d011682016040523d82523d6000602084013e612c33565b606091505b5091509150612c43828286612c4e565b979650505050505050565b60608315612c5d575081610d79565b825115612c6d5782518084602001fd5b8160405162461bcd60e51b81526004016108e5919061323e565b828054612c93906133fe565b90600052602060002090601f016020900481019282612cb55760008555612cfb565b82601f10612cce57805160ff1916838001178555612cfb565b82800160010185558215612cfb579182015b82811115612cfb578251825591602001919060010190612ce0565b50612d07929150612d7f565b5090565b828054612d17906133fe565b90600052602060002090601f016020900481019282612d395760008555612cfb565b82601f10612d525782800160ff19823516178555612cfb565b82800160010185558215612cfb579182015b82811115612cfb578235825591602001919060010190612d64565b5b80821115612d075760008155600101612d80565b803561ffff81168114612da657600080fd5b919050565b60008083601f840112612dbd57600080fd5b5081356001600160401b03811115612dd457600080fd5b602083019150836020828501011115612dec57600080fd5b9250929050565b80356001600160401b0381168114612da657600080fd5b60008060008060008060808789031215612e2357600080fd5b612e2c87612d94565b955060208701356001600160401b0380821115612e4857600080fd5b612e548a838b01612dab565b9097509550859150612e6860408a01612df3565b94506060890135915080821115612e7e57600080fd5b50612e8b89828a01612dab565b979a9699509497509295939492505050565b600060208284031215612eaf57600080fd5b81356001600160e01b031981168114610d7957600080fd5b600060208284031215612ed957600080fd5b610d7982612d94565b8015158114611a0857600080fd5b600080600080600080600060a0888a031215612f0b57600080fd5b612f1488612d94565b965060208801356001600160401b0380821115612f3057600080fd5b612f3c8b838c01612dab565b909850965060408a0135955060608a01359150612f5882612ee2565b90935060808901359080821115612f6e57600080fd5b50612f7b8a828b01612dab565b989b979a50959850939692959293505050565b600080600060408486031215612fa357600080fd5b612fac84612d94565b925060208401356001600160401b03811115612fc757600080fd5b612fd386828701612dab565b9497909650939450505050565b6001600160a01b0381168114611a0857600080fd5b60006020828403121561300757600080fd5b8135610d7981612fe0565b600080600080600080600080600060e08a8c03121561303057600080fd5b893561303b81612fe0565b985061304960208b01612d94565b975060408a01356001600160401b038082111561306557600080fd5b6130718d838e01612dab565b909950975060608c0135965060808c0135915061308d82612fe0565b90945060a08b01359061309f82612fe0565b90935060c08b013590808211156130b557600080fd5b506130c28c828d01612dab565b915080935050809150509295985092959850929598565b634e487b7160e01b600052604160045260246000fd5b604051601f8201601f191681016001600160401b0381118282101715613117576131176130d9565b604052919050565b60006001600160401b03821115613138576131386130d9565b50601f01601f191660200190565b60008060006060848603121561315b57600080fd5b61316484612d94565b925060208401356001600160401b0381111561317f57600080fd5b8401601f8101861361319057600080fd5b80356131a361319e8261311f565b6130ef565b8181528760208385010111156131b857600080fd5b816020840160208301376000602083830101528094505050506131dd60408501612df3565b90509250925092565b60005b838110156132015781810151838201526020016131e9565b838111156120555750506000910152565b6000815180845261322a8160208601602086016131e6565b601f01601f19169290920160200192915050565b602081526000610d796020830184613212565b60008060006060848603121561326657600080fd5b61326f84612d94565b9250602084013561327f81612ee2565b91506131dd60408501612d94565b600080604083850312156132a057600080fd5b6132a983612d94565b91506132b760208401612d94565b90509250929050565b6000806000806000608086880312156132d857600080fd5b6132e186612d94565b94506132ef60208701612d94565b93506040860135925060608601356001600160401b0381111561331157600080fd5b61331d88828901612dab565b969995985093965092949392505050565b60008060006060848603121561334357600080fd5b61334c84612d94565b925061335a60208501612d94565b9150604084013590509250925092565b60006020828403121561337c57600080fd5b8135610d7981612ee2565b6000806040838503121561339a57600080fd5b6133a383612d94565b946020939093013593505050565b600080600080608085870312156133c757600080fd5b6133d085612d94565b93506133de60208601612d94565b925060408501356133ee81612fe0565b9396929550929360600135925050565b600181811c9082168061341257607f821691505b6020821081141561343357634e487b7160e01b600052602260045260246000fd5b50919050565b8183823760009101908152919050565b81835281816020850137506000828201602090810191909152601f909101601f19169091010190565b61ffff871681526001600160a01b038616602082015260a0604082018190526000906134a090830187613212565b851515606084015282810360808401526134bb818587613449565b9998505050505050505050565b600080604083850312156134db57600080fd5b505080516020909101519092909150565b61ffff84168152604060208201526000611ab3604083018486613449565b60208082526028908201527f4f46544665653a20666565206270206d757374206265203c3d2042505f44454e60408201526727a6a4a720aa27a960c11b606082015260800190565b60006020828403121561356457600080fd5b5051919050565b634e487b7160e01b600052601160045260246000fd5b6000828210156135935761359361356b565b500390565b8284823760609190911b6bffffffffffffffffffffffff19169101908152601401919050565b600061ffff808816835280871660208401525084604083015260806060830152612c43608083018486613449565b61ffff8616815260806020820152600061360a608083018688613449565b6001600160401b0394909416604083015250606001529392505050565b60008160001904831182151516156136415761364161356b565b500290565b634e487b7160e01b600052601260045260246000fd5b60008261366b5761366b613646565b500490565b60006020828403121561368257600080fd5b81516001600160401b0381111561369857600080fd5b8201601f810184136136a957600080fd5b80516136b761319e8261311f565b8181528560208385010111156136cc57600080fd5b611ab38260208301602086016131e6565b61ffff851681526080602082015260006136fa6080830186613212565b6001600160401b03851660408401528281036060840152612c438185613212565b6000825161372d8184602087016131e6565b9190910192915050565b61ffff8616815260a06020820152600061375460a0830187613212565b6001600160401b038616604084015282810360608401526137758186613212565b905082810360808401526137898185613212565b98975050505050505050565b60ff60f81b8460f81b168152600083516137b68160018501602088016131e6565b60c09390931b6001600160c01b031916600192909301918201929092526009019392505050565b6040815260006137f06040830185613212565b90508260208301529392505050565b600082198211156138125761381261356b565b500190565b60008261382657613826613646565b500690565b60006001600160401b038381169083168181101561384b5761384b61356b565b039392505050565b60006001600160401b038083168185168083038211156138755761387561356b565b01949350505050565b61ffff8716815260c06020820152600061389b60c0830188613212565b82810360408401526138ad8188613212565b6001600160a01b0387811660608601528616608085015283810360a085015290506134bb8185613212565b6000602082840312156138ea57600080fd5b8151610d7981612ee256fea2646970667358221220003c3032b00c68caa8fa32395dbde9f155c82d09123c67ad498366b03e8393c564736f6c634300080c0033",
  "devdoc": {
    "kind": "dev",
    "methods": {
      "circulatingSupply()": {
        "details": "returns the circulating amount of tokens on current chain"
      },
      "estimateSendFee(uint16,bytes,uint256,bool,bytes)": {
        "details": "estimate send token `_tokenId` to (`_dstChainId`, `_toAddress`) _dstChainId - L0 defined chain id to send tokens too _toAddress - dynamic bytes array which contains the address to whom you are sending tokens to on the dstChain _amount - amount of the tokens to transfer _useZro - indicates to use zro to pay L0 fees _adapterParam - flexible bytes array to indicate messaging adapter services in L0"
      },
      "owner()": {
        "details": "Returns the address of the current owner."
      },
      "renounceOwnership()": {
        "details": "Leaves the contract without owner. It will not be possible to call `onlyOwner` functions anymore. Can only be called by the current owner. NOTE: Renouncing ownership will leave the contract without an owner, thereby removing any functionality that is only available to the owner."
      },
      "sendFrom(address,uint16,bytes,uint256,address,address,bytes)": {
        "details": "send `_amount` amount of token to (`_dstChainId`, `_toAddress`) from `_from` `_from` the owner of token `_dstChainId` the destination chain identifier `_toAddress` can be any size depending on the `dstChainId`. `_amount` the quantity of tokens in wei `_refundAddress` the address LayerZero refunds if too much message fee is sent `_zroPaymentAddress` set to address(0x0) if not paying in ZRO (LayerZero Token) `_adapterParams` is a flexible bytes array to indicate messaging adapter services"
      },
      "token()": {
        "details": "returns the address of the ERC20 token"
      },
      "transferOwnership(address)": {
        "details": "Transfers ownership of the contract to a new account (`newOwner`). Can only be called by the current owner."
      }
    },
    "version": 1
  },
  "userdoc": {
    "kind": "user",
    "methods": {},
    "version": 1
  },
  "storageLayout": {
    "storage": [
      {
        "astId": 2639,
        "contract": "contracts/ProxyOFT.sol:ProxyOFT",
        "label": "_owner",
        "offset": 0,
        "slot": "0",
        "type": "t_address"
      },
      {
        "astId": 212,
        "contract": "contracts/ProxyOFT.sol:ProxyOFT",
        "label": "trustedRemoteLookup",
        "offset": 0,
        "slot": "1",
        "type": "t_mapping(t_uint16,t_bytes_storage)"
      },
      {
        "astId": 218,
        "contract": "contracts/ProxyOFT.sol:ProxyOFT",
        "label": "minDstGasLookup",
        "offset": 0,
        "slot": "2",
        "type": "t_mapping(t_uint16,t_mapping(t_uint16,t_uint256))"
      },
      {
        "astId": 220,
        "contract": "contracts/ProxyOFT.sol:ProxyOFT",
        "label": "precrime",
        "offset": 0,
        "slot": "3",
        "type": "t_address"
      },
      {
        "astId": 705,
        "contract": "contracts/ProxyOFT.sol:ProxyOFT",
        "label": "failedMessages",
        "offset": 0,
        "slot": "4",
        "type": "t_mapping(t_uint16,t_mapping(t_bytes_memory_ptr,t_mapping(t_uint64,t_bytes32)))"
      },
      {
        "astId": 1523,
        "contract": "contracts/ProxyOFT.sol:ProxyOFT",
        "label": "chainIdToFeeBps",
        "offset": 0,
        "slot": "5",
        "type": "t_mapping(t_uint16,t_struct(Fee)1532_storage)"
      },
      {
        "astId": 1525,
        "contract": "contracts/ProxyOFT.sol:ProxyOFT",
        "label": "defaultFeeBp",
        "offset": 0,
        "slot": "6",
        "type": "t_uint16"
      },
      {
        "astId": 1527,
        "contract": "contracts/ProxyOFT.sol:ProxyOFT",
        "label": "feeOwner",
        "offset": 2,
        "slot": "6",
        "type": "t_address"
      },
      {
        "astId": 1053,
        "contract": "contracts/ProxyOFT.sol:ProxyOFT",
        "label": "useCustomAdapterParams",
        "offset": 22,
        "slot": "6",
        "type": "t_bool"
      },
      {
        "astId": 1955,
        "contract": "contracts/ProxyOFT.sol:ProxyOFT",
        "label": "outboundAmountSD",
        "offset": 23,
        "slot": "6",
        "type": "t_uint64"
      }
    ],
    "types": {
      "t_address": {
        "encoding": "inplace",
        "label": "address",
        "numberOfBytes": "20"
      },
      "t_bool": {
        "encoding": "inplace",
        "label": "bool",
        "numberOfBytes": "1"
      },
      "t_bytes32": {
        "encoding": "inplace",
        "label": "bytes32",
        "numberOfBytes": "32"
      },
      "t_bytes_memory_ptr": {
        "encoding": "bytes",
        "label": "bytes",
        "numberOfBytes": "32"
      },
      "t_bytes_storage": {
        "encoding": "bytes",
        "label": "bytes",
        "numberOfBytes": "32"
      },
      "t_mapping(t_bytes_memory_ptr,t_mapping(t_uint64,t_bytes32))": {
        "encoding": "mapping",
        "key": "t_bytes_memory_ptr",
        "label": "mapping(bytes => mapping(uint64 => bytes32))",
        "numberOfBytes": "32",
        "value": "t_mapping(t_uint64,t_bytes32)"
      },
      "t_mapping(t_uint16,t_bytes_storage)": {
        "encoding": "mapping",
        "key": "t_uint16",
        "label": "mapping(uint16 => bytes)",
        "numberOfBytes": "32",
        "value": "t_bytes_storage"
      },
      "t_mapping(t_uint16,t_mapping(t_bytes_memory_ptr,t_mapping(t_uint64,t_bytes32)))": {
        "encoding": "mapping",
        "key": "t_uint16",
        "label": "mapping(uint16 => mapping(bytes => mapping(uint64 => bytes32)))",
        "numberOfBytes": "32",
        "value": "t_mapping(t_bytes_memory_ptr,t_mapping(t_uint64,t_bytes32))"
      },
      "t_mapping(t_uint16,t_mapping(t_uint16,t_uint256))": {
        "encoding": "mapping",
        "key": "t_uint16",
        "label": "mapping(uint16 => mapping(uint16 => uint256))",
        "numberOfBytes": "32",
        "value": "t_mapping(t_uint16,t_uint256)"
      },
      "t_mapping(t_uint16,t_struct(Fee)1532_storage)": {
        "encoding": "mapping",
        "key": "t_uint16",
        "label": "mapping(uint16 => struct OFTFee.Fee)",
        "numberOfBytes": "32",
        "value": "t_struct(Fee)1532_storage"
      },
      "t_mapping(t_uint16,t_uint256)": {
        "encoding": "mapping",
        "key": "t_uint16",
        "label": "mapping(uint16 => uint256)",
        "numberOfBytes": "32",
        "value": "t_uint256"
      },
      "t_mapping(t_uint64,t_bytes32)": {
        "encoding": "mapping",
        "key": "t_uint64",
        "label": "mapping(uint64 => bytes32)",
        "numberOfBytes": "32",
        "value": "t_bytes32"
      },
      "t_struct(Fee)1532_storage": {
        "encoding": "inplace",
        "label": "struct OFTFee.Fee",
        "members": [
          {
            "astId": 1529,
            "contract": "contracts/ProxyOFT.sol:ProxyOFT",
            "label": "feeBP",
            "offset": 0,
            "slot": "0",
            "type": "t_uint16"
          },
          {
            "astId": 1531,
            "contract": "contracts/ProxyOFT.sol:ProxyOFT",
            "label": "enabled",
            "offset": 2,
            "slot": "0",
            "type": "t_bool"
          }
        ],
        "numberOfBytes": "32"
      },
      "t_uint16": {
        "encoding": "inplace",
        "label": "uint16",
        "numberOfBytes": "2"
      },
      "t_uint256": {
        "encoding": "inplace",
        "label": "uint256",
        "numberOfBytes": "32"
      },
      "t_uint64": {
        "encoding": "inplace",
        "label": "uint64",
        "numberOfBytes": "8"
      }
    }
  }
}