{
  "address": "0x525795E4E78aA3c2E259fe1889cAB5AB2669b3e9",
  "abi": [
    {
      "inputs": [
        {
          "internalType": "address",
          "name": "_token",
          "type": "address"
        },
        {
          "internalType": "address",
          "name": "_lzEndpoint",
          "type": "address"
        }
      ],
      "stateMutability": "nonpayable",
      "type": "constructor"
    },
    {
      "anonymous": false,
      "inputs": [
        {
          "indexed": true,
          "internalType": "uint16",
          "name": "_srcChainId",
          "type": "uint16"
        },
        {
          "indexed": false,
          "internalType": "bytes",
          "name": "_srcAddress",
          "type": "bytes"
        },
        {
          "indexed": false,
          "internalType": "uint64",
          "name": "_nonce",
          "type": "uint64"
        },
        {
          "indexed": false,
          "internalType": "bytes",
          "name": "_from",
          "type": "bytes"
        },
        {
          "indexed": true,
          "internalType": "address",
          "name": "_to",
          "type": "address"
        },
        {
          "indexed": false,
          "internalType": "uint256",
          "name": "_amount",
          "type": "uint256"
        },
        {
          "indexed": false,
          "internalType": "bytes",
          "name": "_payload",
          "type": "bytes"
        },
        {
          "indexed": false,
          "internalType": "bytes",
          "name": "_reason",
          "type": "bytes"
        }
      ],
      "name": "CallOFTReceivedFailure",
      "type": "event"
    },
    {
      "anonymous": false,
      "inputs": [
        {
          "indexed": true,
          "internalType": "uint16",
          "name": "_srcChainId",
          "type": "uint16"
        },
        {
          "indexed": false,
          "internalType": "bytes",
          "name": "_srcAddress",
          "type": "bytes"
        },
        {
          "indexed": false,
          "internalType": "uint64",
          "name": "_nonce",
          "type": "uint64"
        },
        {
          "indexed": false,
          "internalType": "bytes32",
          "name": "_hash",
          "type": "bytes32"
        }
      ],
      "name": "CallOFTReceivedSuccess",
      "type": "event"
    },
    {
      "anonymous": false,
      "inputs": [
        {
          "indexed": false,
          "internalType": "bytes",
          "name": "_receiver",
          "type": "bytes"
        }
      ],
      "name": "InvalidReceiver",
      "type": "event"
    },
    {
      "anonymous": false,
      "inputs": [
        {
          "indexed": false,
          "internalType": "uint16",
          "name": "_srcChainId",
          "type": "uint16"
        },
        {
          "indexed": false,
          "internalType": "bytes",
          "name": "_srcAddress",
          "type": "bytes"
        },
        {
          "indexed": false,
          "internalType": "uint64",
          "name": "_nonce",
          "type": "uint64"
        },
        {
          "indexed": false,
          "internalType": "bytes",
          "name": "_payload",
          "type": "bytes"
        },
        {
          "indexed": false,
          "internalType": "bytes",
          "name": "_reason",
          "type": "bytes"
        }
      ],
      "name": "MessageFailed",
      "type": "event"
    },
    {
      "anonymous": false,
      "inputs": [
        {
          "indexed": false,
          "internalType": "address",
          "name": "_address",
          "type": "address"
        }
      ],
      "name": "NonContractAddress",
      "type": "event"
    },
    {
      "anonymous": false,
      "inputs": [
        {
          "indexed": true,
          "internalType": "address",
          "name": "previousOwner",
          "type": "address"
        },
        {
          "indexed": true,
          "internalType": "address",
          "name": "newOwner",
          "type": "address"
        }
      ],
      "name": "OwnershipTransferred",
      "type": "event"
    },
    {
      "anonymous": false,
      "inputs": [
        {
          "indexed": true,
          "internalType": "uint16",
          "name": "_srcChainId",
          "type": "uint16"
        },
        {
          "indexed": true,
          "internalType": "address",
          "name": "_to",
          "type": "address"
        },
        {
          "indexed": false,
          "internalType": "uint256",
          "name": "_amount",
          "type": "uint256"
        }
      ],
      "name": "ReceiveFromChain",
      "type": "event"
    },
    {
      "anonymous": false,
      "inputs": [
        {
          "indexed": false,
          "internalType": "uint16",
          "name": "_srcChainId",
          "type": "uint16"
        },
        {
          "indexed": false,
          "internalType": "bytes",
          "name": "_srcAddress",
          "type": "bytes"
        },
        {
          "indexed": false,
          "internalType": "uint64",
          "name": "_nonce",
          "type": "uint64"
        },
        {
          "indexed": false,
          "internalType": "bytes32",
          "name": "_payloadHash",
          "type": "bytes32"
        }
      ],
      "name": "RetryMessageSuccess",
      "type": "event"
    },
    {
      "anonymous": false,
      "inputs": [
        {
          "indexed": false,
          "internalType": "bytes32",
          "name": "_messageHash",
          "type": "bytes32"
        }
      ],
      "name": "RetryOFTReceivedSuccess",
      "type": "event"
    },
    {
      "anonymous": false,
      "inputs": [
        {
          "indexed": true,
          "internalType": "uint16",
          "name": "_dstChainId",
          "type": "uint16"
        },
        {
          "indexed": true,
          "internalType": "address",
          "name": "_from",
          "type": "address"
        },
        {
          "indexed": false,
          "internalType": "bytes",
          "name": "_toAddress",
          "type": "bytes"
        },
        {
          "indexed": false,
          "internalType": "uint256",
          "name": "_amount",
          "type": "uint256"
        }
      ],
      "name": "SendToChain",
      "type": "event"
    },
    {
      "anonymous": false,
      "inputs": [
        {
          "indexed": false,
          "internalType": "uint256",
          "name": "feeBp",
          "type": "uint256"
        }
      ],
      "name": "SetDefaultFeeBp",
      "type": "event"
    },
    {
      "anonymous": false,
      "inputs": [
        {
          "indexed": false,
          "internalType": "uint16",
          "name": "dstchainId",
          "type": "uint16"
        },
        {
          "indexed": false,
          "internalType": "bool",
          "name": "enabled",
          "type": "bool"
        },
        {
          "indexed": false,
          "internalType": "uint16",
          "name": "feeBp",
          "type": "uint16"
        }
      ],
      "name": "SetFeeBp",
      "type": "event"
    },
    {
      "anonymous": false,
      "inputs": [
        {
          "indexed": false,
          "internalType": "address",
          "name": "feeOwner",
          "type": "address"
        }
      ],
      "name": "SetFeeOwner",
      "type": "event"
    },
    {
      "anonymous": false,
      "inputs": [
        {
          "indexed": false,
          "internalType": "uint16",
          "name": "_dstChainId",
          "type": "uint16"
        },
        {
          "indexed": false,
          "internalType": "uint16",
          "name": "_type",
          "type": "uint16"
        },
        {
          "indexed": false,
          "internalType": "uint256",
          "name": "_minDstGas",
          "type": "uint256"
        }
      ],
      "name": "SetMinDstGas",
      "type": "event"
    },
    {
      "anonymous": false,
      "inputs": [
        {
          "indexed": false,
          "internalType": "address",
          "name": "precrime",
          "type": "address"
        }
      ],
      "name": "SetPrecrime",
      "type": "event"
    },
    {
      "anonymous": false,
      "inputs": [
        {
          "indexed": false,
          "internalType": "uint16",
          "name": "_remoteChainId",
          "type": "uint16"
        },
        {
          "indexed": false,
          "internalType": "bytes",
          "name": "_path",
          "type": "bytes"
        }
      ],
      "name": "SetTrustedRemote",
      "type": "event"
    },
    {
      "anonymous": false,
      "inputs": [
        {
          "indexed": false,
          "internalType": "uint16",
          "name": "_remoteChainId",
          "type": "uint16"
        },
        {
          "indexed": false,
          "internalType": "bytes",
          "name": "_remoteAddress",
          "type": "bytes"
        }
      ],
      "name": "SetTrustedRemoteAddress",
      "type": "event"
    },
    {
      "anonymous": false,
      "inputs": [
        {
          "indexed": false,
          "internalType": "bool",
          "name": "_useCustomAdapterParams",
          "type": "bool"
        }
      ],
      "name": "SetUseCustomAdapterParams",
      "type": "event"
    },
    {
      "inputs": [],
      "name": "BP_DENOMINATOR",
      "outputs": [
        {
          "internalType": "uint256",
          "name": "",
          "type": "uint256"
        }
      ],
      "stateMutability": "view",
      "type": "function"
    },
    {
      "inputs": [],
      "name": "NO_EXTRA_GAS",
      "outputs": [
        {
          "internalType": "uint256",
          "name": "",
          "type": "uint256"
        }
      ],
      "stateMutability": "view",
      "type": "function"
    },
    {
      "inputs": [],
      "name": "PT_SEND",
      "outputs": [
        {
          "internalType": "uint8",
          "name": "",
          "type": "uint8"
        }
      ],
      "stateMutability": "view",
      "type": "function"
    },
    {
      "inputs": [],
      "name": "PT_SEND_AND_CALL",
      "outputs": [
        {
          "internalType": "uint8",
          "name": "",
          "type": "uint8"
        }
      ],
      "stateMutability": "view",
      "type": "function"
    },
    {
      "inputs": [
        {
          "internalType": "uint16",
          "name": "",
          "type": "uint16"
        }
      ],
      "name": "chainIdToFeeBps",
      "outputs": [
        {
          "internalType": "uint16",
          "name": "feeBP",
          "type": "uint16"
        },
        {
          "internalType": "bool",
          "name": "enabled",
          "type": "bool"
        }
      ],
      "stateMutability": "view",
      "type": "function"
    },
    {
      "inputs": [],
      "name": "circulatingSupply",
      "outputs": [
        {
          "internalType": "uint256",
          "name": "",
          "type": "uint256"
        }
      ],
      "stateMutability": "view",
      "type": "function"
    },
    {
      "inputs": [],
      "name": "defaultFeeBp",
      "outputs": [
        {
          "internalType": "uint16",
          "name": "",
          "type": "uint16"
        }
      ],
      "stateMutability": "view",
      "type": "function"
    },
    {
      "inputs": [
        {
          "internalType": "uint16",
          "name": "_dstChainId",
          "type": "uint16"
        },
        {
          "internalType": "bytes",
          "name": "_toAddress",
          "type": "bytes"
        },
        {
          "internalType": "uint256",
          "name": "_amount",
          "type": "uint256"
        },
        {
          "internalType": "bytes",
          "name": "_payload",
          "type": "bytes"
        },
        {
          "internalType": "uint64",
          "name": "_dstGasForCall",
          "type": "uint64"
        },
        {
          "internalType": "bool",
          "name": "_useZro",
          "type": "bool"
        },
        {
          "internalType": "bytes",
          "name": "_adapterParams",
          "type": "bytes"
        }
      ],
      "name": "estimateSendAndCallFee",
      "outputs": [
        {
          "internalType": "uint256",
          "name": "nativeFee",
          "type": "uint256"
        },
        {
          "internalType": "uint256",
          "name": "zroFee",
          "type": "uint256"
        }
      ],
      "stateMutability": "view",
      "type": "function"
    },
    {
      "inputs": [
        {
          "internalType": "uint16",
          "name": "_dstChainId",
          "type": "uint16"
        },
        {
          "internalType": "bytes",
          "name": "_toAddress",
          "type": "bytes"
        },
        {
          "internalType": "uint256",
          "name": "_amount",
          "type": "uint256"
        },
        {
          "internalType": "bool",
          "name": "_useZro",
          "type": "bool"
        },
        {
          "internalType": "bytes",
          "name": "_adapterParams",
          "type": "bytes"
        }
      ],
      "name": "estimateSendFee",
      "outputs": [
        {
          "internalType": "uint256",
          "name": "nativeFee",
          "type": "uint256"
        },
        {
          "internalType": "uint256",
          "name": "zroFee",
          "type": "uint256"
        }
      ],
      "stateMutability": "view",
      "type": "function"
    },
    {
      "inputs": [
        {
          "internalType": "uint16",
          "name": "",
          "type": "uint16"
        },
        {
          "internalType": "bytes",
          "name": "",
          "type": "bytes"
        },
        {
          "internalType": "uint64",
          "name": "",
          "type": "uint64"
        }
      ],
      "name": "failedMessages",
      "outputs": [
        {
          "internalType": "bytes32",
          "name": "",
          "type": "bytes32"
        }
      ],
      "stateMutability": "view",
      "type": "function"
    },
    {
      "inputs": [
        {
          "internalType": "uint16",
          "name": "",
          "type": "uint16"
        },
        {
          "internalType": "bytes",
          "name": "",
          "type": "bytes"
        },
        {
          "internalType": "uint64",
          "name": "",
          "type": "uint64"
        }
      ],
      "name": "failedOFTReceivedMessages",
      "outputs": [
        {
          "internalType": "bytes32",
          "name": "",
          "type": "bytes32"
        }
      ],
      "stateMutability": "view",
      "type": "function"
    },
    {
      "inputs": [],
      "name": "feeOwner",
      "outputs": [
        {
          "internalType": "address",
          "name": "",
          "type": "address"
        }
      ],
      "stateMutability": "view",
      "type": "function"
    },
    {
      "inputs": [
        {
          "internalType": "uint16",
          "name": "_srcChainId",
          "type": "uint16"
        },
        {
          "internalType": "bytes",
          "name": "_srcAddress",
          "type": "bytes"
        }
      ],
      "name": "forceResumeReceive",
      "outputs": [],
      "stateMutability": "nonpayable",
      "type": "function"
    },
    {
      "inputs": [
        {
          "internalType": "uint16",
          "name": "_version",
          "type": "uint16"
        },
        {
          "internalType": "uint16",
          "name": "_chainId",
          "type": "uint16"
        },
        {
          "internalType": "address",
          "name": "",
          "type": "address"
        },
        {
          "internalType": "uint256",
          "name": "_configType",
          "type": "uint256"
        }
      ],
      "name": "getConfig",
      "outputs": [
        {
          "internalType": "bytes",
          "name": "",
          "type": "bytes"
        }
      ],
      "stateMutability": "view",
      "type": "function"
    },
    {
      "inputs": [
        {
          "internalType": "uint16",
          "name": "_remoteChainId",
          "type": "uint16"
        }
      ],
      "name": "getTrustedRemoteAddress",
      "outputs": [
        {
          "internalType": "bytes",
          "name": "",
          "type": "bytes"
        }
      ],
      "stateMutability": "view",
      "type": "function"
    },
    {
      "inputs": [
        {
          "internalType": "uint16",
          "name": "_srcChainId",
          "type": "uint16"
        },
        {
          "internalType": "bytes",
          "name": "_srcAddress",
          "type": "bytes"
        }
      ],
      "name": "isTrustedRemote",
      "outputs": [
        {
          "internalType": "bool",
          "name": "",
          "type": "bool"
        }
      ],
      "stateMutability": "view",
      "type": "function"
    },
    {
      "inputs": [],
      "name": "lzEndpoint",
      "outputs": [
        {
          "internalType": "contract ILayerZeroEndpoint",
          "name": "",
          "type": "address"
        }
      ],
      "stateMutability": "view",
      "type": "function"
    },
    {
      "inputs": [
        {
          "internalType": "uint16",
          "name": "_srcChainId",
          "type": "uint16"
        },
        {
          "internalType": "bytes",
          "name": "_srcAddress",
          "type": "bytes"
        },
        {
          "internalType": "uint64",
          "name": "_nonce",
          "type": "uint64"
        },
        {
          "internalType": "bytes",
          "name": "_payload",
          "type": "bytes"
        }
      ],
      "name": "lzReceive",
      "outputs": [],
      "stateMutability": "nonpayable",
      "type": "function"
    },
    {
      "inputs": [
        {
          "internalType": "uint16",
          "name": "",
          "type": "uint16"
        },
        {
          "internalType": "uint16",
          "name": "",
          "type": "uint16"
        }
      ],
      "name": "minDstGasLookup",
      "outputs": [
        {
          "internalType": "uint256",
          "name": "",
          "type": "uint256"
        }
      ],
      "stateMutability": "view",
      "type": "function"
    },
    {
      "inputs": [
        {
          "internalType": "uint16",
          "name": "_srcChainId",
          "type": "uint16"
        },
        {
          "internalType": "bytes",
          "name": "_srcAddress",
          "type": "bytes"
        },
        {
          "internalType": "uint64",
          "name": "_nonce",
          "type": "uint64"
        },
        {
          "internalType": "bytes",
          "name": "_payload",
          "type": "bytes"
        }
      ],
      "name": "nonblockingLzReceive",
      "outputs": [],
      "stateMutability": "nonpayable",
      "type": "function"
    },
    {
      "inputs": [],
      "name": "outboundAmountSD",
      "outputs": [
        {
          "internalType": "uint64",
          "name": "",
          "type": "uint64"
        }
      ],
      "stateMutability": "view",
      "type": "function"
    },
    {
      "inputs": [],
      "name": "owner",
      "outputs": [
        {
          "internalType": "address",
          "name": "",
          "type": "address"
        }
      ],
      "stateMutability": "view",
      "type": "function"
    },
    {
      "inputs": [],
      "name": "precrime",
      "outputs": [
        {
          "internalType": "address",
          "name": "",
          "type": "address"
        }
      ],
      "stateMutability": "view",
      "type": "function"
    },
    {
      "inputs": [
        {
          "internalType": "uint16",
          "name": "_dstChainId",
          "type": "uint16"
        },
        {
          "internalType": "uint256",
          "name": "_amount",
          "type": "uint256"
        }
      ],
      "name": "quoteOFTFee",
      "outputs": [
        {
          "internalType": "uint256",
          "name": "fee",
          "type": "uint256"
        }
      ],
      "stateMutability": "view",
      "type": "function"
    },
    {
      "inputs": [],
      "name": "renounceOwnership",
      "outputs": [],
      "stateMutability": "nonpayable",
      "type": "function"
    },
    {
      "inputs": [
        {
          "internalType": "uint16",
          "name": "_srcChainId",
          "type": "uint16"
        },
        {
          "internalType": "bytes",
          "name": "_srcAddress",
          "type": "bytes"
        },
        {
          "internalType": "uint64",
          "name": "_nonce",
          "type": "uint64"
        },
        {
          "internalType": "bytes",
          "name": "_payload",
          "type": "bytes"
        }
      ],
      "name": "retryMessage",
      "outputs": [],
      "stateMutability": "payable",
      "type": "function"
    },
    {
      "inputs": [
        {
          "internalType": "uint16",
          "name": "_srcChainId",
          "type": "uint16"
        },
        {
          "internalType": "bytes",
          "name": "_srcAddress",
          "type": "bytes"
        },
        {
          "internalType": "uint64",
          "name": "_nonce",
          "type": "uint64"
        },
        {
          "internalType": "bytes",
          "name": "_from",
          "type": "bytes"
        },
        {
          "internalType": "address",
          "name": "_to",
          "type": "address"
        },
        {
          "internalType": "uint256",
          "name": "_amount",
          "type": "uint256"
        },
        {
          "internalType": "bytes",
          "name": "_payload",
          "type": "bytes"
        }
      ],
      "name": "retryOFTReceived",
      "outputs": [],
      "stateMutability": "nonpayable",
      "type": "function"
    },
    {
      "inputs": [
        {
          "internalType": "address",
          "name": "_from",
          "type": "address"
        },
        {
          "internalType": "uint16",
          "name": "_dstChainId",
          "type": "uint16"
        },
        {
          "internalType": "bytes",
          "name": "_toAddress",
          "type": "bytes"
        },
        {
          "internalType": "uint256",
          "name": "_amount",
          "type": "uint256"
        },
        {
          "internalType": "uint256",
          "name": "_minAmount",
          "type": "uint256"
        },
        {
          "internalType": "bytes",
          "name": "_payload",
          "type": "bytes"
        },
        {
          "internalType": "uint64",
          "name": "_dstGasForCall",
          "type": "uint64"
        },
        {
          "components": [
            {
              "internalType": "address payable",
              "name": "refundAddress",
              "type": "address"
            },
            {
              "internalType": "address",
              "name": "zroPaymentAddress",
              "type": "address"
            },
            {
              "internalType": "bytes",
              "name": "adapterParams",
              "type": "bytes"
            }
          ],
          "internalType": "struct ICommonOFT.LzCallParams",
          "name": "_callParams",
          "type": "tuple"
        }
      ],
      "name": "sendAndCall",
      "outputs": [],
      "stateMutability": "payable",
      "type": "function"
    },
    {
      "inputs": [
        {
          "internalType": "address",
          "name": "_from",
          "type": "address"
        },
        {
          "internalType": "uint16",
          "name": "_dstChainId",
          "type": "uint16"
        },
        {
          "internalType": "bytes",
          "name": "_toAddress",
          "type": "bytes"
        },
        {
          "internalType": "uint256",
          "name": "_amount",
          "type": "uint256"
        },
        {
          "internalType": "uint256",
          "name": "_minAmount",
          "type": "uint256"
        },
        {
          "components": [
            {
              "internalType": "address payable",
              "name": "refundAddress",
              "type": "address"
            },
            {
              "internalType": "address",
              "name": "zroPaymentAddress",
              "type": "address"
            },
            {
              "internalType": "bytes",
              "name": "adapterParams",
              "type": "bytes"
            }
          ],
          "internalType": "struct ICommonOFT.LzCallParams",
          "name": "_callParams",
          "type": "tuple"
        }
      ],
      "name": "sendFrom",
      "outputs": [],
      "stateMutability": "payable",
      "type": "function"
    },
    {
      "inputs": [
        {
          "internalType": "uint16",
          "name": "_version",
          "type": "uint16"
        },
        {
          "internalType": "uint16",
          "name": "_chainId",
          "type": "uint16"
        },
        {
          "internalType": "uint256",
          "name": "_configType",
          "type": "uint256"
        },
        {
          "internalType": "bytes",
          "name": "_config",
          "type": "bytes"
        }
      ],
      "name": "setConfig",
      "outputs": [],
      "stateMutability": "nonpayable",
      "type": "function"
    },
    {
      "inputs": [
        {
          "internalType": "uint16",
          "name": "_feeBp",
          "type": "uint16"
        }
      ],
      "name": "setDefaultFeeBp",
      "outputs": [],
      "stateMutability": "nonpayable",
      "type": "function"
    },
    {
      "inputs": [
        {
          "internalType": "uint16",
          "name": "_dstChainId",
          "type": "uint16"
        },
        {
          "internalType": "bool",
          "name": "_enabled",
          "type": "bool"
        },
        {
          "internalType": "uint16",
          "name": "_feeBp",
          "type": "uint16"
        }
      ],
      "name": "setFeeBp",
      "outputs": [],
      "stateMutability": "nonpayable",
      "type": "function"
    },
    {
      "inputs": [
        {
          "internalType": "address",
          "name": "_feeOwner",
          "type": "address"
        }
      ],
      "name": "setFeeOwner",
      "outputs": [],
      "stateMutability": "nonpayable",
      "type": "function"
    },
    {
      "inputs": [
        {
          "internalType": "uint16",
          "name": "_dstChainId",
          "type": "uint16"
        },
        {
          "internalType": "uint16",
          "name": "_packetType",
          "type": "uint16"
        },
        {
          "internalType": "uint256",
          "name": "_minGas",
          "type": "uint256"
        }
      ],
      "name": "setMinDstGas",
      "outputs": [],
      "stateMutability": "nonpayable",
      "type": "function"
    },
    {
      "inputs": [
        {
          "internalType": "address",
          "name": "_precrime",
          "type": "address"
        }
      ],
      "name": "setPrecrime",
      "outputs": [],
      "stateMutability": "nonpayable",
      "type": "function"
    },
    {
      "inputs": [
        {
          "internalType": "uint16",
          "name": "_version",
          "type": "uint16"
        }
      ],
      "name": "setReceiveVersion",
      "outputs": [],
      "stateMutability": "nonpayable",
      "type": "function"
    },
    {
      "inputs": [
        {
          "internalType": "uint16",
          "name": "_version",
          "type": "uint16"
        }
      ],
      "name": "setSendVersion",
      "outputs": [],
      "stateMutability": "nonpayable",
      "type": "function"
    },
    {
      "inputs": [
        {
          "internalType": "uint16",
          "name": "_srcChainId",
          "type": "uint16"
        },
        {
          "internalType": "bytes",
          "name": "_path",
          "type": "bytes"
        }
      ],
      "name": "setTrustedRemote",
      "outputs": [],
      "stateMutability": "nonpayable",
      "type": "function"
    },
    {
      "inputs": [
        {
          "internalType": "uint16",
          "name": "_remoteChainId",
          "type": "uint16"
        },
        {
          "internalType": "bytes",
          "name": "_remoteAddress",
          "type": "bytes"
        }
      ],
      "name": "setTrustedRemoteAddress",
      "outputs": [],
      "stateMutability": "nonpayable",
      "type": "function"
    },
    {
      "inputs": [
        {
          "internalType": "bool",
          "name": "_useCustomAdapterParams",
          "type": "bool"
        }
      ],
      "name": "setUseCustomAdapterParams",
      "outputs": [],
      "stateMutability": "nonpayable",
      "type": "function"
    },
    {
      "inputs": [],
      "name": "sharedDecimals",
      "outputs": [
        {
          "internalType": "uint8",
          "name": "",
          "type": "uint8"
        }
      ],
      "stateMutability": "view",
      "type": "function"
    },
    {
      "inputs": [
        {
          "internalType": "bytes4",
          "name": "interfaceId",
          "type": "bytes4"
        }
      ],
      "name": "supportsInterface",
      "outputs": [
        {
          "internalType": "bool",
          "name": "",
          "type": "bool"
        }
      ],
      "stateMutability": "view",
      "type": "function"
    },
    {
      "inputs": [],
      "name": "token",
      "outputs": [
        {
          "internalType": "address",
          "name": "",
          "type": "address"
        }
      ],
      "stateMutability": "view",
      "type": "function"
    },
    {
      "inputs": [
        {
          "internalType": "address",
          "name": "newOwner",
          "type": "address"
        }
      ],
      "name": "transferOwnership",
      "outputs": [],
      "stateMutability": "nonpayable",
      "type": "function"
    },
    {
      "inputs": [
        {
          "internalType": "uint16",
          "name": "",
          "type": "uint16"
        }
      ],
      "name": "trustedRemoteLookup",
      "outputs": [
        {
          "internalType": "bytes",
          "name": "",
          "type": "bytes"
        }
      ],
      "stateMutability": "view",
      "type": "function"
    },
    {
      "inputs": [],
      "name": "useCustomAdapterParams",
      "outputs": [
        {
          "internalType": "bool",
          "name": "",
          "type": "bool"
        }
      ],
      "stateMutability": "view",
      "type": "function"
    }
  ],
  "transactionHash": "0x5cf2d457bc2e86ab2ec2f017963502f281e60214f0db3abdf93f49d38f8e2c0a",
  "args": [
    "0xB450F59B371675546882a639a5d7708c978A82F2",
    "0x93f54D755A063cE7bB9e6Ac47Eccc8e33411d706"
  ],
  "numDeployments": 1,
  "solcInputHash": "c835a3cb83e9eb168b6d8b90b66b9fab",
  "bytecode": "0x6101006040523480156200001257600080fd5b50604051620050fb380380620050fb8339810160408190526200003591620002a2565b816008828181818180806200004a3362000235565b6001600160a01b0316608052505060ff1660a052620000716000546001600160a01b031690565b600880546001600160a01b03928316620100000262010000600160b01b0319909116179055851660c081905260408051600481526024810182526020810180516001600160e01b031663313ce56760e01b179052905160009450849350620000da9190620002da565b600060405180830381855afa9150503d806000811462000117576040519150601f19603f3d011682016040523d82523d6000602084013e6200011c565b606091505b509150915081620001835760405162461bcd60e51b815260206004820152602660248201527f50726f78794f46543a206661696c656420746f2067657420746f6b656e20646560448201526563696d616c7360d01b60648201526084015b60405180910390fd5b6000818060200190518101906200019b919062000318565b90508060ff168560ff1611156200020a5760405162461bcd60e51b815260206004820152602c60248201527f50726f78794f46543a20736861726564446563696d616c73206d75737420626560448201526b203c3d20646563696d616c7360a01b60648201526084016200017a565b6200021685826200035a565b6200022390600a6200047f565b60e05250620004909650505050505050565b600080546001600160a01b038381166001600160a01b0319831681178455604051919092169283917f8be0079c531659141344cd1fd0a4f28419497f9722a3daafe3b4186f6b6457e09190a35050565b80516001600160a01b03811681146200029d57600080fd5b919050565b60008060408385031215620002b657600080fd5b620002c18362000285565b9150620002d16020840162000285565b90509250929050565b6000825160005b81811015620002fd5760208186018101518583015201620002e1565b818111156200030d576000828501525b509190910192915050565b6000602082840312156200032b57600080fd5b815160ff811681146200033d57600080fd5b9392505050565b634e487b7160e01b600052601160045260246000fd5b600060ff821660ff84168082101562000377576200037762000344565b90039392505050565b600181815b80851115620003c1578160001904821115620003a557620003a562000344565b80851615620003b357918102915b93841c939080029062000385565b509250929050565b600082620003da5750600162000479565b81620003e95750600062000479565b81600181146200040257600281146200040d576200042d565b600191505062000479565b60ff84111562000421576200042162000344565b50506001821b62000479565b5060208310610133831016604e8410600b841016171562000452575081810a62000479565b6200045e838362000380565b806000190482111562000475576200047562000344565b0290505b92915050565b60006200033d60ff841683620003c9565b60805160a05160c05160e051614ba562000556600039600081816125d801528181612a0a0152612f5f015260008181610934015281816111a3015281816112180152818161295b01528181612a6401528181612af301528181612b9601528181612fe20152818161308b01526130d3015260006105490152600081816106c40152818161095b01528181610be101528181610c6a01528181610daf015281816115ae01528181611bc101528181611e0e015281816121bb0152612dc70152614ba56000f3fe60806040526004361061027c5760003560e01c8063a65f92731161014f578063d1d55d89116100c1578063eb8d72b71161007a578063eb8d72b71461088b578063ecd8f212146108ab578063ed629c5c146108cb578063f2fde38b146108e5578063f5ecbdbc14610905578063fc0c546a1461092557600080fd5b8063d1d55d89146107e2578063d1deba1f146107f5578063d888296814610808578063df2a5b3b14610836578063e6a20ae614610856578063eab45d9c1461086b57600080fd5b8063b9818be111610113578063b9818be1146106e6578063baf3292d1461070c578063c83330ce1461072c578063c8598dca14610782578063cbed8b9c146107a2578063cfd6528e146107c257600080fd5b8063a65f92731461062a578063a6c3d16514610669578063abe685cd14610689578063b214dd291461069f578063b353aaa7146106b257600080fd5b80635b8c41e6116101f3578063857749b0116101ac578063857749b0146105375780638cfd8f5c1461056b5780638da5cb5b146105a35780639358928b146105d5578063950c8a74146105ea5780639f38369a1461060a57600080fd5b80635b8c41e6146104175780636096cc581461046657806366ad5c8a146104b5578063715018a6146104d55780637533d788146104ea57806379c0ad4b1461051757600080fd5b80633d8b38f6116102455780633d8b38f61461034d57806342d65a8d1461036d578063447705151461038d5780634b104eff146103b05780634c42899a146103d05780635a359dc5146103f757600080fd5b80621d35671461028157806301ffc9a7146102a357806307e0db17146102d857806310ddb137146102f85780632a205e3d14610318575b600080fd5b34801561028d57600080fd5b506102a161029c366004613ae3565b610958565b005b3480156102af57600080fd5b506102c36102be366004613b76565b610b89565b60405190151581526020015b60405180910390f35b3480156102e457600080fd5b506102a16102f3366004613ba0565b610bc0565b34801561030457600080fd5b506102a1610313366004613ba0565b610c49565b34801561032457600080fd5b50610338610333366004613bc9565b610ca1565b604080519283526020830191909152016102cf565b34801561035957600080fd5b506102c3610368366004613c67565b610cc3565b34801561037957600080fd5b506102a1610388366004613c67565b610d90565b34801561039957600080fd5b506103a2600081565b6040519081526020016102cf565b3480156103bc57600080fd5b506102a16103cb366004613cd9565b610e16565b3480156103dc57600080fd5b506103e5600081565b60405160ff90911681526020016102cf565b34801561040357600080fd5b506102a1610412366004613ba0565b610ed3565b34801561042357600080fd5b506103a2610432366004613d63565b6004602090815260009384526040808520845180860184018051928152908401958401959095209452929052825290205481565b34801561047257600080fd5b506103a2610481366004613d63565b6006602090815260009384526040808520845180860184018051928152908401958401959095209452929052825290205481565b3480156104c157600080fd5b506102a16104d0366004613ae3565b610f45565b3480156104e157600080fd5b506102a1611021565b3480156104f657600080fd5b5061050a610505366004613ba0565b611035565b6040516102cf9190613e5b565b34801561052357600080fd5b506102a1610532366004613e6e565b6110cf565b34801561054357600080fd5b506103e57f000000000000000000000000000000000000000000000000000000000000000081565b34801561057757600080fd5b506103a2610586366004613eaa565b600260209081526000928352604080842090915290825290205481565b3480156105af57600080fd5b506000546001600160a01b03165b6040516001600160a01b0390911681526020016102cf565b3480156105e157600080fd5b506103a261118b565b3480156105f657600080fd5b506003546105bd906001600160a01b031681565b34801561061657600080fd5b5061050a610625366004613ba0565b6112a7565b34801561063657600080fd5b5060085461065190600160b01b90046001600160401b031681565b6040516001600160401b0390911681526020016102cf565b34801561067557600080fd5b506102a1610684366004613c67565b6113b7565b34801561069557600080fd5b506103a261271081565b6102a16106ad366004613ef5565b61143d565b3480156106be57600080fd5b506105bd7f000000000000000000000000000000000000000000000000000000000000000081565b3480156106f257600080fd5b506008546105bd906201000090046001600160a01b031681565b34801561071857600080fd5b506102a1610727366004613cd9565b611511565b34801561073857600080fd5b50610768610747366004613ba0565b60076020526000908152604090205461ffff81169062010000900460ff1682565b6040805161ffff90931683529015156020830152016102cf565b34801561078e57600080fd5b5061033861079d366004613f94565b611567565b3480156107ae57600080fd5b506102a16107bd366004614072565b61158f565b3480156107ce57600080fd5b506102a16107dd3660046140e0565b611624565b6102a16107f0366004614198565b611642565b6102a1610803366004613ae3565b61171a565b34801561081457600080fd5b506008546108239061ffff1681565b60405161ffff90911681526020016102cf565b34801561084257600080fd5b506102a1610851366004614273565b611930565b34801561086257600080fd5b506103e5600181565b34801561087757600080fd5b506102a16108863660046142af565b6119e2565b34801561089757600080fd5b506102a16108a6366004613c67565b611a2b565b3480156108b757600080fd5b506103a26108c63660046142cc565b611a85565b3480156108d757600080fd5b506005546102c39060ff1681565b3480156108f157600080fd5b506102a1610900366004613cd9565b611b17565b34801561091157600080fd5b5061050a6109203660046142f6565b611b90565b34801561093157600080fd5b507f00000000000000000000000000000000000000000000000000000000000000006105bd565b337f00000000000000000000000000000000000000000000000000000000000000006001600160a01b0316146109d55760405162461bcd60e51b815260206004820152601e60248201527f4c7a4170703a20696e76616c696420656e64706f696e742063616c6c6572000060448201526064015b60405180910390fd5b61ffff8616600090815260016020526040812080546109f390614343565b80601f0160208091040260200160405190810160405280929190818152602001828054610a1f90614343565b8015610a6c5780601f10610a4157610100808354040283529160200191610a6c565b820191906000526020600020905b815481529060010190602001808311610a4f57829003601f168201915b50505050509050805186869050148015610a87575060008151115b8015610aaf575080516020820120604051610aa59088908890614378565b6040518091039020145b610b0a5760405162461bcd60e51b815260206004820152602660248201527f4c7a4170703a20696e76616c696420736f757263652073656e64696e6720636f6044820152651b9d1c9858dd60d21b60648201526084016109cc565b610b808787878080601f01602080910402602001604051908101604052809392919081815260200183838082843760009201919091525050604080516020601f8a018190048102820181019092528881528a935091508890889081908401838280828437600092019190915250611c4192505050565b50505050505050565b60006001600160e01b0319821663031e0c0560e51b1480610bba57506301ffc9a760e01b6001600160e01b03198316145b92915050565b610bc8611d4b565b6040516307e0db1760e01b815261ffff821660048201527f00000000000000000000000000000000000000000000000000000000000000006001600160a01b0316906307e0db17906024015b600060405180830381600087803b158015610c2e57600080fd5b505af1158015610c42573d6000803e3d6000fd5b5050505050565b610c51611d4b565b6040516310ddb13760e01b815261ffff821660048201527f00000000000000000000000000000000000000000000000000000000000000006001600160a01b0316906310ddb13790602401610c14565b600080610cb389898989898989611da5565b9150915097509795505050505050565b61ffff831660009081526001602052604081208054829190610ce490614343565b80601f0160208091040260200160405190810160405280929190818152602001828054610d1090614343565b8015610d5d5780601f10610d3257610100808354040283529160200191610d5d565b820191906000526020600020905b815481529060010190602001808311610d4057829003601f168201915b505050505090508383604051610d74929190614378565b60405180910390208180519060200120149150505b9392505050565b610d98611d4b565b6040516342d65a8d60e01b81526001600160a01b037f000000000000000000000000000000000000000000000000000000000000000016906342d65a8d90610de8908690869086906004016143b1565b600060405180830381600087803b158015610e0257600080fd5b505af1158015610b80573d6000803e3d6000fd5b610e1e611d4b565b6001600160a01b038116610e745760405162461bcd60e51b815260206004820152601d60248201527f4f46544665653a206665654f776e65722063616e6e6f7420626520307800000060448201526064016109cc565b6008805462010000600160b01b031916620100006001600160a01b038416908102919091179091556040519081527f047912631afa564eebd3db2efe191a0dec62da1fede6bbbc1ffc89d87845b1b5906020015b60405180910390a150565b610edb611d4b565b6127108161ffff161115610f015760405162461bcd60e51b81526004016109cc906143cf565b6008805461ffff191661ffff83169081179091556040519081527fd56fd0f83a512cb4e34baf78b277f71fe2e27ccfc0e1c469c345f4cee340766290602001610ec8565b333014610fa35760405162461bcd60e51b815260206004820152602660248201527f4e6f6e626c6f636b696e674c7a4170703a2063616c6c6572206d7573742062656044820152650204c7a4170760d41b60648201526084016109cc565b6110198686868080601f01602080910402602001604051908101604052809392919081815260200183838082843760009201919091525050604080516020601f890181900481028201810190925287815289935091508790879081908401838280828437600092019190915250611e9e92505050565b505050505050565b611029611d4b565b6110336000611f25565b565b6001602052600090815260409020805461104e90614343565b80601f016020809104026020016040519081016040528092919081815260200182805461107a90614343565b80156110c75780601f1061109c576101008083540402835291602001916110c7565b820191906000526020600020905b8154815290600101906020018083116110aa57829003601f168201915b505050505081565b6110d7611d4b565b6127108161ffff1611156110fd5760405162461bcd60e51b81526004016109cc906143cf565b60408051808201825261ffff83811680835285151560208085018281528985166000818152600784528890209651875492511515620100000262ffffff1990931696169590951717909455845192835292820192909252918201527fdd9c9685af3e6dcb56d8f4b88d2595d4add6837a150034e7781c46b6dcf8aaab906060015b60405180910390a1505050565b6040516370a0823160e01b81523060048201526000907f00000000000000000000000000000000000000000000000000000000000000006001600160a01b0316906370a0823190602401602060405180830381865afa1580156111f2573d6000803e3d6000fd5b505050506040513d601f19601f820116820180604052508101906112169190614417565b7f00000000000000000000000000000000000000000000000000000000000000006001600160a01b03166318160ddd6040518163ffffffff1660e01b8152600401602060405180830381865afa158015611274573d6000803e3d6000fd5b505050506040513d601f19601f820116820180604052508101906112989190614417565b6112a29190614446565b905090565b61ffff81166000908152600160205260408120805460609291906112ca90614343565b80601f01602080910402602001604051908101604052809291908181526020018280546112f690614343565b80156113435780601f1061131857610100808354040283529160200191611343565b820191906000526020600020905b81548152906001019060200180831161132657829003601f168201915b5050505050905080516000141561139c5760405162461bcd60e51b815260206004820152601d60248201527f4c7a4170703a206e6f20747275737465642070617468207265636f726400000060448201526064016109cc565b610d896000601483516113af9190614446565b839190611f75565b6113bf611d4b565b8181306040516020016113d49392919061445d565b60408051601f1981840301815291815261ffff8516600090815260016020908152919020825161140993919290910190613960565b507f8c0400cfe2d1199b1a725c78960bcc2a344d869b80590d0f2bd005db15a572ce83838360405161117e939291906143b1565b611448878785612082565b50809350506114ef878787878080601f0160208091040260200160405190810160405280939291908181526020018383808284376000920191909152508992506114989150506020870187613cd9565b6114a86040880160208901613cd9565b6114b56040890189614483565b8080601f0160208091040260200160405190810160405280939291908181526020018383808284376000920191909152506120c992505050565b925081831015610b805760405162461bcd60e51b81526004016109cc906144c9565b611519611d4b565b600380546001600160a01b0319166001600160a01b0383169081179091556040519081527f5db758e995a17ec1ad84bdef7e8c3293a0bd6179bcce400dff5d4c3d87db726b90602001610ec8565b60008061157c8c8c8c8c8c8c8c8c8c8c612164565b915091509a509a98505050505050505050565b611597611d4b565b6040516332fb62e760e21b81526001600160a01b037f0000000000000000000000000000000000000000000000000000000000000000169063cbed8b9c906115eb9088908890889088908890600401614516565b600060405180830381600087803b15801561160557600080fd5b505af1158015611619573d6000803e3d6000fd5b505050505050505050565b6116368a8a8a8a8a8a8a8a8a8a612263565b50505050505050505050565b61164d8a8a88612082565b50809650506116f88a8a8a8a8080601f0160208091040260200160405190810160405280939291908181526020018383808284376000920191909152508c92508a9150899050886116a160208a018a613cd9565b6116b160408b0160208c01613cd9565b6116be60408c018c614483565b8080601f01602080910402602001604051908101604052809392919081815260200183838082843760009201919091525061249592505050565b9550848610156116365760405162461bcd60e51b81526004016109cc906144c9565b61ffff8616600090815260046020526040808220905161173d9088908890614378565b90815260408051602092819003830190206001600160401b038716600090815292529020549050806117bd5760405162461bcd60e51b815260206004820152602360248201527f4e6f6e626c6f636b696e674c7a4170703a206e6f2073746f726564206d65737360448201526261676560e81b60648201526084016109cc565b8083836040516117ce929190614378565b60405180910390201461182d5760405162461bcd60e51b815260206004820152602160248201527f4e6f6e626c6f636b696e674c7a4170703a20696e76616c6964207061796c6f616044820152601960fa1b60648201526084016109cc565b61ffff871660009081526004602052604080822090516118509089908990614378565b90815260408051602092819003830181206001600160401b038916600090815290845282902093909355601f880182900482028301820190528682526118e8918991899089908190840183828082843760009201919091525050604080516020601f8a018190048102820181019092528881528a935091508890889081908401838280828437600092019190915250611e9e92505050565b7fc264d91f3adc5588250e1551f547752ca0cfa8f6b530d243b9f9f4cab10ea8e5878787878560405161191f959493929190614544565b60405180910390a150505050505050565b611938611d4b565b600081116119805760405162461bcd60e51b81526020600482015260156024820152744c7a4170703a20696e76616c6964206d696e47617360581b60448201526064016109cc565b61ffff83811660008181526002602090815260408083209487168084529482529182902085905581519283528201929092529081018290527f9d5c7c0b934da8fefa9c7760c98383778a12dfbfc0c3b3106518f43fb9508ac09060600161117e565b6119ea611d4b565b6005805460ff19168215159081179091556040519081527f1584ad594a70cbe1e6515592e1272a987d922b097ead875069cebe8b40c004a490602001610ec8565b611a33611d4b565b61ffff83166000908152600160205260409020611a519083836139e4565b507ffa41487ad5d6728f0b19276fa1eddc16558578f5109fc39d2dc33c3230470dab83838360405161117e939291906143b1565b61ffff828116600090815260076020908152604080832081518083019092525493841681526201000090930460ff1615801591840191909152909190611aea57805161271090611ad99061ffff168561457f565b611ae391906145b4565b9150611b10565b60085461ffff1615611b0b5760085461271090611ad99061ffff168561457f565b600091505b5092915050565b611b1f611d4b565b6001600160a01b038116611b845760405162461bcd60e51b815260206004820152602660248201527f4f776e61626c653a206e6577206f776e657220697320746865207a65726f206160448201526564647265737360d01b60648201526084016109cc565b611b8d81611f25565b50565b604051633d7b2f6f60e21b815261ffff808616600483015284166024820152306044820152606481018290526060907f00000000000000000000000000000000000000000000000000000000000000006001600160a01b03169063f5ecbdbc90608401600060405180830381865afa158015611c10573d6000803e3d6000fd5b505050506040513d6000823e601f3d908101601f19168201604052611c3891908101906145c8565b95945050505050565b600080611ca45a60966366ad5c8a60e01b89898989604051602401611c699493929190614635565b60408051601f198184030181529190526020810180516001600160e01b03166001600160e01b03199093169290921790915230929190612546565b9150915081611019578280519060200120600460008861ffff1661ffff16815260200190815260200160002086604051611cde9190614673565b9081526040805191829003602090810183206001600160401b0389166000908152915220919091557fe183f33de2837795525b4792ca4cd60535bd77c53b7e7030060bfcf5734d6b0c90611d3b908890889088908890879061468f565b60405180910390a1505050505050565b6000546001600160a01b031633146110335760405162461bcd60e51b815260206004820181905260248201527f4f776e61626c653a2063616c6c6572206973206e6f7420746865206f776e657260448201526064016109cc565b6000806000611df489898080601f016020809104026020016040519081016040528093929190818152602001838380828437600092019190915250611def92508b91506125d09050565b612656565b60405163040a7bb160e41b81529091506001600160a01b037f000000000000000000000000000000000000000000000000000000000000000016906340a7bb1090611e4d908d90309086908c908c908c906004016146ed565b6040805180830381865afa158015611e69573d6000803e3d6000fd5b505050506040513d601f19601f82011682018060405250810190611e8d9190614743565b925092505097509795505050505050565b6000611eaa8282612688565b905060ff8116611ec557611ec0858585856126e4565b610c42565b60ff811660011415611edd57611ec0858585856127ae565b60405162461bcd60e51b815260206004820152601c60248201527f4f4654436f72653a20756e6b6e6f776e207061636b657420747970650000000060448201526064016109cc565b600080546001600160a01b038381166001600160a01b0319831681178455604051919092169283917f8be0079c531659141344cd1fd0a4f28419497f9722a3daafe3b4186f6b6457e09190a35050565b606081611f8381601f614767565b1015611fc25760405162461bcd60e51b815260206004820152600e60248201526d736c6963655f6f766572666c6f7760901b60448201526064016109cc565b611fcc8284614767565b845110156120105760405162461bcd60e51b8152602060048201526011602482015270736c6963655f6f75744f66426f756e647360781b60448201526064016109cc565b60608215801561202f5760405191506000825260208201604052612079565b6040519150601f8416801560200281840101858101878315602002848b0101015b81831015612068578051835260209283019201612050565b5050858452601f01601f1916604052505b50949350505050565b60008061208f8484611a85565b905061209b8184614446565b915080156120c1576008546120c19086906201000090046001600160a01b0316836128eb565b935093915050565b60006120d787828481612988565b6120e085612a02565b5090506120ef88888884612a42565b9050600061210087611def846125d0565b9050612110888287878734612ca8565b886001600160a01b03168861ffff167f39a4c66499bcf4b56d79f0dde8ed7a9d4925a0df55825206b2b8531e202be0d0898560405161215092919061477f565b60405180910390a350979650505050505050565b60008060006121b7338d8d8080601f0160208091040260200160405190810160405280939291908181526020018383808284376000920191909152506121af92508f91506125d09050565b8c8c8c612e35565b90507f00000000000000000000000000000000000000000000000000000000000000006001600160a01b03166340a7bb108e30848a8a8a6040518763ffffffff1660e01b815260040161220f969594939291906146ed565b6040805180830381865afa15801561222b573d6000803e3d6000fd5b505050506040513d601f19601f8201168201806040525081019061224f9190614743565b92509250509a509a98505050505050505050565b61ffff8a166000908152600660205260408082209051612286908c908c90614378565b90815260408051602092819003830190206001600160401b038b16600090815292529020549050806123065760405162461bcd60e51b815260206004820152602360248201527f4f4654436f72653a206e6f206661696c6564206d65737361676520746f20726560448201526274727960e81b60648201526084016109cc565b6000878787878787604051602001612323969594939291906147a1565b6040516020818303038152906040528051906020012090508181146123985760405162461bcd60e51b815260206004820152602560248201527f4f4654436f72653a206661696c6564206d6573736167652068617368206d69736044820152640dac2e8c6d60db1b60648201526084016109cc565b61ffff8c166000908152600660205260409081902090516123bc908d908d90614378565b9081526040805191829003602090810183206001600160401b038d16600090815291529081205563147a7d7160e01b81526001600160a01b0387169063147a7d719061241c908f908f908f908f908f908f908e908e908e906004016147de565b600060405180830381600087803b15801561243657600080fd5b505af115801561244a573d6000803e3d6000fd5b505050507f41ea88d75e53240e2c5ace3a3d7263efe6c8f4fe42c0e3ef269f71daef1001c88160405161247f91815260200190565b60405180910390a1505050505050505050505050565b60006124ad8a6001846001600160401b038916612988565b6124b688612a02565b5090506124c58b8b8b84612a42565b905060006124df338b6124d7856125d0565b8b8b8b612e35565b90506124ef8b8287878734612ca8565b8b6001600160a01b03168b61ffff167f39a4c66499bcf4b56d79f0dde8ed7a9d4925a0df55825206b2b8531e202be0d08c8560405161252f92919061477f565b60405180910390a3509a9950505050505050505050565b6000606060008060008661ffff166001600160401b0381111561256b5761256b613cf6565b6040519080825280601f01601f191660200182016040528015612595576020820181803683370190505b50905060008087516020890160008d8df191503d9250868311156125b7578692505b828152826000602083013e909890975095505050505050565b6000806125fd7f0000000000000000000000000000000000000000000000000000000000000000846145b4565b90506001600160401b03811115610bba5760405162461bcd60e51b815260206004820152601a60248201527f4f4654436f72653a20616d6f756e745344206f766572666c6f7700000000000060448201526064016109cc565b60606000835184846040516020016126719493929190614849565b604051602081830303815290604052905092915050565b6000612695826001614767565b835110156126db5760405162461bcd60e51b8152602060048201526013602482015272746f55696e74385f6f75744f66426f756e647360681b60448201526064016109cc565b50016001015190565b6000806126f083612e79565b9150915060008061270084612f13565b9150915081612741577fa3c8cf09cc0c729a96662c0de5e58fad3e4df68c58c29ab1f90982adfc992169846040516127389190613e5b565b60405180910390a15b600061274c84612f58565b9050612759898383612f8d565b9050816001600160a01b03168961ffff167fbf551ec93859b170f9b2141bd9298bf3f64322c6f7beb2543a0cb669834118bf8360405161279b91815260200190565b60405180910390a3505050505050505050565b60008060008060006127bf8661314a565b945094509450945094506000806127d586612f13565b9150915060006127e486612f58565b90506127f18c8383612f8d565b9050816001600160a01b03168c61ffff167fbf551ec93859b170f9b2141bd9298bf3f64322c6f7beb2543a0cb669834118bf8360405161283391815260200190565b60405180910390a382612884577fa3c8cf09cc0c729a96662c0de5e58fad3e4df68c58c29ab1f90982adfc9921698760405161286f9190613e5b565b60405180910390a150505050505050506128e5565b6001600160a01b0382163b6128cc576040516001600160a01b03831681527f9aedf5fdba8716db3b6705ca00150643309995d4f818a249ed6dde6677e7792d9060200161286f565b6128dc8c8c8c8b86868b8b6132aa565b50505050505050505b50505050565b6001600160a01b038316331461294e5760405162461bcd60e51b815260206004820152602260248201527f50726f78794f46543a206f776e6572206973206e6f742073656e642063616c6c60448201526132b960f11b60648201526084016109cc565b6129836001600160a01b037f000000000000000000000000000000000000000000000000000000000000000016848484613475565b505050565b60055460ff16156129a45761299f848484846134e0565b6128e5565b8151156128e55760405162461bcd60e51b815260206004820152602660248201527f4f4654436f72653a205f61646170746572506172616d73206d7573742062652060448201526532b6b83a3c9760d11b60648201526084016109cc565b600080612a2f7f00000000000000000000000000000000000000000000000000000000000000008461489f565b9050612a3b8184614446565b9150915091565b6040516370a0823160e01b815230600482015260009081906001600160a01b037f000000000000000000000000000000000000000000000000000000000000000016906370a0823190602401602060405180830381865afa158015612aab573d6000803e3d6000fd5b505050506040513d601f19601f82011682018060405250810190612acf9190614417565b9050612adc8630856128eb565b6040516370a0823160e01b815230600482015281907f00000000000000000000000000000000000000000000000000000000000000006001600160a01b0316906370a0823190602401602060405180830381865afa158015612b42573d6000803e3d6000fd5b505050506040513d601f19601f82011682018060405250810190612b669190614417565b612b709190614446565b9250600080612b7e85612a02565b90925090508015612bbd57612bbd6001600160a01b037f00000000000000000000000000000000000000000000000000000000000000001689836135bf565b6000612bc8836125d0565b6008549091506001600160401b0380831691612bee91600160b01b9091048116906148b3565b6001600160401b03161015612c515760405162461bcd60e51b815260206004820152602360248201527f50726f78794f46543a206f7574626f756e64416d6f756e745344206f766572666044820152626c6f7760e81b60648201526084016109cc565b80600860168282829054906101000a90046001600160401b0316612c7591906148db565b92506101000a8154816001600160401b0302191690836001600160401b0316021790555082945050505050949350505050565b61ffff861660009081526001602052604081208054612cc690614343565b80601f0160208091040260200160405190810160405280929190818152602001828054612cf290614343565b8015612d3f5780601f10612d1457610100808354040283529160200191612d3f565b820191906000526020600020905b815481529060010190602001808311612d2257829003601f168201915b50505050509050805160001415612db15760405162461bcd60e51b815260206004820152603060248201527f4c7a4170703a2064657374696e6174696f6e20636861696e206973206e6f742060448201526f61207472757374656420736f7572636560801b60648201526084016109cc565b60405162c5803160e81b81526001600160a01b037f0000000000000000000000000000000000000000000000000000000000000000169063c5803100908490612e08908b9086908c908c908c908c90600401614906565b6000604051808303818588803b158015612e2157600080fd5b505af11580156128dc573d6000803e3d6000fd5b8451604051606091612e5e9160019190899089906014908d908a908c9082908c90602001614960565b60405160208183030381529060405290509695505050505050565b6060600080612e888482612688565b60ff1614612ed35760405162461bcd60e51b815260206004820152601860248201527713d19510dbdc994e881a5b9d985b1a59081c185e5b1bd85960421b60448201526064016109cc565b6000612ee0846001612688565b9050612ef184600260ff8416611f75565b9250612f0b612f01826002614a0a565b859060ff166135ef565b915050915091565b6000808251601414612f2c575060009261dead92509050565b6000612f38848261364c565b90506001600160a01b038116612f4d575061dead5b600194909350915050565b6000610bba7f00000000000000000000000000000000000000000000000000000000000000006001600160401b03841661457f565b6000612f98826125d0565b60088054601690612fba908490600160b01b90046001600160401b03166148b3565b92506101000a8154816001600160401b0302191690836001600160401b0316021790555060007f00000000000000000000000000000000000000000000000000000000000000006001600160a01b03166370a08231856040518263ffffffff1660e01b815260040161303b91906001600160a01b0391909116815260200190565b602060405180830381865afa158015613058573d6000803e3d6000fd5b505050506040513d601f19601f8201168201806040525081019061307c9190614417565b90506130b26001600160a01b037f00000000000000000000000000000000000000000000000000000000000000001685856135bf565b6040516370a0823160e01b81526001600160a01b03858116600483015282917f0000000000000000000000000000000000000000000000000000000000000000909116906370a0823190602401602060405180830381865afa15801561311c573d6000803e3d6000fd5b505050506040513d601f19601f820116820180604052508101906131409190614417565b611c389190614446565b60608060008181600161315d8783612688565b60ff16146131a85760405162461bcd60e51b815260206004820152601860248201527713d19510dbdc994e881a5b9d985b1a59081c185e5b1bd85960421b60448201526064016109cc565b60006131b5876001612688565b90506131c687600260ff8416611f75565b94506131e06131d6826002614a0a565b889060ff166135ef565b935060006131fc6131f283600a614a0a565b899060ff16612688565b905061321b61320c83600b614a0a565b899060ff908116908416611f75565b965060006132428261322e85600b614a0a565b6132389190614a0a565b8a9060ff16612688565b905061326c8261325385600c614a0a565b61325d9190614a0a565b8a9060ff908116908416611f75565b945061329c818361327e86600c614a0a565b6132889190614a0a565b6132929190614a0a565b8a9060ff166135ef565b935050505091939590929450565b600080613323836001600160401b0316609663147a7d7160e01b8d8d8d8d8c8c6040516024016132df96959493929190614a2f565b60408051601f198184030181529190526020810180516001600160e01b03166001600160e01b0319909316929092179091526001600160a01b038a16929190612546565b91509150816133f757868686866040516020016133439493929190614a87565b60408051601f19818403018152828252805160209182012061ffff8e1660009081526006909252919020909161337a908c90614673565b9081526040805191829003602090810183206001600160401b038d166000908152915220919091556001600160a01b0387169061ffff8c16907f95c1ad3ef50dd05e668d7b80e9a723079395ac4867a4050552d5d9219e683d74906133ea908d908d908d908c908c908a90614ac2565b60405180910390a3611636565b6000878787876040516020016134109493929190614a87565b6040516020818303038152906040528051906020012090508a61ffff167fb8890edbfc1c74692f527444645f95489c3703cc2df42e4a366f5d06fa6cd8848b8b8460405161346093929190614b24565b60405180910390a25050505050505050505050565b6040516001600160a01b03808516602483015283166044820152606481018290526128e59085906323b872dd60e01b906084015b60408051601f198184030181529190526020810180516001600160e01b03166001600160e01b0319909316929092179091526136b1565b60006134eb83613783565b61ffff80871660009081526002602090815260408083209389168352929052908120549192509061351d908490614767565b90506000811161356f5760405162461bcd60e51b815260206004820152601a60248201527f4c7a4170703a206d696e4761734c696d6974206e6f742073657400000000000060448201526064016109cc565b808210156110195760405162461bcd60e51b815260206004820152601b60248201527f4c7a4170703a20676173206c696d697420697320746f6f206c6f77000000000060448201526064016109cc565b6040516001600160a01b03831660248201526044810182905261298390849063a9059cbb60e01b906064016134a9565b60006135fc826008614767565b835110156136435760405162461bcd60e51b8152602060048201526014602482015273746f55696e7436345f6f75744f66426f756e647360601b60448201526064016109cc565b50016008015190565b6000613659826014614767565b835110156136a15760405162461bcd60e51b8152602060048201526015602482015274746f416464726573735f6f75744f66426f756e647360581b60448201526064016109cc565b500160200151600160601b900490565b6000613706826040518060400160405280602081526020017f5361666545524332303a206c6f772d6c6576656c2063616c6c206661696c6564815250856001600160a01b03166137df9092919063ffffffff16565b80519091501561298357808060200190518101906137249190614b52565b6129835760405162461bcd60e51b815260206004820152602a60248201527f5361666545524332303a204552433230206f7065726174696f6e20646964206e6044820152691bdd081cdd58d8d9595960b21b60648201526084016109cc565b60006022825110156137d75760405162461bcd60e51b815260206004820152601c60248201527f4c7a4170703a20696e76616c69642061646170746572506172616d730000000060448201526064016109cc565b506022015190565b60606137ee84846000856137f6565b949350505050565b6060824710156138575760405162461bcd60e51b815260206004820152602660248201527f416464726573733a20696e73756666696369656e742062616c616e636520666f6044820152651c8818d85b1b60d21b60648201526084016109cc565b6001600160a01b0385163b6138ae5760405162461bcd60e51b815260206004820152601d60248201527f416464726573733a2063616c6c20746f206e6f6e2d636f6e747261637400000060448201526064016109cc565b600080866001600160a01b031685876040516138ca9190614673565b60006040518083038185875af1925050503d8060008114613907576040519150601f19603f3d011682016040523d82523d6000602084013e61390c565b606091505b509150915061391c828286613927565b979650505050505050565b60608315613936575081610d89565b8251156139465782518084602001fd5b8160405162461bcd60e51b81526004016109cc9190613e5b565b82805461396c90614343565b90600052602060002090601f01602090048101928261398e57600085556139d4565b82601f106139a757805160ff19168380011785556139d4565b828001600101855582156139d4579182015b828111156139d45782518255916020019190600101906139b9565b506139e0929150613a58565b5090565b8280546139f090614343565b90600052602060002090601f016020900481019282613a1257600085556139d4565b82601f10613a2b5782800160ff198235161785556139d4565b828001600101855582156139d4579182015b828111156139d4578235825591602001919060010190613a3d565b5b808211156139e05760008155600101613a59565b803561ffff81168114613a7f57600080fd5b919050565b60008083601f840112613a9657600080fd5b5081356001600160401b03811115613aad57600080fd5b602083019150836020828501011115613ac557600080fd5b9250929050565b80356001600160401b0381168114613a7f57600080fd5b60008060008060008060808789031215613afc57600080fd5b613b0587613a6d565b955060208701356001600160401b0380821115613b2157600080fd5b613b2d8a838b01613a84565b9097509550859150613b4160408a01613acc565b94506060890135915080821115613b5757600080fd5b50613b6489828a01613a84565b979a9699509497509295939492505050565b600060208284031215613b8857600080fd5b81356001600160e01b031981168114610d8957600080fd5b600060208284031215613bb257600080fd5b610d8982613a6d565b8015158114611b8d57600080fd5b600080600080600080600060a0888a031215613be457600080fd5b613bed88613a6d565b965060208801356001600160401b0380821115613c0957600080fd5b613c158b838c01613a84565b909850965060408a0135955060608a01359150613c3182613bbb565b90935060808901359080821115613c4757600080fd5b50613c548a828b01613a84565b989b979a50959850939692959293505050565b600080600060408486031215613c7c57600080fd5b613c8584613a6d565b925060208401356001600160401b03811115613ca057600080fd5b613cac86828701613a84565b9497909650939450505050565b6001600160a01b0381168114611b8d57600080fd5b8035613a7f81613cb9565b600060208284031215613ceb57600080fd5b8135610d8981613cb9565b634e487b7160e01b600052604160045260246000fd5b604051601f8201601f191681016001600160401b0381118282101715613d3457613d34613cf6565b604052919050565b60006001600160401b03821115613d5557613d55613cf6565b50601f01601f191660200190565b600080600060608486031215613d7857600080fd5b613d8184613a6d565b925060208401356001600160401b03811115613d9c57600080fd5b8401601f81018613613dad57600080fd5b8035613dc0613dbb82613d3c565b613d0c565b818152876020838501011115613dd557600080fd5b81602084016020830137600060208383010152809450505050613dfa60408501613acc565b90509250925092565b60005b83811015613e1e578181015183820152602001613e06565b838111156128e55750506000910152565b60008151808452613e47816020860160208601613e03565b601f01601f19169290920160200192915050565b602081526000610d896020830184613e2f565b600080600060608486031215613e8357600080fd5b613e8c84613a6d565b92506020840135613e9c81613bbb565b9150613dfa60408501613a6d565b60008060408385031215613ebd57600080fd5b613ec683613a6d565b9150613ed460208401613a6d565b90509250929050565b600060608284031215613eef57600080fd5b50919050565b600080600080600080600060c0888a031215613f1057600080fd5b8735613f1b81613cb9565b9650613f2960208901613a6d565b955060408801356001600160401b0380821115613f4557600080fd5b613f518b838c01613a84565b909750955060608a0135945060808a0135935060a08a0135915080821115613f7857600080fd5b50613f858a828b01613edd565b91505092959891949750929550565b60008060008060008060008060008060e08b8d031215613fb357600080fd5b613fbc8b613a6d565b995060208b01356001600160401b0380821115613fd857600080fd5b613fe48e838f01613a84565b909b50995060408d0135985060608d013591508082111561400457600080fd5b6140108e838f01613a84565b909850965086915061402460808e01613acc565b955060a08d0135915061403682613bbb565b90935060c08c0135908082111561404c57600080fd5b506140598d828e01613a84565b915080935050809150509295989b9194979a5092959850565b60008060008060006080868803121561408a57600080fd5b61409386613a6d565b94506140a160208701613a6d565b93506040860135925060608601356001600160401b038111156140c357600080fd5b6140cf88828901613a84565b969995985093965092949392505050565b60008060008060008060008060008060e08b8d0312156140ff57600080fd5b6141088b613a6d565b995060208b01356001600160401b038082111561412457600080fd5b6141308e838f01613a84565b909b50995089915061414460408e01613acc565b985060608d013591508082111561415a57600080fd5b6141668e838f01613a84565b909850965060808d0135915061417b82613cb9565b90945060a08c0135935060c08c0135908082111561404c57600080fd5b6000806000806000806000806000806101008b8d0312156141b857600080fd5b6141c18b613cce565b99506141cf60208c01613a6d565b985060408b01356001600160401b03808211156141eb57600080fd5b6141f78e838f01613a84565b909a50985060608d0135975060808d0135965060a08d013591508082111561421e57600080fd5b61422a8e838f01613a84565b909650945084915061423e60c08e01613acc565b935060e08d013591508082111561425457600080fd5b506142618d828e01613edd565b9150509295989b9194979a5092959850565b60008060006060848603121561428857600080fd5b61429184613a6d565b925061429f60208501613a6d565b9150604084013590509250925092565b6000602082840312156142c157600080fd5b8135610d8981613bbb565b600080604083850312156142df57600080fd5b6142e883613a6d565b946020939093013593505050565b6000806000806080858703121561430c57600080fd5b61431585613a6d565b935061432360208601613a6d565b9250604085013561433381613cb9565b9396929550929360600135925050565b600181811c9082168061435757607f821691505b60208210811415613eef57634e487b7160e01b600052602260045260246000fd5b8183823760009101908152919050565b81835281816020850137506000828201602090810191909152601f909101601f19169091010190565b61ffff84168152604060208201526000611c38604083018486614388565b60208082526028908201527f4f46544665653a20666565206270206d757374206265203c3d2042505f44454e60408201526727a6a4a720aa27a960c11b606082015260800190565b60006020828403121561442957600080fd5b5051919050565b634e487b7160e01b600052601160045260246000fd5b60008282101561445857614458614430565b500390565b8284823760609190911b6bffffffffffffffffffffffff19169101908152601401919050565b6000808335601e1984360301811261449a57600080fd5b8301803591506001600160401b038211156144b457600080fd5b602001915036819003821315613ac557600080fd5b6020808252602d908201527f426173654f4654576974684665653a20616d6f756e74206973206c657373207460408201526c1a185b881b5a5b905b5bdd5b9d609a1b606082015260800190565b600061ffff80881683528087166020840152508460408301526080606083015261391c608083018486614388565b61ffff86168152608060208201526000614562608083018688614388565b6001600160401b0394909416604083015250606001529392505050565b600081600019048311821515161561459957614599614430565b500290565b634e487b7160e01b600052601260045260246000fd5b6000826145c3576145c361459e565b500490565b6000602082840312156145da57600080fd5b81516001600160401b038111156145f057600080fd5b8201601f8101841361460157600080fd5b805161460f613dbb82613d3c565b81815285602083850101111561462457600080fd5b611c38826020830160208601613e03565b61ffff851681526080602082015260006146526080830186613e2f565b6001600160401b0385166040840152828103606084015261391c8185613e2f565b60008251614685818460208701613e03565b9190910192915050565b61ffff8616815260a0602082015260006146ac60a0830187613e2f565b6001600160401b038616604084015282810360608401526146cd8186613e2f565b905082810360808401526146e18185613e2f565b98975050505050505050565b61ffff871681526001600160a01b038616602082015260a06040820181905260009061471b90830187613e2f565b85151560608401528281036080840152614736818587614388565b9998505050505050505050565b6000806040838503121561475657600080fd5b505080516020909101519092909150565b6000821982111561477a5761477a614430565b500190565b6040815260006147926040830185613e2f565b90508260208301529392505050565b6080815260006147b560808301888a614388565b6001600160a01b0387166020840152604083018690528281036060840152614736818587614388565b61ffff8a16815260c0602082015260006147fc60c083018a8c614388565b6001600160401b0389166040840152828103606084015261481e81888a614388565b905085608084015282810360a0840152614839818587614388565b9c9b505050505050505050505050565b600060ff60f81b808760f81b168352808660f81b166001840152508351614877816002850160208801613e03565b60c09390931b6001600160c01b03191660029290930191820192909252600a01949350505050565b6000826148ae576148ae61459e565b500690565b60006001600160401b03838116908316818110156148d3576148d3614430565b039392505050565b60006001600160401b038083168185168083038211156148fd576148fd614430565b01949350505050565b61ffff8716815260c06020820152600061492360c0830188613e2f565b82810360408401526149358188613e2f565b6001600160a01b0387811660608601528616608085015283810360a085015290506147368185613e2f565b600060ff60f81b808d60f81b168352808c60f81b1660018401528a5161498d816002860160208f01613e03565b60c08b901b6001600160c01b03191660029185019182015260f88a811b8316600a83015260608a901b6bffffffffffffffffffffffff1916600b83015288901b8216601f8201528587602083013760c085901b6001600160c01b031916908601602081019182529150506028019c9b505050505050505050505050565b600060ff821660ff84168060ff03821115614a2757614a27614430565b019392505050565b61ffff8716815260c060208201526000614a4c60c0830188613e2f565b6001600160401b03871660408401528281036060840152614a6d8187613e2f565b905084608084015282810360a08401526147368185613e2f565b608081526000614a9a6080830187613e2f565b6001600160a01b038616602084015260408301859052828103606084015261391c8185613e2f565b60c081526000614ad560c0830189613e2f565b6001600160401b03881660208401528281036040840152614af68188613e2f565b90508560608401528281036080840152614b108186613e2f565b905082810360a08401526147368185613e2f565b606081526000614b376060830186613e2f565b6001600160401b039490941660208301525060400152919050565b600060208284031215614b6457600080fd5b8151610d8981613bbb56fea264697066735822122055c9454c0a18beaa8702d75fcb3b4e7eda1a2f6ff47e80e460324bf5baada6b164736f6c634300080c0033",
  "devdoc": {
    "kind": "dev",
    "methods": {
      "circulatingSupply()": {
        "details": "returns the circulating amount of tokens on current chain"
      },
      "estimateSendFee(uint16,bytes,uint256,bool,bytes)": {
        "details": "estimate send token `_tokenId` to (`_dstChainId`, `_toAddress`) _dstChainId - L0 defined chain id to send tokens too _toAddress - dynamic bytes array which contains the address to whom you are sending tokens to on the dstChain _amount - amount of the tokens to transfer _useZro - indicates to use zro to pay L0 fees _adapterParam - flexible bytes array to indicate messaging adapter services in L0"
      },
      "owner()": {
        "details": "Returns the address of the current owner."
      },
      "renounceOwnership()": {
        "details": "Leaves the contract without owner. It will not be possible to call `onlyOwner` functions anymore. Can only be called by the current owner. NOTE: Renouncing ownership will leave the contract without an owner, thereby removing any functionality that is only available to the owner."
      },
      "sendFrom(address,uint16,bytes,uint256,uint256,(address,address,bytes))": {
        "details": "send `_amount` amount of token to (`_dstChainId`, `_toAddress`) from `_from` `_from` the owner of token `_dstChainId` the destination chain identifier `_toAddress` can be any size depending on the `dstChainId`. `_amount` the quantity of tokens in wei `_minAmount` the minimum amount of tokens to receive on dstChain `_refundAddress` the address LayerZero refunds if too much message fee is sent `_zroPaymentAddress` set to address(0x0) if not paying in ZRO (LayerZero Token) `_adapterParams` is a flexible bytes array to indicate messaging adapter services"
      },
      "token()": {
        "details": "returns the address of the ERC20 token"
      },
      "transferOwnership(address)": {
        "details": "Transfers ownership of the contract to a new account (`newOwner`). Can only be called by the current owner."
      }
    },
    "version": 1
  },
  "userdoc": {
    "kind": "user",
    "methods": {},
    "version": 1
  },
  "storageLayout": {
    "storage": [
      {
        "astId": 3583,
        "contract": "contracts/ProxyOFT.sol:ProxyOFT",
        "label": "_owner",
        "offset": 0,
        "slot": "0",
        "type": "t_address"
      },
      {
        "astId": 212,
        "contract": "contracts/ProxyOFT.sol:ProxyOFT",
        "label": "trustedRemoteLookup",
        "offset": 0,
        "slot": "1",
        "type": "t_mapping(t_uint16,t_bytes_storage)"
      },
      {
        "astId": 218,
        "contract": "contracts/ProxyOFT.sol:ProxyOFT",
        "label": "minDstGasLookup",
        "offset": 0,
        "slot": "2",
        "type": "t_mapping(t_uint16,t_mapping(t_uint16,t_uint256))"
      },
      {
        "astId": 220,
        "contract": "contracts/ProxyOFT.sol:ProxyOFT",
        "label": "precrime",
        "offset": 0,
        "slot": "3",
        "type": "t_address"
      },
      {
        "astId": 705,
        "contract": "contracts/ProxyOFT.sol:ProxyOFT",
        "label": "failedMessages",
        "offset": 0,
        "slot": "4",
        "type": "t_mapping(t_uint16,t_mapping(t_bytes_memory_ptr,t_mapping(t_uint64,t_bytes32)))"
      },
      {
        "astId": 1066,
        "contract": "contracts/ProxyOFT.sol:ProxyOFT",
        "label": "useCustomAdapterParams",
        "offset": 0,
        "slot": "5",
        "type": "t_bool"
      },
      {
        "astId": 1074,
        "contract": "contracts/ProxyOFT.sol:ProxyOFT",
        "label": "failedOFTReceivedMessages",
        "offset": 0,
        "slot": "6",
        "type": "t_mapping(t_uint16,t_mapping(t_bytes_memory_ptr,t_mapping(t_uint64,t_bytes32)))"
      },
      {
        "astId": 2438,
        "contract": "contracts/ProxyOFT.sol:ProxyOFT",
        "label": "chainIdToFeeBps",
        "offset": 0,
        "slot": "7",
        "type": "t_mapping(t_uint16,t_struct(FeeConfig)2447_storage)"
      },
      {
        "astId": 2440,
        "contract": "contracts/ProxyOFT.sol:ProxyOFT",
        "label": "defaultFeeBp",
        "offset": 0,
        "slot": "8",
        "type": "t_uint16"
      },
      {
        "astId": 2442,
        "contract": "contracts/ProxyOFT.sol:ProxyOFT",
        "label": "feeOwner",
        "offset": 2,
        "slot": "8",
        "type": "t_address"
      },
      {
        "astId": 2884,
        "contract": "contracts/ProxyOFT.sol:ProxyOFT",
        "label": "outboundAmountSD",
        "offset": 22,
        "slot": "8",
        "type": "t_uint64"
      }
    ],
    "types": {
      "t_address": {
        "encoding": "inplace",
        "label": "address",
        "numberOfBytes": "20"
      },
      "t_bool": {
        "encoding": "inplace",
        "label": "bool",
        "numberOfBytes": "1"
      },
      "t_bytes32": {
        "encoding": "inplace",
        "label": "bytes32",
        "numberOfBytes": "32"
      },
      "t_bytes_memory_ptr": {
        "encoding": "bytes",
        "label": "bytes",
        "numberOfBytes": "32"
      },
      "t_bytes_storage": {
        "encoding": "bytes",
        "label": "bytes",
        "numberOfBytes": "32"
      },
      "t_mapping(t_bytes_memory_ptr,t_mapping(t_uint64,t_bytes32))": {
        "encoding": "mapping",
        "key": "t_bytes_memory_ptr",
        "label": "mapping(bytes => mapping(uint64 => bytes32))",
        "numberOfBytes": "32",
        "value": "t_mapping(t_uint64,t_bytes32)"
      },
      "t_mapping(t_uint16,t_bytes_storage)": {
        "encoding": "mapping",
        "key": "t_uint16",
        "label": "mapping(uint16 => bytes)",
        "numberOfBytes": "32",
        "value": "t_bytes_storage"
      },
      "t_mapping(t_uint16,t_mapping(t_bytes_memory_ptr,t_mapping(t_uint64,t_bytes32)))": {
        "encoding": "mapping",
        "key": "t_uint16",
        "label": "mapping(uint16 => mapping(bytes => mapping(uint64 => bytes32)))",
        "numberOfBytes": "32",
        "value": "t_mapping(t_bytes_memory_ptr,t_mapping(t_uint64,t_bytes32))"
      },
      "t_mapping(t_uint16,t_mapping(t_uint16,t_uint256))": {
        "encoding": "mapping",
        "key": "t_uint16",
        "label": "mapping(uint16 => mapping(uint16 => uint256))",
        "numberOfBytes": "32",
        "value": "t_mapping(t_uint16,t_uint256)"
      },
      "t_mapping(t_uint16,t_struct(FeeConfig)2447_storage)": {
        "encoding": "mapping",
        "key": "t_uint16",
        "label": "mapping(uint16 => struct Fee.FeeConfig)",
        "numberOfBytes": "32",
        "value": "t_struct(FeeConfig)2447_storage"
      },
      "t_mapping(t_uint16,t_uint256)": {
        "encoding": "mapping",
        "key": "t_uint16",
        "label": "mapping(uint16 => uint256)",
        "numberOfBytes": "32",
        "value": "t_uint256"
      },
      "t_mapping(t_uint64,t_bytes32)": {
        "encoding": "mapping",
        "key": "t_uint64",
        "label": "mapping(uint64 => bytes32)",
        "numberOfBytes": "32",
        "value": "t_bytes32"
      },
      "t_struct(FeeConfig)2447_storage": {
        "encoding": "inplace",
        "label": "struct Fee.FeeConfig",
        "members": [
          {
            "astId": 2444,
            "contract": "contracts/ProxyOFT.sol:ProxyOFT",
            "label": "feeBP",
            "offset": 0,
            "slot": "0",
            "type": "t_uint16"
          },
          {
            "astId": 2446,
            "contract": "contracts/ProxyOFT.sol:ProxyOFT",
            "label": "enabled",
            "offset": 2,
            "slot": "0",
            "type": "t_bool"
          }
        ],
        "numberOfBytes": "32"
      },
      "t_uint16": {
        "encoding": "inplace",
        "label": "uint16",
        "numberOfBytes": "2"
      },
      "t_uint256": {
        "encoding": "inplace",
        "label": "uint256",
        "numberOfBytes": "32"
      },
      "t_uint64": {
        "encoding": "inplace",
        "label": "uint64",
        "numberOfBytes": "8"
      }
    }
  }
}