{
  "address": "0x58064360627Bc8d89A32DCae1c86d99d21b7Aa1E",
  "abi": [
    {
      "inputs": [
        {
          "internalType": "address",
          "name": "_lzEndpoint",
          "type": "address"
        },
        {
          "internalType": "address",
          "name": "_proxyToken",
          "type": "address"
        }
      ],
      "stateMutability": "nonpayable",
      "type": "constructor"
    },
    {
      "anonymous": false,
      "inputs": [
        {
          "indexed": false,
          "internalType": "uint16",
          "name": "_srcChainId",
          "type": "uint16"
        },
        {
          "indexed": false,
          "internalType": "bytes",
          "name": "_srcAddress",
          "type": "bytes"
        },
        {
          "indexed": false,
          "internalType": "uint64",
          "name": "_nonce",
          "type": "uint64"
        },
        {
          "indexed": false,
          "internalType": "bytes",
          "name": "_payload",
          "type": "bytes"
        },
        {
          "indexed": false,
          "internalType": "bytes",
          "name": "_reason",
          "type": "bytes"
        }
      ],
      "name": "MessageFailed",
      "type": "event"
    },
    {
      "anonymous": false,
      "inputs": [
        {
          "indexed": true,
          "internalType": "address",
          "name": "previousOwner",
          "type": "address"
        },
        {
          "indexed": true,
          "internalType": "address",
          "name": "newOwner",
          "type": "address"
        }
      ],
      "name": "OwnershipTransferred",
      "type": "event"
    },
    {
      "anonymous": false,
      "inputs": [
        {
          "indexed": true,
          "internalType": "uint16",
          "name": "_srcChainId",
          "type": "uint16"
        },
        {
          "indexed": false,
          "internalType": "bytes",
          "name": "_fromAddress",
          "type": "bytes"
        },
        {
          "indexed": true,
          "internalType": "address",
          "name": "_to",
          "type": "address"
        },
        {
          "indexed": false,
          "internalType": "uint256",
          "name": "_amount",
          "type": "uint256"
        }
      ],
      "name": "ReceiveFromChain",
      "type": "event"
    },
    {
      "anonymous": false,
      "inputs": [
        {
          "indexed": false,
          "internalType": "uint16",
          "name": "_srcChainId",
          "type": "uint16"
        },
        {
          "indexed": false,
          "internalType": "bytes",
          "name": "_srcAddress",
          "type": "bytes"
        },
        {
          "indexed": false,
          "internalType": "uint64",
          "name": "_nonce",
          "type": "uint64"
        },
        {
          "indexed": false,
          "internalType": "bytes32",
          "name": "_payloadHash",
          "type": "bytes32"
        }
      ],
      "name": "RetryMessageSuccess",
      "type": "event"
    },
    {
      "anonymous": false,
      "inputs": [
        {
          "indexed": true,
          "internalType": "uint16",
          "name": "_dstChainId",
          "type": "uint16"
        },
        {
          "indexed": true,
          "internalType": "address",
          "name": "_from",
          "type": "address"
        },
        {
          "indexed": true,
          "internalType": "bytes",
          "name": "_toAddress",
          "type": "bytes"
        },
        {
          "indexed": false,
          "internalType": "uint256",
          "name": "_amount",
          "type": "uint256"
        }
      ],
      "name": "SendToChain",
      "type": "event"
    },
    {
      "anonymous": false,
      "inputs": [
        {
          "indexed": false,
          "internalType": "uint16",
          "name": "_dstChainId",
          "type": "uint16"
        },
        {
          "indexed": false,
          "internalType": "uint16",
          "name": "_type",
          "type": "uint16"
        },
        {
          "indexed": false,
          "internalType": "uint256",
          "name": "_minDstGas",
          "type": "uint256"
        }
      ],
      "name": "SetMinDstGas",
      "type": "event"
    },
    {
      "anonymous": false,
      "inputs": [
        {
          "indexed": false,
          "internalType": "address",
          "name": "precrime",
          "type": "address"
        }
      ],
      "name": "SetPrecrime",
      "type": "event"
    },
    {
      "anonymous": false,
      "inputs": [
        {
          "indexed": false,
          "internalType": "uint16",
          "name": "_remoteChainId",
          "type": "uint16"
        },
        {
          "indexed": false,
          "internalType": "bytes",
          "name": "_path",
          "type": "bytes"
        }
      ],
      "name": "SetTrustedRemote",
      "type": "event"
    },
    {
      "anonymous": false,
      "inputs": [
        {
          "indexed": false,
          "internalType": "uint16",
          "name": "_remoteChainId",
          "type": "uint16"
        },
        {
          "indexed": false,
          "internalType": "bytes",
          "name": "_remoteAddress",
          "type": "bytes"
        }
      ],
      "name": "SetTrustedRemoteAddress",
      "type": "event"
    },
    {
      "anonymous": false,
      "inputs": [
        {
          "indexed": false,
          "internalType": "bool",
          "name": "_useCustomAdapterParams",
          "type": "bool"
        }
      ],
      "name": "SetUseCustomAdapterParams",
      "type": "event"
    },
    {
      "inputs": [],
      "name": "NO_EXTRA_GAS",
      "outputs": [
        {
          "internalType": "uint256",
          "name": "",
          "type": "uint256"
        }
      ],
      "stateMutability": "view",
      "type": "function"
    },
    {
      "inputs": [],
      "name": "PT_SEND",
      "outputs": [
        {
          "internalType": "uint16",
          "name": "",
          "type": "uint16"
        }
      ],
      "stateMutability": "view",
      "type": "function"
    },
    {
      "inputs": [],
      "name": "circulatingSupply",
      "outputs": [
        {
          "internalType": "uint256",
          "name": "",
          "type": "uint256"
        }
      ],
      "stateMutability": "view",
      "type": "function"
    },
    {
      "inputs": [
        {
          "internalType": "uint16",
          "name": "_dstChainId",
          "type": "uint16"
        },
        {
          "internalType": "bytes",
          "name": "_toAddress",
          "type": "bytes"
        },
        {
          "internalType": "uint256",
          "name": "_amount",
          "type": "uint256"
        },
        {
          "internalType": "bool",
          "name": "_useZro",
          "type": "bool"
        },
        {
          "internalType": "bytes",
          "name": "_adapterParams",
          "type": "bytes"
        }
      ],
      "name": "estimateSendFee",
      "outputs": [
        {
          "internalType": "uint256",
          "name": "nativeFee",
          "type": "uint256"
        },
        {
          "internalType": "uint256",
          "name": "zroFee",
          "type": "uint256"
        }
      ],
      "stateMutability": "view",
      "type": "function"
    },
    {
      "inputs": [
        {
          "internalType": "uint16",
          "name": "",
          "type": "uint16"
        },
        {
          "internalType": "bytes",
          "name": "",
          "type": "bytes"
        },
        {
          "internalType": "uint64",
          "name": "",
          "type": "uint64"
        }
      ],
      "name": "failedMessages",
      "outputs": [
        {
          "internalType": "bytes32",
          "name": "",
          "type": "bytes32"
        }
      ],
      "stateMutability": "view",
      "type": "function"
    },
    {
      "inputs": [
        {
          "internalType": "uint16",
          "name": "_srcChainId",
          "type": "uint16"
        },
        {
          "internalType": "bytes",
          "name": "_srcAddress",
          "type": "bytes"
        }
      ],
      "name": "forceResumeReceive",
      "outputs": [],
      "stateMutability": "nonpayable",
      "type": "function"
    },
    {
      "inputs": [
        {
          "internalType": "uint16",
          "name": "_version",
          "type": "uint16"
        },
        {
          "internalType": "uint16",
          "name": "_chainId",
          "type": "uint16"
        },
        {
          "internalType": "address",
          "name": "",
          "type": "address"
        },
        {
          "internalType": "uint256",
          "name": "_configType",
          "type": "uint256"
        }
      ],
      "name": "getConfig",
      "outputs": [
        {
          "internalType": "bytes",
          "name": "",
          "type": "bytes"
        }
      ],
      "stateMutability": "view",
      "type": "function"
    },
    {
      "inputs": [
        {
          "internalType": "uint16",
          "name": "_remoteChainId",
          "type": "uint16"
        }
      ],
      "name": "getTrustedRemoteAddress",
      "outputs": [
        {
          "internalType": "bytes",
          "name": "",
          "type": "bytes"
        }
      ],
      "stateMutability": "view",
      "type": "function"
    },
    {
      "inputs": [
        {
          "internalType": "uint16",
          "name": "_srcChainId",
          "type": "uint16"
        },
        {
          "internalType": "bytes",
          "name": "_srcAddress",
          "type": "bytes"
        }
      ],
      "name": "isTrustedRemote",
      "outputs": [
        {
          "internalType": "bool",
          "name": "",
          "type": "bool"
        }
      ],
      "stateMutability": "view",
      "type": "function"
    },
    {
      "inputs": [],
      "name": "lzEndpoint",
      "outputs": [
        {
          "internalType": "contract ILayerZeroEndpoint",
          "name": "",
          "type": "address"
        }
      ],
      "stateMutability": "view",
      "type": "function"
    },
    {
      "inputs": [
        {
          "internalType": "uint16",
          "name": "_srcChainId",
          "type": "uint16"
        },
        {
          "internalType": "bytes",
          "name": "_srcAddress",
          "type": "bytes"
        },
        {
          "internalType": "uint64",
          "name": "_nonce",
          "type": "uint64"
        },
        {
          "internalType": "bytes",
          "name": "_payload",
          "type": "bytes"
        }
      ],
      "name": "lzReceive",
      "outputs": [],
      "stateMutability": "nonpayable",
      "type": "function"
    },
    {
      "inputs": [
        {
          "internalType": "uint16",
          "name": "",
          "type": "uint16"
        },
        {
          "internalType": "uint16",
          "name": "",
          "type": "uint16"
        }
      ],
      "name": "minDstGasLookup",
      "outputs": [
        {
          "internalType": "uint256",
          "name": "",
          "type": "uint256"
        }
      ],
      "stateMutability": "view",
      "type": "function"
    },
    {
      "inputs": [
        {
          "internalType": "uint16",
          "name": "_srcChainId",
          "type": "uint16"
        },
        {
          "internalType": "bytes",
          "name": "_srcAddress",
          "type": "bytes"
        },
        {
          "internalType": "uint64",
          "name": "_nonce",
          "type": "uint64"
        },
        {
          "internalType": "bytes",
          "name": "_payload",
          "type": "bytes"
        }
      ],
      "name": "nonblockingLzReceive",
      "outputs": [],
      "stateMutability": "nonpayable",
      "type": "function"
    },
    {
      "inputs": [],
      "name": "owner",
      "outputs": [
        {
          "internalType": "address",
          "name": "",
          "type": "address"
        }
      ],
      "stateMutability": "view",
      "type": "function"
    },
    {
      "inputs": [],
      "name": "precrime",
      "outputs": [
        {
          "internalType": "address",
          "name": "",
          "type": "address"
        }
      ],
      "stateMutability": "view",
      "type": "function"
    },
    {
      "inputs": [],
      "name": "renounceOwnership",
      "outputs": [],
      "stateMutability": "nonpayable",
      "type": "function"
    },
    {
      "inputs": [
        {
          "internalType": "uint16",
          "name": "_srcChainId",
          "type": "uint16"
        },
        {
          "internalType": "bytes",
          "name": "_srcAddress",
          "type": "bytes"
        },
        {
          "internalType": "uint64",
          "name": "_nonce",
          "type": "uint64"
        },
        {
          "internalType": "bytes",
          "name": "_payload",
          "type": "bytes"
        }
      ],
      "name": "retryMessage",
      "outputs": [],
      "stateMutability": "payable",
      "type": "function"
    },
    {
      "inputs": [
        {
          "internalType": "address",
          "name": "_from",
          "type": "address"
        },
        {
          "internalType": "uint16",
          "name": "_dstChainId",
          "type": "uint16"
        },
        {
          "internalType": "bytes",
          "name": "_toAddress",
          "type": "bytes"
        },
        {
          "internalType": "uint256",
          "name": "_amount",
          "type": "uint256"
        },
        {
          "internalType": "address payable",
          "name": "_refundAddress",
          "type": "address"
        },
        {
          "internalType": "address",
          "name": "_zroPaymentAddress",
          "type": "address"
        },
        {
          "internalType": "bytes",
          "name": "_adapterParams",
          "type": "bytes"
        }
      ],
      "name": "sendFrom",
      "outputs": [],
      "stateMutability": "payable",
      "type": "function"
    },
    {
      "inputs": [
        {
          "internalType": "uint16",
          "name": "_version",
          "type": "uint16"
        },
        {
          "internalType": "uint16",
          "name": "_chainId",
          "type": "uint16"
        },
        {
          "internalType": "uint256",
          "name": "_configType",
          "type": "uint256"
        },
        {
          "internalType": "bytes",
          "name": "_config",
          "type": "bytes"
        }
      ],
      "name": "setConfig",
      "outputs": [],
      "stateMutability": "nonpayable",
      "type": "function"
    },
    {
      "inputs": [
        {
          "internalType": "uint16",
          "name": "_dstChainId",
          "type": "uint16"
        },
        {
          "internalType": "uint16",
          "name": "_packetType",
          "type": "uint16"
        },
        {
          "internalType": "uint256",
          "name": "_minGas",
          "type": "uint256"
        }
      ],
      "name": "setMinDstGas",
      "outputs": [],
      "stateMutability": "nonpayable",
      "type": "function"
    },
    {
      "inputs": [
        {
          "internalType": "address",
          "name": "_precrime",
          "type": "address"
        }
      ],
      "name": "setPrecrime",
      "outputs": [],
      "stateMutability": "nonpayable",
      "type": "function"
    },
    {
      "inputs": [
        {
          "internalType": "uint16",
          "name": "_version",
          "type": "uint16"
        }
      ],
      "name": "setReceiveVersion",
      "outputs": [],
      "stateMutability": "nonpayable",
      "type": "function"
    },
    {
      "inputs": [
        {
          "internalType": "uint16",
          "name": "_version",
          "type": "uint16"
        }
      ],
      "name": "setSendVersion",
      "outputs": [],
      "stateMutability": "nonpayable",
      "type": "function"
    },
    {
      "inputs": [
        {
          "internalType": "uint16",
          "name": "_srcChainId",
          "type": "uint16"
        },
        {
          "internalType": "bytes",
          "name": "_path",
          "type": "bytes"
        }
      ],
      "name": "setTrustedRemote",
      "outputs": [],
      "stateMutability": "nonpayable",
      "type": "function"
    },
    {
      "inputs": [
        {
          "internalType": "uint16",
          "name": "_remoteChainId",
          "type": "uint16"
        },
        {
          "internalType": "bytes",
          "name": "_remoteAddress",
          "type": "bytes"
        }
      ],
      "name": "setTrustedRemoteAddress",
      "outputs": [],
      "stateMutability": "nonpayable",
      "type": "function"
    },
    {
      "inputs": [
        {
          "internalType": "bool",
          "name": "_useCustomAdapterParams",
          "type": "bool"
        }
      ],
      "name": "setUseCustomAdapterParams",
      "outputs": [],
      "stateMutability": "nonpayable",
      "type": "function"
    },
    {
      "inputs": [
        {
          "internalType": "bytes4",
          "name": "interfaceId",
          "type": "bytes4"
        }
      ],
      "name": "supportsInterface",
      "outputs": [
        {
          "internalType": "bool",
          "name": "",
          "type": "bool"
        }
      ],
      "stateMutability": "view",
      "type": "function"
    },
    {
      "inputs": [],
      "name": "token",
      "outputs": [
        {
          "internalType": "contract IERC20",
          "name": "",
          "type": "address"
        }
      ],
      "stateMutability": "view",
      "type": "function"
    },
    {
      "inputs": [
        {
          "internalType": "address",
          "name": "newOwner",
          "type": "address"
        }
      ],
      "name": "transferOwnership",
      "outputs": [],
      "stateMutability": "nonpayable",
      "type": "function"
    },
    {
      "inputs": [
        {
          "internalType": "uint16",
          "name": "",
          "type": "uint16"
        }
      ],
      "name": "trustedRemoteLookup",
      "outputs": [
        {
          "internalType": "bytes",
          "name": "",
          "type": "bytes"
        }
      ],
      "stateMutability": "view",
      "type": "function"
    },
    {
      "inputs": [],
      "name": "useCustomAdapterParams",
      "outputs": [
        {
          "internalType": "bool",
          "name": "",
          "type": "bool"
        }
      ],
      "stateMutability": "view",
      "type": "function"
    }
  ],
  "transactionHash": "0x716ed7a0fda566f594a4fa43f4ec028aa57baa5f3c542a0b4185f57d0f3e601f",
  "args": [
    "0x93f54D755A063cE7bB9e6Ac47Eccc8e33411d706",
    "0x9Acd3dDB7dE9E1d9CE6450274D2ad0f1dCD61625"
  ],
  "numDeployments": 1,
  "solcInputHash": "f3c729811a2fbd5426a4e2467c950857",
  "bytecode": "0x60c06040523480156200001157600080fd5b5060405162003064380380620030648339810160408190526200003491620000ce565b818080620000423362000061565b6001600160a01b039081166080529290921660a0525062000106915050565b600080546001600160a01b038381166001600160a01b0319831681178455604051919092169283917f8be0079c531659141344cd1fd0a4f28419497f9722a3daafe3b4186f6b6457e09190a35050565b80516001600160a01b0381168114620000c957600080fd5b919050565b60008060408385031215620000e257600080fd5b620000ed83620000b1565b9150620000fd60208401620000b1565b90509250929050565b60805160a051612ee4620001806000396000818161062901528181610e0b01528181610e8001528181611ba90152611fb50152600081816104e80152818161064e015281816108d40152818161095d01528181610a0101528181610b7d01528181611125015281816115a50152611cf00152612ee46000f3fe6080604052600436106101d75760003560e01c80638da5cb5b11610102578063d1deba1f11610095578063ed629c5c11610064578063ed629c5c146105bd578063f2fde38b146105d7578063f5ecbdbc146105f7578063fc0c546a1461061757600080fd5b8063d1deba1f1461054a578063df2a5b3b1461055d578063eab45d9c1461057d578063eb8d72b71461059d57600080fd5b8063a6c3d165116100d1578063a6c3d165146104b6578063b353aaa7146104d6578063baf3292d1461050a578063cbed8b9c1461052a57600080fd5b80638da5cb5b1461042f5780639358928b14610461578063950c8a74146104765780639f38369a1461049657600080fd5b8063447705151161017a57806366ad5c8a1161014957806366ad5c8a14610395578063715018a6146103b55780637533d788146103ca5780638cfd8f5c146103f757600080fd5b806344770515146102e85780634c42899a1461030b57806351905636146103335780635b8c41e61461034657600080fd5b806310ddb137116101b657806310ddb137146102535780632a205e3d146102735780633d8b38f6146102a857806342d65a8d146102c857600080fd5b80621d3567146101dc57806301ffc9a7146101fe57806307e0db1714610233575b600080fd5b3480156101e857600080fd5b506101fc6101f7366004612441565b61064b565b005b34801561020a57600080fd5b5061021e6102193660046124d6565b61087c565b60405190151581526020015b60405180910390f35b34801561023f57600080fd5b506101fc61024e366004612500565b6108b3565b34801561025f57600080fd5b506101fc61026e366004612500565b61093c565b34801561027f57600080fd5b5061029361028e36600461252b565b610994565b6040805192835260208301919091520161022a565b3480156102b457600080fd5b5061021e6102c33660046125cb565b610a91565b3480156102d457600080fd5b506101fc6102e33660046125cb565b610b5e565b3480156102f457600080fd5b506102fd600081565b60405190815260200161022a565b34801561031757600080fd5b50610320600081565b60405161ffff909116815260200161022a565b6101fc610341366004612634565b610be4565b34801561035257600080fd5b506102fd61036136600461276a565b6004602090815260009384526040808520845180860184018051928152908401958401959095209452929052825290205481565b3480156103a157600080fd5b506101fc6103b0366004612441565b610c69565b3480156103c157600080fd5b506101fc610d45565b3480156103d657600080fd5b506103ea6103e5366004612500565b610d59565b60405161022a9190612864565b34801561040357600080fd5b506102fd610412366004612877565b600260209081526000928352604080842090915290825290205481565b34801561043b57600080fd5b506000546001600160a01b03165b6040516001600160a01b03909116815260200161022a565b34801561046d57600080fd5b506102fd610df3565b34801561048257600080fd5b50600354610449906001600160a01b031681565b3480156104a257600080fd5b506103ea6104b1366004612500565b610f06565b3480156104c257600080fd5b506101fc6104d13660046125cb565b611016565b3480156104e257600080fd5b506104497f000000000000000000000000000000000000000000000000000000000000000081565b34801561051657600080fd5b506101fc6105253660046128b0565b6110a9565b34801561053657600080fd5b506101fc6105453660046128cd565b611106565b6101fc610558366004612441565b611190565b34801561056957600080fd5b506101fc61057836600461293f565b6113a6565b34801561058957600080fd5b506101fc610598366004612980565b611458565b3480156105a957600080fd5b506101fc6105b83660046125cb565b6114a1565b3480156105c957600080fd5b5060055461021e9060ff1681565b3480156105e357600080fd5b506101fc6105f23660046128b0565b6114fb565b34801561060357600080fd5b506103ea61061236600461299d565b611574565b34801561062357600080fd5b506104497f000000000000000000000000000000000000000000000000000000000000000081565b337f00000000000000000000000000000000000000000000000000000000000000006001600160a01b0316146106c85760405162461bcd60e51b815260206004820152601e60248201527f4c7a4170703a20696e76616c696420656e64706f696e742063616c6c6572000060448201526064015b60405180910390fd5b61ffff8616600090815260016020526040812080546106e6906129ee565b80601f0160208091040260200160405190810160405280929190818152602001828054610712906129ee565b801561075f5780601f106107345761010080835404028352916020019161075f565b820191906000526020600020905b81548152906001019060200180831161074257829003601f168201915b5050505050905080518686905014801561077a575060008151115b80156107a25750805160208201206040516107989088908890612a29565b6040518091039020145b6107fd5760405162461bcd60e51b815260206004820152602660248201527f4c7a4170703a20696e76616c696420736f757263652073656e64696e6720636f6044820152651b9d1c9858dd60d21b60648201526084016106bf565b6108738787878080601f01602080910402602001604051908101604052809392919081815260200183838082843760009201919091525050604080516020601f8a018190048102820181019092528881528a93509150889088908190840183828082843760009201919091525061162592505050565b50505050505050565b60006001600160e01b031982166301d1d13560e71b14806108ad57506301ffc9a760e01b6001600160e01b03198316145b92915050565b6108bb61172f565b6040516307e0db1760e01b815261ffff821660048201527f00000000000000000000000000000000000000000000000000000000000000006001600160a01b0316906307e0db17906024015b600060405180830381600087803b15801561092157600080fd5b505af1158015610935573d6000803e3d6000fd5b5050505050565b61094461172f565b6040516310ddb13760e01b815261ffff821660048201527f00000000000000000000000000000000000000000000000000000000000000006001600160a01b0316906310ddb13790602401610907565b6040516001600160601b03193360601b16602082015260009081908190819060340160408051601f19818403018152908290526109da92918c908c908c90602001612a62565b60408051601f198184030181529082905263040a7bb160e41b825291506001600160a01b037f000000000000000000000000000000000000000000000000000000000000000016906340a7bb1090610a40908d90309086908c908c908c90600401612aa5565b6040805180830381865afa158015610a5c573d6000803e3d6000fd5b505050506040513d601f19601f82011682018060405250810190610a809190612afb565b925092505097509795505050505050565b61ffff831660009081526001602052604081208054829190610ab2906129ee565b80601f0160208091040260200160405190810160405280929190818152602001828054610ade906129ee565b8015610b2b5780601f10610b0057610100808354040283529160200191610b2b565b820191906000526020600020905b815481529060010190602001808311610b0e57829003601f168201915b505050505090508383604051610b42929190612a29565b60405180910390208180519060200120149150505b9392505050565b610b6661172f565b6040516342d65a8d60e01b81526001600160a01b037f000000000000000000000000000000000000000000000000000000000000000016906342d65a8d90610bb690869086908690600401612b1f565b600060405180830381600087803b158015610bd057600080fd5b505af1158015610873573d6000803e3d6000fd5b610c5e898989898080601f01602080910402602001604051908101604052809392919081815260200183838082843760009201919091525050604080516020601f8a018190048102820181019092528881528c93508b92508a918a908a908190840183828082843760009201919091525061178992505050565b505050505050505050565b333014610cc75760405162461bcd60e51b815260206004820152602660248201527f4e6f6e626c6f636b696e674c7a4170703a2063616c6c6572206d7573742062656044820152650204c7a4170760d41b60648201526084016106bf565b610d3d8686868080601f01602080910402602001604051908101604052809392919081815260200183838082843760009201919091525050604080516020601f89018190048102820181019092528781528993509150879087908190840183828082843760009201919091525061186b92505050565b505050505050565b610d4d61172f565b610d5760006118d2565b565b60016020526000908152604090208054610d72906129ee565b80601f0160208091040260200160405190810160405280929190818152602001828054610d9e906129ee565b8015610deb5780601f10610dc057610100808354040283529160200191610deb565b820191906000526020600020905b815481529060010190602001808311610dce57829003601f168201915b505050505081565b6040516370a0823160e01b81523060048201526000907f00000000000000000000000000000000000000000000000000000000000000006001600160a01b0316906370a0823190602401602060405180830381865afa158015610e5a573d6000803e3d6000fd5b505050506040513d601f19601f82011682018060405250810190610e7e9190612b3d565b7f00000000000000000000000000000000000000000000000000000000000000006001600160a01b03166318160ddd6040518163ffffffff1660e01b8152600401602060405180830381865afa158015610edc573d6000803e3d6000fd5b505050506040513d601f19601f82011682018060405250810190610f009190612b3d565b03905090565b61ffff8116600090815260016020526040812080546060929190610f29906129ee565b80601f0160208091040260200160405190810160405280929190818152602001828054610f55906129ee565b8015610fa25780601f10610f7757610100808354040283529160200191610fa2565b820191906000526020600020905b815481529060010190602001808311610f8557829003601f168201915b50505050509050805160001415610ffb5760405162461bcd60e51b815260206004820152601d60248201527f4c7a4170703a206e6f20747275737465642070617468207265636f726400000060448201526064016106bf565b610b5760006014835161100e9190612b6c565b839190611922565b61101e61172f565b81813060405160200161103393929190612b83565b60408051601f1981840301815291815261ffff85166000908152600160209081529190208251611068939192909101906122c0565b507f8c0400cfe2d1199b1a725c78960bcc2a344d869b80590d0f2bd005db15a572ce83838360405161109c93929190612b1f565b60405180910390a1505050565b6110b161172f565b600380546001600160a01b0319166001600160a01b0383169081179091556040519081527f5db758e995a17ec1ad84bdef7e8c3293a0bd6179bcce400dff5d4c3d87db726b906020015b60405180910390a150565b61110e61172f565b6040516332fb62e760e21b81526001600160a01b037f0000000000000000000000000000000000000000000000000000000000000000169063cbed8b9c906111629088908890889088908890600401612ba4565b600060405180830381600087803b15801561117c57600080fd5b505af1158015610c5e573d6000803e3d6000fd5b61ffff861660009081526004602052604080822090516111b39088908890612a29565b90815260408051602092819003830190206001600160401b038716600090815292529020549050806112335760405162461bcd60e51b815260206004820152602360248201527f4e6f6e626c6f636b696e674c7a4170703a206e6f2073746f726564206d65737360448201526261676560e81b60648201526084016106bf565b808383604051611244929190612a29565b6040518091039020146112a35760405162461bcd60e51b815260206004820152602160248201527f4e6f6e626c6f636b696e674c7a4170703a20696e76616c6964207061796c6f616044820152601960fa1b60648201526084016106bf565b61ffff871660009081526004602052604080822090516112c69089908990612a29565b90815260408051602092819003830181206001600160401b038916600090815290845282902093909355601f8801829004820283018201905286825261135e918991899089908190840183828082843760009201919091525050604080516020601f8a018190048102820181019092528881528a93509150889088908190840183828082843760009201919091525061186b92505050565b7fc264d91f3adc5588250e1551f547752ca0cfa8f6b530d243b9f9f4cab10ea8e58787878785604051611395959493929190612bd2565b60405180910390a150505050505050565b6113ae61172f565b600081116113f65760405162461bcd60e51b81526020600482015260156024820152744c7a4170703a20696e76616c6964206d696e47617360581b60448201526064016106bf565b61ffff83811660008181526002602090815260408083209487168084529482529182902085905581519283528201929092529081018290527f9d5c7c0b934da8fefa9c7760c98383778a12dfbfc0c3b3106518f43fb9508ac09060600161109c565b61146061172f565b6005805460ff19168215159081179091556040519081527f1584ad594a70cbe1e6515592e1272a987d922b097ead875069cebe8b40c004a4906020016110fb565b6114a961172f565b61ffff831660009081526001602052604090206114c7908383612344565b507ffa41487ad5d6728f0b19276fa1eddc16558578f5109fc39d2dc33c3230470dab83838360405161109c93929190612b1f565b61150361172f565b6001600160a01b0381166115685760405162461bcd60e51b815260206004820152602660248201527f4f776e61626c653a206e6577206f776e657220697320746865207a65726f206160448201526564647265737360d01b60648201526084016106bf565b611571816118d2565b50565b604051633d7b2f6f60e21b815261ffff808616600483015284166024820152306044820152606481018290526060907f00000000000000000000000000000000000000000000000000000000000000006001600160a01b03169063f5ecbdbc90608401600060405180830381865afa1580156115f4573d6000803e3d6000fd5b505050506040513d6000823e601f3d908101601f1916820160405261161c9190810190612c52565b95945050505050565b6000806116885a60966366ad5c8a60e01b8989898960405160240161164d9493929190612c86565b60408051601f198184030181529190526020810180516001600160e01b03166001600160e01b03199093169290921790915230929190611a2f565b9150915081610d3d578280519060200120600460008861ffff1661ffff168152602001908152602001600020866040516116c29190612cc4565b9081526040805191829003602090810183206001600160401b0389166000908152915220919091557fe183f33de2837795525b4792ca4cd60535bd77c53b7e7030060bfcf5734d6b0c9061171f9088908890889088908790612ce0565b60405180910390a1505050505050565b6000546001600160a01b03163314610d575760405162461bcd60e51b815260206004820181905260248201527f4f776e61626c653a2063616c6c6572206973206e6f7420746865206f776e657260448201526064016106bf565b611797866000836000611ab9565b6117a387878787611b39565b6040516001600160601b0319606089901b166020820152600090819060340160408051601f19818403018152908290526117e4929189908990602001612d3e565b6040516020818303038152906040529050611803878286868634611bd1565b856040516118119190612cc4565b6040518091039020886001600160a01b03168861ffff167f39a4c66499bcf4b56d79f0dde8ed7a9d4925a0df55825206b2b8531e202be0d08860405161185991815260200190565b60405180910390a45050505050505050565b602081015161ffff811661188a5761188585858585611d6c565b610935565b60405162461bcd60e51b815260206004820152601c60248201527f4f4654436f72653a20756e6b6e6f776e207061636b657420747970650000000060448201526064016106bf565b600080546001600160a01b038381166001600160a01b0319831681178455604051919092169283917f8be0079c531659141344cd1fd0a4f28419497f9722a3daafe3b4186f6b6457e09190a35050565b60608161193081601f612d7f565b101561196f5760405162461bcd60e51b815260206004820152600e60248201526d736c6963655f6f766572666c6f7760901b60448201526064016106bf565b6119798284612d7f565b845110156119bd5760405162461bcd60e51b8152602060048201526011602482015270736c6963655f6f75744f66426f756e647360781b60448201526064016106bf565b6060821580156119dc5760405191506000825260208201604052611a26565b6040519150601f8416801560200281840101858101878315602002848b0101015b81831015611a155780518352602092830192016119fd565b5050858452601f01601f1916604052505b50949350505050565b6000606060008060008661ffff166001600160401b03811115611a5457611a546126fd565b6040519080825280601f01601f191660200182016040528015611a7e576020820181803683370190505b50905060008087516020890160008d8df191503d925086831115611aa0578692505b828152826000602083013e909890975095505050505050565b60055460ff1615611ad557611ad084848484611df9565b611b33565b815115611b335760405162461bcd60e51b815260206004820152602660248201527f4f4654436f72653a205f61646170746572506172616d73206d7573742062652060448201526532b6b83a3c9760d11b60648201526084016106bf565b50505050565b6001600160a01b0384163314611b9c5760405162461bcd60e51b815260206004820152602260248201527f50726f78794f46543a206f776e6572206973206e6f742073656e642063616c6c60448201526132b960f11b60648201526084016106bf565b611b336001600160a01b037f000000000000000000000000000000000000000000000000000000000000000016853084611ed8565b61ffff861660009081526001602052604081208054611bef906129ee565b80601f0160208091040260200160405190810160405280929190818152602001828054611c1b906129ee565b8015611c685780601f10611c3d57610100808354040283529160200191611c68565b820191906000526020600020905b815481529060010190602001808311611c4b57829003601f168201915b50505050509050805160001415611cda5760405162461bcd60e51b815260206004820152603060248201527f4c7a4170703a2064657374696e6174696f6e20636861696e206973206e6f742060448201526f61207472757374656420736f7572636560801b60648201526084016106bf565b60405162c5803160e81b81526001600160a01b037f0000000000000000000000000000000000000000000000000000000000000000169063c5803100908490611d31908b9086908c908c908c908c90600401612d97565b6000604051808303818588803b158015611d4a57600080fd5b505af1158015611d5e573d6000803e3d6000fd5b505050505050505050505050565b600080600083806020019051810190611d859190612df1565b9195509350915060009050611d9a8382611f43565b9050611da7888284611fa8565b806001600160a01b03168861ffff167f776434b505c7beb3db155c58df6c88985bf7c31730767e43ec773005059fed7a8685604051611de7929190612e6f565b60405180910390a35050505050505050565b6000611e0483611fe1565b61ffff808716600090815260026020908152604080832093891683529290529081205491925090611e36908490612d7f565b905060008111611e885760405162461bcd60e51b815260206004820152601a60248201527f4c7a4170703a206d696e4761734c696d6974206e6f742073657400000000000060448201526064016106bf565b80821015610d3d5760405162461bcd60e51b815260206004820152601b60248201527f4c7a4170703a20676173206c696d697420697320746f6f206c6f77000000000060448201526064016106bf565b6040516001600160a01b0380851660248301528316604482015260648101829052611b339085906323b872dd60e01b906084015b60408051601f198184030181529190526020810180516001600160e01b03166001600160e01b03199093169290921790915261203d565b6000611f50826014612d7f565b83511015611f985760405162461bcd60e51b8152602060048201526015602482015274746f416464726573735f6f75744f66426f756e647360581b60448201526064016106bf565b500160200151600160601b900490565b611fdc6001600160a01b037f000000000000000000000000000000000000000000000000000000000000000016838361210f565b505050565b60006022825110156120355760405162461bcd60e51b815260206004820152601c60248201527f4c7a4170703a20696e76616c69642061646170746572506172616d730000000060448201526064016106bf565b506022015190565b6000612092826040518060400160405280602081526020017f5361666545524332303a206c6f772d6c6576656c2063616c6c206661696c6564815250856001600160a01b031661213f9092919063ffffffff16565b805190915015611fdc57808060200190518101906120b09190612e91565b611fdc5760405162461bcd60e51b815260206004820152602a60248201527f5361666545524332303a204552433230206f7065726174696f6e20646964206e6044820152691bdd081cdd58d8d9595960b21b60648201526084016106bf565b6040516001600160a01b038316602482015260448101829052611fdc90849063a9059cbb60e01b90606401611f0c565b606061214e8484600085612156565b949350505050565b6060824710156121b75760405162461bcd60e51b815260206004820152602660248201527f416464726573733a20696e73756666696369656e742062616c616e636520666f6044820152651c8818d85b1b60d21b60648201526084016106bf565b6001600160a01b0385163b61220e5760405162461bcd60e51b815260206004820152601d60248201527f416464726573733a2063616c6c20746f206e6f6e2d636f6e747261637400000060448201526064016106bf565b600080866001600160a01b0316858760405161222a9190612cc4565b60006040518083038185875af1925050503d8060008114612267576040519150601f19603f3d011682016040523d82523d6000602084013e61226c565b606091505b509150915061227c828286612287565b979650505050505050565b60608315612296575081610b57565b8251156122a65782518084602001fd5b8160405162461bcd60e51b81526004016106bf9190612864565b8280546122cc906129ee565b90600052602060002090601f0160209004810192826122ee5760008555612334565b82601f1061230757805160ff1916838001178555612334565b82800160010185558215612334579182015b82811115612334578251825591602001919060010190612319565b506123409291506123b8565b5090565b828054612350906129ee565b90600052602060002090601f0160209004810192826123725760008555612334565b82601f1061238b5782800160ff19823516178555612334565b82800160010185558215612334579182015b8281111561233457823582559160200191906001019061239d565b5b8082111561234057600081556001016123b9565b61ffff8116811461157157600080fd5b60008083601f8401126123ef57600080fd5b5081356001600160401b0381111561240657600080fd5b60208301915083602082850101111561241e57600080fd5b9250929050565b80356001600160401b038116811461243c57600080fd5b919050565b6000806000806000806080878903121561245a57600080fd5b8635612465816123cd565b955060208701356001600160401b038082111561248157600080fd5b61248d8a838b016123dd565b90975095508591506124a160408a01612425565b945060608901359150808211156124b757600080fd5b506124c489828a016123dd565b979a9699509497509295939492505050565b6000602082840312156124e857600080fd5b81356001600160e01b031981168114610b5757600080fd5b60006020828403121561251257600080fd5b8135610b57816123cd565b801515811461157157600080fd5b600080600080600080600060a0888a03121561254657600080fd5b8735612551816123cd565b965060208801356001600160401b038082111561256d57600080fd5b6125798b838c016123dd565b909850965060408a0135955060608a013591506125958261251d565b909350608089013590808211156125ab57600080fd5b506125b88a828b016123dd565b989b979a50959850939692959293505050565b6000806000604084860312156125e057600080fd5b83356125eb816123cd565b925060208401356001600160401b0381111561260657600080fd5b612612868287016123dd565b9497909650939450505050565b6001600160a01b038116811461157157600080fd5b600080600080600080600080600060e08a8c03121561265257600080fd5b893561265d8161261f565b985060208a013561266d816123cd565b975060408a01356001600160401b038082111561268957600080fd5b6126958d838e016123dd565b909950975060608c0135965060808c013591506126b18261261f565b90945060a08b0135906126c38261261f565b90935060c08b013590808211156126d957600080fd5b506126e68c828d016123dd565b915080935050809150509295985092959850929598565b634e487b7160e01b600052604160045260246000fd5b604051601f8201601f191681016001600160401b038111828210171561273b5761273b6126fd565b604052919050565b60006001600160401b0382111561275c5761275c6126fd565b50601f01601f191660200190565b60008060006060848603121561277f57600080fd5b833561278a816123cd565b925060208401356001600160401b038111156127a557600080fd5b8401601f810186136127b657600080fd5b80356127c96127c482612743565b612713565b8181528760208385010111156127de57600080fd5b8160208401602083013760006020838301015280945050505061280360408501612425565b90509250925092565b60005b8381101561282757818101518382015260200161280f565b83811115611b335750506000910152565b6000815180845261285081602086016020860161280c565b601f01601f19169290920160200192915050565b602081526000610b576020830184612838565b6000806040838503121561288a57600080fd5b8235612895816123cd565b915060208301356128a5816123cd565b809150509250929050565b6000602082840312156128c257600080fd5b8135610b578161261f565b6000806000806000608086880312156128e557600080fd5b85356128f0816123cd565b94506020860135612900816123cd565b93506040860135925060608601356001600160401b0381111561292257600080fd5b61292e888289016123dd565b969995985093965092949392505050565b60008060006060848603121561295457600080fd5b833561295f816123cd565b9250602084013561296f816123cd565b929592945050506040919091013590565b60006020828403121561299257600080fd5b8135610b578161251d565b600080600080608085870312156129b357600080fd5b84356129be816123cd565b935060208501356129ce816123cd565b925060408501356129de8161261f565b9396929550929360600135925050565b600181811c90821680612a0257607f821691505b60208210811415612a2357634e487b7160e01b600052602260045260246000fd5b50919050565b8183823760009101908152919050565b81835281816020850137506000828201602090810191909152601f909101601f19169091010190565b61ffff86168152608060208201526000612a7f6080830187612838565b8281036040840152612a92818688612a39565b9150508260608301529695505050505050565b61ffff871681526001600160a01b038616602082015260a060408201819052600090612ad390830187612838565b85151560608401528281036080840152612aee818587612a39565b9998505050505050505050565b60008060408385031215612b0e57600080fd5b505080516020909101519092909150565b61ffff8416815260406020820152600061161c604083018486612a39565b600060208284031215612b4f57600080fd5b5051919050565b634e487b7160e01b600052601160045260246000fd5b600082821015612b7e57612b7e612b56565b500390565b8284823760609190911b6001600160601b0319169101908152601401919050565b600061ffff80881683528087166020840152508460408301526080606083015261227c608083018486612a39565b61ffff86168152608060208201526000612bf0608083018688612a39565b6001600160401b0394909416604083015250606001529392505050565b600082601f830112612c1e57600080fd5b8151612c2c6127c482612743565b818152846020838601011115612c4157600080fd5b61214e82602083016020870161280c565b600060208284031215612c6457600080fd5b81516001600160401b03811115612c7a57600080fd5b61214e84828501612c0d565b61ffff85168152608060208201526000612ca36080830186612838565b6001600160401b0385166040840152828103606084015261227c8185612838565b60008251612cd681846020870161280c565b9190910192915050565b61ffff8616815260a060208201526000612cfd60a0830187612838565b6001600160401b03861660408401528281036060840152612d1e8186612838565b90508281036080840152612d328185612838565b98975050505050505050565b61ffff85168152608060208201526000612d5b6080830186612838565b8281036040840152612d6d8186612838565b91505082606083015295945050505050565b60008219821115612d9257612d92612b56565b500190565b61ffff8716815260c060208201526000612db460c0830188612838565b8281036040840152612dc68188612838565b6001600160a01b0387811660608601528616608085015283810360a08501529050612aee8185612838565b60008060008060808587031215612e0757600080fd5b8451612e12816123cd565b60208601519094506001600160401b0380821115612e2f57600080fd5b612e3b88838901612c0d565b94506040870151915080821115612e5157600080fd5b50612e5e87828801612c0d565b606096909601519497939650505050565b604081526000612e826040830185612838565b90508260208301529392505050565b600060208284031215612ea357600080fd5b8151610b578161251d56fea264697066735822122045c4941c51b349000120a785aeba946fec04cb357fafc26df076f3c87b98e61464736f6c634300080c0033",
  "devdoc": {
    "kind": "dev",
    "methods": {
      "circulatingSupply()": {
        "details": "returns the circulating amount of tokens on current chain"
      },
      "estimateSendFee(uint16,bytes,uint256,bool,bytes)": {
        "details": "estimate send token `_tokenId` to (`_dstChainId`, `_toAddress`) _dstChainId - L0 defined chain id to send tokens too _toAddress - dynamic bytes array which contains the address to whom you are sending tokens to on the dstChain _amount - amount of the tokens to transfer _useZro - indicates to use zro to pay L0 fees _adapterParam - flexible bytes array to indicate messaging adapter services in L0"
      },
      "owner()": {
        "details": "Returns the address of the current owner."
      },
      "renounceOwnership()": {
        "details": "Leaves the contract without owner. It will not be possible to call `onlyOwner` functions anymore. Can only be called by the current owner. NOTE: Renouncing ownership will leave the contract without an owner, thereby removing any functionality that is only available to the owner."
      },
      "sendFrom(address,uint16,bytes,uint256,address,address,bytes)": {
        "details": "send `_amount` amount of token to (`_dstChainId`, `_toAddress`) from `_from` `_from` the owner of token `_dstChainId` the destination chain identifier `_toAddress` can be any size depending on the `dstChainId`. `_amount` the quantity of tokens in wei `_refundAddress` the address LayerZero refunds if too much message fee is sent `_zroPaymentAddress` set to address(0x0) if not paying in ZRO (LayerZero Token) `_adapterParams` is a flexible bytes array to indicate messaging adapter services"
      },
      "transferOwnership(address)": {
        "details": "Transfers ownership of the contract to a new account (`newOwner`). Can only be called by the current owner."
      }
    },
    "version": 1
  },
  "userdoc": {
    "kind": "user",
    "methods": {},
    "version": 1
  },
  "storageLayout": {
    "storage": [
      {
        "astId": 7,
        "contract": "contracts/token/ProxyOFT.sol:ProxyOFT",
        "label": "_owner",
        "offset": 0,
        "slot": "0",
        "type": "t_address"
      },
      {
        "astId": 1684,
        "contract": "contracts/token/ProxyOFT.sol:ProxyOFT",
        "label": "trustedRemoteLookup",
        "offset": 0,
        "slot": "1",
        "type": "t_mapping(t_uint16,t_bytes_storage)"
      },
      {
        "astId": 1690,
        "contract": "contracts/token/ProxyOFT.sol:ProxyOFT",
        "label": "minDstGasLookup",
        "offset": 0,
        "slot": "2",
        "type": "t_mapping(t_uint16,t_mapping(t_uint16,t_uint256))"
      },
      {
        "astId": 1692,
        "contract": "contracts/token/ProxyOFT.sol:ProxyOFT",
        "label": "precrime",
        "offset": 0,
        "slot": "3",
        "type": "t_address"
      },
      {
        "astId": 2177,
        "contract": "contracts/token/ProxyOFT.sol:ProxyOFT",
        "label": "failedMessages",
        "offset": 0,
        "slot": "4",
        "type": "t_mapping(t_uint16,t_mapping(t_bytes_memory_ptr,t_mapping(t_uint64,t_bytes32)))"
      },
      {
        "astId": 2597,
        "contract": "contracts/token/ProxyOFT.sol:ProxyOFT",
        "label": "useCustomAdapterParams",
        "offset": 0,
        "slot": "5",
        "type": "t_bool"
      }
    ],
    "types": {
      "t_address": {
        "encoding": "inplace",
        "label": "address",
        "numberOfBytes": "20"
      },
      "t_bool": {
        "encoding": "inplace",
        "label": "bool",
        "numberOfBytes": "1"
      },
      "t_bytes32": {
        "encoding": "inplace",
        "label": "bytes32",
        "numberOfBytes": "32"
      },
      "t_bytes_memory_ptr": {
        "encoding": "bytes",
        "label": "bytes",
        "numberOfBytes": "32"
      },
      "t_bytes_storage": {
        "encoding": "bytes",
        "label": "bytes",
        "numberOfBytes": "32"
      },
      "t_mapping(t_bytes_memory_ptr,t_mapping(t_uint64,t_bytes32))": {
        "encoding": "mapping",
        "key": "t_bytes_memory_ptr",
        "label": "mapping(bytes => mapping(uint64 => bytes32))",
        "numberOfBytes": "32",
        "value": "t_mapping(t_uint64,t_bytes32)"
      },
      "t_mapping(t_uint16,t_bytes_storage)": {
        "encoding": "mapping",
        "key": "t_uint16",
        "label": "mapping(uint16 => bytes)",
        "numberOfBytes": "32",
        "value": "t_bytes_storage"
      },
      "t_mapping(t_uint16,t_mapping(t_bytes_memory_ptr,t_mapping(t_uint64,t_bytes32)))": {
        "encoding": "mapping",
        "key": "t_uint16",
        "label": "mapping(uint16 => mapping(bytes => mapping(uint64 => bytes32)))",
        "numberOfBytes": "32",
        "value": "t_mapping(t_bytes_memory_ptr,t_mapping(t_uint64,t_bytes32))"
      },
      "t_mapping(t_uint16,t_mapping(t_uint16,t_uint256))": {
        "encoding": "mapping",
        "key": "t_uint16",
        "label": "mapping(uint16 => mapping(uint16 => uint256))",
        "numberOfBytes": "32",
        "value": "t_mapping(t_uint16,t_uint256)"
      },
      "t_mapping(t_uint16,t_uint256)": {
        "encoding": "mapping",
        "key": "t_uint16",
        "label": "mapping(uint16 => uint256)",
        "numberOfBytes": "32",
        "value": "t_uint256"
      },
      "t_mapping(t_uint64,t_bytes32)": {
        "encoding": "mapping",
        "key": "t_uint64",
        "label": "mapping(uint64 => bytes32)",
        "numberOfBytes": "32",
        "value": "t_bytes32"
      },
      "t_uint16": {
        "encoding": "inplace",
        "label": "uint16",
        "numberOfBytes": "2"
      },
      "t_uint256": {
        "encoding": "inplace",
        "label": "uint256",
        "numberOfBytes": "32"
      },
      "t_uint64": {
        "encoding": "inplace",
        "label": "uint64",
        "numberOfBytes": "8"
      }
    }
  }
}