{
  "address": "0xD5d4384981b19Af149CC4F2f9f0659d5BC549146",
  "abi": [
    {
      "inputs": [
        {
          "internalType": "string",
          "name": "_name",
          "type": "string"
        },
        {
          "internalType": "string",
          "name": "_symbol",
          "type": "string"
        },
        {
          "internalType": "address",
          "name": "_lzEndpoint",
          "type": "address"
        }
      ],
      "stateMutability": "nonpayable",
      "type": "constructor"
    },
    {
      "anonymous": false,
      "inputs": [
        {
          "indexed": true,
          "internalType": "address",
          "name": "owner",
          "type": "address"
        },
        {
          "indexed": true,
          "internalType": "address",
          "name": "spender",
          "type": "address"
        },
        {
          "indexed": false,
          "internalType": "uint256",
          "name": "value",
          "type": "uint256"
        }
      ],
      "name": "Approval",
      "type": "event"
    },
    {
      "anonymous": false,
      "inputs": [
        {
          "indexed": true,
          "internalType": "uint16",
          "name": "_srcChainId",
          "type": "uint16"
        },
        {
          "indexed": false,
          "internalType": "bytes",
          "name": "_srcAddress",
          "type": "bytes"
        },
        {
          "indexed": false,
          "internalType": "uint64",
          "name": "_nonce",
          "type": "uint64"
        },
        {
          "indexed": false,
          "internalType": "bytes",
          "name": "_from",
          "type": "bytes"
        },
        {
          "indexed": true,
          "internalType": "address",
          "name": "_to",
          "type": "address"
        },
        {
          "indexed": false,
          "internalType": "uint256",
          "name": "_amount",
          "type": "uint256"
        },
        {
          "indexed": false,
          "internalType": "bytes",
          "name": "_payload",
          "type": "bytes"
        },
        {
          "indexed": false,
          "internalType": "bytes",
          "name": "_reason",
          "type": "bytes"
        }
      ],
      "name": "CallOFTReceivedFailure",
      "type": "event"
    },
    {
      "anonymous": false,
      "inputs": [
        {
          "indexed": true,
          "internalType": "uint16",
          "name": "_srcChainId",
          "type": "uint16"
        },
        {
          "indexed": false,
          "internalType": "bytes",
          "name": "_srcAddress",
          "type": "bytes"
        },
        {
          "indexed": false,
          "internalType": "uint64",
          "name": "_nonce",
          "type": "uint64"
        },
        {
          "indexed": false,
          "internalType": "bytes32",
          "name": "_hash",
          "type": "bytes32"
        }
      ],
      "name": "CallOFTReceivedSuccess",
      "type": "event"
    },
    {
      "anonymous": false,
      "inputs": [
        {
          "indexed": false,
          "internalType": "bytes",
          "name": "_receiver",
          "type": "bytes"
        }
      ],
      "name": "InvalidReceiver",
      "type": "event"
    },
    {
      "anonymous": false,
      "inputs": [
        {
          "indexed": false,
          "internalType": "uint16",
          "name": "_srcChainId",
          "type": "uint16"
        },
        {
          "indexed": false,
          "internalType": "bytes",
          "name": "_srcAddress",
          "type": "bytes"
        },
        {
          "indexed": false,
          "internalType": "uint64",
          "name": "_nonce",
          "type": "uint64"
        },
        {
          "indexed": false,
          "internalType": "bytes",
          "name": "_payload",
          "type": "bytes"
        },
        {
          "indexed": false,
          "internalType": "bytes",
          "name": "_reason",
          "type": "bytes"
        }
      ],
      "name": "MessageFailed",
      "type": "event"
    },
    {
      "anonymous": false,
      "inputs": [
        {
          "indexed": false,
          "internalType": "address",
          "name": "_address",
          "type": "address"
        }
      ],
      "name": "NonContractAddress",
      "type": "event"
    },
    {
      "anonymous": false,
      "inputs": [
        {
          "indexed": true,
          "internalType": "address",
          "name": "previousOwner",
          "type": "address"
        },
        {
          "indexed": true,
          "internalType": "address",
          "name": "newOwner",
          "type": "address"
        }
      ],
      "name": "OwnershipTransferred",
      "type": "event"
    },
    {
      "anonymous": false,
      "inputs": [
        {
          "indexed": true,
          "internalType": "uint16",
          "name": "_srcChainId",
          "type": "uint16"
        },
        {
          "indexed": true,
          "internalType": "address",
          "name": "_to",
          "type": "address"
        },
        {
          "indexed": false,
          "internalType": "uint256",
          "name": "_amount",
          "type": "uint256"
        }
      ],
      "name": "ReceiveFromChain",
      "type": "event"
    },
    {
      "anonymous": false,
      "inputs": [
        {
          "indexed": false,
          "internalType": "uint16",
          "name": "_srcChainId",
          "type": "uint16"
        },
        {
          "indexed": false,
          "internalType": "bytes",
          "name": "_srcAddress",
          "type": "bytes"
        },
        {
          "indexed": false,
          "internalType": "uint64",
          "name": "_nonce",
          "type": "uint64"
        },
        {
          "indexed": false,
          "internalType": "bytes32",
          "name": "_payloadHash",
          "type": "bytes32"
        }
      ],
      "name": "RetryMessageSuccess",
      "type": "event"
    },
    {
      "anonymous": false,
      "inputs": [
        {
          "indexed": false,
          "internalType": "bytes32",
          "name": "_messageHash",
          "type": "bytes32"
        }
      ],
      "name": "RetryOFTReceivedSuccess",
      "type": "event"
    },
    {
      "anonymous": false,
      "inputs": [
        {
          "indexed": true,
          "internalType": "uint16",
          "name": "_dstChainId",
          "type": "uint16"
        },
        {
          "indexed": true,
          "internalType": "address",
          "name": "_from",
          "type": "address"
        },
        {
          "indexed": false,
          "internalType": "bytes",
          "name": "_toAddress",
          "type": "bytes"
        },
        {
          "indexed": false,
          "internalType": "uint256",
          "name": "_amount",
          "type": "uint256"
        }
      ],
      "name": "SendToChain",
      "type": "event"
    },
    {
      "anonymous": false,
      "inputs": [
        {
          "indexed": false,
          "internalType": "uint256",
          "name": "feeBp",
          "type": "uint256"
        }
      ],
      "name": "SetDefaultFeeBp",
      "type": "event"
    },
    {
      "anonymous": false,
      "inputs": [
        {
          "indexed": false,
          "internalType": "uint16",
          "name": "dstchainId",
          "type": "uint16"
        },
        {
          "indexed": false,
          "internalType": "bool",
          "name": "enabled",
          "type": "bool"
        },
        {
          "indexed": false,
          "internalType": "uint16",
          "name": "feeBp",
          "type": "uint16"
        }
      ],
      "name": "SetFeeBp",
      "type": "event"
    },
    {
      "anonymous": false,
      "inputs": [
        {
          "indexed": false,
          "internalType": "address",
          "name": "feeOwner",
          "type": "address"
        }
      ],
      "name": "SetFeeOwner",
      "type": "event"
    },
    {
      "anonymous": false,
      "inputs": [
        {
          "indexed": false,
          "internalType": "uint16",
          "name": "_dstChainId",
          "type": "uint16"
        },
        {
          "indexed": false,
          "internalType": "uint16",
          "name": "_type",
          "type": "uint16"
        },
        {
          "indexed": false,
          "internalType": "uint256",
          "name": "_minDstGas",
          "type": "uint256"
        }
      ],
      "name": "SetMinDstGas",
      "type": "event"
    },
    {
      "anonymous": false,
      "inputs": [
        {
          "indexed": false,
          "internalType": "address",
          "name": "precrime",
          "type": "address"
        }
      ],
      "name": "SetPrecrime",
      "type": "event"
    },
    {
      "anonymous": false,
      "inputs": [
        {
          "indexed": false,
          "internalType": "uint16",
          "name": "_remoteChainId",
          "type": "uint16"
        },
        {
          "indexed": false,
          "internalType": "bytes",
          "name": "_path",
          "type": "bytes"
        }
      ],
      "name": "SetTrustedRemote",
      "type": "event"
    },
    {
      "anonymous": false,
      "inputs": [
        {
          "indexed": false,
          "internalType": "uint16",
          "name": "_remoteChainId",
          "type": "uint16"
        },
        {
          "indexed": false,
          "internalType": "bytes",
          "name": "_remoteAddress",
          "type": "bytes"
        }
      ],
      "name": "SetTrustedRemoteAddress",
      "type": "event"
    },
    {
      "anonymous": false,
      "inputs": [
        {
          "indexed": false,
          "internalType": "bool",
          "name": "_useCustomAdapterParams",
          "type": "bool"
        }
      ],
      "name": "SetUseCustomAdapterParams",
      "type": "event"
    },
    {
      "anonymous": false,
      "inputs": [
        {
          "indexed": true,
          "internalType": "address",
          "name": "from",
          "type": "address"
        },
        {
          "indexed": true,
          "internalType": "address",
          "name": "to",
          "type": "address"
        },
        {
          "indexed": false,
          "internalType": "uint256",
          "name": "value",
          "type": "uint256"
        }
      ],
      "name": "Transfer",
      "type": "event"
    },
    {
      "inputs": [],
      "name": "BP_DENOMINATOR",
      "outputs": [
        {
          "internalType": "uint256",
          "name": "",
          "type": "uint256"
        }
      ],
      "stateMutability": "view",
      "type": "function"
    },
    {
      "inputs": [],
      "name": "NO_EXTRA_GAS",
      "outputs": [
        {
          "internalType": "uint256",
          "name": "",
          "type": "uint256"
        }
      ],
      "stateMutability": "view",
      "type": "function"
    },
    {
      "inputs": [],
      "name": "PT_SEND",
      "outputs": [
        {
          "internalType": "uint8",
          "name": "",
          "type": "uint8"
        }
      ],
      "stateMutability": "view",
      "type": "function"
    },
    {
      "inputs": [],
      "name": "PT_SEND_AND_CALL",
      "outputs": [
        {
          "internalType": "uint8",
          "name": "",
          "type": "uint8"
        }
      ],
      "stateMutability": "view",
      "type": "function"
    },
    {
      "inputs": [
        {
          "internalType": "address",
          "name": "owner",
          "type": "address"
        },
        {
          "internalType": "address",
          "name": "spender",
          "type": "address"
        }
      ],
      "name": "allowance",
      "outputs": [
        {
          "internalType": "uint256",
          "name": "",
          "type": "uint256"
        }
      ],
      "stateMutability": "view",
      "type": "function"
    },
    {
      "inputs": [
        {
          "internalType": "address",
          "name": "spender",
          "type": "address"
        },
        {
          "internalType": "uint256",
          "name": "amount",
          "type": "uint256"
        }
      ],
      "name": "approve",
      "outputs": [
        {
          "internalType": "bool",
          "name": "",
          "type": "bool"
        }
      ],
      "stateMutability": "nonpayable",
      "type": "function"
    },
    {
      "inputs": [
        {
          "internalType": "address",
          "name": "account",
          "type": "address"
        }
      ],
      "name": "balanceOf",
      "outputs": [
        {
          "internalType": "uint256",
          "name": "",
          "type": "uint256"
        }
      ],
      "stateMutability": "view",
      "type": "function"
    },
    {
      "inputs": [
        {
          "internalType": "uint16",
          "name": "",
          "type": "uint16"
        }
      ],
      "name": "chainIdToFeeBps",
      "outputs": [
        {
          "internalType": "uint16",
          "name": "feeBP",
          "type": "uint16"
        },
        {
          "internalType": "bool",
          "name": "enabled",
          "type": "bool"
        }
      ],
      "stateMutability": "view",
      "type": "function"
    },
    {
      "inputs": [],
      "name": "circulatingSupply",
      "outputs": [
        {
          "internalType": "uint256",
          "name": "",
          "type": "uint256"
        }
      ],
      "stateMutability": "view",
      "type": "function"
    },
    {
      "inputs": [],
      "name": "decimals",
      "outputs": [
        {
          "internalType": "uint8",
          "name": "",
          "type": "uint8"
        }
      ],
      "stateMutability": "pure",
      "type": "function"
    },
    {
      "inputs": [
        {
          "internalType": "address",
          "name": "spender",
          "type": "address"
        },
        {
          "internalType": "uint256",
          "name": "subtractedValue",
          "type": "uint256"
        }
      ],
      "name": "decreaseAllowance",
      "outputs": [
        {
          "internalType": "bool",
          "name": "",
          "type": "bool"
        }
      ],
      "stateMutability": "nonpayable",
      "type": "function"
    },
    {
      "inputs": [],
      "name": "defaultFeeBp",
      "outputs": [
        {
          "internalType": "uint16",
          "name": "",
          "type": "uint16"
        }
      ],
      "stateMutability": "view",
      "type": "function"
    },
    {
      "inputs": [
        {
          "internalType": "uint16",
          "name": "_dstChainId",
          "type": "uint16"
        },
        {
          "internalType": "bytes",
          "name": "_toAddress",
          "type": "bytes"
        },
        {
          "internalType": "uint256",
          "name": "_amount",
          "type": "uint256"
        },
        {
          "internalType": "bytes",
          "name": "_payload",
          "type": "bytes"
        },
        {
          "internalType": "uint64",
          "name": "_dstGasForCall",
          "type": "uint64"
        },
        {
          "internalType": "bool",
          "name": "_useZro",
          "type": "bool"
        },
        {
          "internalType": "bytes",
          "name": "_adapterParams",
          "type": "bytes"
        }
      ],
      "name": "estimateSendAndCallFee",
      "outputs": [
        {
          "internalType": "uint256",
          "name": "nativeFee",
          "type": "uint256"
        },
        {
          "internalType": "uint256",
          "name": "zroFee",
          "type": "uint256"
        }
      ],
      "stateMutability": "view",
      "type": "function"
    },
    {
      "inputs": [
        {
          "internalType": "uint16",
          "name": "_dstChainId",
          "type": "uint16"
        },
        {
          "internalType": "bytes",
          "name": "_toAddress",
          "type": "bytes"
        },
        {
          "internalType": "uint256",
          "name": "_amount",
          "type": "uint256"
        },
        {
          "internalType": "bool",
          "name": "_useZro",
          "type": "bool"
        },
        {
          "internalType": "bytes",
          "name": "_adapterParams",
          "type": "bytes"
        }
      ],
      "name": "estimateSendFee",
      "outputs": [
        {
          "internalType": "uint256",
          "name": "nativeFee",
          "type": "uint256"
        },
        {
          "internalType": "uint256",
          "name": "zroFee",
          "type": "uint256"
        }
      ],
      "stateMutability": "view",
      "type": "function"
    },
    {
      "inputs": [
        {
          "internalType": "uint16",
          "name": "",
          "type": "uint16"
        },
        {
          "internalType": "bytes",
          "name": "",
          "type": "bytes"
        },
        {
          "internalType": "uint64",
          "name": "",
          "type": "uint64"
        }
      ],
      "name": "failedMessages",
      "outputs": [
        {
          "internalType": "bytes32",
          "name": "",
          "type": "bytes32"
        }
      ],
      "stateMutability": "view",
      "type": "function"
    },
    {
      "inputs": [
        {
          "internalType": "uint16",
          "name": "",
          "type": "uint16"
        },
        {
          "internalType": "bytes",
          "name": "",
          "type": "bytes"
        },
        {
          "internalType": "uint64",
          "name": "",
          "type": "uint64"
        }
      ],
      "name": "failedOFTReceivedMessages",
      "outputs": [
        {
          "internalType": "bytes32",
          "name": "",
          "type": "bytes32"
        }
      ],
      "stateMutability": "view",
      "type": "function"
    },
    {
      "inputs": [],
      "name": "feeOwner",
      "outputs": [
        {
          "internalType": "address",
          "name": "",
          "type": "address"
        }
      ],
      "stateMutability": "view",
      "type": "function"
    },
    {
      "inputs": [
        {
          "internalType": "uint16",
          "name": "_srcChainId",
          "type": "uint16"
        },
        {
          "internalType": "bytes",
          "name": "_srcAddress",
          "type": "bytes"
        }
      ],
      "name": "forceResumeReceive",
      "outputs": [],
      "stateMutability": "nonpayable",
      "type": "function"
    },
    {
      "inputs": [
        {
          "internalType": "uint16",
          "name": "_version",
          "type": "uint16"
        },
        {
          "internalType": "uint16",
          "name": "_chainId",
          "type": "uint16"
        },
        {
          "internalType": "address",
          "name": "",
          "type": "address"
        },
        {
          "internalType": "uint256",
          "name": "_configType",
          "type": "uint256"
        }
      ],
      "name": "getConfig",
      "outputs": [
        {
          "internalType": "bytes",
          "name": "",
          "type": "bytes"
        }
      ],
      "stateMutability": "view",
      "type": "function"
    },
    {
      "inputs": [
        {
          "internalType": "uint16",
          "name": "_remoteChainId",
          "type": "uint16"
        }
      ],
      "name": "getTrustedRemoteAddress",
      "outputs": [
        {
          "internalType": "bytes",
          "name": "",
          "type": "bytes"
        }
      ],
      "stateMutability": "view",
      "type": "function"
    },
    {
      "inputs": [
        {
          "internalType": "address",
          "name": "spender",
          "type": "address"
        },
        {
          "internalType": "uint256",
          "name": "addedValue",
          "type": "uint256"
        }
      ],
      "name": "increaseAllowance",
      "outputs": [
        {
          "internalType": "bool",
          "name": "",
          "type": "bool"
        }
      ],
      "stateMutability": "nonpayable",
      "type": "function"
    },
    {
      "inputs": [
        {
          "internalType": "uint16",
          "name": "_srcChainId",
          "type": "uint16"
        },
        {
          "internalType": "bytes",
          "name": "_srcAddress",
          "type": "bytes"
        }
      ],
      "name": "isTrustedRemote",
      "outputs": [
        {
          "internalType": "bool",
          "name": "",
          "type": "bool"
        }
      ],
      "stateMutability": "view",
      "type": "function"
    },
    {
      "inputs": [],
      "name": "lzEndpoint",
      "outputs": [
        {
          "internalType": "contract ILayerZeroEndpoint",
          "name": "",
          "type": "address"
        }
      ],
      "stateMutability": "view",
      "type": "function"
    },
    {
      "inputs": [
        {
          "internalType": "uint16",
          "name": "_srcChainId",
          "type": "uint16"
        },
        {
          "internalType": "bytes",
          "name": "_srcAddress",
          "type": "bytes"
        },
        {
          "internalType": "uint64",
          "name": "_nonce",
          "type": "uint64"
        },
        {
          "internalType": "bytes",
          "name": "_payload",
          "type": "bytes"
        }
      ],
      "name": "lzReceive",
      "outputs": [],
      "stateMutability": "nonpayable",
      "type": "function"
    },
    {
      "inputs": [
        {
          "internalType": "uint16",
          "name": "",
          "type": "uint16"
        },
        {
          "internalType": "uint16",
          "name": "",
          "type": "uint16"
        }
      ],
      "name": "minDstGasLookup",
      "outputs": [
        {
          "internalType": "uint256",
          "name": "",
          "type": "uint256"
        }
      ],
      "stateMutability": "view",
      "type": "function"
    },
    {
      "inputs": [],
      "name": "name",
      "outputs": [
        {
          "internalType": "string",
          "name": "",
          "type": "string"
        }
      ],
      "stateMutability": "view",
      "type": "function"
    },
    {
      "inputs": [
        {
          "internalType": "uint16",
          "name": "_srcChainId",
          "type": "uint16"
        },
        {
          "internalType": "bytes",
          "name": "_srcAddress",
          "type": "bytes"
        },
        {
          "internalType": "uint64",
          "name": "_nonce",
          "type": "uint64"
        },
        {
          "internalType": "bytes",
          "name": "_payload",
          "type": "bytes"
        }
      ],
      "name": "nonblockingLzReceive",
      "outputs": [],
      "stateMutability": "nonpayable",
      "type": "function"
    },
    {
      "inputs": [],
      "name": "owner",
      "outputs": [
        {
          "internalType": "address",
          "name": "",
          "type": "address"
        }
      ],
      "stateMutability": "view",
      "type": "function"
    },
    {
      "inputs": [],
      "name": "precrime",
      "outputs": [
        {
          "internalType": "address",
          "name": "",
          "type": "address"
        }
      ],
      "stateMutability": "view",
      "type": "function"
    },
    {
      "inputs": [
        {
          "internalType": "uint16",
          "name": "_dstChainId",
          "type": "uint16"
        },
        {
          "internalType": "uint256",
          "name": "_amount",
          "type": "uint256"
        }
      ],
      "name": "quoteOFTFee",
      "outputs": [
        {
          "internalType": "uint256",
          "name": "fee",
          "type": "uint256"
        }
      ],
      "stateMutability": "view",
      "type": "function"
    },
    {
      "inputs": [],
      "name": "renounceOwnership",
      "outputs": [],
      "stateMutability": "nonpayable",
      "type": "function"
    },
    {
      "inputs": [
        {
          "internalType": "uint16",
          "name": "_srcChainId",
          "type": "uint16"
        },
        {
          "internalType": "bytes",
          "name": "_srcAddress",
          "type": "bytes"
        },
        {
          "internalType": "uint64",
          "name": "_nonce",
          "type": "uint64"
        },
        {
          "internalType": "bytes",
          "name": "_payload",
          "type": "bytes"
        }
      ],
      "name": "retryMessage",
      "outputs": [],
      "stateMutability": "payable",
      "type": "function"
    },
    {
      "inputs": [
        {
          "internalType": "uint16",
          "name": "_srcChainId",
          "type": "uint16"
        },
        {
          "internalType": "bytes",
          "name": "_srcAddress",
          "type": "bytes"
        },
        {
          "internalType": "uint64",
          "name": "_nonce",
          "type": "uint64"
        },
        {
          "internalType": "bytes",
          "name": "_from",
          "type": "bytes"
        },
        {
          "internalType": "address",
          "name": "_to",
          "type": "address"
        },
        {
          "internalType": "uint256",
          "name": "_amount",
          "type": "uint256"
        },
        {
          "internalType": "bytes",
          "name": "_payload",
          "type": "bytes"
        }
      ],
      "name": "retryOFTReceived",
      "outputs": [],
      "stateMutability": "nonpayable",
      "type": "function"
    },
    {
      "inputs": [
        {
          "internalType": "address",
          "name": "_from",
          "type": "address"
        },
        {
          "internalType": "uint16",
          "name": "_dstChainId",
          "type": "uint16"
        },
        {
          "internalType": "bytes",
          "name": "_toAddress",
          "type": "bytes"
        },
        {
          "internalType": "uint256",
          "name": "_amount",
          "type": "uint256"
        },
        {
          "internalType": "uint256",
          "name": "_minAmount",
          "type": "uint256"
        },
        {
          "internalType": "bytes",
          "name": "_payload",
          "type": "bytes"
        },
        {
          "internalType": "uint64",
          "name": "_dstGasForCall",
          "type": "uint64"
        },
        {
          "components": [
            {
              "internalType": "address payable",
              "name": "refundAddress",
              "type": "address"
            },
            {
              "internalType": "address",
              "name": "zroPaymentAddress",
              "type": "address"
            },
            {
              "internalType": "bytes",
              "name": "adapterParams",
              "type": "bytes"
            }
          ],
          "internalType": "struct ICommonOFT.LzCallParams",
          "name": "_callParams",
          "type": "tuple"
        }
      ],
      "name": "sendAndCall",
      "outputs": [],
      "stateMutability": "payable",
      "type": "function"
    },
    {
      "inputs": [
        {
          "internalType": "address",
          "name": "_from",
          "type": "address"
        },
        {
          "internalType": "uint16",
          "name": "_dstChainId",
          "type": "uint16"
        },
        {
          "internalType": "bytes",
          "name": "_toAddress",
          "type": "bytes"
        },
        {
          "internalType": "uint256",
          "name": "_amount",
          "type": "uint256"
        },
        {
          "internalType": "uint256",
          "name": "_minAmount",
          "type": "uint256"
        },
        {
          "components": [
            {
              "internalType": "address payable",
              "name": "refundAddress",
              "type": "address"
            },
            {
              "internalType": "address",
              "name": "zroPaymentAddress",
              "type": "address"
            },
            {
              "internalType": "bytes",
              "name": "adapterParams",
              "type": "bytes"
            }
          ],
          "internalType": "struct ICommonOFT.LzCallParams",
          "name": "_callParams",
          "type": "tuple"
        }
      ],
      "name": "sendFrom",
      "outputs": [],
      "stateMutability": "payable",
      "type": "function"
    },
    {
      "inputs": [
        {
          "internalType": "uint16",
          "name": "_version",
          "type": "uint16"
        },
        {
          "internalType": "uint16",
          "name": "_chainId",
          "type": "uint16"
        },
        {
          "internalType": "uint256",
          "name": "_configType",
          "type": "uint256"
        },
        {
          "internalType": "bytes",
          "name": "_config",
          "type": "bytes"
        }
      ],
      "name": "setConfig",
      "outputs": [],
      "stateMutability": "nonpayable",
      "type": "function"
    },
    {
      "inputs": [
        {
          "internalType": "uint16",
          "name": "_feeBp",
          "type": "uint16"
        }
      ],
      "name": "setDefaultFeeBp",
      "outputs": [],
      "stateMutability": "nonpayable",
      "type": "function"
    },
    {
      "inputs": [
        {
          "internalType": "uint16",
          "name": "_dstChainId",
          "type": "uint16"
        },
        {
          "internalType": "bool",
          "name": "_enabled",
          "type": "bool"
        },
        {
          "internalType": "uint16",
          "name": "_feeBp",
          "type": "uint16"
        }
      ],
      "name": "setFeeBp",
      "outputs": [],
      "stateMutability": "nonpayable",
      "type": "function"
    },
    {
      "inputs": [
        {
          "internalType": "address",
          "name": "_feeOwner",
          "type": "address"
        }
      ],
      "name": "setFeeOwner",
      "outputs": [],
      "stateMutability": "nonpayable",
      "type": "function"
    },
    {
      "inputs": [
        {
          "internalType": "uint16",
          "name": "_dstChainId",
          "type": "uint16"
        },
        {
          "internalType": "uint16",
          "name": "_packetType",
          "type": "uint16"
        },
        {
          "internalType": "uint256",
          "name": "_minGas",
          "type": "uint256"
        }
      ],
      "name": "setMinDstGas",
      "outputs": [],
      "stateMutability": "nonpayable",
      "type": "function"
    },
    {
      "inputs": [
        {
          "internalType": "address",
          "name": "_precrime",
          "type": "address"
        }
      ],
      "name": "setPrecrime",
      "outputs": [],
      "stateMutability": "nonpayable",
      "type": "function"
    },
    {
      "inputs": [
        {
          "internalType": "uint16",
          "name": "_version",
          "type": "uint16"
        }
      ],
      "name": "setReceiveVersion",
      "outputs": [],
      "stateMutability": "nonpayable",
      "type": "function"
    },
    {
      "inputs": [
        {
          "internalType": "uint16",
          "name": "_version",
          "type": "uint16"
        }
      ],
      "name": "setSendVersion",
      "outputs": [],
      "stateMutability": "nonpayable",
      "type": "function"
    },
    {
      "inputs": [
        {
          "internalType": "uint16",
          "name": "_srcChainId",
          "type": "uint16"
        },
        {
          "internalType": "bytes",
          "name": "_path",
          "type": "bytes"
        }
      ],
      "name": "setTrustedRemote",
      "outputs": [],
      "stateMutability": "nonpayable",
      "type": "function"
    },
    {
      "inputs": [
        {
          "internalType": "uint16",
          "name": "_remoteChainId",
          "type": "uint16"
        },
        {
          "internalType": "bytes",
          "name": "_remoteAddress",
          "type": "bytes"
        }
      ],
      "name": "setTrustedRemoteAddress",
      "outputs": [],
      "stateMutability": "nonpayable",
      "type": "function"
    },
    {
      "inputs": [
        {
          "internalType": "bool",
          "name": "_useCustomAdapterParams",
          "type": "bool"
        }
      ],
      "name": "setUseCustomAdapterParams",
      "outputs": [],
      "stateMutability": "nonpayable",
      "type": "function"
    },
    {
      "inputs": [],
      "name": "sharedDecimals",
      "outputs": [
        {
          "internalType": "uint8",
          "name": "",
          "type": "uint8"
        }
      ],
      "stateMutability": "view",
      "type": "function"
    },
    {
      "inputs": [
        {
          "internalType": "bytes4",
          "name": "interfaceId",
          "type": "bytes4"
        }
      ],
      "name": "supportsInterface",
      "outputs": [
        {
          "internalType": "bool",
          "name": "",
          "type": "bool"
        }
      ],
      "stateMutability": "view",
      "type": "function"
    },
    {
      "inputs": [],
      "name": "symbol",
      "outputs": [
        {
          "internalType": "string",
          "name": "",
          "type": "string"
        }
      ],
      "stateMutability": "view",
      "type": "function"
    },
    {
      "inputs": [],
      "name": "token",
      "outputs": [
        {
          "internalType": "address",
          "name": "",
          "type": "address"
        }
      ],
      "stateMutability": "view",
      "type": "function"
    },
    {
      "inputs": [],
      "name": "totalSupply",
      "outputs": [
        {
          "internalType": "uint256",
          "name": "",
          "type": "uint256"
        }
      ],
      "stateMutability": "view",
      "type": "function"
    },
    {
      "inputs": [
        {
          "internalType": "address",
          "name": "to",
          "type": "address"
        },
        {
          "internalType": "uint256",
          "name": "amount",
          "type": "uint256"
        }
      ],
      "name": "transfer",
      "outputs": [
        {
          "internalType": "bool",
          "name": "",
          "type": "bool"
        }
      ],
      "stateMutability": "nonpayable",
      "type": "function"
    },
    {
      "inputs": [
        {
          "internalType": "address",
          "name": "from",
          "type": "address"
        },
        {
          "internalType": "address",
          "name": "to",
          "type": "address"
        },
        {
          "internalType": "uint256",
          "name": "amount",
          "type": "uint256"
        }
      ],
      "name": "transferFrom",
      "outputs": [
        {
          "internalType": "bool",
          "name": "",
          "type": "bool"
        }
      ],
      "stateMutability": "nonpayable",
      "type": "function"
    },
    {
      "inputs": [
        {
          "internalType": "address",
          "name": "newOwner",
          "type": "address"
        }
      ],
      "name": "transferOwnership",
      "outputs": [],
      "stateMutability": "nonpayable",
      "type": "function"
    },
    {
      "inputs": [
        {
          "internalType": "uint16",
          "name": "",
          "type": "uint16"
        }
      ],
      "name": "trustedRemoteLookup",
      "outputs": [
        {
          "internalType": "bytes",
          "name": "",
          "type": "bytes"
        }
      ],
      "stateMutability": "view",
      "type": "function"
    },
    {
      "inputs": [],
      "name": "useCustomAdapterParams",
      "outputs": [
        {
          "internalType": "bool",
          "name": "",
          "type": "bool"
        }
      ],
      "stateMutability": "view",
      "type": "function"
    }
  ],
  "transactionHash": "0xe46f4a52b81975b943793ffbe528299de6b8986b1bd96bd405cc7c6dadeaf98c",
  "args": [
    "OFT",
    "OFT20",
    "0x6aB5Ae6822647046626e83ee6dB8187151E1d5ab"
  ],
  "numDeployments": 1,
  "solcInputHash": "c835a3cb83e9eb168b6d8b90b66b9fab",
  "bytecode": "0x60e06040523480156200001157600080fd5b506040516200525c3803806200525c83398101604081905262000034916200033e565b828260088383838383818180806200004c3362000176565b6001600160a01b0316608052505060ff1660a052620000736000546001600160a01b031690565b600880546001600160a01b0392909216620100000262010000600160b01b031990921691909117905550508151620000b390600c906020850190620001cb565b508051620000c990600d906020840190620001cb565b5050506000620000de620001c660201b60201c565b90508060ff168360ff1611156200014b5760405162461bcd60e51b815260206004820152602760248201527f4f46543a20736861726564446563696d616c73206d757374206265203c3d20646044820152666563696d616c7360c81b606482015260840160405180910390fd5b620001578382620003e1565b6200016490600a62000506565b60c052506200055b9650505050505050565b600080546001600160a01b038381166001600160a01b0319831681178455604051919092169283917f8be0079c531659141344cd1fd0a4f28419497f9722a3daafe3b4186f6b6457e09190a35050565b600890565b828054620001d9906200051e565b90600052602060002090601f016020900481019282620001fd576000855562000248565b82601f106200021857805160ff191683800117855562000248565b8280016001018555821562000248579182015b82811115620002485782518255916020019190600101906200022b565b50620002569291506200025a565b5090565b5b808211156200025657600081556001016200025b565b634e487b7160e01b600052604160045260246000fd5b600082601f8301126200029957600080fd5b81516001600160401b0380821115620002b657620002b662000271565b604051601f8301601f19908116603f01168101908282118183101715620002e157620002e162000271565b81604052838152602092508683858801011115620002fe57600080fd5b600091505b8382101562000322578582018301518183018401529082019062000303565b83821115620003345760008385830101525b9695505050505050565b6000806000606084860312156200035457600080fd5b83516001600160401b03808211156200036c57600080fd5b6200037a8783880162000287565b945060208601519150808211156200039157600080fd5b50620003a08682870162000287565b604086015190935090506001600160a01b0381168114620003c057600080fd5b809150509250925092565b634e487b7160e01b600052601160045260246000fd5b600060ff821660ff841680821015620003fe57620003fe620003cb565b90039392505050565b600181815b80851115620004485781600019048211156200042c576200042c620003cb565b808516156200043a57918102915b93841c93908002906200040c565b509250929050565b600082620004615750600162000500565b81620004705750600062000500565b81600181146200048957600281146200049457620004b4565b600191505062000500565b60ff841115620004a857620004a8620003cb565b50506001821b62000500565b5060208310610133831016604e8410600b8410161715620004d9575081810a62000500565b620004e5838362000407565b8060001904821115620004fc57620004fc620003cb565b0290505b92915050565b60006200051760ff84168362000450565b9392505050565b600181811c908216806200053357607f821691505b602082108114156200055557634e487b7160e01b600052602260045260246000fd5b50919050565b60805160a05160c051614c84620005d860003960008181612bc101528181612f7c015261329d0152600061070301526000818161089401528181610b2b01528181610e4301528181610ee40152818161106e0152818161180001528181611e3e015281816123f7015281816127a401526131050152614c846000f3fe60806040526004361061036a5760003560e01c8063950c8a74116101c6578063cfd6528e116100f7578063eab45d9c11610095578063ed629c5c1161006f578063ed629c5c14610abb578063f2fde38b14610ad5578063f5ecbdbc14610af5578063fc0c546a14610b1557600080fd5b8063eab45d9c14610a5b578063eb8d72b714610a7b578063ecd8f21214610a9b57600080fd5b8063d8882968116100d1578063d8882968146109d8578063dd62ed3e14610a06578063df2a5b3b14610a26578063e6a20ae614610a4657600080fd5b8063cfd6528e14610992578063d1d55d89146109b2578063d1deba1f146109c557600080fd5b8063b214dd2911610164578063baf3292d1161013e578063baf3292d146108dc578063c83330ce146108fc578063c8598dca14610952578063cbed8b9c1461097257600080fd5b8063b214dd291461086f578063b353aaa714610882578063b9818be1146108b657600080fd5b8063a457c2d7116101a0578063a457c2d7146107f9578063a6c3d16514610819578063a9059cbb14610839578063abe685cd1461085957600080fd5b8063950c8a74146107a457806395d89b41146107c45780639f38369a146107d957600080fd5b80634b104eff116102a0578063715018a61161023e578063857749b011610218578063857749b0146106f15780638cfd8f5c146107255780638da5cb5b1461075d5780639358928b1461078f57600080fd5b8063715018a61461069c5780637533d788146106b157806379c0ad4b146106d157600080fd5b80635b8c41e61161027a5780635b8c41e6146105a85780636096cc58146105f757806366ad5c8a1461064657806370a082311461066657600080fd5b80634b104eff146105535780634c42899a146105735780635a359dc51461058857600080fd5b806323b872dd1161030d57806339509351116102e757806339509351146104de5780633d8b38f6146104fe57806342d65a8d1461051e578063447705151461053e57600080fd5b806323b872dd146104675780632a205e3d14610487578063313ce567146104bc57600080fd5b806307e0db171161034957806307e0db17146103e8578063095ea7b31461040857806310ddb1371461042857806318160ddd1461044857600080fd5b80621d35671461036f57806301ffc9a71461039157806306fdde03146103c6575b600080fd5b34801561037b57600080fd5b5061038f61038a366004613baf565b610b28565b005b34801561039d57600080fd5b506103b16103ac366004613c42565b610d59565b60405190151581526020015b60405180910390f35b3480156103d257600080fd5b506103db610d90565b6040516103bd9190613cc4565b3480156103f457600080fd5b5061038f610403366004613cd7565b610e22565b34801561041457600080fd5b506103b1610423366004613d12565b610eab565b34801561043457600080fd5b5061038f610443366004613cd7565b610ec3565b34801561045457600080fd5b50600b545b6040519081526020016103bd565b34801561047357600080fd5b506103b1610482366004613d3e565b610f1b565b34801561049357600080fd5b506104a76104a2366004613d8f565b610f3f565b604080519283526020830191909152016103bd565b3480156104c857600080fd5b5060085b60405160ff90911681526020016103bd565b3480156104ea57600080fd5b506103b16104f9366004613d12565b610f61565b34801561050a57600080fd5b506103b1610519366004613e2c565b610f83565b34801561052a57600080fd5b5061038f610539366004613e2c565b61104f565b34801561054a57600080fd5b50610459600081565b34801561055f57600080fd5b5061038f61056e366004613e7e565b6110d5565b34801561057f57600080fd5b506104cc600081565b34801561059457600080fd5b5061038f6105a3366004613cd7565b611192565b3480156105b457600080fd5b506104596105c3366004613f08565b6004602090815260009384526040808520845180860184018051928152908401958401959095209452929052825290205481565b34801561060357600080fd5b50610459610612366004613f08565b6006602090815260009384526040808520845180860184018051928152908401958401959095209452929052825290205481565b34801561065257600080fd5b5061038f610661366004613baf565b611204565b34801561067257600080fd5b50610459610681366004613e7e565b6001600160a01b031660009081526009602052604090205490565b3480156106a857600080fd5b5061038f6112e0565b3480156106bd57600080fd5b506103db6106cc366004613cd7565b6112f4565b3480156106dd57600080fd5b5061038f6106ec366004613fa8565b61138e565b3480156106fd57600080fd5b506104cc7f000000000000000000000000000000000000000000000000000000000000000081565b34801561073157600080fd5b50610459610740366004613fe2565b600260209081526000928352604080842090915290825290205481565b34801561076957600080fd5b506000546001600160a01b03165b6040516001600160a01b0390911681526020016103bd565b34801561079b57600080fd5b5061045961144a565b3480156107b057600080fd5b50600354610777906001600160a01b031681565b3480156107d057600080fd5b506103db61145a565b3480156107e557600080fd5b506103db6107f4366004613cd7565b611469565b34801561080557600080fd5b506103b1610814366004613d12565b611580565b34801561082557600080fd5b5061038f610834366004613e2c565b6115fb565b34801561084557600080fd5b506103b1610854366004613d12565b611681565b34801561086557600080fd5b5061045961271081565b61038f61087d36600461402d565b61168f565b34801561088e57600080fd5b506107777f000000000000000000000000000000000000000000000000000000000000000081565b3480156108c257600080fd5b50600854610777906201000090046001600160a01b031681565b3480156108e857600080fd5b5061038f6108f7366004613e7e565b611763565b34801561090857600080fd5b50610938610917366004613cd7565b60076020526000908152604090205461ffff81169062010000900460ff1682565b6040805161ffff90931683529015156020830152016103bd565b34801561095e57600080fd5b506104a761096d3660046140cc565b6117b9565b34801561097e57600080fd5b5061038f61098d3660046141a6565b6117e1565b34801561099e57600080fd5b5061038f6109ad366004614214565b611876565b61038f6109c03660046142cc565b611894565b61038f6109d3366004613baf565b61196c565b3480156109e457600080fd5b506008546109f39061ffff1681565b60405161ffff90911681526020016103bd565b348015610a1257600080fd5b50610459610a213660046143a7565b611b82565b348015610a3257600080fd5b5061038f610a413660046143e0565b611bad565b348015610a5257600080fd5b506104cc600181565b348015610a6757600080fd5b5061038f610a7636600461441c565b611c5f565b348015610a8757600080fd5b5061038f610a96366004613e2c565b611ca8565b348015610aa757600080fd5b50610459610ab6366004614437565b611d02565b348015610ac757600080fd5b506005546103b19060ff1681565b348015610ae157600080fd5b5061038f610af0366004613e7e565b611d94565b348015610b0157600080fd5b506103db610b10366004614453565b611e0d565b348015610b2157600080fd5b5030610777565b337f00000000000000000000000000000000000000000000000000000000000000006001600160a01b031614610ba55760405162461bcd60e51b815260206004820152601e60248201527f4c7a4170703a20696e76616c696420656e64706f696e742063616c6c6572000060448201526064015b60405180910390fd5b61ffff861660009081526001602052604081208054610bc3906144a0565b80601f0160208091040260200160405190810160405280929190818152602001828054610bef906144a0565b8015610c3c5780601f10610c1157610100808354040283529160200191610c3c565b820191906000526020600020905b815481529060010190602001808311610c1f57829003601f168201915b50505050509050805186869050148015610c57575060008151115b8015610c7f575080516020820120604051610c7590889088906144d5565b6040518091039020145b610cda5760405162461bcd60e51b815260206004820152602660248201527f4c7a4170703a20696e76616c696420736f757263652073656e64696e6720636f6044820152651b9d1c9858dd60d21b6064820152608401610b9c565b610d508787878080601f01602080910402602001604051908101604052809392919081815260200183838082843760009201919091525050604080516020601f8a018190048102820181019092528881528a935091508890889081908401838280828437600092019190915250611ebe92505050565b50505050505050565b60006001600160e01b0319821663031e0c0560e51b1480610d8a57506301ffc9a760e01b6001600160e01b03198316145b92915050565b6060600c8054610d9f906144a0565b80601f0160208091040260200160405190810160405280929190818152602001828054610dcb906144a0565b8015610e185780601f10610ded57610100808354040283529160200191610e18565b820191906000526020600020905b815481529060010190602001808311610dfb57829003601f168201915b5050505050905090565b610e2a611fc8565b6040516307e0db1760e01b815261ffff821660048201527f00000000000000000000000000000000000000000000000000000000000000006001600160a01b0316906307e0db17906024015b600060405180830381600087803b158015610e9057600080fd5b505af1158015610ea4573d6000803e3d6000fd5b5050505050565b600033610eb9818585612022565b5060019392505050565b610ecb611fc8565b6040516310ddb13760e01b815261ffff821660048201527f00000000000000000000000000000000000000000000000000000000000000006001600160a01b0316906310ddb13790602401610e76565b600033610f29858285612146565b610f348585856121c0565b506001949350505050565b600080610f518989898989898961238e565b9150915097509795505050505050565b600033610eb9818585610f748383611b82565b610f7e91906144fb565b612022565b61ffff831660009081526001602052604081208054829190610fa4906144a0565b80601f0160208091040260200160405190810160405280929190818152602001828054610fd0906144a0565b801561101d5780601f10610ff25761010080835404028352916020019161101d565b820191906000526020600020905b81548152906001019060200180831161100057829003601f168201915b5050505050905083836040516110349291906144d5565b60405180910390208180519060200120149150509392505050565b611057611fc8565b6040516342d65a8d60e01b81526001600160a01b037f000000000000000000000000000000000000000000000000000000000000000016906342d65a8d906110a79086908690869060040161453c565b600060405180830381600087803b1580156110c157600080fd5b505af1158015610d50573d6000803e3d6000fd5b6110dd611fc8565b6001600160a01b0381166111335760405162461bcd60e51b815260206004820152601d60248201527f4f46544665653a206665654f776e65722063616e6e6f742062652030780000006044820152606401610b9c565b6008805462010000600160b01b031916620100006001600160a01b038416908102919091179091556040519081527f047912631afa564eebd3db2efe191a0dec62da1fede6bbbc1ffc89d87845b1b5906020015b60405180910390a150565b61119a611fc8565b6127108161ffff1611156111c05760405162461bcd60e51b8152600401610b9c9061455a565b6008805461ffff191661ffff83169081179091556040519081527fd56fd0f83a512cb4e34baf78b277f71fe2e27ccfc0e1c469c345f4cee340766290602001611187565b3330146112625760405162461bcd60e51b815260206004820152602660248201527f4e6f6e626c6f636b696e674c7a4170703a2063616c6c6572206d7573742062656044820152650204c7a4170760d41b6064820152608401610b9c565b6112d88686868080601f01602080910402602001604051908101604052809392919081815260200183838082843760009201919091525050604080516020601f89018190048102820181019092528781528993509150879087908190840183828082843760009201919091525061248792505050565b505050505050565b6112e8611fc8565b6112f2600061250e565b565b6001602052600090815260409020805461130d906144a0565b80601f0160208091040260200160405190810160405280929190818152602001828054611339906144a0565b80156113865780601f1061135b57610100808354040283529160200191611386565b820191906000526020600020905b81548152906001019060200180831161136957829003601f168201915b505050505081565b611396611fc8565b6127108161ffff1611156113bc5760405162461bcd60e51b8152600401610b9c9061455a565b60408051808201825261ffff83811680835285151560208085018281528985166000818152600784528890209651875492511515620100000262ffffff1990931696169590951717909455845192835292820192909252918201527fdd9c9685af3e6dcb56d8f4b88d2595d4add6837a150034e7781c46b6dcf8aaab906060015b60405180910390a1505050565b6000611455600b5490565b905090565b6060600d8054610d9f906144a0565b61ffff811660009081526001602052604081208054606092919061148c906144a0565b80601f01602080910402602001604051908101604052809291908181526020018280546114b8906144a0565b80156115055780601f106114da57610100808354040283529160200191611505565b820191906000526020600020905b8154815290600101906020018083116114e857829003601f168201915b5050505050905080516000141561155e5760405162461bcd60e51b815260206004820152601d60248201527f4c7a4170703a206e6f20747275737465642070617468207265636f72640000006044820152606401610b9c565b61157960006014835161157191906145a2565b83919061255e565b9392505050565b6000338161158e8286611b82565b9050838110156115ee5760405162461bcd60e51b815260206004820152602560248201527f45524332303a2064656372656173656420616c6c6f77616e63652062656c6f77604482015264207a65726f60d81b6064820152608401610b9c565b610f348286868403612022565b611603611fc8565b818130604051602001611618939291906145b9565b60408051601f1981840301815291815261ffff8516600090815260016020908152919020825161164d93919290910190613a2c565b507f8c0400cfe2d1199b1a725c78960bcc2a344d869b80590d0f2bd005db15a572ce83838360405161143d9392919061453c565b600033610eb98185856121c0565b61169a87878561266b565b5080935050611741878787878080601f0160208091040260200160405190810160405280939291908181526020018383808284376000920191909152508992506116ea9150506020870187613e7e565b6116fa6040880160208901613e7e565b61170760408901896145df565b8080601f0160208091040260200160405190810160405280939291908181526020018383808284376000920191909152506126b292505050565b925081831015610d505760405162461bcd60e51b8152600401610b9c90614625565b61176b611fc8565b600380546001600160a01b0319166001600160a01b0383169081179091556040519081527f5db758e995a17ec1ad84bdef7e8c3293a0bd6179bcce400dff5d4c3d87db726b90602001611187565b6000806117ce8c8c8c8c8c8c8c8c8c8c61274d565b915091509a509a98505050505050505050565b6117e9611fc8565b6040516332fb62e760e21b81526001600160a01b037f0000000000000000000000000000000000000000000000000000000000000000169063cbed8b9c9061183d9088908890889088908890600401614672565b600060405180830381600087803b15801561185757600080fd5b505af115801561186b573d6000803e3d6000fd5b505050505050505050565b6118888a8a8a8a8a8a8a8a8a8a61284c565b50505050505050505050565b61189f8a8a8861266b565b508096505061194a8a8a8a8a8080601f0160208091040260200160405190810160405280939291908181526020018383808284376000920191909152508c92508a9150899050886118f360208a018a613e7e565b61190360408b0160208c01613e7e565b61191060408c018c6145df565b8080601f016020809104026020016040519081016040528093929190818152602001838380828437600092019190915250612a7e92505050565b9550848610156118885760405162461bcd60e51b8152600401610b9c90614625565b61ffff8616600090815260046020526040808220905161198f90889088906144d5565b90815260408051602092819003830190206001600160401b03871660009081529252902054905080611a0f5760405162461bcd60e51b815260206004820152602360248201527f4e6f6e626c6f636b696e674c7a4170703a206e6f2073746f726564206d65737360448201526261676560e81b6064820152608401610b9c565b808383604051611a209291906144d5565b604051809103902014611a7f5760405162461bcd60e51b815260206004820152602160248201527f4e6f6e626c6f636b696e674c7a4170703a20696e76616c6964207061796c6f616044820152601960fa1b6064820152608401610b9c565b61ffff87166000908152600460205260408082209051611aa290899089906144d5565b90815260408051602092819003830181206001600160401b038916600090815290845282902093909355601f88018290048202830182019052868252611b3a918991899089908190840183828082843760009201919091525050604080516020601f8a018190048102820181019092528881528a93509150889088908190840183828082843760009201919091525061248792505050565b7fc264d91f3adc5588250e1551f547752ca0cfa8f6b530d243b9f9f4cab10ea8e58787878785604051611b719594939291906146ab565b60405180910390a150505050505050565b6001600160a01b039182166000908152600a6020908152604080832093909416825291909152205490565b611bb5611fc8565b60008111611bfd5760405162461bcd60e51b81526020600482015260156024820152744c7a4170703a20696e76616c6964206d696e47617360581b6044820152606401610b9c565b61ffff83811660008181526002602090815260408083209487168084529482529182902085905581519283528201929092529081018290527f9d5c7c0b934da8fefa9c7760c98383778a12dfbfc0c3b3106518f43fb9508ac09060600161143d565b611c67611fc8565b6005805460ff19168215159081179091556040519081527f1584ad594a70cbe1e6515592e1272a987d922b097ead875069cebe8b40c004a490602001611187565b611cb0611fc8565b61ffff83166000908152600160205260409020611cce908383613ab0565b507ffa41487ad5d6728f0b19276fa1eddc16558578f5109fc39d2dc33c3230470dab83838360405161143d9392919061453c565b61ffff828116600090815260076020908152604080832081518083019092525493841681526201000090930460ff1615801591840191909152909190611d6757805161271090611d569061ffff16856146e6565b611d60919061471b565b9150611d8d565b60085461ffff1615611d885760085461271090611d569061ffff16856146e6565b600091505b5092915050565b611d9c611fc8565b6001600160a01b038116611e015760405162461bcd60e51b815260206004820152602660248201527f4f776e61626c653a206e6577206f776e657220697320746865207a65726f206160448201526564647265737360d01b6064820152608401610b9c565b611e0a8161250e565b50565b604051633d7b2f6f60e21b815261ffff808616600483015284166024820152306044820152606481018290526060907f00000000000000000000000000000000000000000000000000000000000000006001600160a01b03169063f5ecbdbc90608401600060405180830381865afa158015611e8d573d6000803e3d6000fd5b505050506040513d6000823e601f3d908101601f19168201604052611eb5919081019061472f565b95945050505050565b600080611f215a60966366ad5c8a60e01b89898989604051602401611ee6949392919061479c565b60408051601f198184030181529190526020810180516001600160e01b03166001600160e01b03199093169290921790915230929190612b2f565b91509150816112d8578280519060200120600460008861ffff1661ffff16815260200190815260200160002086604051611f5b91906147da565b9081526040805191829003602090810183206001600160401b0389166000908152915220919091557fe183f33de2837795525b4792ca4cd60535bd77c53b7e7030060bfcf5734d6b0c90611fb890889088908890889087906147f6565b60405180910390a1505050505050565b6000546001600160a01b031633146112f25760405162461bcd60e51b815260206004820181905260248201527f4f776e61626c653a2063616c6c6572206973206e6f7420746865206f776e65726044820152606401610b9c565b6001600160a01b0383166120845760405162461bcd60e51b8152602060048201526024808201527f45524332303a20617070726f76652066726f6d20746865207a65726f206164646044820152637265737360e01b6064820152608401610b9c565b6001600160a01b0382166120e55760405162461bcd60e51b815260206004820152602260248201527f45524332303a20617070726f766520746f20746865207a65726f206164647265604482015261737360f01b6064820152608401610b9c565b6001600160a01b038381166000818152600a602090815260408083209487168084529482529182902085905590518481527f8c5be1e5ebec7d5bd14f71427d1e84f3dd0314c0f7b2291e5b200ac8c7c3b925910160405180910390a3505050565b60006121528484611b82565b905060001981146121ba57818110156121ad5760405162461bcd60e51b815260206004820152601d60248201527f45524332303a20696e73756666696369656e7420616c6c6f77616e63650000006044820152606401610b9c565b6121ba8484848403612022565b50505050565b6001600160a01b0383166122245760405162461bcd60e51b815260206004820152602560248201527f45524332303a207472616e736665722066726f6d20746865207a65726f206164604482015264647265737360d81b6064820152608401610b9c565b6001600160a01b0382166122865760405162461bcd60e51b815260206004820152602360248201527f45524332303a207472616e7366657220746f20746865207a65726f206164647260448201526265737360e81b6064820152608401610b9c565b6001600160a01b038316600090815260096020526040902054818110156122fe5760405162461bcd60e51b815260206004820152602660248201527f45524332303a207472616e7366657220616d6f756e7420657863656564732062604482015265616c616e636560d01b6064820152608401610b9c565b6001600160a01b038085166000908152600960205260408082208585039055918516815290812080548492906123359084906144fb565b92505081905550826001600160a01b0316846001600160a01b03167fddf252ad1be2c89b69c2b068fc378daa952ba7f163c4a11628f55a4df523b3ef8460405161238191815260200190565b60405180910390a36121ba565b60008060006123dd89898080601f0160208091040260200160405190810160405280939291908181526020018383808284376000920191909152506123d892508b9150612bb99050565b612c3f565b60405163040a7bb160e41b81529091506001600160a01b037f000000000000000000000000000000000000000000000000000000000000000016906340a7bb1090612436908d90309086908c908c908c90600401614854565b6040805180830381865afa158015612452573d6000803e3d6000fd5b505050506040513d601f19601f8201168201806040525081019061247691906148aa565b925092505097509795505050505050565b60006124938282612c71565b905060ff81166124ae576124a985858585612ccd565b610ea4565b60ff8116600114156124c6576124a985858585612d97565b60405162461bcd60e51b815260206004820152601c60248201527f4f4654436f72653a20756e6b6e6f776e207061636b65742074797065000000006044820152606401610b9c565b600080546001600160a01b038381166001600160a01b0319831681178455604051919092169283917f8be0079c531659141344cd1fd0a4f28419497f9722a3daafe3b4186f6b6457e09190a35050565b60608161256c81601f6144fb565b10156125ab5760405162461bcd60e51b815260206004820152600e60248201526d736c6963655f6f766572666c6f7760901b6044820152606401610b9c565b6125b582846144fb565b845110156125f95760405162461bcd60e51b8152602060048201526011602482015270736c6963655f6f75744f66426f756e647360781b6044820152606401610b9c565b6060821580156126185760405191506000825260208201604052612662565b6040519150601f8416801560200281840101858101878315602002848b0101015b81831015612651578051835260209283019201612639565b5050858452601f01601f1916604052505b50949350505050565b6000806126788484611d02565b905061268481846145a2565b915080156126aa576008546126aa9086906201000090046001600160a01b031683612ed3565b935093915050565b60006126c087828481612efa565b6126c985612f74565b5090506126d888888884612fb4565b905060006126e9876123d884612bb9565b90506126f9888287878734612fe6565b886001600160a01b03168861ffff167f39a4c66499bcf4b56d79f0dde8ed7a9d4925a0df55825206b2b8531e202be0d089856040516127399291906148ce565b60405180910390a350979650505050505050565b60008060006127a0338d8d8080601f01602080910402602001604051908101604052809392919081815260200183838082843760009201919091525061279892508f9150612bb99050565b8c8c8c613173565b90507f00000000000000000000000000000000000000000000000000000000000000006001600160a01b03166340a7bb108e30848a8a8a6040518763ffffffff1660e01b81526004016127f896959493929190614854565b6040805180830381865afa158015612814573d6000803e3d6000fd5b505050506040513d601f19601f8201168201806040525081019061283891906148aa565b92509250509a509a98505050505050505050565b61ffff8a16600090815260066020526040808220905161286f908c908c906144d5565b90815260408051602092819003830190206001600160401b038b16600090815292529020549050806128ef5760405162461bcd60e51b815260206004820152602360248201527f4f4654436f72653a206e6f206661696c6564206d65737361676520746f20726560448201526274727960e81b6064820152608401610b9c565b600087878787878760405160200161290c969594939291906148f0565b6040516020818303038152906040528051906020012090508181146129815760405162461bcd60e51b815260206004820152602560248201527f4f4654436f72653a206661696c6564206d6573736167652068617368206d69736044820152640dac2e8c6d60db1b6064820152608401610b9c565b61ffff8c166000908152600660205260409081902090516129a5908d908d906144d5565b9081526040805191829003602090810183206001600160401b038d16600090815291529081205563147a7d7160e01b81526001600160a01b0387169063147a7d7190612a05908f908f908f908f908f908f908e908e908e9060040161492d565b600060405180830381600087803b158015612a1f57600080fd5b505af1158015612a33573d6000803e3d6000fd5b505050507f41ea88d75e53240e2c5ace3a3d7263efe6c8f4fe42c0e3ef269f71daef1001c881604051612a6891815260200190565b60405180910390a1505050505050505050505050565b6000612a968a6001846001600160401b038916612efa565b612a9f88612f74565b509050612aae8b8b8b84612fb4565b90506000612ac8338b612ac085612bb9565b8b8b8b613173565b9050612ad88b8287878734612fe6565b8b6001600160a01b03168b61ffff167f39a4c66499bcf4b56d79f0dde8ed7a9d4925a0df55825206b2b8531e202be0d08c85604051612b189291906148ce565b60405180910390a3509a9950505050505050505050565b6000606060008060008661ffff166001600160401b03811115612b5457612b54613e9b565b6040519080825280601f01601f191660200182016040528015612b7e576020820181803683370190505b50905060008087516020890160008d8df191503d925086831115612ba0578692505b828152826000602083013e909890975095505050505050565b600080612be67f00000000000000000000000000000000000000000000000000000000000000008461471b565b90506001600160401b03811115610d8a5760405162461bcd60e51b815260206004820152601a60248201527f4f4654436f72653a20616d6f756e745344206f766572666c6f770000000000006044820152606401610b9c565b6060600083518484604051602001612c5a9493929190614998565b604051602081830303815290604052905092915050565b6000612c7e8260016144fb565b83511015612cc45760405162461bcd60e51b8152602060048201526013602482015272746f55696e74385f6f75744f66426f756e647360681b6044820152606401610b9c565b50016001015190565b600080612cd9836131b7565b91509150600080612ce984613251565b9150915081612d2a577fa3c8cf09cc0c729a96662c0de5e58fad3e4df68c58c29ab1f90982adfc99216984604051612d219190613cc4565b60405180910390a15b6000612d3584613296565b9050612d428983836132cb565b9050816001600160a01b03168961ffff167fbf551ec93859b170f9b2141bd9298bf3f64322c6f7beb2543a0cb669834118bf83604051612d8491815260200190565b60405180910390a3505050505050505050565b6000806000806000612da8866132d7565b94509450945094509450600080612dbe86613251565b915091506000612dcd86613296565b9050612dda8c83836132cb565b9050816001600160a01b03168c61ffff167fbf551ec93859b170f9b2141bd9298bf3f64322c6f7beb2543a0cb669834118bf83604051612e1c91815260200190565b60405180910390a382612e6d577fa3c8cf09cc0c729a96662c0de5e58fad3e4df68c58c29ab1f90982adfc99216987604051612e589190613cc4565b60405180910390a150505050505050506121ba565b6001600160a01b0382163b612eb5576040516001600160a01b03831681527f9aedf5fdba8716db3b6705ca00150643309995d4f818a249ed6dde6677e7792d90602001612e58565b612ec58c8c8c8b86868b8b613437565b505050505050505050505050565b336001600160a01b0384168114612eef57612eef848284612146565b6121ba8484846121c0565b60055460ff1615612f1657612f1184848484613602565b6121ba565b8151156121ba5760405162461bcd60e51b815260206004820152602660248201527f4f4654436f72653a205f61646170746572506172616d73206d7573742062652060448201526532b6b83a3c9760d11b6064820152608401610b9c565b600080612fa17f0000000000000000000000000000000000000000000000000000000000000000846149ee565b9050612fad81846145a2565b9150915091565b6000336001600160a01b0386168114612fd257612fd2868285612146565b612fdc86846136e1565b5090949350505050565b61ffff861660009081526001602052604081208054613004906144a0565b80601f0160208091040260200160405190810160405280929190818152602001828054613030906144a0565b801561307d5780601f106130525761010080835404028352916020019161307d565b820191906000526020600020905b81548152906001019060200180831161306057829003601f168201915b505050505090508051600014156130ef5760405162461bcd60e51b815260206004820152603060248201527f4c7a4170703a2064657374696e6174696f6e20636861696e206973206e6f742060448201526f61207472757374656420736f7572636560801b6064820152608401610b9c565b60405162c5803160e81b81526001600160a01b037f0000000000000000000000000000000000000000000000000000000000000000169063c5803100908490613146908b9086908c908c908c908c90600401614a02565b6000604051808303818588803b15801561315f57600080fd5b505af1158015612ec5573d6000803e3d6000fd5b845160405160609161319c9160019190899089906014908d908a908c9082908c90602001614a5c565b60405160208183030381529060405290509695505050505050565b60606000806131c68482612c71565b60ff16146132115760405162461bcd60e51b815260206004820152601860248201527713d19510dbdc994e881a5b9d985b1a59081c185e5b1bd85960421b6044820152606401610b9c565b600061321e846001612c71565b905061322f84600260ff841661255e565b925061324961323f826002614b06565b859060ff1661382f565b915050915091565b600080825160141461326a575060009261dead92509050565b6000613276848261388c565b90506001600160a01b03811661328b575061dead5b600194909350915050565b6000610d8a7f00000000000000000000000000000000000000000000000000000000000000006001600160401b0384166146e6565b6000611d8d83836138f1565b6060806000818160016132ea8783612c71565b60ff16146133355760405162461bcd60e51b815260206004820152601860248201527713d19510dbdc994e881a5b9d985b1a59081c185e5b1bd85960421b6044820152606401610b9c565b6000613342876001612c71565b905061335387600260ff841661255e565b945061336d613363826002614b06565b889060ff1661382f565b9350600061338961337f83600a614b06565b899060ff16612c71565b90506133a861339983600b614b06565b899060ff90811690841661255e565b965060006133cf826133bb85600b614b06565b6133c59190614b06565b8a9060ff16612c71565b90506133f9826133e085600c614b06565b6133ea9190614b06565b8a9060ff90811690841661255e565b9450613429818361340b86600c614b06565b6134159190614b06565b61341f9190614b06565b8a9060ff1661382f565b935050505091939590929450565b6000806134b0836001600160401b0316609663147a7d7160e01b8d8d8d8d8c8c60405160240161346c96959493929190614b2b565b60408051601f198184030181529190526020810180516001600160e01b03166001600160e01b0319909316929092179091526001600160a01b038a16929190612b2f565b915091508161358457868686866040516020016134d09493929190614b83565b60408051601f19818403018152828252805160209182012061ffff8e16600090815260069092529190209091613507908c906147da565b9081526040805191829003602090810183206001600160401b038d166000908152915220919091556001600160a01b0387169061ffff8c16907f95c1ad3ef50dd05e668d7b80e9a723079395ac4867a4050552d5d9219e683d7490613577908d908d908d908c908c908a90614bbe565b60405180910390a3611888565b60008787878760405160200161359d9493929190614b83565b6040516020818303038152906040528051906020012090508a61ffff167fb8890edbfc1c74692f527444645f95489c3703cc2df42e4a366f5d06fa6cd8848b8b846040516135ed93929190614c20565b60405180910390a25050505050505050505050565b600061360d836139d0565b61ffff80871660009081526002602090815260408083209389168352929052908120549192509061363f9084906144fb565b9050600081116136915760405162461bcd60e51b815260206004820152601a60248201527f4c7a4170703a206d696e4761734c696d6974206e6f74207365740000000000006044820152606401610b9c565b808210156112d85760405162461bcd60e51b815260206004820152601b60248201527f4c7a4170703a20676173206c696d697420697320746f6f206c6f7700000000006044820152606401610b9c565b6001600160a01b0382166137415760405162461bcd60e51b815260206004820152602160248201527f45524332303a206275726e2066726f6d20746865207a65726f206164647265736044820152607360f81b6064820152608401610b9c565b6001600160a01b038216600090815260096020526040902054818110156137b55760405162461bcd60e51b815260206004820152602260248201527f45524332303a206275726e20616d6f756e7420657863656564732062616c616e604482015261636560f01b6064820152608401610b9c565b6001600160a01b03831660009081526009602052604081208383039055600b80548492906137e49084906145a2565b90915550506040518281526000906001600160a01b038516907fddf252ad1be2c89b69c2b068fc378daa952ba7f163c4a11628f55a4df523b3ef9060200160405180910390a3505050565b600061383c8260086144fb565b835110156138835760405162461bcd60e51b8152602060048201526014602482015273746f55696e7436345f6f75744f66426f756e647360601b6044820152606401610b9c565b50016008015190565b60006138998260146144fb565b835110156138e15760405162461bcd60e51b8152602060048201526015602482015274746f416464726573735f6f75744f66426f756e647360581b6044820152606401610b9c565b500160200151600160601b900490565b6001600160a01b0382166139475760405162461bcd60e51b815260206004820152601f60248201527f45524332303a206d696e7420746f20746865207a65726f2061646472657373006044820152606401610b9c565b80600b600082825461395991906144fb565b90915550506001600160a01b038216600090815260096020526040812080548392906139869084906144fb565b90915550506040518181526001600160a01b038316906000907fddf252ad1be2c89b69c2b068fc378daa952ba7f163c4a11628f55a4df523b3ef9060200160405180910390a35050565b6000602282511015613a245760405162461bcd60e51b815260206004820152601c60248201527f4c7a4170703a20696e76616c69642061646170746572506172616d73000000006044820152606401610b9c565b506022015190565b828054613a38906144a0565b90600052602060002090601f016020900481019282613a5a5760008555613aa0565b82601f10613a7357805160ff1916838001178555613aa0565b82800160010185558215613aa0579182015b82811115613aa0578251825591602001919060010190613a85565b50613aac929150613b24565b5090565b828054613abc906144a0565b90600052602060002090601f016020900481019282613ade5760008555613aa0565b82601f10613af75782800160ff19823516178555613aa0565b82800160010185558215613aa0579182015b82811115613aa0578235825591602001919060010190613b09565b5b80821115613aac5760008155600101613b25565b803561ffff81168114613b4b57600080fd5b919050565b60008083601f840112613b6257600080fd5b5081356001600160401b03811115613b7957600080fd5b602083019150836020828501011115613b9157600080fd5b9250929050565b80356001600160401b0381168114613b4b57600080fd5b60008060008060008060808789031215613bc857600080fd5b613bd187613b39565b955060208701356001600160401b0380821115613bed57600080fd5b613bf98a838b01613b50565b9097509550859150613c0d60408a01613b98565b94506060890135915080821115613c2357600080fd5b50613c3089828a01613b50565b979a9699509497509295939492505050565b600060208284031215613c5457600080fd5b81356001600160e01b03198116811461157957600080fd5b60005b83811015613c87578181015183820152602001613c6f565b838111156121ba5750506000910152565b60008151808452613cb0816020860160208601613c6c565b601f01601f19169290920160200192915050565b6020815260006115796020830184613c98565b600060208284031215613ce957600080fd5b61157982613b39565b6001600160a01b0381168114611e0a57600080fd5b8035613b4b81613cf2565b60008060408385031215613d2557600080fd5b8235613d3081613cf2565b946020939093013593505050565b600080600060608486031215613d5357600080fd5b8335613d5e81613cf2565b92506020840135613d6e81613cf2565b929592945050506040919091013590565b80358015158114613b4b57600080fd5b600080600080600080600060a0888a031215613daa57600080fd5b613db388613b39565b965060208801356001600160401b0380821115613dcf57600080fd5b613ddb8b838c01613b50565b909850965060408a01359550869150613df660608b01613d7f565b945060808a0135915080821115613e0c57600080fd5b50613e198a828b01613b50565b989b979a50959850939692959293505050565b600080600060408486031215613e4157600080fd5b613e4a84613b39565b925060208401356001600160401b03811115613e6557600080fd5b613e7186828701613b50565b9497909650939450505050565b600060208284031215613e9057600080fd5b813561157981613cf2565b634e487b7160e01b600052604160045260246000fd5b604051601f8201601f191681016001600160401b0381118282101715613ed957613ed9613e9b565b604052919050565b60006001600160401b03821115613efa57613efa613e9b565b50601f01601f191660200190565b600080600060608486031215613f1d57600080fd5b613f2684613b39565b925060208401356001600160401b03811115613f4157600080fd5b8401601f81018613613f5257600080fd5b8035613f65613f6082613ee1565b613eb1565b818152876020838501011115613f7a57600080fd5b81602084016020830137600060208383010152809450505050613f9f60408501613b98565b90509250925092565b600080600060608486031215613fbd57600080fd5b613fc684613b39565b9250613fd460208501613d7f565b9150613f9f60408501613b39565b60008060408385031215613ff557600080fd5b613ffe83613b39565b915061400c60208401613b39565b90509250929050565b60006060828403121561402757600080fd5b50919050565b600080600080600080600060c0888a03121561404857600080fd5b873561405381613cf2565b965061406160208901613b39565b955060408801356001600160401b038082111561407d57600080fd5b6140898b838c01613b50565b909750955060608a0135945060808a0135935060a08a01359150808211156140b057600080fd5b506140bd8a828b01614015565b91505092959891949750929550565b60008060008060008060008060008060e08b8d0312156140eb57600080fd5b6140f48b613b39565b995060208b01356001600160401b038082111561411057600080fd5b61411c8e838f01613b50565b909b50995060408d0135985060608d013591508082111561413c57600080fd5b6141488e838f01613b50565b909850965086915061415c60808e01613b98565b955061416a60a08e01613d7f565b945060c08d013591508082111561418057600080fd5b5061418d8d828e01613b50565b915080935050809150509295989b9194979a5092959850565b6000806000806000608086880312156141be57600080fd5b6141c786613b39565b94506141d560208701613b39565b93506040860135925060608601356001600160401b038111156141f757600080fd5b61420388828901613b50565b969995985093965092949392505050565b60008060008060008060008060008060e08b8d03121561423357600080fd5b61423c8b613b39565b995060208b01356001600160401b038082111561425857600080fd5b6142648e838f01613b50565b909b50995089915061427860408e01613b98565b985060608d013591508082111561428e57600080fd5b61429a8e838f01613b50565b909850965060808d013591506142af82613cf2565b90945060a08c0135935060c08c0135908082111561418057600080fd5b6000806000806000806000806000806101008b8d0312156142ec57600080fd5b6142f58b613d07565b995061430360208c01613b39565b985060408b01356001600160401b038082111561431f57600080fd5b61432b8e838f01613b50565b909a50985060608d0135975060808d0135965060a08d013591508082111561435257600080fd5b61435e8e838f01613b50565b909650945084915061437260c08e01613b98565b935060e08d013591508082111561438857600080fd5b506143958d828e01614015565b9150509295989b9194979a5092959850565b600080604083850312156143ba57600080fd5b82356143c581613cf2565b915060208301356143d581613cf2565b809150509250929050565b6000806000606084860312156143f557600080fd5b6143fe84613b39565b925061440c60208501613b39565b9150604084013590509250925092565b60006020828403121561442e57600080fd5b61157982613d7f565b6000806040838503121561444a57600080fd5b613d3083613b39565b6000806000806080858703121561446957600080fd5b61447285613b39565b935061448060208601613b39565b9250604085013561449081613cf2565b9396929550929360600135925050565b600181811c908216806144b457607f821691505b6020821081141561402757634e487b7160e01b600052602260045260246000fd5b8183823760009101908152919050565b634e487b7160e01b600052601160045260246000fd5b6000821982111561450e5761450e6144e5565b500190565b81835281816020850137506000828201602090810191909152601f909101601f19169091010190565b61ffff84168152604060208201526000611eb5604083018486614513565b60208082526028908201527f4f46544665653a20666565206270206d757374206265203c3d2042505f44454e60408201526727a6a4a720aa27a960c11b606082015260800190565b6000828210156145b4576145b46144e5565b500390565b8284823760609190911b6bffffffffffffffffffffffff19169101908152601401919050565b6000808335601e198436030181126145f657600080fd5b8301803591506001600160401b0382111561461057600080fd5b602001915036819003821315613b9157600080fd5b6020808252602d908201527f426173654f4654576974684665653a20616d6f756e74206973206c657373207460408201526c1a185b881b5a5b905b5bdd5b9d609a1b606082015260800190565b600061ffff8088168352808716602084015250846040830152608060608301526146a0608083018486614513565b979650505050505050565b61ffff861681526080602082015260006146c9608083018688614513565b6001600160401b0394909416604083015250606001529392505050565b6000816000190483118215151615614700576147006144e5565b500290565b634e487b7160e01b600052601260045260246000fd5b60008261472a5761472a614705565b500490565b60006020828403121561474157600080fd5b81516001600160401b0381111561475757600080fd5b8201601f8101841361476857600080fd5b8051614776613f6082613ee1565b81815285602083850101111561478b57600080fd5b611eb5826020830160208601613c6c565b61ffff851681526080602082015260006147b96080830186613c98565b6001600160401b038516604084015282810360608401526146a08185613c98565b600082516147ec818460208701613c6c565b9190910192915050565b61ffff8616815260a06020820152600061481360a0830187613c98565b6001600160401b038616604084015282810360608401526148348186613c98565b905082810360808401526148488185613c98565b98975050505050505050565b61ffff871681526001600160a01b038616602082015260a06040820181905260009061488290830187613c98565b8515156060840152828103608084015261489d818587614513565b9998505050505050505050565b600080604083850312156148bd57600080fd5b505080516020909101519092909150565b6040815260006148e16040830185613c98565b90508260208301529392505050565b60808152600061490460808301888a614513565b6001600160a01b038716602084015260408301869052828103606084015261489d818587614513565b61ffff8a16815260c06020820152600061494b60c083018a8c614513565b6001600160401b0389166040840152828103606084015261496d81888a614513565b905085608084015282810360a0840152614988818587614513565b9c9b505050505050505050505050565b600060ff60f81b808760f81b168352808660f81b1660018401525083516149c6816002850160208801613c6c565b60c09390931b6001600160c01b03191660029290930191820192909252600a01949350505050565b6000826149fd576149fd614705565b500690565b61ffff8716815260c060208201526000614a1f60c0830188613c98565b8281036040840152614a318188613c98565b6001600160a01b0387811660608601528616608085015283810360a0850152905061489d8185613c98565b600060ff60f81b808d60f81b168352808c60f81b1660018401528a51614a89816002860160208f01613c6c565b60c08b901b6001600160c01b03191660029185019182015260f88a811b8316600a83015260608a901b6bffffffffffffffffffffffff1916600b83015288901b8216601f8201528587602083013760c085901b6001600160c01b031916908601602081019182529150506028019c9b505050505050505050505050565b600060ff821660ff84168060ff03821115614b2357614b236144e5565b019392505050565b61ffff8716815260c060208201526000614b4860c0830188613c98565b6001600160401b03871660408401528281036060840152614b698187613c98565b905084608084015282810360a084015261489d8185613c98565b608081526000614b966080830187613c98565b6001600160a01b03861660208401526040830185905282810360608401526146a08185613c98565b60c081526000614bd160c0830189613c98565b6001600160401b03881660208401528281036040840152614bf28188613c98565b90508560608401528281036080840152614c0c8186613c98565b905082810360a084015261489d8185613c98565b606081526000614c336060830186613c98565b6001600160401b03949094166020830152506040015291905056fea2646970667358221220013820b351ef96720b1b89bf6b008812b79c2efa8d52dc86552c64f590c99a6d64736f6c634300080c0033",
  "devdoc": {
    "kind": "dev",
    "methods": {
      "allowance(address,address)": {
        "details": "See {IERC20-allowance}."
      },
      "approve(address,uint256)": {
        "details": "See {IERC20-approve}. NOTE: If `amount` is the maximum `uint256`, the allowance is not updated on `transferFrom`. This is semantically equivalent to an infinite approval. Requirements: - `spender` cannot be the zero address."
      },
      "balanceOf(address)": {
        "details": "See {IERC20-balanceOf}."
      },
      "circulatingSupply()": {
        "details": "returns the circulating amount of tokens on current chain"
      },
      "decimals()": {
        "details": "Returns the number of decimals used to get its user representation. For example, if `decimals` equals `2`, a balance of `505` tokens should be displayed to a user as `5.05` (`505 / 10 ** 2`). Tokens usually opt for a value of 18, imitating the relationship between Ether and Wei. This is the value {ERC20} uses, unless this function is overridden; NOTE: This information is only used for _display_ purposes: it in no way affects any of the arithmetic of the contract, including {IERC20-balanceOf} and {IERC20-transfer}."
      },
      "decreaseAllowance(address,uint256)": {
        "details": "Atomically decreases the allowance granted to `spender` by the caller. This is an alternative to {approve} that can be used as a mitigation for problems described in {IERC20-approve}. Emits an {Approval} event indicating the updated allowance. Requirements: - `spender` cannot be the zero address. - `spender` must have allowance for the caller of at least `subtractedValue`."
      },
      "estimateSendFee(uint16,bytes,uint256,bool,bytes)": {
        "details": "estimate send token `_tokenId` to (`_dstChainId`, `_toAddress`) _dstChainId - L0 defined chain id to send tokens too _toAddress - dynamic bytes array which contains the address to whom you are sending tokens to on the dstChain _amount - amount of the tokens to transfer _useZro - indicates to use zro to pay L0 fees _adapterParam - flexible bytes array to indicate messaging adapter services in L0"
      },
      "increaseAllowance(address,uint256)": {
        "details": "Atomically increases the allowance granted to `spender` by the caller. This is an alternative to {approve} that can be used as a mitigation for problems described in {IERC20-approve}. Emits an {Approval} event indicating the updated allowance. Requirements: - `spender` cannot be the zero address."
      },
      "name()": {
        "details": "Returns the name of the token."
      },
      "owner()": {
        "details": "Returns the address of the current owner."
      },
      "renounceOwnership()": {
        "details": "Leaves the contract without owner. It will not be possible to call `onlyOwner` functions anymore. Can only be called by the current owner. NOTE: Renouncing ownership will leave the contract without an owner, thereby removing any functionality that is only available to the owner."
      },
      "sendFrom(address,uint16,bytes,uint256,uint256,(address,address,bytes))": {
        "details": "send `_amount` amount of token to (`_dstChainId`, `_toAddress`) from `_from` `_from` the owner of token `_dstChainId` the destination chain identifier `_toAddress` can be any size depending on the `dstChainId`. `_amount` the quantity of tokens in wei `_minAmount` the minimum amount of tokens to receive on dstChain `_refundAddress` the address LayerZero refunds if too much message fee is sent `_zroPaymentAddress` set to address(0x0) if not paying in ZRO (LayerZero Token) `_adapterParams` is a flexible bytes array to indicate messaging adapter services"
      },
      "symbol()": {
        "details": "Returns the symbol of the token, usually a shorter version of the name."
      },
      "token()": {
        "details": "returns the address of the ERC20 token"
      },
      "totalSupply()": {
        "details": "See {IERC20-totalSupply}."
      },
      "transfer(address,uint256)": {
        "details": "See {IERC20-transfer}. Requirements: - `to` cannot be the zero address. - the caller must have a balance of at least `amount`."
      },
      "transferFrom(address,address,uint256)": {
        "details": "See {IERC20-transferFrom}. Emits an {Approval} event indicating the updated allowance. This is not required by the EIP. See the note at the beginning of {ERC20}. NOTE: Does not update the allowance if the current allowance is the maximum `uint256`. Requirements: - `from` and `to` cannot be the zero address. - `from` must have a balance of at least `amount`. - the caller must have allowance for ``from``'s tokens of at least `amount`."
      },
      "transferOwnership(address)": {
        "details": "Transfers ownership of the contract to a new account (`newOwner`). Can only be called by the current owner."
      }
    },
    "version": 1
  },
  "userdoc": {
    "kind": "user",
    "methods": {},
    "version": 1
  },
  "storageLayout": {
    "storage": [
      {
        "astId": 3583,
        "contract": "contracts/OFT.sol:OFT",
        "label": "_owner",
        "offset": 0,
        "slot": "0",
        "type": "t_address"
      },
      {
        "astId": 212,
        "contract": "contracts/OFT.sol:OFT",
        "label": "trustedRemoteLookup",
        "offset": 0,
        "slot": "1",
        "type": "t_mapping(t_uint16,t_bytes_storage)"
      },
      {
        "astId": 218,
        "contract": "contracts/OFT.sol:OFT",
        "label": "minDstGasLookup",
        "offset": 0,
        "slot": "2",
        "type": "t_mapping(t_uint16,t_mapping(t_uint16,t_uint256))"
      },
      {
        "astId": 220,
        "contract": "contracts/OFT.sol:OFT",
        "label": "precrime",
        "offset": 0,
        "slot": "3",
        "type": "t_address"
      },
      {
        "astId": 705,
        "contract": "contracts/OFT.sol:OFT",
        "label": "failedMessages",
        "offset": 0,
        "slot": "4",
        "type": "t_mapping(t_uint16,t_mapping(t_bytes_memory_ptr,t_mapping(t_uint64,t_bytes32)))"
      },
      {
        "astId": 1066,
        "contract": "contracts/OFT.sol:OFT",
        "label": "useCustomAdapterParams",
        "offset": 0,
        "slot": "5",
        "type": "t_bool"
      },
      {
        "astId": 1074,
        "contract": "contracts/OFT.sol:OFT",
        "label": "failedOFTReceivedMessages",
        "offset": 0,
        "slot": "6",
        "type": "t_mapping(t_uint16,t_mapping(t_bytes_memory_ptr,t_mapping(t_uint64,t_bytes32)))"
      },
      {
        "astId": 2438,
        "contract": "contracts/OFT.sol:OFT",
        "label": "chainIdToFeeBps",
        "offset": 0,
        "slot": "7",
        "type": "t_mapping(t_uint16,t_struct(FeeConfig)2447_storage)"
      },
      {
        "astId": 2440,
        "contract": "contracts/OFT.sol:OFT",
        "label": "defaultFeeBp",
        "offset": 0,
        "slot": "8",
        "type": "t_uint16"
      },
      {
        "astId": 2442,
        "contract": "contracts/OFT.sol:OFT",
        "label": "feeOwner",
        "offset": 2,
        "slot": "8",
        "type": "t_address"
      },
      {
        "astId": 3704,
        "contract": "contracts/OFT.sol:OFT",
        "label": "_balances",
        "offset": 0,
        "slot": "9",
        "type": "t_mapping(t_address,t_uint256)"
      },
      {
        "astId": 3710,
        "contract": "contracts/OFT.sol:OFT",
        "label": "_allowances",
        "offset": 0,
        "slot": "10",
        "type": "t_mapping(t_address,t_mapping(t_address,t_uint256))"
      },
      {
        "astId": 3712,
        "contract": "contracts/OFT.sol:OFT",
        "label": "_totalSupply",
        "offset": 0,
        "slot": "11",
        "type": "t_uint256"
      },
      {
        "astId": 3714,
        "contract": "contracts/OFT.sol:OFT",
        "label": "_name",
        "offset": 0,
        "slot": "12",
        "type": "t_string_storage"
      },
      {
        "astId": 3716,
        "contract": "contracts/OFT.sol:OFT",
        "label": "_symbol",
        "offset": 0,
        "slot": "13",
        "type": "t_string_storage"
      }
    ],
    "types": {
      "t_address": {
        "encoding": "inplace",
        "label": "address",
        "numberOfBytes": "20"
      },
      "t_bool": {
        "encoding": "inplace",
        "label": "bool",
        "numberOfBytes": "1"
      },
      "t_bytes32": {
        "encoding": "inplace",
        "label": "bytes32",
        "numberOfBytes": "32"
      },
      "t_bytes_memory_ptr": {
        "encoding": "bytes",
        "label": "bytes",
        "numberOfBytes": "32"
      },
      "t_bytes_storage": {
        "encoding": "bytes",
        "label": "bytes",
        "numberOfBytes": "32"
      },
      "t_mapping(t_address,t_mapping(t_address,t_uint256))": {
        "encoding": "mapping",
        "key": "t_address",
        "label": "mapping(address => mapping(address => uint256))",
        "numberOfBytes": "32",
        "value": "t_mapping(t_address,t_uint256)"
      },
      "t_mapping(t_address,t_uint256)": {
        "encoding": "mapping",
        "key": "t_address",
        "label": "mapping(address => uint256)",
        "numberOfBytes": "32",
        "value": "t_uint256"
      },
      "t_mapping(t_bytes_memory_ptr,t_mapping(t_uint64,t_bytes32))": {
        "encoding": "mapping",
        "key": "t_bytes_memory_ptr",
        "label": "mapping(bytes => mapping(uint64 => bytes32))",
        "numberOfBytes": "32",
        "value": "t_mapping(t_uint64,t_bytes32)"
      },
      "t_mapping(t_uint16,t_bytes_storage)": {
        "encoding": "mapping",
        "key": "t_uint16",
        "label": "mapping(uint16 => bytes)",
        "numberOfBytes": "32",
        "value": "t_bytes_storage"
      },
      "t_mapping(t_uint16,t_mapping(t_bytes_memory_ptr,t_mapping(t_uint64,t_bytes32)))": {
        "encoding": "mapping",
        "key": "t_uint16",
        "label": "mapping(uint16 => mapping(bytes => mapping(uint64 => bytes32)))",
        "numberOfBytes": "32",
        "value": "t_mapping(t_bytes_memory_ptr,t_mapping(t_uint64,t_bytes32))"
      },
      "t_mapping(t_uint16,t_mapping(t_uint16,t_uint256))": {
        "encoding": "mapping",
        "key": "t_uint16",
        "label": "mapping(uint16 => mapping(uint16 => uint256))",
        "numberOfBytes": "32",
        "value": "t_mapping(t_uint16,t_uint256)"
      },
      "t_mapping(t_uint16,t_struct(FeeConfig)2447_storage)": {
        "encoding": "mapping",
        "key": "t_uint16",
        "label": "mapping(uint16 => struct Fee.FeeConfig)",
        "numberOfBytes": "32",
        "value": "t_struct(FeeConfig)2447_storage"
      },
      "t_mapping(t_uint16,t_uint256)": {
        "encoding": "mapping",
        "key": "t_uint16",
        "label": "mapping(uint16 => uint256)",
        "numberOfBytes": "32",
        "value": "t_uint256"
      },
      "t_mapping(t_uint64,t_bytes32)": {
        "encoding": "mapping",
        "key": "t_uint64",
        "label": "mapping(uint64 => bytes32)",
        "numberOfBytes": "32",
        "value": "t_bytes32"
      },
      "t_string_storage": {
        "encoding": "bytes",
        "label": "string",
        "numberOfBytes": "32"
      },
      "t_struct(FeeConfig)2447_storage": {
        "encoding": "inplace",
        "label": "struct Fee.FeeConfig",
        "members": [
          {
            "astId": 2444,
            "contract": "contracts/OFT.sol:OFT",
            "label": "feeBP",
            "offset": 0,
            "slot": "0",
            "type": "t_uint16"
          },
          {
            "astId": 2446,
            "contract": "contracts/OFT.sol:OFT",
            "label": "enabled",
            "offset": 2,
            "slot": "0",
            "type": "t_bool"
          }
        ],
        "numberOfBytes": "32"
      },
      "t_uint16": {
        "encoding": "inplace",
        "label": "uint16",
        "numberOfBytes": "2"
      },
      "t_uint256": {
        "encoding": "inplace",
        "label": "uint256",
        "numberOfBytes": "32"
      },
      "t_uint64": {
        "encoding": "inplace",
        "label": "uint64",
        "numberOfBytes": "8"
      }
    }
  }
}