{
  "address": "0x180f73b4385B9a406F9b0aF53E89b48FaF832670",
  "abi": [
    {
      "inputs": [
        {
          "internalType": "string",
          "name": "_name",
          "type": "string"
        },
        {
          "internalType": "string",
          "name": "_symbol",
          "type": "string"
        },
        {
          "internalType": "address",
          "name": "_lzEndpoint",
          "type": "address"
        }
      ],
      "stateMutability": "nonpayable",
      "type": "constructor"
    },
    {
      "anonymous": false,
      "inputs": [
        {
          "indexed": true,
          "internalType": "address",
          "name": "owner",
          "type": "address"
        },
        {
          "indexed": true,
          "internalType": "address",
          "name": "spender",
          "type": "address"
        },
        {
          "indexed": false,
          "internalType": "uint256",
          "name": "value",
          "type": "uint256"
        }
      ],
      "name": "Approval",
      "type": "event"
    },
    {
      "anonymous": false,
      "inputs": [
        {
          "indexed": false,
          "internalType": "uint16",
          "name": "_srcChainId",
          "type": "uint16"
        },
        {
          "indexed": false,
          "internalType": "bytes",
          "name": "_srcAddress",
          "type": "bytes"
        },
        {
          "indexed": false,
          "internalType": "uint64",
          "name": "_nonce",
          "type": "uint64"
        },
        {
          "indexed": false,
          "internalType": "bytes",
          "name": "_payload",
          "type": "bytes"
        },
        {
          "indexed": false,
          "internalType": "bytes",
          "name": "_reason",
          "type": "bytes"
        }
      ],
      "name": "MessageFailed",
      "type": "event"
    },
    {
      "anonymous": false,
      "inputs": [
        {
          "indexed": true,
          "internalType": "address",
          "name": "previousOwner",
          "type": "address"
        },
        {
          "indexed": true,
          "internalType": "address",
          "name": "newOwner",
          "type": "address"
        }
      ],
      "name": "OwnershipTransferred",
      "type": "event"
    },
    {
      "anonymous": false,
      "inputs": [
        {
          "indexed": true,
          "internalType": "uint16",
          "name": "_srcChainId",
          "type": "uint16"
        },
        {
          "indexed": true,
          "internalType": "address",
          "name": "_to",
          "type": "address"
        },
        {
          "indexed": false,
          "internalType": "uint256",
          "name": "_amount",
          "type": "uint256"
        }
      ],
      "name": "ReceiveFromChain",
      "type": "event"
    },
    {
      "anonymous": false,
      "inputs": [
        {
          "indexed": false,
          "internalType": "uint16",
          "name": "_srcChainId",
          "type": "uint16"
        },
        {
          "indexed": false,
          "internalType": "bytes",
          "name": "_srcAddress",
          "type": "bytes"
        },
        {
          "indexed": false,
          "internalType": "uint64",
          "name": "_nonce",
          "type": "uint64"
        },
        {
          "indexed": false,
          "internalType": "bytes32",
          "name": "_payloadHash",
          "type": "bytes32"
        }
      ],
      "name": "RetryMessageSuccess",
      "type": "event"
    },
    {
      "anonymous": false,
      "inputs": [
        {
          "indexed": true,
          "internalType": "uint16",
          "name": "_dstChainId",
          "type": "uint16"
        },
        {
          "indexed": true,
          "internalType": "address",
          "name": "_from",
          "type": "address"
        },
        {
          "indexed": false,
          "internalType": "bytes",
          "name": "_toAddress",
          "type": "bytes"
        },
        {
          "indexed": false,
          "internalType": "uint256",
          "name": "_amount",
          "type": "uint256"
        }
      ],
      "name": "SendToChain",
      "type": "event"
    },
    {
      "anonymous": false,
      "inputs": [
        {
          "indexed": false,
          "internalType": "uint256",
          "name": "feeBp",
          "type": "uint256"
        }
      ],
      "name": "SetDefaultFeeBp",
      "type": "event"
    },
    {
      "anonymous": false,
      "inputs": [
        {
          "indexed": false,
          "internalType": "uint16",
          "name": "dstchainId",
          "type": "uint16"
        },
        {
          "indexed": false,
          "internalType": "bool",
          "name": "enabled",
          "type": "bool"
        },
        {
          "indexed": false,
          "internalType": "uint16",
          "name": "feeBp",
          "type": "uint16"
        }
      ],
      "name": "SetFeeBp",
      "type": "event"
    },
    {
      "anonymous": false,
      "inputs": [
        {
          "indexed": false,
          "internalType": "address",
          "name": "feeOwner",
          "type": "address"
        }
      ],
      "name": "SetFeeOwner",
      "type": "event"
    },
    {
      "anonymous": false,
      "inputs": [
        {
          "indexed": false,
          "internalType": "uint16",
          "name": "_dstChainId",
          "type": "uint16"
        },
        {
          "indexed": false,
          "internalType": "uint16",
          "name": "_type",
          "type": "uint16"
        },
        {
          "indexed": false,
          "internalType": "uint256",
          "name": "_minDstGas",
          "type": "uint256"
        }
      ],
      "name": "SetMinDstGas",
      "type": "event"
    },
    {
      "anonymous": false,
      "inputs": [
        {
          "indexed": false,
          "internalType": "address",
          "name": "precrime",
          "type": "address"
        }
      ],
      "name": "SetPrecrime",
      "type": "event"
    },
    {
      "anonymous": false,
      "inputs": [
        {
          "indexed": false,
          "internalType": "uint16",
          "name": "_remoteChainId",
          "type": "uint16"
        },
        {
          "indexed": false,
          "internalType": "bytes",
          "name": "_path",
          "type": "bytes"
        }
      ],
      "name": "SetTrustedRemote",
      "type": "event"
    },
    {
      "anonymous": false,
      "inputs": [
        {
          "indexed": false,
          "internalType": "uint16",
          "name": "_remoteChainId",
          "type": "uint16"
        },
        {
          "indexed": false,
          "internalType": "bytes",
          "name": "_remoteAddress",
          "type": "bytes"
        }
      ],
      "name": "SetTrustedRemoteAddress",
      "type": "event"
    },
    {
      "anonymous": false,
      "inputs": [
        {
          "indexed": false,
          "internalType": "bool",
          "name": "_useCustomAdapterParams",
          "type": "bool"
        }
      ],
      "name": "SetUseCustomAdapterParams",
      "type": "event"
    },
    {
      "anonymous": false,
      "inputs": [
        {
          "indexed": true,
          "internalType": "address",
          "name": "from",
          "type": "address"
        },
        {
          "indexed": true,
          "internalType": "address",
          "name": "to",
          "type": "address"
        },
        {
          "indexed": false,
          "internalType": "uint256",
          "name": "value",
          "type": "uint256"
        }
      ],
      "name": "Transfer",
      "type": "event"
    },
    {
      "inputs": [],
      "name": "BP_DENOMINATOR",
      "outputs": [
        {
          "internalType": "uint256",
          "name": "",
          "type": "uint256"
        }
      ],
      "stateMutability": "view",
      "type": "function"
    },
    {
      "inputs": [],
      "name": "NO_EXTRA_GAS",
      "outputs": [
        {
          "internalType": "uint256",
          "name": "",
          "type": "uint256"
        }
      ],
      "stateMutability": "view",
      "type": "function"
    },
    {
      "inputs": [],
      "name": "PT_SEND",
      "outputs": [
        {
          "internalType": "uint8",
          "name": "",
          "type": "uint8"
        }
      ],
      "stateMutability": "view",
      "type": "function"
    },
    {
      "inputs": [
        {
          "internalType": "address",
          "name": "owner",
          "type": "address"
        },
        {
          "internalType": "address",
          "name": "spender",
          "type": "address"
        }
      ],
      "name": "allowance",
      "outputs": [
        {
          "internalType": "uint256",
          "name": "",
          "type": "uint256"
        }
      ],
      "stateMutability": "view",
      "type": "function"
    },
    {
      "inputs": [
        {
          "internalType": "address",
          "name": "spender",
          "type": "address"
        },
        {
          "internalType": "uint256",
          "name": "amount",
          "type": "uint256"
        }
      ],
      "name": "approve",
      "outputs": [
        {
          "internalType": "bool",
          "name": "",
          "type": "bool"
        }
      ],
      "stateMutability": "nonpayable",
      "type": "function"
    },
    {
      "inputs": [
        {
          "internalType": "address",
          "name": "account",
          "type": "address"
        }
      ],
      "name": "balanceOf",
      "outputs": [
        {
          "internalType": "uint256",
          "name": "",
          "type": "uint256"
        }
      ],
      "stateMutability": "view",
      "type": "function"
    },
    {
      "inputs": [
        {
          "internalType": "uint16",
          "name": "",
          "type": "uint16"
        }
      ],
      "name": "chainIdToFeeBps",
      "outputs": [
        {
          "internalType": "uint16",
          "name": "feeBP",
          "type": "uint16"
        },
        {
          "internalType": "bool",
          "name": "enabled",
          "type": "bool"
        }
      ],
      "stateMutability": "view",
      "type": "function"
    },
    {
      "inputs": [],
      "name": "circulatingSupply",
      "outputs": [
        {
          "internalType": "uint256",
          "name": "",
          "type": "uint256"
        }
      ],
      "stateMutability": "view",
      "type": "function"
    },
    {
      "inputs": [],
      "name": "decimals",
      "outputs": [
        {
          "internalType": "uint8",
          "name": "",
          "type": "uint8"
        }
      ],
      "stateMutability": "pure",
      "type": "function"
    },
    {
      "inputs": [
        {
          "internalType": "address",
          "name": "spender",
          "type": "address"
        },
        {
          "internalType": "uint256",
          "name": "subtractedValue",
          "type": "uint256"
        }
      ],
      "name": "decreaseAllowance",
      "outputs": [
        {
          "internalType": "bool",
          "name": "",
          "type": "bool"
        }
      ],
      "stateMutability": "nonpayable",
      "type": "function"
    },
    {
      "inputs": [],
      "name": "defaultFeeBp",
      "outputs": [
        {
          "internalType": "uint16",
          "name": "",
          "type": "uint16"
        }
      ],
      "stateMutability": "view",
      "type": "function"
    },
    {
      "inputs": [
        {
          "internalType": "uint16",
          "name": "_dstChainId",
          "type": "uint16"
        },
        {
          "internalType": "bytes",
          "name": "_toAddress",
          "type": "bytes"
        },
        {
          "internalType": "uint256",
          "name": "_amount",
          "type": "uint256"
        },
        {
          "internalType": "bool",
          "name": "_useZro",
          "type": "bool"
        },
        {
          "internalType": "bytes",
          "name": "_adapterParams",
          "type": "bytes"
        }
      ],
      "name": "estimateSendFee",
      "outputs": [
        {
          "internalType": "uint256",
          "name": "nativeFee",
          "type": "uint256"
        },
        {
          "internalType": "uint256",
          "name": "zroFee",
          "type": "uint256"
        }
      ],
      "stateMutability": "view",
      "type": "function"
    },
    {
      "inputs": [
        {
          "internalType": "uint16",
          "name": "",
          "type": "uint16"
        },
        {
          "internalType": "bytes",
          "name": "",
          "type": "bytes"
        },
        {
          "internalType": "uint64",
          "name": "",
          "type": "uint64"
        }
      ],
      "name": "failedMessages",
      "outputs": [
        {
          "internalType": "bytes32",
          "name": "",
          "type": "bytes32"
        }
      ],
      "stateMutability": "view",
      "type": "function"
    },
    {
      "inputs": [],
      "name": "feeOwner",
      "outputs": [
        {
          "internalType": "address",
          "name": "",
          "type": "address"
        }
      ],
      "stateMutability": "view",
      "type": "function"
    },
    {
      "inputs": [
        {
          "internalType": "uint16",
          "name": "_srcChainId",
          "type": "uint16"
        },
        {
          "internalType": "bytes",
          "name": "_srcAddress",
          "type": "bytes"
        }
      ],
      "name": "forceResumeReceive",
      "outputs": [],
      "stateMutability": "nonpayable",
      "type": "function"
    },
    {
      "inputs": [
        {
          "internalType": "uint16",
          "name": "_version",
          "type": "uint16"
        },
        {
          "internalType": "uint16",
          "name": "_chainId",
          "type": "uint16"
        },
        {
          "internalType": "address",
          "name": "",
          "type": "address"
        },
        {
          "internalType": "uint256",
          "name": "_configType",
          "type": "uint256"
        }
      ],
      "name": "getConfig",
      "outputs": [
        {
          "internalType": "bytes",
          "name": "",
          "type": "bytes"
        }
      ],
      "stateMutability": "view",
      "type": "function"
    },
    {
      "inputs": [
        {
          "internalType": "uint16",
          "name": "_remoteChainId",
          "type": "uint16"
        }
      ],
      "name": "getTrustedRemoteAddress",
      "outputs": [
        {
          "internalType": "bytes",
          "name": "",
          "type": "bytes"
        }
      ],
      "stateMutability": "view",
      "type": "function"
    },
    {
      "inputs": [
        {
          "internalType": "address",
          "name": "spender",
          "type": "address"
        },
        {
          "internalType": "uint256",
          "name": "addedValue",
          "type": "uint256"
        }
      ],
      "name": "increaseAllowance",
      "outputs": [
        {
          "internalType": "bool",
          "name": "",
          "type": "bool"
        }
      ],
      "stateMutability": "nonpayable",
      "type": "function"
    },
    {
      "inputs": [
        {
          "internalType": "uint16",
          "name": "_srcChainId",
          "type": "uint16"
        },
        {
          "internalType": "bytes",
          "name": "_srcAddress",
          "type": "bytes"
        }
      ],
      "name": "isTrustedRemote",
      "outputs": [
        {
          "internalType": "bool",
          "name": "",
          "type": "bool"
        }
      ],
      "stateMutability": "view",
      "type": "function"
    },
    {
      "inputs": [],
      "name": "ld2sdRate",
      "outputs": [
        {
          "internalType": "uint256",
          "name": "",
          "type": "uint256"
        }
      ],
      "stateMutability": "view",
      "type": "function"
    },
    {
      "inputs": [],
      "name": "lzEndpoint",
      "outputs": [
        {
          "internalType": "contract ILayerZeroEndpoint",
          "name": "",
          "type": "address"
        }
      ],
      "stateMutability": "view",
      "type": "function"
    },
    {
      "inputs": [
        {
          "internalType": "uint16",
          "name": "_srcChainId",
          "type": "uint16"
        },
        {
          "internalType": "bytes",
          "name": "_srcAddress",
          "type": "bytes"
        },
        {
          "internalType": "uint64",
          "name": "_nonce",
          "type": "uint64"
        },
        {
          "internalType": "bytes",
          "name": "_payload",
          "type": "bytes"
        }
      ],
      "name": "lzReceive",
      "outputs": [],
      "stateMutability": "nonpayable",
      "type": "function"
    },
    {
      "inputs": [
        {
          "internalType": "uint16",
          "name": "",
          "type": "uint16"
        },
        {
          "internalType": "uint16",
          "name": "",
          "type": "uint16"
        }
      ],
      "name": "minDstGasLookup",
      "outputs": [
        {
          "internalType": "uint256",
          "name": "",
          "type": "uint256"
        }
      ],
      "stateMutability": "view",
      "type": "function"
    },
    {
      "inputs": [],
      "name": "name",
      "outputs": [
        {
          "internalType": "string",
          "name": "",
          "type": "string"
        }
      ],
      "stateMutability": "view",
      "type": "function"
    },
    {
      "inputs": [
        {
          "internalType": "uint16",
          "name": "_srcChainId",
          "type": "uint16"
        },
        {
          "internalType": "bytes",
          "name": "_srcAddress",
          "type": "bytes"
        },
        {
          "internalType": "uint64",
          "name": "_nonce",
          "type": "uint64"
        },
        {
          "internalType": "bytes",
          "name": "_payload",
          "type": "bytes"
        }
      ],
      "name": "nonblockingLzReceive",
      "outputs": [],
      "stateMutability": "nonpayable",
      "type": "function"
    },
    {
      "inputs": [],
      "name": "owner",
      "outputs": [
        {
          "internalType": "address",
          "name": "",
          "type": "address"
        }
      ],
      "stateMutability": "view",
      "type": "function"
    },
    {
      "inputs": [],
      "name": "precrime",
      "outputs": [
        {
          "internalType": "address",
          "name": "",
          "type": "address"
        }
      ],
      "stateMutability": "view",
      "type": "function"
    },
    {
      "inputs": [
        {
          "internalType": "uint16",
          "name": "_dstChainId",
          "type": "uint16"
        },
        {
          "internalType": "uint256",
          "name": "_amount",
          "type": "uint256"
        }
      ],
      "name": "quoteOFTFee",
      "outputs": [
        {
          "internalType": "uint256",
          "name": "fee",
          "type": "uint256"
        }
      ],
      "stateMutability": "view",
      "type": "function"
    },
    {
      "inputs": [],
      "name": "renounceOwnership",
      "outputs": [],
      "stateMutability": "nonpayable",
      "type": "function"
    },
    {
      "inputs": [
        {
          "internalType": "uint16",
          "name": "_srcChainId",
          "type": "uint16"
        },
        {
          "internalType": "bytes",
          "name": "_srcAddress",
          "type": "bytes"
        },
        {
          "internalType": "uint64",
          "name": "_nonce",
          "type": "uint64"
        },
        {
          "internalType": "bytes",
          "name": "_payload",
          "type": "bytes"
        }
      ],
      "name": "retryMessage",
      "outputs": [],
      "stateMutability": "payable",
      "type": "function"
    },
    {
      "inputs": [
        {
          "internalType": "address",
          "name": "_from",
          "type": "address"
        },
        {
          "internalType": "uint16",
          "name": "_dstChainId",
          "type": "uint16"
        },
        {
          "internalType": "bytes",
          "name": "_toAddress",
          "type": "bytes"
        },
        {
          "internalType": "uint256",
          "name": "_amount",
          "type": "uint256"
        },
        {
          "internalType": "address payable",
          "name": "_refundAddress",
          "type": "address"
        },
        {
          "internalType": "address",
          "name": "_zroPaymentAddress",
          "type": "address"
        },
        {
          "internalType": "bytes",
          "name": "_adapterParams",
          "type": "bytes"
        }
      ],
      "name": "sendFrom",
      "outputs": [],
      "stateMutability": "payable",
      "type": "function"
    },
    {
      "inputs": [
        {
          "internalType": "uint16",
          "name": "_version",
          "type": "uint16"
        },
        {
          "internalType": "uint16",
          "name": "_chainId",
          "type": "uint16"
        },
        {
          "internalType": "uint256",
          "name": "_configType",
          "type": "uint256"
        },
        {
          "internalType": "bytes",
          "name": "_config",
          "type": "bytes"
        }
      ],
      "name": "setConfig",
      "outputs": [],
      "stateMutability": "nonpayable",
      "type": "function"
    },
    {
      "inputs": [
        {
          "internalType": "uint16",
          "name": "_feeBp",
          "type": "uint16"
        }
      ],
      "name": "setDefaultFeeBp",
      "outputs": [],
      "stateMutability": "nonpayable",
      "type": "function"
    },
    {
      "inputs": [
        {
          "internalType": "uint16",
          "name": "_dstChainId",
          "type": "uint16"
        },
        {
          "internalType": "bool",
          "name": "_enabled",
          "type": "bool"
        },
        {
          "internalType": "uint16",
          "name": "_feeBp",
          "type": "uint16"
        }
      ],
      "name": "setFeeBp",
      "outputs": [],
      "stateMutability": "nonpayable",
      "type": "function"
    },
    {
      "inputs": [
        {
          "internalType": "address",
          "name": "_feeOwner",
          "type": "address"
        }
      ],
      "name": "setFeeOwner",
      "outputs": [],
      "stateMutability": "nonpayable",
      "type": "function"
    },
    {
      "inputs": [
        {
          "internalType": "uint16",
          "name": "_dstChainId",
          "type": "uint16"
        },
        {
          "internalType": "uint16",
          "name": "_packetType",
          "type": "uint16"
        },
        {
          "internalType": "uint256",
          "name": "_minGas",
          "type": "uint256"
        }
      ],
      "name": "setMinDstGas",
      "outputs": [],
      "stateMutability": "nonpayable",
      "type": "function"
    },
    {
      "inputs": [
        {
          "internalType": "address",
          "name": "_precrime",
          "type": "address"
        }
      ],
      "name": "setPrecrime",
      "outputs": [],
      "stateMutability": "nonpayable",
      "type": "function"
    },
    {
      "inputs": [
        {
          "internalType": "uint16",
          "name": "_version",
          "type": "uint16"
        }
      ],
      "name": "setReceiveVersion",
      "outputs": [],
      "stateMutability": "nonpayable",
      "type": "function"
    },
    {
      "inputs": [
        {
          "internalType": "uint16",
          "name": "_version",
          "type": "uint16"
        }
      ],
      "name": "setSendVersion",
      "outputs": [],
      "stateMutability": "nonpayable",
      "type": "function"
    },
    {
      "inputs": [
        {
          "internalType": "uint16",
          "name": "_srcChainId",
          "type": "uint16"
        },
        {
          "internalType": "bytes",
          "name": "_path",
          "type": "bytes"
        }
      ],
      "name": "setTrustedRemote",
      "outputs": [],
      "stateMutability": "nonpayable",
      "type": "function"
    },
    {
      "inputs": [
        {
          "internalType": "uint16",
          "name": "_remoteChainId",
          "type": "uint16"
        },
        {
          "internalType": "bytes",
          "name": "_remoteAddress",
          "type": "bytes"
        }
      ],
      "name": "setTrustedRemoteAddress",
      "outputs": [],
      "stateMutability": "nonpayable",
      "type": "function"
    },
    {
      "inputs": [
        {
          "internalType": "bool",
          "name": "_useCustomAdapterParams",
          "type": "bool"
        }
      ],
      "name": "setUseCustomAdapterParams",
      "outputs": [],
      "stateMutability": "nonpayable",
      "type": "function"
    },
    {
      "inputs": [],
      "name": "sharedDecimals",
      "outputs": [
        {
          "internalType": "uint8",
          "name": "",
          "type": "uint8"
        }
      ],
      "stateMutability": "view",
      "type": "function"
    },
    {
      "inputs": [
        {
          "internalType": "bytes4",
          "name": "interfaceId",
          "type": "bytes4"
        }
      ],
      "name": "supportsInterface",
      "outputs": [
        {
          "internalType": "bool",
          "name": "",
          "type": "bool"
        }
      ],
      "stateMutability": "view",
      "type": "function"
    },
    {
      "inputs": [],
      "name": "symbol",
      "outputs": [
        {
          "internalType": "string",
          "name": "",
          "type": "string"
        }
      ],
      "stateMutability": "view",
      "type": "function"
    },
    {
      "inputs": [],
      "name": "token",
      "outputs": [
        {
          "internalType": "address",
          "name": "",
          "type": "address"
        }
      ],
      "stateMutability": "view",
      "type": "function"
    },
    {
      "inputs": [],
      "name": "totalSupply",
      "outputs": [
        {
          "internalType": "uint256",
          "name": "",
          "type": "uint256"
        }
      ],
      "stateMutability": "view",
      "type": "function"
    },
    {
      "inputs": [
        {
          "internalType": "address",
          "name": "to",
          "type": "address"
        },
        {
          "internalType": "uint256",
          "name": "amount",
          "type": "uint256"
        }
      ],
      "name": "transfer",
      "outputs": [
        {
          "internalType": "bool",
          "name": "",
          "type": "bool"
        }
      ],
      "stateMutability": "nonpayable",
      "type": "function"
    },
    {
      "inputs": [
        {
          "internalType": "address",
          "name": "from",
          "type": "address"
        },
        {
          "internalType": "address",
          "name": "to",
          "type": "address"
        },
        {
          "internalType": "uint256",
          "name": "amount",
          "type": "uint256"
        }
      ],
      "name": "transferFrom",
      "outputs": [
        {
          "internalType": "bool",
          "name": "",
          "type": "bool"
        }
      ],
      "stateMutability": "nonpayable",
      "type": "function"
    },
    {
      "inputs": [
        {
          "internalType": "address",
          "name": "newOwner",
          "type": "address"
        }
      ],
      "name": "transferOwnership",
      "outputs": [],
      "stateMutability": "nonpayable",
      "type": "function"
    },
    {
      "inputs": [
        {
          "internalType": "uint16",
          "name": "",
          "type": "uint16"
        }
      ],
      "name": "trustedRemoteLookup",
      "outputs": [
        {
          "internalType": "bytes",
          "name": "",
          "type": "bytes"
        }
      ],
      "stateMutability": "view",
      "type": "function"
    },
    {
      "inputs": [],
      "name": "useCustomAdapterParams",
      "outputs": [
        {
          "internalType": "bool",
          "name": "",
          "type": "bool"
        }
      ],
      "stateMutability": "view",
      "type": "function"
    }
  ],
  "transactionHash": "0xfad2b1cbcd340ffa47aba89eba61cff2eefccf49b6959d16a3338a01f423b679",
  "args": [
    "OFT",
    "OFT20",
    "0xbfD2135BFfbb0B5378b56643c2Df8a87552Bfa23"
  ],
  "numDeployments": 1,
  "solcInputHash": "f2a16d754e416a70c9691df3cd5151d4",
  "bytecode": "0x60e06040523480156200001157600080fd5b50604051620041593803806200415983398101604081905262000034916200033a565b82826008838383838380806200004a3362000172565b6001600160a01b0316608052506200006a6000546001600160a01b031690565b600680546001600160a01b0392909216620100000262010000600160b01b03199092169190911790555060ff1660a0528151620000af90600a906020850190620001c7565b508051620000c590600b906020840190620001c7565b5050506000620000da620001c260201b60201c565b90508060ff168360ff161115620001475760405162461bcd60e51b815260206004820152602760248201527f4f46543a20736861726564446563696d616c73206d757374206265203c3d20646044820152666563696d616c7360c81b606482015260840160405180910390fd5b620001538382620003dd565b6200016090600a62000502565b60c05250620005579650505050505050565b600080546001600160a01b038381166001600160a01b0319831681178455604051919092169283917f8be0079c531659141344cd1fd0a4f28419497f9722a3daafe3b4186f6b6457e09190a35050565b600890565b828054620001d5906200051a565b90600052602060002090601f016020900481019282620001f9576000855562000244565b82601f106200021457805160ff191683800117855562000244565b8280016001018555821562000244579182015b828111156200024457825182559160200191906001019062000227565b506200025292915062000256565b5090565b5b8082111562000252576000815560010162000257565b634e487b7160e01b600052604160045260246000fd5b600082601f8301126200029557600080fd5b81516001600160401b0380821115620002b257620002b26200026d565b604051601f8301601f19908116603f01168101908282118183101715620002dd57620002dd6200026d565b81604052838152602092508683858801011115620002fa57600080fd5b600091505b838210156200031e5785820183015181830184015290820190620002ff565b83821115620003305760008385830101525b9695505050505050565b6000806000606084860312156200035057600080fd5b83516001600160401b03808211156200036857600080fd5b620003768783880162000283565b945060208601519150808211156200038d57600080fd5b506200039c8682870162000283565b604086015190935090506001600160a01b0381168114620003bc57600080fd5b809150509250925092565b634e487b7160e01b600052601160045260246000fd5b600060ff821660ff841680821015620003fa57620003fa620003c7565b90039392505050565b600181815b8085111562000444578160001904821115620004285762000428620003c7565b808516156200043657918102915b93841c939080029062000408565b509250929050565b6000826200045d57506001620004fc565b816200046c57506000620004fc565b81600181146200048557600281146200049057620004b0565b6001915050620004fc565b60ff841115620004a457620004a4620003c7565b50506001821b620004fc565b5060208310610133831016604e8410600b8410161715620004d5575081810a620004fc565b620004e1838362000403565b8060001904821115620004f857620004f8620003c7565b0290505b92915050565b60006200051360ff8416836200044c565b9392505050565b600181811c908216806200052f57607f821691505b602082108114156200055157634e487b7160e01b600052602260045260246000fd5b50919050565b60805160a05160c051613b85620005d46000396000818161054101528181612255015281816126d60152612c950152600061068f01526000818161080d01528181610a4301528181610d6201528181610e0301528181610ec7015281816110640152818161177f01528181611cc8015261285f0152613b856000f3fe6080604052600436106102fe5760003560e01c80638cfd8f5c11610190578063c83330ce116100dc578063eab45d9c11610095578063ed629c5c1161006f578063ed629c5c146109cc578063f2fde38b146109ed578063f5ecbdbc14610a0d578063fc0c546a14610a2d57600080fd5b8063eab45d9c1461096c578063eb8d72b71461098c578063ecd8f212146109ac57600080fd5b8063c83330ce14610875578063cbed8b9c146108cb578063d1deba1f146108eb578063d8882968146108fe578063dd62ed3e1461092c578063df2a5b3b1461094c57600080fd5b8063a457c2d711610149578063abe685cd11610123578063abe685cd146107e5578063b353aaa7146107fb578063b9818be11461082f578063baf3292d1461085557600080fd5b8063a457c2d714610785578063a6c3d165146107a5578063a9059cbb146107c557600080fd5b80638cfd8f5c146106b15780638da5cb5b146106e95780639358928b1461071b578063950c8a741461073057806395d89b41146107505780639f38369a1461076557600080fd5b8063447705151161024f5780635b8c41e611610208578063715018a6116101e2578063715018a6146106285780637533d7881461063d57806379c0ad4b1461065d578063857749b01461067d57600080fd5b80635b8c41e61461058357806366ad5c8a146105d257806370a08231146105f257600080fd5b806344770515146104d25780634b104eff146104e75780634c42899a14610507578063519056361461051c57806351cd0bec1461052f5780635a359dc51461056357600080fd5b806318160ddd116102bc578063313ce56711610296578063313ce5671461045057806339509351146104725780633d8b38f61461049257806342d65a8d146104b257600080fd5b806318160ddd146103dc57806323b872dd146103fb5780632a205e3d1461041b57600080fd5b80621d35671461030357806301ffc9a71461032557806306fdde031461035a57806307e0db171461037c578063095ea7b31461039c57806310ddb137146103bc575b600080fd5b34801561030f57600080fd5b5061032361031e36600461304d565b610a40565b005b34801561033157600080fd5b506103456103403660046130e0565b610c71565b60405190151581526020015b60405180910390f35b34801561036657600080fd5b5061036f610caf565b6040516103519190613162565b34801561038857600080fd5b50610323610397366004613175565b610d41565b3480156103a857600080fd5b506103456103b73660046131a5565b610dca565b3480156103c857600080fd5b506103236103d7366004613175565b610de2565b3480156103e857600080fd5b506009545b604051908152602001610351565b34801561040757600080fd5b506103456104163660046131d1565b610e3a565b34801561042757600080fd5b5061043b610436366004613222565b610e5e565b60408051928352602083019190915201610351565b34801561045c57600080fd5b5060085b60405160ff9091168152602001610351565b34801561047e57600080fd5b5061034561048d3660046131a5565b610f57565b34801561049e57600080fd5b506103456104ad3660046132bf565b610f79565b3480156104be57600080fd5b506103236104cd3660046132bf565b611045565b3480156104de57600080fd5b506103ed600081565b3480156104f357600080fd5b50610323610502366004613311565b6110cb565b34801561051357600080fd5b50610460600081565b61032361052a36600461332e565b611188565b34801561053b57600080fd5b506103ed7f000000000000000000000000000000000000000000000000000000000000000081565b34801561056f57600080fd5b5061032361057e366004613175565b61120d565b34801561058f57600080fd5b506103ed61059e366004613462565b6004602090815260009384526040808520845180860184018051928152908401958401959095209452929052825290205481565b3480156105de57600080fd5b506103236105ed36600461304d565b61127f565b3480156105fe57600080fd5b506103ed61060d366004613311565b6001600160a01b031660009081526007602052604090205490565b34801561063457600080fd5b5061032361135b565b34801561064957600080fd5b5061036f610658366004613175565b61136f565b34801561066957600080fd5b50610323610678366004613502565b611409565b34801561068957600080fd5b506104607f000000000000000000000000000000000000000000000000000000000000000081565b3480156106bd57600080fd5b506103ed6106cc36600461353c565b600260209081526000928352604080842090915290825290205481565b3480156106f557600080fd5b506000546001600160a01b03165b6040516001600160a01b039091168152602001610351565b34801561072757600080fd5b506103ed6114c5565b34801561073c57600080fd5b50600354610703906001600160a01b031681565b34801561075c57600080fd5b5061036f6114d5565b34801561077157600080fd5b5061036f610780366004613175565b6114e4565b34801561079157600080fd5b506103456107a03660046131a5565b6115fb565b3480156107b157600080fd5b506103236107c03660046132bf565b611676565b3480156107d157600080fd5b506103456107e03660046131a5565b6116fc565b3480156107f157600080fd5b506103ed61271081565b34801561080757600080fd5b506107037f000000000000000000000000000000000000000000000000000000000000000081565b34801561083b57600080fd5b50600654610703906201000090046001600160a01b031681565b34801561086157600080fd5b50610323610870366004613311565b61170a565b34801561088157600080fd5b506108b1610890366004613175565b60056020526000908152604090205461ffff81169062010000900460ff1682565b6040805161ffff9093168352901515602083015201610351565b3480156108d757600080fd5b506103236108e636600461356f565b611760565b6103236108f936600461304d565b6117ea565b34801561090a57600080fd5b506006546109199061ffff1681565b60405161ffff9091168152602001610351565b34801561093857600080fd5b506103ed6109473660046135dd565b611a00565b34801561095857600080fd5b50610323610967366004613616565b611a2b565b34801561097857600080fd5b50610323610987366004613652565b611add565b34801561099857600080fd5b506103236109a73660046132bf565b611b32565b3480156109b857600080fd5b506103ed6109c736600461366d565b611b8c565b3480156109d857600080fd5b5060065461034590600160b01b900460ff1681565b3480156109f957600080fd5b50610323610a08366004613311565b611c1e565b348015610a1957600080fd5b5061036f610a28366004613689565b611c97565b348015610a3957600080fd5b5030610703565b337f00000000000000000000000000000000000000000000000000000000000000006001600160a01b031614610abd5760405162461bcd60e51b815260206004820152601e60248201527f4c7a4170703a20696e76616c696420656e64706f696e742063616c6c6572000060448201526064015b60405180910390fd5b61ffff861660009081526001602052604081208054610adb906136d6565b80601f0160208091040260200160405190810160405280929190818152602001828054610b07906136d6565b8015610b545780601f10610b2957610100808354040283529160200191610b54565b820191906000526020600020905b815481529060010190602001808311610b3757829003601f168201915b50505050509050805186869050148015610b6f575060008151115b8015610b97575080516020820120604051610b8d9088908890613711565b6040518091039020145b610bf25760405162461bcd60e51b815260206004820152602660248201527f4c7a4170703a20696e76616c696420736f757263652073656e64696e6720636f6044820152651b9d1c9858dd60d21b6064820152608401610ab4565b610c688787878080601f01602080910402602001604051908101604052809392919081815260200183838082843760009201919091525050604080516020601f8a018190048102820181019092528881528a935091508890889081908401838280828437600092019190915250611d4892505050565b50505050505050565b60006001600160e01b031982161580610c9a57506001600160e01b031982166336372b0760e01b145b80610ca95750610ca982611e52565b92915050565b6060600a8054610cbe906136d6565b80601f0160208091040260200160405190810160405280929190818152602001828054610cea906136d6565b8015610d375780601f10610d0c57610100808354040283529160200191610d37565b820191906000526020600020905b815481529060010190602001808311610d1a57829003601f168201915b5050505050905090565b610d49611e87565b6040516307e0db1760e01b815261ffff821660048201527f00000000000000000000000000000000000000000000000000000000000000006001600160a01b0316906307e0db17906024015b600060405180830381600087803b158015610daf57600080fd5b505af1158015610dc3573d6000803e3d6000fd5b5050505050565b600033610dd8818585611ee1565b5060019392505050565b610dea611e87565b6040516310ddb13760e01b815261ffff821660048201527f00000000000000000000000000000000000000000000000000000000000000006001600160a01b0316906310ddb13790602401610d95565b600033610e48858285612005565b610e5385858561207f565b506001949350505050565b6000806000610ead89898080601f016020809104026020016040519081016040528093929190818152602001838380828437600092019190915250610ea892508b915061224d9050565b6122d3565b60405163040a7bb160e41b81529091506001600160a01b037f000000000000000000000000000000000000000000000000000000000000000016906340a7bb1090610f06908d90309086908c908c908c9060040161374a565b6040805180830381865afa158015610f22573d6000803e3d6000fd5b505050506040513d601f19601f82011682018060405250810190610f4691906137a0565b925092505097509795505050505050565b600033610dd8818585610f6a8383611a00565b610f7491906137da565b611ee1565b61ffff831660009081526001602052604081208054829190610f9a906136d6565b80601f0160208091040260200160405190810160405280929190818152602001828054610fc6906136d6565b80156110135780601f10610fe857610100808354040283529160200191611013565b820191906000526020600020905b815481529060010190602001808311610ff657829003601f168201915b50505050509050838360405161102a929190613711565b60405180910390208180519060200120149150509392505050565b61104d611e87565b6040516342d65a8d60e01b81526001600160a01b037f000000000000000000000000000000000000000000000000000000000000000016906342d65a8d9061109d908690869086906004016137f2565b600060405180830381600087803b1580156110b757600080fd5b505af1158015610c68573d6000803e3d6000fd5b6110d3611e87565b6001600160a01b0381166111295760405162461bcd60e51b815260206004820152601d60248201527f4f46544665653a206665654f776e65722063616e6e6f742062652030780000006044820152606401610ab4565b6006805462010000600160b01b031916620100006001600160a01b038416908102919091179091556040519081527f047912631afa564eebd3db2efe191a0dec62da1fede6bbbc1ffc89d87845b1b5906020015b60405180910390a150565b611202898989898080601f01602080910402602001604051908101604052809392919081815260200183838082843760009201919091525050604080516020601f8a018190048102820181019092528881528c93508b92508a918a908a908190840183828082843760009201919091525061230292505050565b505050505050505050565b611215611e87565b6127108161ffff16111561123b5760405162461bcd60e51b8152600401610ab490613810565b6006805461ffff191661ffff83169081179091556040519081527fd56fd0f83a512cb4e34baf78b277f71fe2e27ccfc0e1c469c345f4cee34076629060200161117d565b3330146112dd5760405162461bcd60e51b815260206004820152602660248201527f4e6f6e626c6f636b696e674c7a4170703a2063616c6c6572206d7573742062656044820152650204c7a4170760d41b6064820152608401610ab4565b6113538686868080601f01602080910402602001604051908101604052809392919081815260200183838082843760009201919091525050604080516020601f8901819004810282018101909252878152899350915087908790819084018382808284376000920191909152506123ab92505050565b505050505050565b611363611e87565b61136d600061241a565b565b60016020526000908152604090208054611388906136d6565b80601f01602080910402602001604051908101604052809291908181526020018280546113b4906136d6565b80156114015780601f106113d657610100808354040283529160200191611401565b820191906000526020600020905b8154815290600101906020018083116113e457829003601f168201915b505050505081565b611411611e87565b6127108161ffff1611156114375760405162461bcd60e51b8152600401610ab490613810565b60408051808201825261ffff83811680835285151560208085018281528985166000818152600584528890209651875492511515620100000262ffffff1990931696169590951717909455845192835292820192909252918201527fdd9c9685af3e6dcb56d8f4b88d2595d4add6837a150034e7781c46b6dcf8aaab906060015b60405180910390a1505050565b60006114d060095490565b905090565b6060600b8054610cbe906136d6565b61ffff8116600090815260016020526040812080546060929190611507906136d6565b80601f0160208091040260200160405190810160405280929190818152602001828054611533906136d6565b80156115805780601f1061155557610100808354040283529160200191611580565b820191906000526020600020905b81548152906001019060200180831161156357829003601f168201915b505050505090508051600014156115d95760405162461bcd60e51b815260206004820152601d60248201527f4c7a4170703a206e6f20747275737465642070617468207265636f72640000006044820152606401610ab4565b6115f46000601483516115ec9190613858565b83919061246a565b9392505050565b600033816116098286611a00565b9050838110156116695760405162461bcd60e51b815260206004820152602560248201527f45524332303a2064656372656173656420616c6c6f77616e63652062656c6f77604482015264207a65726f60d81b6064820152608401610ab4565b610e538286868403611ee1565b61167e611e87565b8181306040516020016116939392919061386f565b60408051601f1981840301815291815261ffff851660009081526001602090815291902082516116c893919290910190612eca565b507f8c0400cfe2d1199b1a725c78960bcc2a344d869b80590d0f2bd005db15a572ce8383836040516114b8939291906137f2565b600033610dd881858561207f565b611712611e87565b600380546001600160a01b0319166001600160a01b0383169081179091556040519081527f5db758e995a17ec1ad84bdef7e8c3293a0bd6179bcce400dff5d4c3d87db726b9060200161117d565b611768611e87565b6040516332fb62e760e21b81526001600160a01b037f0000000000000000000000000000000000000000000000000000000000000000169063cbed8b9c906117bc9088908890889088908890600401613895565b600060405180830381600087803b1580156117d657600080fd5b505af1158015611202573d6000803e3d6000fd5b61ffff8616600090815260046020526040808220905161180d9088908890613711565b90815260408051602092819003830190206001600160401b0387166000908152925290205490508061188d5760405162461bcd60e51b815260206004820152602360248201527f4e6f6e626c6f636b696e674c7a4170703a206e6f2073746f726564206d65737360448201526261676560e81b6064820152608401610ab4565b80838360405161189e929190613711565b6040518091039020146118fd5760405162461bcd60e51b815260206004820152602160248201527f4e6f6e626c6f636b696e674c7a4170703a20696e76616c6964207061796c6f616044820152601960fa1b6064820152608401610ab4565b61ffff871660009081526004602052604080822090516119209089908990613711565b90815260408051602092819003830181206001600160401b038916600090815290845282902093909355601f880182900482028301820190528682526119b8918991899089908190840183828082843760009201919091525050604080516020601f8a018190048102820181019092528881528a9350915088908890819084018382808284376000920191909152506123ab92505050565b7fc264d91f3adc5588250e1551f547752ca0cfa8f6b530d243b9f9f4cab10ea8e587878787856040516119ef9594939291906138ce565b60405180910390a150505050505050565b6001600160a01b03918216600090815260086020908152604080832093909416825291909152205490565b611a33611e87565b60008111611a7b5760405162461bcd60e51b81526020600482015260156024820152744c7a4170703a20696e76616c6964206d696e47617360581b6044820152606401610ab4565b61ffff83811660008181526002602090815260408083209487168084529482529182902085905581519283528201929092529081018290527f9d5c7c0b934da8fefa9c7760c98383778a12dfbfc0c3b3106518f43fb9508ac0906060016114b8565b611ae5611e87565b60068054821515600160b01b0260ff60b01b199091161790556040517f1584ad594a70cbe1e6515592e1272a987d922b097ead875069cebe8b40c004a49061117d90831515815260200190565b611b3a611e87565b61ffff83166000908152600160205260409020611b58908383612f4e565b507ffa41487ad5d6728f0b19276fa1eddc16558578f5109fc39d2dc33c3230470dab8383836040516114b8939291906137f2565b61ffff828116600090815260056020908152604080832081518083019092525493841681526201000090930460ff1615801591840191909152909190611bf157805161271090611be09061ffff1685613909565b611bea919061393e565b9150611c17565b60065461ffff1615611c125760065461271090611be09061ffff1685613909565b600091505b5092915050565b611c26611e87565b6001600160a01b038116611c8b5760405162461bcd60e51b815260206004820152602660248201527f4f776e61626c653a206e6577206f776e657220697320746865207a65726f206160448201526564647265737360d01b6064820152608401610ab4565b611c948161241a565b50565b604051633d7b2f6f60e21b815261ffff808616600483015284166024820152306044820152606481018290526060907f00000000000000000000000000000000000000000000000000000000000000006001600160a01b03169063f5ecbdbc90608401600060405180830381865afa158015611d17573d6000803e3d6000fd5b505050506040513d6000823e601f3d908101601f19168201604052611d3f9190810190613952565b95945050505050565b600080611dab5a60966366ad5c8a60e01b89898989604051602401611d7094939291906139bf565b60408051601f198184030181529190526020810180516001600160e01b03166001600160e01b03199093169290921790915230929190612577565b9150915081611353578280519060200120600460008861ffff1661ffff16815260200190815260200160002086604051611de591906139fd565b9081526040805191829003602090810183206001600160401b0389166000908152915220919091557fe183f33de2837795525b4792ca4cd60535bd77c53b7e7030060bfcf5734d6b0c90611e429088908890889088908790613a19565b60405180910390a1505050505050565b60006001600160e01b03198216630a72677560e11b1480610ca957506301ffc9a760e01b6001600160e01b0319831614610ca9565b6000546001600160a01b0316331461136d5760405162461bcd60e51b815260206004820181905260248201527f4f776e61626c653a2063616c6c6572206973206e6f7420746865206f776e65726044820152606401610ab4565b6001600160a01b038316611f435760405162461bcd60e51b8152602060048201526024808201527f45524332303a20617070726f76652066726f6d20746865207a65726f206164646044820152637265737360e01b6064820152608401610ab4565b6001600160a01b038216611fa45760405162461bcd60e51b815260206004820152602260248201527f45524332303a20617070726f766520746f20746865207a65726f206164647265604482015261737360f01b6064820152608401610ab4565b6001600160a01b0383811660008181526008602090815260408083209487168084529482529182902085905590518481527f8c5be1e5ebec7d5bd14f71427d1e84f3dd0314c0f7b2291e5b200ac8c7c3b925910160405180910390a3505050565b60006120118484611a00565b90506000198114612079578181101561206c5760405162461bcd60e51b815260206004820152601d60248201527f45524332303a20696e73756666696369656e7420616c6c6f77616e63650000006044820152606401610ab4565b6120798484848403611ee1565b50505050565b6001600160a01b0383166120e35760405162461bcd60e51b815260206004820152602560248201527f45524332303a207472616e736665722066726f6d20746865207a65726f206164604482015264647265737360d81b6064820152608401610ab4565b6001600160a01b0382166121455760405162461bcd60e51b815260206004820152602360248201527f45524332303a207472616e7366657220746f20746865207a65726f206164647260448201526265737360e81b6064820152608401610ab4565b6001600160a01b038316600090815260076020526040902054818110156121bd5760405162461bcd60e51b815260206004820152602660248201527f45524332303a207472616e7366657220616d6f756e7420657863656564732062604482015265616c616e636560d01b6064820152608401610ab4565b6001600160a01b038085166000908152600760205260408082208585039055918516815290812080548492906121f49084906137da565b92505081905550826001600160a01b0316846001600160a01b03167fddf252ad1be2c89b69c2b068fc378daa952ba7f163c4a11628f55a4df523b3ef8460405161224091815260200190565b60405180910390a3612079565b60008061227a7f00000000000000000000000000000000000000000000000000000000000000008461393e565b90506001600160401b03811115610ca95760405162461bcd60e51b815260206004820152601a60248201527f4f4654436f72653a20616d6f756e745344206f766572666c6f770000000000006044820152606401610ab4565b6060600083836040516020016122eb93929190613a77565b604051602081830303815290604052905092915050565b61230f8660008381612606565b600061231c888887612687565b509050612328816126ce565b5090506123378888888461270e565b9050600061234887610ea88461224d565b9050612358888287878734612740565b886001600160a01b03168861ffff167f39a4c66499bcf4b56d79f0dde8ed7a9d4925a0df55825206b2b8531e202be0d08985604051612398929190613abf565b60405180910390a3505050505050505050565b60006123b782826128db565b905060ff81166123d2576123cd85858585612937565b610dc3565b60405162461bcd60e51b815260206004820152601c60248201527f4f4654436f72653a20756e6b6e6f776e207061636b65742074797065000000006044820152606401610ab4565b600080546001600160a01b038381166001600160a01b0319831681178455604051919092169283917f8be0079c531659141344cd1fd0a4f28419497f9722a3daafe3b4186f6b6457e09190a35050565b60608161247881601f6137da565b10156124b75760405162461bcd60e51b815260206004820152600e60248201526d736c6963655f6f766572666c6f7760901b6044820152606401610ab4565b6124c182846137da565b845110156125055760405162461bcd60e51b8152602060048201526011602482015270736c6963655f6f75744f66426f756e647360781b6044820152606401610ab4565b606082158015612524576040519150600082526020820160405261256e565b6040519150601f8416801560200281840101858101878315602002848b0101015b8183101561255d578051835260209283019201612545565b5050858452601f01601f1916604052505b50949350505050565b6000606060008060008661ffff166001600160401b0381111561259c5761259c6133f5565b6040519080825280601f01601f1916602001820160405280156125c6576020820181803683370190505b50905060008087516020890160008d8df191503d9250868311156125e8578692505b828152826000602083013e909890975095505050505050565b505050565b600654600160b01b900460ff161561262957612624848484846129b0565b612079565b8151156120795760405162461bcd60e51b815260206004820152602660248201527f4f4654436f72653a205f61646170746572506172616d73206d7573742062652060448201526532b6b83a3c9760d11b6064820152608401610ab4565b6000806126948484611b8c565b90506126a08184613858565b915080156126c6576006546126c69086906201000090046001600160a01b031683612a8f565b935093915050565b6000806126fb7f000000000000000000000000000000000000000000000000000000000000000084613ae1565b90506127078184613858565b9150915091565b6000336001600160a01b038616811461272c5761272c868285612005565b6127368684612ab6565b5090949350505050565b61ffff86166000908152600160205260408120805461275e906136d6565b80601f016020809104026020016040519081016040528092919081815260200182805461278a906136d6565b80156127d75780601f106127ac576101008083540402835291602001916127d7565b820191906000526020600020905b8154815290600101906020018083116127ba57829003601f168201915b505050505090508051600014156128495760405162461bcd60e51b815260206004820152603060248201527f4c7a4170703a2064657374696e6174696f6e20636861696e206973206e6f742060448201526f61207472757374656420736f7572636560801b6064820152608401610ab4565b60405162c5803160e81b81526001600160a01b037f0000000000000000000000000000000000000000000000000000000000000000169063c58031009084906128a0908b9086908c908c908c908c90600401613af5565b6000604051808303818588803b1580156128b957600080fd5b505af11580156128cd573d6000803e3d6000fd5b505050505050505050505050565b60006128e88260016137da565b8351101561292e5760405162461bcd60e51b8152602060048201526013602482015272746f55696e74385f6f75744f66426f756e647360681b6044820152606401610ab4565b50016001015190565b60008061294383612c04565b91509150600061295282612c8e565b905061295f878483612cc3565b826001600160a01b03168761ffff167fbf551ec93859b170f9b2141bd9298bf3f64322c6f7beb2543a0cb669834118bf8360405161299f91815260200190565b60405180910390a350505050505050565b60006129bb83612ccd565b61ffff8087166000908152600260209081526040808320938916835292905290812054919250906129ed9084906137da565b905060008111612a3f5760405162461bcd60e51b815260206004820152601a60248201527f4c7a4170703a206d696e4761734c696d6974206e6f74207365740000000000006044820152606401610ab4565b808210156113535760405162461bcd60e51b815260206004820152601b60248201527f4c7a4170703a20676173206c696d697420697320746f6f206c6f7700000000006044820152606401610ab4565b336001600160a01b0384168114612aab57612aab848284612005565b61207984848461207f565b6001600160a01b038216612b165760405162461bcd60e51b815260206004820152602160248201527f45524332303a206275726e2066726f6d20746865207a65726f206164647265736044820152607360f81b6064820152608401610ab4565b6001600160a01b03821660009081526007602052604090205481811015612b8a5760405162461bcd60e51b815260206004820152602260248201527f45524332303a206275726e20616d6f756e7420657863656564732062616c616e604482015261636560f01b6064820152608401610ab4565b6001600160a01b0383166000908152600760205260408120838303905560098054849290612bb9908490613858565b90915550506040518281526000906001600160a01b038516907fddf252ad1be2c89b69c2b068fc378daa952ba7f163c4a11628f55a4df523b3ef9060200160405180910390a3505050565b60008080612c1284826128db565b60ff16148015612c2357508251601d145b612c6f5760405162461bcd60e51b815260206004820152601d60248201527f4f4654436f72653a20696e76616c69642073656e64207061796c6f61640000006044820152606401610ab4565b612c7a836001612d29565b9150612c87836015612d8e565b9050915091565b6000610ca97f00000000000000000000000000000000000000000000000000000000000000006001600160401b038416613909565b6126018282612deb565b6000602282511015612d215760405162461bcd60e51b815260206004820152601c60248201527f4c7a4170703a20696e76616c69642061646170746572506172616d73000000006044820152606401610ab4565b506022015190565b6000612d368260146137da565b83511015612d7e5760405162461bcd60e51b8152602060048201526015602482015274746f416464726573735f6f75744f66426f756e647360581b6044820152606401610ab4565b500160200151600160601b900490565b6000612d9b8260086137da565b83511015612de25760405162461bcd60e51b8152602060048201526014602482015273746f55696e7436345f6f75744f66426f756e647360601b6044820152606401610ab4565b50016008015190565b6001600160a01b038216612e415760405162461bcd60e51b815260206004820152601f60248201527f45524332303a206d696e7420746f20746865207a65726f2061646472657373006044820152606401610ab4565b8060096000828254612e5391906137da565b90915550506001600160a01b03821660009081526007602052604081208054839290612e809084906137da565b90915550506040518181526001600160a01b038316906000907fddf252ad1be2c89b69c2b068fc378daa952ba7f163c4a11628f55a4df523b3ef9060200160405180910390a35050565b828054612ed6906136d6565b90600052602060002090601f016020900481019282612ef85760008555612f3e565b82601f10612f1157805160ff1916838001178555612f3e565b82800160010185558215612f3e579182015b82811115612f3e578251825591602001919060010190612f23565b50612f4a929150612fc2565b5090565b828054612f5a906136d6565b90600052602060002090601f016020900481019282612f7c5760008555612f3e565b82601f10612f955782800160ff19823516178555612f3e565b82800160010185558215612f3e579182015b82811115612f3e578235825591602001919060010190612fa7565b5b80821115612f4a5760008155600101612fc3565b803561ffff81168114612fe957600080fd5b919050565b60008083601f84011261300057600080fd5b5081356001600160401b0381111561301757600080fd5b60208301915083602082850101111561302f57600080fd5b9250929050565b80356001600160401b0381168114612fe957600080fd5b6000806000806000806080878903121561306657600080fd5b61306f87612fd7565b955060208701356001600160401b038082111561308b57600080fd5b6130978a838b01612fee565b90975095508591506130ab60408a01613036565b945060608901359150808211156130c157600080fd5b506130ce89828a01612fee565b979a9699509497509295939492505050565b6000602082840312156130f257600080fd5b81356001600160e01b0319811681146115f457600080fd5b60005b8381101561312557818101518382015260200161310d565b838111156120795750506000910152565b6000815180845261314e81602086016020860161310a565b601f01601f19169290920160200192915050565b6020815260006115f46020830184613136565b60006020828403121561318757600080fd5b6115f482612fd7565b6001600160a01b0381168114611c9457600080fd5b600080604083850312156131b857600080fd5b82356131c381613190565b946020939093013593505050565b6000806000606084860312156131e657600080fd5b83356131f181613190565b9250602084013561320181613190565b929592945050506040919091013590565b80358015158114612fe957600080fd5b600080600080600080600060a0888a03121561323d57600080fd5b61324688612fd7565b965060208801356001600160401b038082111561326257600080fd5b61326e8b838c01612fee565b909850965060408a0135955086915061328960608b01613212565b945060808a013591508082111561329f57600080fd5b506132ac8a828b01612fee565b989b979a50959850939692959293505050565b6000806000604084860312156132d457600080fd5b6132dd84612fd7565b925060208401356001600160401b038111156132f857600080fd5b61330486828701612fee565b9497909650939450505050565b60006020828403121561332357600080fd5b81356115f481613190565b600080600080600080600080600060e08a8c03121561334c57600080fd5b893561335781613190565b985061336560208b01612fd7565b975060408a01356001600160401b038082111561338157600080fd5b61338d8d838e01612fee565b909950975060608c0135965060808c013591506133a982613190565b90945060a08b0135906133bb82613190565b90935060c08b013590808211156133d157600080fd5b506133de8c828d01612fee565b915080935050809150509295985092959850929598565b634e487b7160e01b600052604160045260246000fd5b604051601f8201601f191681016001600160401b0381118282101715613433576134336133f5565b604052919050565b60006001600160401b03821115613454576134546133f5565b50601f01601f191660200190565b60008060006060848603121561347757600080fd5b61348084612fd7565b925060208401356001600160401b0381111561349b57600080fd5b8401601f810186136134ac57600080fd5b80356134bf6134ba8261343b565b61340b565b8181528760208385010111156134d457600080fd5b816020840160208301376000602083830101528094505050506134f960408501613036565b90509250925092565b60008060006060848603121561351757600080fd5b61352084612fd7565b925061352e60208501613212565b91506134f960408501612fd7565b6000806040838503121561354f57600080fd5b61355883612fd7565b915061356660208401612fd7565b90509250929050565b60008060008060006080868803121561358757600080fd5b61359086612fd7565b945061359e60208701612fd7565b93506040860135925060608601356001600160401b038111156135c057600080fd5b6135cc88828901612fee565b969995985093965092949392505050565b600080604083850312156135f057600080fd5b82356135fb81613190565b9150602083013561360b81613190565b809150509250929050565b60008060006060848603121561362b57600080fd5b61363484612fd7565b925061364260208501612fd7565b9150604084013590509250925092565b60006020828403121561366457600080fd5b6115f482613212565b6000806040838503121561368057600080fd5b6131c383612fd7565b6000806000806080858703121561369f57600080fd5b6136a885612fd7565b93506136b660208601612fd7565b925060408501356136c681613190565b9396929550929360600135925050565b600181811c908216806136ea57607f821691505b6020821081141561370b57634e487b7160e01b600052602260045260246000fd5b50919050565b8183823760009101908152919050565b81835281816020850137506000828201602090810191909152601f909101601f19169091010190565b61ffff871681526001600160a01b038616602082015260a06040820181905260009061377890830187613136565b85151560608401528281036080840152613793818587613721565b9998505050505050505050565b600080604083850312156137b357600080fd5b505080516020909101519092909150565b634e487b7160e01b600052601160045260246000fd5b600082198211156137ed576137ed6137c4565b500190565b61ffff84168152604060208201526000611d3f604083018486613721565b60208082526028908201527f4f46544665653a20666565206270206d757374206265203c3d2042505f44454e60408201526727a6a4a720aa27a960c11b606082015260800190565b60008282101561386a5761386a6137c4565b500390565b8284823760609190911b6bffffffffffffffffffffffff19169101908152601401919050565b600061ffff8088168352808716602084015250846040830152608060608301526138c3608083018486613721565b979650505050505050565b61ffff861681526080602082015260006138ec608083018688613721565b6001600160401b0394909416604083015250606001529392505050565b6000816000190483118215151615613923576139236137c4565b500290565b634e487b7160e01b600052601260045260246000fd5b60008261394d5761394d613928565b500490565b60006020828403121561396457600080fd5b81516001600160401b0381111561397a57600080fd5b8201601f8101841361398b57600080fd5b80516139996134ba8261343b565b8181528560208385010111156139ae57600080fd5b611d3f82602083016020860161310a565b61ffff851681526080602082015260006139dc6080830186613136565b6001600160401b038516604084015282810360608401526138c38185613136565b60008251613a0f81846020870161310a565b9190910192915050565b61ffff8616815260a060208201526000613a3660a0830187613136565b6001600160401b03861660408401528281036060840152613a578186613136565b90508281036080840152613a6b8185613136565b98975050505050505050565b60ff60f81b8460f81b16815260008351613a9881600185016020880161310a565b60c09390931b6001600160c01b031916600192909301918201929092526009019392505050565b604081526000613ad26040830185613136565b90508260208301529392505050565b600082613af057613af0613928565b500690565b61ffff8716815260c060208201526000613b1260c0830188613136565b8281036040840152613b248188613136565b6001600160a01b0387811660608601528616608085015283810360a08501529050613793818561313656fea26469706673582212205406310d8ad30bec4a4db450323d7b50ac99097f2c2ef99dc1649f731809d1c564736f6c634300080c0033",
  "devdoc": {
    "kind": "dev",
    "methods": {
      "allowance(address,address)": {
        "details": "See {IERC20-allowance}."
      },
      "approve(address,uint256)": {
        "details": "See {IERC20-approve}. NOTE: If `amount` is the maximum `uint256`, the allowance is not updated on `transferFrom`. This is semantically equivalent to an infinite approval. Requirements: - `spender` cannot be the zero address."
      },
      "balanceOf(address)": {
        "details": "See {IERC20-balanceOf}."
      },
      "circulatingSupply()": {
        "details": "returns the circulating amount of tokens on current chain"
      },
      "decimals()": {
        "details": "Returns the number of decimals used to get its user representation. For example, if `decimals` equals `2`, a balance of `505` tokens should be displayed to a user as `5.05` (`505 / 10 ** 2`). Tokens usually opt for a value of 18, imitating the relationship between Ether and Wei. This is the value {ERC20} uses, unless this function is overridden; NOTE: This information is only used for _display_ purposes: it in no way affects any of the arithmetic of the contract, including {IERC20-balanceOf} and {IERC20-transfer}."
      },
      "decreaseAllowance(address,uint256)": {
        "details": "Atomically decreases the allowance granted to `spender` by the caller. This is an alternative to {approve} that can be used as a mitigation for problems described in {IERC20-approve}. Emits an {Approval} event indicating the updated allowance. Requirements: - `spender` cannot be the zero address. - `spender` must have allowance for the caller of at least `subtractedValue`."
      },
      "estimateSendFee(uint16,bytes,uint256,bool,bytes)": {
        "details": "estimate send token `_tokenId` to (`_dstChainId`, `_toAddress`) _dstChainId - L0 defined chain id to send tokens too _toAddress - dynamic bytes array which contains the address to whom you are sending tokens to on the dstChain _amount - amount of the tokens to transfer _useZro - indicates to use zro to pay L0 fees _adapterParam - flexible bytes array to indicate messaging adapter services in L0"
      },
      "increaseAllowance(address,uint256)": {
        "details": "Atomically increases the allowance granted to `spender` by the caller. This is an alternative to {approve} that can be used as a mitigation for problems described in {IERC20-approve}. Emits an {Approval} event indicating the updated allowance. Requirements: - `spender` cannot be the zero address."
      },
      "name()": {
        "details": "Returns the name of the token."
      },
      "owner()": {
        "details": "Returns the address of the current owner."
      },
      "renounceOwnership()": {
        "details": "Leaves the contract without owner. It will not be possible to call `onlyOwner` functions anymore. Can only be called by the current owner. NOTE: Renouncing ownership will leave the contract without an owner, thereby removing any functionality that is only available to the owner."
      },
      "sendFrom(address,uint16,bytes,uint256,address,address,bytes)": {
        "details": "send `_amount` amount of token to (`_dstChainId`, `_toAddress`) from `_from` `_from` the owner of token `_dstChainId` the destination chain identifier `_toAddress` can be any size depending on the `dstChainId`. `_amount` the quantity of tokens in wei `_refundAddress` the address LayerZero refunds if too much message fee is sent `_zroPaymentAddress` set to address(0x0) if not paying in ZRO (LayerZero Token) `_adapterParams` is a flexible bytes array to indicate messaging adapter services"
      },
      "symbol()": {
        "details": "Returns the symbol of the token, usually a shorter version of the name."
      },
      "token()": {
        "details": "returns the address of the ERC20 token"
      },
      "totalSupply()": {
        "details": "See {IERC20-totalSupply}."
      },
      "transfer(address,uint256)": {
        "details": "See {IERC20-transfer}. Requirements: - `to` cannot be the zero address. - the caller must have a balance of at least `amount`."
      },
      "transferFrom(address,address,uint256)": {
        "details": "See {IERC20-transferFrom}. Emits an {Approval} event indicating the updated allowance. This is not required by the EIP. See the note at the beginning of {ERC20}. NOTE: Does not update the allowance if the current allowance is the maximum `uint256`. Requirements: - `from` and `to` cannot be the zero address. - `from` must have a balance of at least `amount`. - the caller must have allowance for ``from``'s tokens of at least `amount`."
      },
      "transferOwnership(address)": {
        "details": "Transfers ownership of the contract to a new account (`newOwner`). Can only be called by the current owner."
      }
    },
    "version": 1
  },
  "userdoc": {
    "kind": "user",
    "methods": {},
    "version": 1
  },
  "storageLayout": {
    "storage": [
      {
        "astId": 2335,
        "contract": "contracts/OFT.sol:OFT",
        "label": "_owner",
        "offset": 0,
        "slot": "0",
        "type": "t_address"
      },
      {
        "astId": 212,
        "contract": "contracts/OFT.sol:OFT",
        "label": "trustedRemoteLookup",
        "offset": 0,
        "slot": "1",
        "type": "t_mapping(t_uint16,t_bytes_storage)"
      },
      {
        "astId": 218,
        "contract": "contracts/OFT.sol:OFT",
        "label": "minDstGasLookup",
        "offset": 0,
        "slot": "2",
        "type": "t_mapping(t_uint16,t_mapping(t_uint16,t_uint256))"
      },
      {
        "astId": 220,
        "contract": "contracts/OFT.sol:OFT",
        "label": "precrime",
        "offset": 0,
        "slot": "3",
        "type": "t_address"
      },
      {
        "astId": 705,
        "contract": "contracts/OFT.sol:OFT",
        "label": "failedMessages",
        "offset": 0,
        "slot": "4",
        "type": "t_mapping(t_uint16,t_mapping(t_bytes_memory_ptr,t_mapping(t_uint64,t_bytes32)))"
      },
      {
        "astId": 1482,
        "contract": "contracts/OFT.sol:OFT",
        "label": "chainIdToFeeBps",
        "offset": 0,
        "slot": "5",
        "type": "t_mapping(t_uint16,t_struct(Fee)1491_storage)"
      },
      {
        "astId": 1484,
        "contract": "contracts/OFT.sol:OFT",
        "label": "defaultFeeBp",
        "offset": 0,
        "slot": "6",
        "type": "t_uint16"
      },
      {
        "astId": 1486,
        "contract": "contracts/OFT.sol:OFT",
        "label": "feeOwner",
        "offset": 2,
        "slot": "6",
        "type": "t_address"
      },
      {
        "astId": 1012,
        "contract": "contracts/OFT.sol:OFT",
        "label": "useCustomAdapterParams",
        "offset": 22,
        "slot": "6",
        "type": "t_bool"
      },
      {
        "astId": 2456,
        "contract": "contracts/OFT.sol:OFT",
        "label": "_balances",
        "offset": 0,
        "slot": "7",
        "type": "t_mapping(t_address,t_uint256)"
      },
      {
        "astId": 2462,
        "contract": "contracts/OFT.sol:OFT",
        "label": "_allowances",
        "offset": 0,
        "slot": "8",
        "type": "t_mapping(t_address,t_mapping(t_address,t_uint256))"
      },
      {
        "astId": 2464,
        "contract": "contracts/OFT.sol:OFT",
        "label": "_totalSupply",
        "offset": 0,
        "slot": "9",
        "type": "t_uint256"
      },
      {
        "astId": 2466,
        "contract": "contracts/OFT.sol:OFT",
        "label": "_name",
        "offset": 0,
        "slot": "10",
        "type": "t_string_storage"
      },
      {
        "astId": 2468,
        "contract": "contracts/OFT.sol:OFT",
        "label": "_symbol",
        "offset": 0,
        "slot": "11",
        "type": "t_string_storage"
      }
    ],
    "types": {
      "t_address": {
        "encoding": "inplace",
        "label": "address",
        "numberOfBytes": "20"
      },
      "t_bool": {
        "encoding": "inplace",
        "label": "bool",
        "numberOfBytes": "1"
      },
      "t_bytes32": {
        "encoding": "inplace",
        "label": "bytes32",
        "numberOfBytes": "32"
      },
      "t_bytes_memory_ptr": {
        "encoding": "bytes",
        "label": "bytes",
        "numberOfBytes": "32"
      },
      "t_bytes_storage": {
        "encoding": "bytes",
        "label": "bytes",
        "numberOfBytes": "32"
      },
      "t_mapping(t_address,t_mapping(t_address,t_uint256))": {
        "encoding": "mapping",
        "key": "t_address",
        "label": "mapping(address => mapping(address => uint256))",
        "numberOfBytes": "32",
        "value": "t_mapping(t_address,t_uint256)"
      },
      "t_mapping(t_address,t_uint256)": {
        "encoding": "mapping",
        "key": "t_address",
        "label": "mapping(address => uint256)",
        "numberOfBytes": "32",
        "value": "t_uint256"
      },
      "t_mapping(t_bytes_memory_ptr,t_mapping(t_uint64,t_bytes32))": {
        "encoding": "mapping",
        "key": "t_bytes_memory_ptr",
        "label": "mapping(bytes => mapping(uint64 => bytes32))",
        "numberOfBytes": "32",
        "value": "t_mapping(t_uint64,t_bytes32)"
      },
      "t_mapping(t_uint16,t_bytes_storage)": {
        "encoding": "mapping",
        "key": "t_uint16",
        "label": "mapping(uint16 => bytes)",
        "numberOfBytes": "32",
        "value": "t_bytes_storage"
      },
      "t_mapping(t_uint16,t_mapping(t_bytes_memory_ptr,t_mapping(t_uint64,t_bytes32)))": {
        "encoding": "mapping",
        "key": "t_uint16",
        "label": "mapping(uint16 => mapping(bytes => mapping(uint64 => bytes32)))",
        "numberOfBytes": "32",
        "value": "t_mapping(t_bytes_memory_ptr,t_mapping(t_uint64,t_bytes32))"
      },
      "t_mapping(t_uint16,t_mapping(t_uint16,t_uint256))": {
        "encoding": "mapping",
        "key": "t_uint16",
        "label": "mapping(uint16 => mapping(uint16 => uint256))",
        "numberOfBytes": "32",
        "value": "t_mapping(t_uint16,t_uint256)"
      },
      "t_mapping(t_uint16,t_struct(Fee)1491_storage)": {
        "encoding": "mapping",
        "key": "t_uint16",
        "label": "mapping(uint16 => struct OFTFee.Fee)",
        "numberOfBytes": "32",
        "value": "t_struct(Fee)1491_storage"
      },
      "t_mapping(t_uint16,t_uint256)": {
        "encoding": "mapping",
        "key": "t_uint16",
        "label": "mapping(uint16 => uint256)",
        "numberOfBytes": "32",
        "value": "t_uint256"
      },
      "t_mapping(t_uint64,t_bytes32)": {
        "encoding": "mapping",
        "key": "t_uint64",
        "label": "mapping(uint64 => bytes32)",
        "numberOfBytes": "32",
        "value": "t_bytes32"
      },
      "t_string_storage": {
        "encoding": "bytes",
        "label": "string",
        "numberOfBytes": "32"
      },
      "t_struct(Fee)1491_storage": {
        "encoding": "inplace",
        "label": "struct OFTFee.Fee",
        "members": [
          {
            "astId": 1488,
            "contract": "contracts/OFT.sol:OFT",
            "label": "feeBP",
            "offset": 0,
            "slot": "0",
            "type": "t_uint16"
          },
          {
            "astId": 1490,
            "contract": "contracts/OFT.sol:OFT",
            "label": "enabled",
            "offset": 2,
            "slot": "0",
            "type": "t_bool"
          }
        ],
        "numberOfBytes": "32"
      },
      "t_uint16": {
        "encoding": "inplace",
        "label": "uint16",
        "numberOfBytes": "2"
      },
      "t_uint256": {
        "encoding": "inplace",
        "label": "uint256",
        "numberOfBytes": "32"
      },
      "t_uint64": {
        "encoding": "inplace",
        "label": "uint64",
        "numberOfBytes": "8"
      }
    }
  }
}