{
  "address": "0x97b8de77e6780AAA624578d5872cc5F3beBBab40",
  "abi": [
    {
      "inputs": [
        {
          "internalType": "string",
          "name": "_name",
          "type": "string"
        },
        {
          "internalType": "string",
          "name": "_symbol",
          "type": "string"
        },
        {
          "internalType": "address",
          "name": "_lzEndpoint",
          "type": "address"
        }
      ],
      "stateMutability": "nonpayable",
      "type": "constructor"
    },
    {
      "anonymous": false,
      "inputs": [
        {
          "indexed": true,
          "internalType": "address",
          "name": "owner",
          "type": "address"
        },
        {
          "indexed": true,
          "internalType": "address",
          "name": "spender",
          "type": "address"
        },
        {
          "indexed": false,
          "internalType": "uint256",
          "name": "value",
          "type": "uint256"
        }
      ],
      "name": "Approval",
      "type": "event"
    },
    {
      "anonymous": false,
      "inputs": [
        {
          "indexed": true,
          "internalType": "uint16",
          "name": "_srcChainId",
          "type": "uint16"
        },
        {
          "indexed": false,
          "internalType": "bytes",
          "name": "_srcAddress",
          "type": "bytes"
        },
        {
          "indexed": false,
          "internalType": "uint64",
          "name": "_nonce",
          "type": "uint64"
        },
        {
          "indexed": false,
          "internalType": "bytes32",
          "name": "_hash",
          "type": "bytes32"
        }
      ],
      "name": "CallOFTReceivedSuccess",
      "type": "event"
    },
    {
      "anonymous": false,
      "inputs": [
        {
          "indexed": false,
          "internalType": "uint16",
          "name": "_srcChainId",
          "type": "uint16"
        },
        {
          "indexed": false,
          "internalType": "bytes",
          "name": "_srcAddress",
          "type": "bytes"
        },
        {
          "indexed": false,
          "internalType": "uint64",
          "name": "_nonce",
          "type": "uint64"
        },
        {
          "indexed": false,
          "internalType": "bytes",
          "name": "_payload",
          "type": "bytes"
        },
        {
          "indexed": false,
          "internalType": "bytes",
          "name": "_reason",
          "type": "bytes"
        }
      ],
      "name": "MessageFailed",
      "type": "event"
    },
    {
      "anonymous": false,
      "inputs": [
        {
          "indexed": false,
          "internalType": "address",
          "name": "_address",
          "type": "address"
        }
      ],
      "name": "NonContractAddress",
      "type": "event"
    },
    {
      "anonymous": false,
      "inputs": [
        {
          "indexed": true,
          "internalType": "address",
          "name": "previousOwner",
          "type": "address"
        },
        {
          "indexed": true,
          "internalType": "address",
          "name": "newOwner",
          "type": "address"
        }
      ],
      "name": "OwnershipTransferred",
      "type": "event"
    },
    {
      "anonymous": false,
      "inputs": [
        {
          "indexed": true,
          "internalType": "uint16",
          "name": "_srcChainId",
          "type": "uint16"
        },
        {
          "indexed": true,
          "internalType": "address",
          "name": "_to",
          "type": "address"
        },
        {
          "indexed": false,
          "internalType": "uint256",
          "name": "_amount",
          "type": "uint256"
        }
      ],
      "name": "ReceiveFromChain",
      "type": "event"
    },
    {
      "anonymous": false,
      "inputs": [
        {
          "indexed": false,
          "internalType": "uint16",
          "name": "_srcChainId",
          "type": "uint16"
        },
        {
          "indexed": false,
          "internalType": "bytes",
          "name": "_srcAddress",
          "type": "bytes"
        },
        {
          "indexed": false,
          "internalType": "uint64",
          "name": "_nonce",
          "type": "uint64"
        },
        {
          "indexed": false,
          "internalType": "bytes32",
          "name": "_payloadHash",
          "type": "bytes32"
        }
      ],
      "name": "RetryMessageSuccess",
      "type": "event"
    },
    {
      "anonymous": false,
      "inputs": [
        {
          "indexed": true,
          "internalType": "uint16",
          "name": "_dstChainId",
          "type": "uint16"
        },
        {
          "indexed": true,
          "internalType": "address",
          "name": "_from",
          "type": "address"
        },
        {
          "indexed": true,
          "internalType": "bytes32",
          "name": "_toAddress",
          "type": "bytes32"
        },
        {
          "indexed": false,
          "internalType": "uint256",
          "name": "_amount",
          "type": "uint256"
        }
      ],
      "name": "SendToChain",
      "type": "event"
    },
    {
      "anonymous": false,
      "inputs": [
        {
          "indexed": false,
          "internalType": "uint16",
          "name": "feeBp",
          "type": "uint16"
        }
      ],
      "name": "SetDefaultFeeBp",
      "type": "event"
    },
    {
      "anonymous": false,
      "inputs": [
        {
          "indexed": false,
          "internalType": "uint16",
          "name": "dstchainId",
          "type": "uint16"
        },
        {
          "indexed": false,
          "internalType": "bool",
          "name": "enabled",
          "type": "bool"
        },
        {
          "indexed": false,
          "internalType": "uint16",
          "name": "feeBp",
          "type": "uint16"
        }
      ],
      "name": "SetFeeBp",
      "type": "event"
    },
    {
      "anonymous": false,
      "inputs": [
        {
          "indexed": false,
          "internalType": "address",
          "name": "feeOwner",
          "type": "address"
        }
      ],
      "name": "SetFeeOwner",
      "type": "event"
    },
    {
      "anonymous": false,
      "inputs": [
        {
          "indexed": false,
          "internalType": "uint16",
          "name": "_dstChainId",
          "type": "uint16"
        },
        {
          "indexed": false,
          "internalType": "uint16",
          "name": "_type",
          "type": "uint16"
        },
        {
          "indexed": false,
          "internalType": "uint256",
          "name": "_minDstGas",
          "type": "uint256"
        }
      ],
      "name": "SetMinDstGas",
      "type": "event"
    },
    {
      "anonymous": false,
      "inputs": [
        {
          "indexed": false,
          "internalType": "address",
          "name": "precrime",
          "type": "address"
        }
      ],
      "name": "SetPrecrime",
      "type": "event"
    },
    {
      "anonymous": false,
      "inputs": [
        {
          "indexed": false,
          "internalType": "uint16",
          "name": "_remoteChainId",
          "type": "uint16"
        },
        {
          "indexed": false,
          "internalType": "bytes",
          "name": "_path",
          "type": "bytes"
        }
      ],
      "name": "SetTrustedRemote",
      "type": "event"
    },
    {
      "anonymous": false,
      "inputs": [
        {
          "indexed": false,
          "internalType": "uint16",
          "name": "_remoteChainId",
          "type": "uint16"
        },
        {
          "indexed": false,
          "internalType": "bytes",
          "name": "_remoteAddress",
          "type": "bytes"
        }
      ],
      "name": "SetTrustedRemoteAddress",
      "type": "event"
    },
    {
      "anonymous": false,
      "inputs": [
        {
          "indexed": false,
          "internalType": "bool",
          "name": "_useCustomAdapterParams",
          "type": "bool"
        }
      ],
      "name": "SetUseCustomAdapterParams",
      "type": "event"
    },
    {
      "anonymous": false,
      "inputs": [
        {
          "indexed": true,
          "internalType": "address",
          "name": "from",
          "type": "address"
        },
        {
          "indexed": true,
          "internalType": "address",
          "name": "to",
          "type": "address"
        },
        {
          "indexed": false,
          "internalType": "uint256",
          "name": "value",
          "type": "uint256"
        }
      ],
      "name": "Transfer",
      "type": "event"
    },
    {
      "inputs": [],
      "name": "BP_DENOMINATOR",
      "outputs": [
        {
          "internalType": "uint256",
          "name": "",
          "type": "uint256"
        }
      ],
      "stateMutability": "view",
      "type": "function"
    },
    {
      "inputs": [],
      "name": "NO_EXTRA_GAS",
      "outputs": [
        {
          "internalType": "uint256",
          "name": "",
          "type": "uint256"
        }
      ],
      "stateMutability": "view",
      "type": "function"
    },
    {
      "inputs": [],
      "name": "PT_SEND",
      "outputs": [
        {
          "internalType": "uint8",
          "name": "",
          "type": "uint8"
        }
      ],
      "stateMutability": "view",
      "type": "function"
    },
    {
      "inputs": [],
      "name": "PT_SEND_AND_CALL",
      "outputs": [
        {
          "internalType": "uint8",
          "name": "",
          "type": "uint8"
        }
      ],
      "stateMutability": "view",
      "type": "function"
    },
    {
      "inputs": [
        {
          "internalType": "address",
          "name": "owner",
          "type": "address"
        },
        {
          "internalType": "address",
          "name": "spender",
          "type": "address"
        }
      ],
      "name": "allowance",
      "outputs": [
        {
          "internalType": "uint256",
          "name": "",
          "type": "uint256"
        }
      ],
      "stateMutability": "view",
      "type": "function"
    },
    {
      "inputs": [
        {
          "internalType": "uint16",
          "name": "",
          "type": "uint16"
        },
        {
          "internalType": "bytes",
          "name": "",
          "type": "bytes"
        },
        {
          "internalType": "uint64",
          "name": "",
          "type": "uint64"
        }
      ],
      "name": "amountsForCall",
      "outputs": [
        {
          "internalType": "uint256",
          "name": "amount",
          "type": "uint256"
        },
        {
          "internalType": "bool",
          "name": "credited",
          "type": "bool"
        }
      ],
      "stateMutability": "view",
      "type": "function"
    },
    {
      "inputs": [
        {
          "internalType": "address",
          "name": "spender",
          "type": "address"
        },
        {
          "internalType": "uint256",
          "name": "amount",
          "type": "uint256"
        }
      ],
      "name": "approve",
      "outputs": [
        {
          "internalType": "bool",
          "name": "",
          "type": "bool"
        }
      ],
      "stateMutability": "nonpayable",
      "type": "function"
    },
    {
      "inputs": [
        {
          "internalType": "address",
          "name": "account",
          "type": "address"
        }
      ],
      "name": "balanceOf",
      "outputs": [
        {
          "internalType": "uint256",
          "name": "",
          "type": "uint256"
        }
      ],
      "stateMutability": "view",
      "type": "function"
    },
    {
      "inputs": [
        {
          "internalType": "uint16",
          "name": "_srcChainId",
          "type": "uint16"
        },
        {
          "internalType": "bytes",
          "name": "_srcAddress",
          "type": "bytes"
        },
        {
          "internalType": "uint64",
          "name": "_nonce",
          "type": "uint64"
        },
        {
          "internalType": "bytes32",
          "name": "_from",
          "type": "bytes32"
        },
        {
          "internalType": "address",
          "name": "_to",
          "type": "address"
        },
        {
          "internalType": "uint256",
          "name": "_amount",
          "type": "uint256"
        },
        {
          "internalType": "bytes",
          "name": "_payload",
          "type": "bytes"
        },
        {
          "internalType": "uint256",
          "name": "_gasForCall",
          "type": "uint256"
        }
      ],
      "name": "callOnOFTReceived",
      "outputs": [],
      "stateMutability": "nonpayable",
      "type": "function"
    },
    {
      "inputs": [
        {
          "internalType": "uint16",
          "name": "",
          "type": "uint16"
        }
      ],
      "name": "chainIdToFeeBps",
      "outputs": [
        {
          "internalType": "uint16",
          "name": "feeBP",
          "type": "uint16"
        },
        {
          "internalType": "bool",
          "name": "enabled",
          "type": "bool"
        }
      ],
      "stateMutability": "view",
      "type": "function"
    },
    {
      "inputs": [],
      "name": "circulatingSupply",
      "outputs": [
        {
          "internalType": "uint256",
          "name": "",
          "type": "uint256"
        }
      ],
      "stateMutability": "view",
      "type": "function"
    },
    {
      "inputs": [],
      "name": "decimals",
      "outputs": [
        {
          "internalType": "uint8",
          "name": "",
          "type": "uint8"
        }
      ],
      "stateMutability": "pure",
      "type": "function"
    },
    {
      "inputs": [
        {
          "internalType": "address",
          "name": "spender",
          "type": "address"
        },
        {
          "internalType": "uint256",
          "name": "subtractedValue",
          "type": "uint256"
        }
      ],
      "name": "decreaseAllowance",
      "outputs": [
        {
          "internalType": "bool",
          "name": "",
          "type": "bool"
        }
      ],
      "stateMutability": "nonpayable",
      "type": "function"
    },
    {
      "inputs": [],
      "name": "defaultFeeBp",
      "outputs": [
        {
          "internalType": "uint16",
          "name": "",
          "type": "uint16"
        }
      ],
      "stateMutability": "view",
      "type": "function"
    },
    {
      "inputs": [
        {
          "internalType": "uint16",
          "name": "_dstChainId",
          "type": "uint16"
        },
        {
          "internalType": "bytes32",
          "name": "_toAddress",
          "type": "bytes32"
        },
        {
          "internalType": "uint256",
          "name": "_amount",
          "type": "uint256"
        },
        {
          "internalType": "bytes",
          "name": "_payload",
          "type": "bytes"
        },
        {
          "internalType": "uint64",
          "name": "_dstGasForCall",
          "type": "uint64"
        },
        {
          "internalType": "bool",
          "name": "_useZro",
          "type": "bool"
        },
        {
          "internalType": "bytes",
          "name": "_adapterParams",
          "type": "bytes"
        }
      ],
      "name": "estimateSendAndCallFee",
      "outputs": [
        {
          "internalType": "uint256",
          "name": "nativeFee",
          "type": "uint256"
        },
        {
          "internalType": "uint256",
          "name": "zroFee",
          "type": "uint256"
        }
      ],
      "stateMutability": "view",
      "type": "function"
    },
    {
      "inputs": [
        {
          "internalType": "uint16",
          "name": "_dstChainId",
          "type": "uint16"
        },
        {
          "internalType": "bytes32",
          "name": "_toAddress",
          "type": "bytes32"
        },
        {
          "internalType": "uint256",
          "name": "_amount",
          "type": "uint256"
        },
        {
          "internalType": "bool",
          "name": "_useZro",
          "type": "bool"
        },
        {
          "internalType": "bytes",
          "name": "_adapterParams",
          "type": "bytes"
        }
      ],
      "name": "estimateSendFee",
      "outputs": [
        {
          "internalType": "uint256",
          "name": "nativeFee",
          "type": "uint256"
        },
        {
          "internalType": "uint256",
          "name": "zroFee",
          "type": "uint256"
        }
      ],
      "stateMutability": "view",
      "type": "function"
    },
    {
      "inputs": [
        {
          "internalType": "uint16",
          "name": "",
          "type": "uint16"
        },
        {
          "internalType": "bytes",
          "name": "",
          "type": "bytes"
        },
        {
          "internalType": "uint64",
          "name": "",
          "type": "uint64"
        }
      ],
      "name": "failedMessages",
      "outputs": [
        {
          "internalType": "bytes32",
          "name": "",
          "type": "bytes32"
        }
      ],
      "stateMutability": "view",
      "type": "function"
    },
    {
      "inputs": [],
      "name": "feeOwner",
      "outputs": [
        {
          "internalType": "address",
          "name": "",
          "type": "address"
        }
      ],
      "stateMutability": "view",
      "type": "function"
    },
    {
      "inputs": [
        {
          "internalType": "uint16",
          "name": "_srcChainId",
          "type": "uint16"
        },
        {
          "internalType": "bytes",
          "name": "_srcAddress",
          "type": "bytes"
        }
      ],
      "name": "forceResumeReceive",
      "outputs": [],
      "stateMutability": "nonpayable",
      "type": "function"
    },
    {
      "inputs": [
        {
          "internalType": "uint16",
          "name": "_version",
          "type": "uint16"
        },
        {
          "internalType": "uint16",
          "name": "_chainId",
          "type": "uint16"
        },
        {
          "internalType": "address",
          "name": "",
          "type": "address"
        },
        {
          "internalType": "uint256",
          "name": "_configType",
          "type": "uint256"
        }
      ],
      "name": "getConfig",
      "outputs": [
        {
          "internalType": "bytes",
          "name": "",
          "type": "bytes"
        }
      ],
      "stateMutability": "view",
      "type": "function"
    },
    {
      "inputs": [
        {
          "internalType": "uint16",
          "name": "_remoteChainId",
          "type": "uint16"
        }
      ],
      "name": "getTrustedRemoteAddress",
      "outputs": [
        {
          "internalType": "bytes",
          "name": "",
          "type": "bytes"
        }
      ],
      "stateMutability": "view",
      "type": "function"
    },
    {
      "inputs": [
        {
          "internalType": "address",
          "name": "spender",
          "type": "address"
        },
        {
          "internalType": "uint256",
          "name": "addedValue",
          "type": "uint256"
        }
      ],
      "name": "increaseAllowance",
      "outputs": [
        {
          "internalType": "bool",
          "name": "",
          "type": "bool"
        }
      ],
      "stateMutability": "nonpayable",
      "type": "function"
    },
    {
      "inputs": [
        {
          "internalType": "uint16",
          "name": "_srcChainId",
          "type": "uint16"
        },
        {
          "internalType": "bytes",
          "name": "_srcAddress",
          "type": "bytes"
        }
      ],
      "name": "isTrustedRemote",
      "outputs": [
        {
          "internalType": "bool",
          "name": "",
          "type": "bool"
        }
      ],
      "stateMutability": "view",
      "type": "function"
    },
    {
      "inputs": [],
      "name": "lzEndpoint",
      "outputs": [
        {
          "internalType": "contract ILayerZeroEndpoint",
          "name": "",
          "type": "address"
        }
      ],
      "stateMutability": "view",
      "type": "function"
    },
    {
      "inputs": [
        {
          "internalType": "uint16",
          "name": "_srcChainId",
          "type": "uint16"
        },
        {
          "internalType": "bytes",
          "name": "_srcAddress",
          "type": "bytes"
        },
        {
          "internalType": "uint64",
          "name": "_nonce",
          "type": "uint64"
        },
        {
          "internalType": "bytes",
          "name": "_payload",
          "type": "bytes"
        }
      ],
      "name": "lzReceive",
      "outputs": [],
      "stateMutability": "nonpayable",
      "type": "function"
    },
    {
      "inputs": [
        {
          "internalType": "uint16",
          "name": "",
          "type": "uint16"
        },
        {
          "internalType": "uint16",
          "name": "",
          "type": "uint16"
        }
      ],
      "name": "minDstGasLookup",
      "outputs": [
        {
          "internalType": "uint256",
          "name": "",
          "type": "uint256"
        }
      ],
      "stateMutability": "view",
      "type": "function"
    },
    {
      "inputs": [],
      "name": "name",
      "outputs": [
        {
          "internalType": "string",
          "name": "",
          "type": "string"
        }
      ],
      "stateMutability": "view",
      "type": "function"
    },
    {
      "inputs": [
        {
          "internalType": "uint16",
          "name": "_srcChainId",
          "type": "uint16"
        },
        {
          "internalType": "bytes",
          "name": "_srcAddress",
          "type": "bytes"
        },
        {
          "internalType": "uint64",
          "name": "_nonce",
          "type": "uint64"
        },
        {
          "internalType": "bytes",
          "name": "_payload",
          "type": "bytes"
        }
      ],
      "name": "nonblockingLzReceive",
      "outputs": [],
      "stateMutability": "nonpayable",
      "type": "function"
    },
    {
      "inputs": [],
      "name": "owner",
      "outputs": [
        {
          "internalType": "address",
          "name": "",
          "type": "address"
        }
      ],
      "stateMutability": "view",
      "type": "function"
    },
    {
      "inputs": [],
      "name": "precrime",
      "outputs": [
        {
          "internalType": "address",
          "name": "",
          "type": "address"
        }
      ],
      "stateMutability": "view",
      "type": "function"
    },
    {
      "inputs": [
        {
          "internalType": "uint16",
          "name": "_dstChainId",
          "type": "uint16"
        },
        {
          "internalType": "uint256",
          "name": "_amount",
          "type": "uint256"
        }
      ],
      "name": "quoteOFTFee",
      "outputs": [
        {
          "internalType": "uint256",
          "name": "fee",
          "type": "uint256"
        }
      ],
      "stateMutability": "view",
      "type": "function"
    },
    {
      "inputs": [],
      "name": "renounceOwnership",
      "outputs": [],
      "stateMutability": "nonpayable",
      "type": "function"
    },
    {
      "inputs": [
        {
          "internalType": "uint16",
          "name": "_srcChainId",
          "type": "uint16"
        },
        {
          "internalType": "bytes",
          "name": "_srcAddress",
          "type": "bytes"
        },
        {
          "internalType": "uint64",
          "name": "_nonce",
          "type": "uint64"
        },
        {
          "internalType": "bytes",
          "name": "_payload",
          "type": "bytes"
        }
      ],
      "name": "retryMessage",
      "outputs": [],
      "stateMutability": "payable",
      "type": "function"
    },
    {
      "inputs": [
        {
          "internalType": "address",
          "name": "_from",
          "type": "address"
        },
        {
          "internalType": "uint16",
          "name": "_dstChainId",
          "type": "uint16"
        },
        {
          "internalType": "bytes32",
          "name": "_toAddress",
          "type": "bytes32"
        },
        {
          "internalType": "uint256",
          "name": "_amount",
          "type": "uint256"
        },
        {
          "internalType": "uint256",
          "name": "_minAmount",
          "type": "uint256"
        },
        {
          "internalType": "bytes",
          "name": "_payload",
          "type": "bytes"
        },
        {
          "internalType": "uint64",
          "name": "_dstGasForCall",
          "type": "uint64"
        },
        {
          "components": [
            {
              "internalType": "address payable",
              "name": "refundAddress",
              "type": "address"
            },
            {
              "internalType": "address",
              "name": "zroPaymentAddress",
              "type": "address"
            },
            {
              "internalType": "bytes",
              "name": "adapterParams",
              "type": "bytes"
            }
          ],
          "internalType": "struct ICommonOFT.LzCallParams",
          "name": "_callParams",
          "type": "tuple"
        }
      ],
      "name": "sendAndCall",
      "outputs": [],
      "stateMutability": "payable",
      "type": "function"
    },
    {
      "inputs": [
        {
          "internalType": "address",
          "name": "_from",
          "type": "address"
        },
        {
          "internalType": "uint16",
          "name": "_dstChainId",
          "type": "uint16"
        },
        {
          "internalType": "bytes32",
          "name": "_toAddress",
          "type": "bytes32"
        },
        {
          "internalType": "uint256",
          "name": "_amount",
          "type": "uint256"
        },
        {
          "internalType": "uint256",
          "name": "_minAmount",
          "type": "uint256"
        },
        {
          "components": [
            {
              "internalType": "address payable",
              "name": "refundAddress",
              "type": "address"
            },
            {
              "internalType": "address",
              "name": "zroPaymentAddress",
              "type": "address"
            },
            {
              "internalType": "bytes",
              "name": "adapterParams",
              "type": "bytes"
            }
          ],
          "internalType": "struct ICommonOFT.LzCallParams",
          "name": "_callParams",
          "type": "tuple"
        }
      ],
      "name": "sendFrom",
      "outputs": [],
      "stateMutability": "payable",
      "type": "function"
    },
    {
      "inputs": [
        {
          "internalType": "uint16",
          "name": "_version",
          "type": "uint16"
        },
        {
          "internalType": "uint16",
          "name": "_chainId",
          "type": "uint16"
        },
        {
          "internalType": "uint256",
          "name": "_configType",
          "type": "uint256"
        },
        {
          "internalType": "bytes",
          "name": "_config",
          "type": "bytes"
        }
      ],
      "name": "setConfig",
      "outputs": [],
      "stateMutability": "nonpayable",
      "type": "function"
    },
    {
      "inputs": [
        {
          "internalType": "uint16",
          "name": "_feeBp",
          "type": "uint16"
        }
      ],
      "name": "setDefaultFeeBp",
      "outputs": [],
      "stateMutability": "nonpayable",
      "type": "function"
    },
    {
      "inputs": [
        {
          "internalType": "uint16",
          "name": "_dstChainId",
          "type": "uint16"
        },
        {
          "internalType": "bool",
          "name": "_enabled",
          "type": "bool"
        },
        {
          "internalType": "uint16",
          "name": "_feeBp",
          "type": "uint16"
        }
      ],
      "name": "setFeeBp",
      "outputs": [],
      "stateMutability": "nonpayable",
      "type": "function"
    },
    {
      "inputs": [
        {
          "internalType": "address",
          "name": "_feeOwner",
          "type": "address"
        }
      ],
      "name": "setFeeOwner",
      "outputs": [],
      "stateMutability": "nonpayable",
      "type": "function"
    },
    {
      "inputs": [
        {
          "internalType": "uint16",
          "name": "_dstChainId",
          "type": "uint16"
        },
        {
          "internalType": "uint16",
          "name": "_packetType",
          "type": "uint16"
        },
        {
          "internalType": "uint256",
          "name": "_minGas",
          "type": "uint256"
        }
      ],
      "name": "setMinDstGas",
      "outputs": [],
      "stateMutability": "nonpayable",
      "type": "function"
    },
    {
      "inputs": [
        {
          "internalType": "address",
          "name": "_precrime",
          "type": "address"
        }
      ],
      "name": "setPrecrime",
      "outputs": [],
      "stateMutability": "nonpayable",
      "type": "function"
    },
    {
      "inputs": [
        {
          "internalType": "uint16",
          "name": "_version",
          "type": "uint16"
        }
      ],
      "name": "setReceiveVersion",
      "outputs": [],
      "stateMutability": "nonpayable",
      "type": "function"
    },
    {
      "inputs": [
        {
          "internalType": "uint16",
          "name": "_version",
          "type": "uint16"
        }
      ],
      "name": "setSendVersion",
      "outputs": [],
      "stateMutability": "nonpayable",
      "type": "function"
    },
    {
      "inputs": [
        {
          "internalType": "uint16",
          "name": "_srcChainId",
          "type": "uint16"
        },
        {
          "internalType": "bytes",
          "name": "_path",
          "type": "bytes"
        }
      ],
      "name": "setTrustedRemote",
      "outputs": [],
      "stateMutability": "nonpayable",
      "type": "function"
    },
    {
      "inputs": [
        {
          "internalType": "uint16",
          "name": "_remoteChainId",
          "type": "uint16"
        },
        {
          "internalType": "bytes",
          "name": "_remoteAddress",
          "type": "bytes"
        }
      ],
      "name": "setTrustedRemoteAddress",
      "outputs": [],
      "stateMutability": "nonpayable",
      "type": "function"
    },
    {
      "inputs": [
        {
          "internalType": "bool",
          "name": "_useCustomAdapterParams",
          "type": "bool"
        }
      ],
      "name": "setUseCustomAdapterParams",
      "outputs": [],
      "stateMutability": "nonpayable",
      "type": "function"
    },
    {
      "inputs": [],
      "name": "sharedDecimals",
      "outputs": [
        {
          "internalType": "uint8",
          "name": "",
          "type": "uint8"
        }
      ],
      "stateMutability": "view",
      "type": "function"
    },
    {
      "inputs": [
        {
          "internalType": "bytes4",
          "name": "interfaceId",
          "type": "bytes4"
        }
      ],
      "name": "supportsInterface",
      "outputs": [
        {
          "internalType": "bool",
          "name": "",
          "type": "bool"
        }
      ],
      "stateMutability": "view",
      "type": "function"
    },
    {
      "inputs": [],
      "name": "symbol",
      "outputs": [
        {
          "internalType": "string",
          "name": "",
          "type": "string"
        }
      ],
      "stateMutability": "view",
      "type": "function"
    },
    {
      "inputs": [],
      "name": "token",
      "outputs": [
        {
          "internalType": "address",
          "name": "",
          "type": "address"
        }
      ],
      "stateMutability": "view",
      "type": "function"
    },
    {
      "inputs": [],
      "name": "totalSupply",
      "outputs": [
        {
          "internalType": "uint256",
          "name": "",
          "type": "uint256"
        }
      ],
      "stateMutability": "view",
      "type": "function"
    },
    {
      "inputs": [
        {
          "internalType": "address",
          "name": "to",
          "type": "address"
        },
        {
          "internalType": "uint256",
          "name": "amount",
          "type": "uint256"
        }
      ],
      "name": "transfer",
      "outputs": [
        {
          "internalType": "bool",
          "name": "",
          "type": "bool"
        }
      ],
      "stateMutability": "nonpayable",
      "type": "function"
    },
    {
      "inputs": [
        {
          "internalType": "address",
          "name": "from",
          "type": "address"
        },
        {
          "internalType": "address",
          "name": "to",
          "type": "address"
        },
        {
          "internalType": "uint256",
          "name": "amount",
          "type": "uint256"
        }
      ],
      "name": "transferFrom",
      "outputs": [
        {
          "internalType": "bool",
          "name": "",
          "type": "bool"
        }
      ],
      "stateMutability": "nonpayable",
      "type": "function"
    },
    {
      "inputs": [
        {
          "internalType": "address",
          "name": "newOwner",
          "type": "address"
        }
      ],
      "name": "transferOwnership",
      "outputs": [],
      "stateMutability": "nonpayable",
      "type": "function"
    },
    {
      "inputs": [
        {
          "internalType": "uint16",
          "name": "",
          "type": "uint16"
        }
      ],
      "name": "trustedRemoteLookup",
      "outputs": [
        {
          "internalType": "bytes",
          "name": "",
          "type": "bytes"
        }
      ],
      "stateMutability": "view",
      "type": "function"
    },
    {
      "inputs": [],
      "name": "useCustomAdapterParams",
      "outputs": [
        {
          "internalType": "bool",
          "name": "",
          "type": "bool"
        }
      ],
      "stateMutability": "view",
      "type": "function"
    }
  ],
  "transactionHash": "0x016eac38609ebaeef50347fe0bf853e0f67b2a2d545dda7640057acd79e95feb",
  "args": [
    "OFT",
    "OFT20",
    "0xbfD2135BFfbb0B5378b56643c2Df8a87552Bfa23"
  ],
  "numDeployments": 1,
  "solcInputHash": "8fe13407643dea1486658d36701b9b2b",
  "bytecode": "0x60e06040523480156200001157600080fd5b5060405162004e2f38038062004e2f833981016040819052620000349162000345565b828260088383838383818180806200004c336200017d565b6001600160a01b0316608052505060ff1660a052620000736000546001600160a01b031690565b600880546001600160a01b0392909216620100000262010000600160b01b031990921691909117905550508151620000b390600c906020850190620001d2565b508051620000c990600d906020840190620001d2565b5050506000620000de620001cd60201b60201c565b90508060ff168360ff161115620001525760405162461bcd60e51b815260206004820152602e60248201527f4f4654576974684665653a20736861726564446563696d616c73206d7573742060448201526d6265203c3d20646563696d616c7360901b606482015260840160405180910390fd5b6200015e8382620003e8565b6200016b90600a6200050d565b60c05250620005629650505050505050565b600080546001600160a01b038381166001600160a01b0319831681178455604051919092169283917f8be0079c531659141344cd1fd0a4f28419497f9722a3daafe3b4186f6b6457e09190a35050565b600890565b828054620001e09062000525565b90600052602060002090601f0160209004810192826200020457600085556200024f565b82601f106200021f57805160ff19168380011785556200024f565b828001600101855582156200024f579182015b828111156200024f57825182559160200191906001019062000232565b506200025d92915062000261565b5090565b5b808211156200025d576000815560010162000262565b634e487b7160e01b600052604160045260246000fd5b600082601f830112620002a057600080fd5b81516001600160401b0380821115620002bd57620002bd62000278565b604051601f8301601f19908116603f01168101908282118183101715620002e857620002e862000278565b816040528381526020925086838588010111156200030557600080fd5b600091505b838210156200032957858201830151818301840152908201906200030a565b838211156200033b5760008385830101525b9695505050505050565b6000806000606084860312156200035b57600080fd5b83516001600160401b03808211156200037357600080fd5b62000381878388016200028e565b945060208601519150808211156200039857600080fd5b50620003a7868287016200028e565b604086015190935090506001600160a01b0381168114620003c757600080fd5b809150509250925092565b634e487b7160e01b600052601160045260246000fd5b600060ff821660ff841680821015620004055762000405620003d2565b90039392505050565b600181815b808511156200044f578160001904821115620004335762000433620003d2565b808516156200044157918102915b93841c939080029062000413565b509250929050565b600082620004685750600162000507565b81620004775750600062000507565b81600181146200049057600281146200049b57620004bb565b600191505062000507565b60ff841115620004af57620004af620003d2565b50506001821b62000507565b5060208310610133831016604e8410600b8410161715620004e0575081810a62000507565b620004ec83836200040e565b8060001904821115620005035762000503620003d2565b0290505b92915050565b60006200051e60ff84168362000457565b9392505050565b600181811c908216806200053a57607f821691505b602082108114156200055c57634e487b7160e01b600052602260045260246000fd5b50919050565b60805160a05160c051614850620005df60003960008181612c3701528181612ca901526134fb015260006106da01526000818161087801528181610b4a01528181610e6201528181610f03015281816111630152818161196101528181611fbd01528181612615015281816129ae0152612e4601526148506000f3fe60806040526004361061036a5760003560e01c80639358928b116101c6578063d1deba1f116100f7578063eaffd49a11610095578063ed629c5c1161006f578063ed629c5c14610ada578063f2fde38b14610af4578063f5ecbdbc14610b14578063fc0c546a14610b3457600080fd5b8063eaffd49a14610a7a578063eb8d72b714610a9a578063ecd8f21214610aba57600080fd5b8063dd62ed3e116100d1578063dd62ed3e14610a05578063df2a5b3b14610a25578063e6a20ae614610a45578063eab45d9c14610a5a57600080fd5b8063d1deba1f14610956578063d5c6c6d614610969578063d8882968146109d757600080fd5b8063a9059cbb11610164578063b9818be11161013e578063b9818be11461089a578063baf3292d146108c0578063c83330ce146108e0578063cbed8b9c1461093657600080fd5b8063a9059cbb14610830578063abe685cd14610850578063b353aaa71461086657600080fd5b80639f38369a116101a05780639f38369a146107b0578063a457c2d7146107d0578063a4c51df5146107f0578063a6c3d1651461081057600080fd5b80639358928b14610766578063950c8a741461077b57806395d89b411461079b57600080fd5b806344770515116102a057806370a082311161023e57806379c0ad4b1161021857806379c0ad4b146106a8578063857749b0146106c85780638cfd8f5c146106fc5780638da5cb5b1461073457600080fd5b806370a082311461063d578063715018a6146106735780637533d7881461068857600080fd5b80634c42899a1161027a5780634c42899a146105995780635a359dc5146105ae5780635b8c41e6146105ce57806366ad5c8a1461061d57600080fd5b80634477051514610551578063455ba27d146105665780634b104eff1461057957600080fd5b806323b872dd1161030d578063365260b4116102e7578063365260b4146104bc57806339509351146104f15780633d8b38f61461051157806342d65a8d1461053157600080fd5b806323b872dd146104675780632cdf0b9514610487578063313ce5671461049a57600080fd5b806307e0db171161034957806307e0db17146103e8578063095ea7b31461040857806310ddb1371461042857806318160ddd1461044857600080fd5b80621d35671461036f57806301ffc9a71461039157806306fdde03146103c6575b600080fd5b34801561037b57600080fd5b5061038f61038a3660046139ca565b610b47565b005b34801561039d57600080fd5b506103b16103ac366004613a5d565b610d78565b60405190151581526020015b60405180910390f35b3480156103d257600080fd5b506103db610daf565b6040516103bd9190613adf565b3480156103f457600080fd5b5061038f610403366004613af2565b610e41565b34801561041457600080fd5b506103b1610423366004613b22565b610eca565b34801561043457600080fd5b5061038f610443366004613af2565b610ee2565b34801561045457600080fd5b50600b545b6040519081526020016103bd565b34801561047357600080fd5b506103b1610482366004613b4e565b610f3a565b61038f610495366004613ba7565b610f5e565b3480156104a657600080fd5b5060085b60405160ff90911681526020016103bd565b3480156104c857600080fd5b506104dc6104d7366004613c32565b611001565b604080519283526020830191909152016103bd565b3480156104fd57600080fd5b506103b161050c366004613b22565b611056565b34801561051d57600080fd5b506103b161052c366004613c97565b611078565b34801561053d57600080fd5b5061038f61054c366004613c97565b611144565b34801561055d57600080fd5b50610459600081565b61038f610574366004613ce9565b6111ca565b34801561058557600080fd5b5061038f610594366004613da5565b6112ab565b3480156105a557600080fd5b506104aa600081565b3480156105ba57600080fd5b5061038f6105c9366004613af2565b611368565b3480156105da57600080fd5b506104596105e9366004613e2f565b6004602090815260009384526040808520845180860184018051928152908401958401959095209452929052825290205481565b34801561062957600080fd5b5061038f6106383660046139ca565b6113da565b34801561064957600080fd5b50610459610658366004613da5565b6001600160a01b031660009081526009602052604090205490565b34801561067f57600080fd5b5061038f6114ae565b34801561069457600080fd5b506103db6106a3366004613af2565b6114c2565b3480156106b457600080fd5b5061038f6106c3366004613ecf565b61155c565b3480156106d457600080fd5b506104aa7f000000000000000000000000000000000000000000000000000000000000000081565b34801561070857600080fd5b50610459610717366004613f09565b600260209081526000928352604080842090915290825290205481565b34801561074057600080fd5b506000546001600160a01b03165b6040516001600160a01b0390911681526020016103bd565b34801561077257600080fd5b50610459611618565b34801561078757600080fd5b5060035461074e906001600160a01b031681565b3480156107a757600080fd5b506103db611628565b3480156107bc57600080fd5b506103db6107cb366004613af2565b611637565b3480156107dc57600080fd5b506103b16107eb366004613b22565b61174e565b3480156107fc57600080fd5b506104dc61080b366004613f3c565b6117c9565b34801561081c57600080fd5b5061038f61082b366004613c97565b611858565b34801561083c57600080fd5b506103b161084b366004613b22565b6118de565b34801561085c57600080fd5b5061045961271081565b34801561087257600080fd5b5061074e7f000000000000000000000000000000000000000000000000000000000000000081565b3480156108a657600080fd5b5060085461074e906201000090046001600160a01b031681565b3480156108cc57600080fd5b5061038f6108db366004613da5565b6118ec565b3480156108ec57600080fd5b5061091c6108fb366004613af2565b60076020526000908152604090205461ffff81169062010000900460ff1682565b6040805161ffff90931683529015156020830152016103bd565b34801561094257600080fd5b5061038f610951366004613ff5565b611942565b61038f6109643660046139ca565b6119cc565b34801561097557600080fd5b506109c2610984366004613e2f565b600660209081526000938452604080852084518086018401805192815290840195840195909520945292905282529020805460019091015460ff1682565b604080519283529015156020830152016103bd565b3480156109e357600080fd5b506008546109f29061ffff1681565b60405161ffff90911681526020016103bd565b348015610a1157600080fd5b50610459610a20366004614063565b611be2565b348015610a3157600080fd5b5061038f610a4036600461409c565b611c0d565b348015610a5157600080fd5b506104aa600181565b348015610a6657600080fd5b5061038f610a753660046140d8565b611cbf565b348015610a8657600080fd5b5061038f610a953660046140f3565b611d08565b348015610aa657600080fd5b5061038f610ab5366004613c97565b611e27565b348015610ac657600080fd5b50610459610ad53660046141bb565b611e81565b348015610ae657600080fd5b506005546103b19060ff1681565b348015610b0057600080fd5b5061038f610b0f366004613da5565b611f13565b348015610b2057600080fd5b506103db610b2f3660046141d7565b611f8c565b348015610b4057600080fd5b503061074e565b337f00000000000000000000000000000000000000000000000000000000000000006001600160a01b031614610bc45760405162461bcd60e51b815260206004820152601e60248201527f4c7a4170703a20696e76616c696420656e64706f696e742063616c6c6572000060448201526064015b60405180910390fd5b61ffff861660009081526001602052604081208054610be290614224565b80601f0160208091040260200160405190810160405280929190818152602001828054610c0e90614224565b8015610c5b5780601f10610c3057610100808354040283529160200191610c5b565b820191906000526020600020905b815481529060010190602001808311610c3e57829003601f168201915b50505050509050805186869050148015610c76575060008151115b8015610c9e575080516020820120604051610c949088908890614259565b6040518091039020145b610cf95760405162461bcd60e51b815260206004820152602660248201527f4c7a4170703a20696e76616c696420736f757263652073656e64696e6720636f6044820152651b9d1c9858dd60d21b6064820152608401610bbb565b610d6f8787878080601f01602080910402602001604051908101604052809392919081815260200183838082843760009201919091525050604080516020601f8a018190048102820181019092528881528a93509150889088908190840183828082843760009201919091525061203d92505050565b50505050505050565b60006001600160e01b03198216630d30953d60e31b1480610da957506301ffc9a760e01b6001600160e01b03198316145b92915050565b6060600c8054610dbe90614224565b80601f0160208091040260200160405190810160405280929190818152602001828054610dea90614224565b8015610e375780601f10610e0c57610100808354040283529160200191610e37565b820191906000526020600020905b815481529060010190602001808311610e1a57829003601f168201915b5050505050905090565b610e496120b6565b6040516307e0db1760e01b815261ffff821660048201527f00000000000000000000000000000000000000000000000000000000000000006001600160a01b0316906307e0db17906024015b600060405180830381600087803b158015610eaf57600080fd5b505af1158015610ec3573d6000803e3d6000fd5b5050505050565b600033610ed8818585612110565b5060019392505050565b610eea6120b6565b6040516310ddb13760e01b815261ffff821660048201527f00000000000000000000000000000000000000000000000000000000000000006001600160a01b0316906310ddb13790602401610e95565b600033610f48858285612234565b610f538585856122ae565b506001949350505050565b610f6986868561247c565b509250610fd786868686610f806020870187613da5565b610f906040880160208901613da5565b610f9d6040890189614269565b8080601f0160208091040260200160405190810160405280939291908181526020018383808284376000920191909152506124c592505050565b925081831015610ff95760405162461bcd60e51b8152600401610bbb906142af565b505050505050565b6000806110478888888888888080601f0160208091040260200160405190810160405280939291908181526020018383808284376000920191909152506125e992505050565b91509150965096945050505050565b600033610ed88185856110698383611be2565b6110739190614312565b612110565b61ffff83166000908152600160205260408120805482919061109990614224565b80601f01602080910402602001604051908101604052809291908181526020018280546110c590614224565b80156111125780601f106110e757610100808354040283529160200191611112565b820191906000526020600020905b8154815290600101906020018083116110f557829003601f168201915b505050505090508383604051611129929190614259565b60405180910390208180519060200120149150509392505050565b61114c6120b6565b6040516342d65a8d60e01b81526001600160a01b037f000000000000000000000000000000000000000000000000000000000000000016906342d65a8d9061119c90869086908690600401614353565b600060405180830381600087803b1580156111b657600080fd5b505af1158015610d6f573d6000803e3d6000fd5b6111d589898861247c565b508096505061127e8989898988888080601f0160208091040260200160405190810160405280939291908181526020018383808284376000920191909152508a92506112279150506020890189613da5565b61123760408a0160208b01613da5565b61124460408b018b614269565b8080601f0160208091040260200160405190810160405280939291908181526020018383808284376000920191909152506126a192505050565b9550848610156112a05760405162461bcd60e51b8152600401610bbb906142af565b505050505050505050565b6112b36120b6565b6001600160a01b0381166113095760405162461bcd60e51b815260206004820152601a60248201527f4665653a206665654f776e65722063616e6e6f742062652030780000000000006044820152606401610bbb565b6008805462010000600160b01b031916620100006001600160a01b038416908102919091179091556040519081527f047912631afa564eebd3db2efe191a0dec62da1fede6bbbc1ffc89d87845b1b5906020015b60405180910390a150565b6113706120b6565b6127108161ffff1611156113965760405162461bcd60e51b8152600401610bbb90614371565b6008805461ffff191661ffff83169081179091556040519081527fd26030ef4a8c225ee12b646eb4466acb41fb96b6cd4660b22d0ba0124e7bdc749060200161135d565b3330146114385760405162461bcd60e51b815260206004820152602660248201527f4e6f6e626c6f636b696e674c7a4170703a2063616c6c6572206d7573742062656044820152650204c7a4170760d41b6064820152608401610bbb565b610ff98686868080601f01602080910402602001604051908101604052809392919081815260200183838082843760009201919091525050604080516020601f89018190048102820181019092528781528993509150879087908190840183828082843760009201919091525061279d92505050565b6114b66120b6565b6114c06000612824565b565b600160205260009081526040902080546114db90614224565b80601f016020809104026020016040519081016040528092919081815260200182805461150790614224565b80156115545780601f1061152957610100808354040283529160200191611554565b820191906000526020600020905b81548152906001019060200180831161153757829003601f168201915b505050505081565b6115646120b6565b6127108161ffff16111561158a5760405162461bcd60e51b8152600401610bbb90614371565b60408051808201825261ffff83811680835285151560208085018281528985166000818152600784528890209651875492511515620100000262ffffff1990931696169590951717909455845192835292820192909252918201527fdd9c9685af3e6dcb56d8f4b88d2595d4add6837a150034e7781c46b6dcf8aaab906060015b60405180910390a1505050565b6000611623600b5490565b905090565b6060600d8054610dbe90614224565b61ffff811660009081526001602052604081208054606092919061165a90614224565b80601f016020809104026020016040519081016040528092919081815260200182805461168690614224565b80156116d35780601f106116a8576101008083540402835291602001916116d3565b820191906000526020600020905b8154815290600101906020018083116116b657829003601f168201915b5050505050905080516000141561172c5760405162461bcd60e51b815260206004820152601d60248201527f4c7a4170703a206e6f20747275737465642070617468207265636f72640000006044820152606401610bbb565b61174760006014835161173f91906143b6565b839190612874565b9392505050565b6000338161175c8286611be2565b9050838110156117bc5760405162461bcd60e51b815260206004820152602560248201527f45524332303a2064656372656173656420616c6c6f77616e63652062656c6f77604482015264207a65726f60d81b6064820152608401610bbb565b610f538286868403612110565b6000806118468b8b8b8b8b8080601f01602080910402602001604051908101604052809392919081815260200183838082843760009201919091525050604080516020601f8d018190048102820181019092528b81528e93508d9250908c908c908190840183828082843760009201919091525061298192505050565b91509150995099975050505050505050565b6118606120b6565b818130604051602001611875939291906143cd565b60408051601f1981840301815291815261ffff851660009081526001602090815291902082516118aa93919290910190613847565b507f8c0400cfe2d1199b1a725c78960bcc2a344d869b80590d0f2bd005db15a572ce83838360405161160b93929190614353565b600033610ed88185856122ae565b6118f46120b6565b600380546001600160a01b0319166001600160a01b0383169081179091556040519081527f5db758e995a17ec1ad84bdef7e8c3293a0bd6179bcce400dff5d4c3d87db726b9060200161135d565b61194a6120b6565b6040516332fb62e760e21b81526001600160a01b037f0000000000000000000000000000000000000000000000000000000000000000169063cbed8b9c9061199e90889088908890889088906004016143f3565b600060405180830381600087803b1580156119b857600080fd5b505af11580156112a0573d6000803e3d6000fd5b61ffff861660009081526004602052604080822090516119ef9088908890614259565b90815260408051602092819003830190206001600160401b03871660009081529252902054905080611a6f5760405162461bcd60e51b815260206004820152602360248201527f4e6f6e626c6f636b696e674c7a4170703a206e6f2073746f726564206d65737360448201526261676560e81b6064820152608401610bbb565b808383604051611a80929190614259565b604051809103902014611adf5760405162461bcd60e51b815260206004820152602160248201527f4e6f6e626c6f636b696e674c7a4170703a20696e76616c6964207061796c6f616044820152601960fa1b6064820152608401610bbb565b61ffff87166000908152600460205260408082209051611b029089908990614259565b90815260408051602092819003830181206001600160401b038916600090815290845282902093909355601f88018290048202830182019052868252611b9a918991899089908190840183828082843760009201919091525050604080516020601f8a018190048102820181019092528881528a93509150889088908190840183828082843760009201919091525061279d92505050565b7fc264d91f3adc5588250e1551f547752ca0cfa8f6b530d243b9f9f4cab10ea8e58787878785604051611bd195949392919061442c565b60405180910390a150505050505050565b6001600160a01b039182166000908152600a6020908152604080832093909416825291909152205490565b611c156120b6565b60008111611c5d5760405162461bcd60e51b81526020600482015260156024820152744c7a4170703a20696e76616c6964206d696e47617360581b6044820152606401610bbb565b61ffff83811660008181526002602090815260408083209487168084529482529182902085905581519283528201929092529081018290527f9d5c7c0b934da8fefa9c7760c98383778a12dfbfc0c3b3106518f43fb9508ac09060600161160b565b611cc76120b6565b6005805460ff19168215159081179091556040519081527f1584ad594a70cbe1e6515592e1272a987d922b097ead875069cebe8b40c004a49060200161135d565b333014611d575760405162461bcd60e51b815260206004820152601f60248201527f4f4654436f72653a2063616c6c6572206d757374206265204f4654436f7265006044820152606401610bbb565b611d62308686612a3c565b9350846001600160a01b03168a61ffff167fbf551ec93859b170f9b2141bd9298bf3f64322c6f7beb2543a0cb669834118bf86604051611da491815260200190565b60405180910390a3604051633fe79aed60e11b81526001600160a01b03861690637fcf35da908390611de8908e908e908e908e908e908d908d908d90600401614467565b600060405180830381600088803b158015611e0257600080fd5b5087f1158015611e16573d6000803e3d6000fd5b505050505050505050505050505050565b611e2f6120b6565b61ffff83166000908152600160205260409020611e4d9083836138cb565b507ffa41487ad5d6728f0b19276fa1eddc16558578f5109fc39d2dc33c3230470dab83838360405161160b93929190614353565b61ffff828116600090815260076020908152604080832081518083019092525493841681526201000090930460ff1615801591840191909152909190611ee657805161271090611ed59061ffff16856144c2565b611edf91906144f7565b9150611f0c565b60085461ffff1615611f075760085461271090611ed59061ffff16856144c2565b600091505b5092915050565b611f1b6120b6565b6001600160a01b038116611f805760405162461bcd60e51b815260206004820152602660248201527f4f776e61626c653a206e6577206f776e657220697320746865207a65726f206160448201526564647265737360d01b6064820152608401610bbb565b611f8981612824565b50565b604051633d7b2f6f60e21b815261ffff808616600483015284166024820152306044820152606481018290526060907f00000000000000000000000000000000000000000000000000000000000000006001600160a01b03169063f5ecbdbc90608401600060405180830381865afa15801561200c573d6000803e3d6000fd5b505050506040513d6000823e601f3d908101601f19168201604052612034919081019061450b565b95945050505050565b6000806120a05a60966366ad5c8a60e01b898989896040516024016120659493929190614578565b60408051601f198184030181529190526020810180516001600160e01b03166001600160e01b03199093169290921790915230929190612a8e565b9150915081610ff957610ff98686868685612b18565b6000546001600160a01b031633146114c05760405162461bcd60e51b815260206004820181905260248201527f4f776e61626c653a2063616c6c6572206973206e6f7420746865206f776e65726044820152606401610bbb565b6001600160a01b0383166121725760405162461bcd60e51b8152602060048201526024808201527f45524332303a20617070726f76652066726f6d20746865207a65726f206164646044820152637265737360e01b6064820152608401610bbb565b6001600160a01b0382166121d35760405162461bcd60e51b815260206004820152602260248201527f45524332303a20617070726f766520746f20746865207a65726f206164647265604482015261737360f01b6064820152608401610bbb565b6001600160a01b038381166000818152600a602090815260408083209487168084529482529182902085905590518481527f8c5be1e5ebec7d5bd14f71427d1e84f3dd0314c0f7b2291e5b200ac8c7c3b925910160405180910390a3505050565b60006122408484611be2565b905060001981146122a8578181101561229b5760405162461bcd60e51b815260206004820152601d60248201527f45524332303a20696e73756666696369656e7420616c6c6f77616e63650000006044820152606401610bbb565b6122a88484848403612110565b50505050565b6001600160a01b0383166123125760405162461bcd60e51b815260206004820152602560248201527f45524332303a207472616e736665722066726f6d20746865207a65726f206164604482015264647265737360d81b6064820152608401610bbb565b6001600160a01b0382166123745760405162461bcd60e51b815260206004820152602360248201527f45524332303a207472616e7366657220746f20746865207a65726f206164647260448201526265737360e81b6064820152608401610bbb565b6001600160a01b038316600090815260096020526040902054818110156123ec5760405162461bcd60e51b815260206004820152602660248201527f45524332303a207472616e7366657220616d6f756e7420657863656564732062604482015265616c616e636560d01b6064820152608401610bbb565b6001600160a01b03808516600090815260096020526040808220858503905591851681529081208054849290612423908490614312565b92505081905550826001600160a01b0316846001600160a01b03167fddf252ad1be2c89b69c2b068fc378daa952ba7f163c4a11628f55a4df523b3ef8460405161246f91815260200190565b60405180910390a36122a8565b6000806124898484611e81565b905061249581846143b6565b915080156124bd576008546124bb9086906201000090046001600160a01b031683612a3c565b505b935093915050565b60006124d387828481612bb5565b6124dc85612c2f565b5090506124eb88888884612c6f565b9050600081116125395760405162461bcd60e51b815260206004820152601960248201527813d19510dbdc994e88185b5bdd5b9d081d1bdbc81cdb585b1b603a1b6044820152606401610bbb565b60006125848761254884612ca1565b6040805160006020820152602181019390935260c09190911b6001600160c01b0319166041830152805160298184030181526049909201905290565b9050612594888287878734612d27565b86896001600160a01b03168961ffff167fd81fc9b8523134ed613870ed029d6170cbb73aa6a6bc311b9a642689fb9df59a856040516125d591815260200190565b60405180910390a450979650505050505050565b60008060006125fb8761254888612ca1565b60405163040a7bb160e41b81529091506001600160a01b037f000000000000000000000000000000000000000000000000000000000000000016906340a7bb1090612652908b90309086908b908b906004016145b6565b6040805180830381865afa15801561266e573d6000803e3d6000fd5b505050506040513d601f19601f82011682018060405250810190612692919061460a565b92509250509550959350505050565b60006126b9896001846001600160401b038916612bb5565b6126c287612c2f565b5090506126d18a8a8a84612c6f565b90506000811161271f5760405162461bcd60e51b815260206004820152601960248201527813d19510dbdc994e88185b5bdd5b9d081d1bdbc81cdb585b1b603a1b6044820152606401610bbb565b6000612736338a61272f85612ca1565b8a8a612ec2565b90506127468a8287878734612d27565b888b6001600160a01b03168b61ffff167fd81fc9b8523134ed613870ed029d6170cbb73aa6a6bc311b9a642689fb9df59a8560405161278791815260200190565b60405180910390a4509998505050505050505050565b60006127a98282612f03565b905060ff81166127c4576127bf85858585612f5f565b610ec3565b60ff8116600114156127dc576127bf85858585612fef565b60405162461bcd60e51b815260206004820152601c60248201527f4f4654436f72653a20756e6b6e6f776e207061636b65742074797065000000006044820152606401610bbb565b600080546001600160a01b038381166001600160a01b0319831681178455604051919092169283917f8be0079c531659141344cd1fd0a4f28419497f9722a3daafe3b4186f6b6457e09190a35050565b60608161288281601f614312565b10156128c15760405162461bcd60e51b815260206004820152600e60248201526d736c6963655f6f766572666c6f7760901b6044820152606401610bbb565b6128cb8284614312565b8451101561290f5760405162461bcd60e51b8152602060048201526011602482015270736c6963655f6f75744f66426f756e647360781b6044820152606401610bbb565b60608215801561292e5760405191506000825260208201604052612978565b6040519150601f8416801560200281840101858101878315602002848b0101015b8183101561296757805183526020928301920161294f565b5050858452601f01601f1916604052505b50949350505050565b6000806000612994338a61272f8b612ca1565b60405163040a7bb160e41b81529091506001600160a01b037f000000000000000000000000000000000000000000000000000000000000000016906340a7bb10906129eb908d90309086908b908b906004016145b6565b6040805180830381865afa158015612a07573d6000803e3d6000fd5b505050506040513d601f19601f82011682018060405250810190612a2b919061460a565b925092505097509795505050505050565b600033306001600160a01b03861614801590612a6a5750806001600160a01b0316856001600160a01b031614155b15612a7a57612a7a858285612234565b612a858585856122ae565b50909392505050565b6000606060008060008661ffff166001600160401b03811115612ab357612ab3613dc2565b6040519080825280601f01601f191660200182016040528015612add576020820181803683370190505b50905060008087516020890160008d8df191503d925086831115612aff578692505b828152826000602083013e909890975095505050505050565b8180519060200120600460008761ffff1661ffff16815260200190815260200160002085604051612b49919061462e565b9081526040805191829003602090810183206001600160401b0388166000908152915220919091557fe183f33de2837795525b4792ca4cd60535bd77c53b7e7030060bfcf5734d6b0c90612ba6908790879087908790879061464a565b60405180910390a15050505050565b60055460ff1615612bd157612bcc84848484613242565b6122a8565b8151156122a85760405162461bcd60e51b815260206004820152602660248201527f4f4654436f72653a205f61646170746572506172616d73206d7573742062652060448201526532b6b83a3c9760d11b6064820152608401610bbb565b600080612c5c7f00000000000000000000000000000000000000000000000000000000000000008461469c565b9050612c6881846143b6565b9150915091565b6000336001600160a01b0386168114612c8d57612c8d868285612234565b612c978684613321565b5090949350505050565b600080612cce7f0000000000000000000000000000000000000000000000000000000000000000846144f7565b90506001600160401b03811115610da95760405162461bcd60e51b815260206004820152601a60248201527f4f4654436f72653a20616d6f756e745344206f766572666c6f770000000000006044820152606401610bbb565b61ffff861660009081526001602052604081208054612d4590614224565b80601f0160208091040260200160405190810160405280929190818152602001828054612d7190614224565b8015612dbe5780601f10612d9357610100808354040283529160200191612dbe565b820191906000526020600020905b815481529060010190602001808311612da157829003601f168201915b50505050509050805160001415612e305760405162461bcd60e51b815260206004820152603060248201527f4c7a4170703a2064657374696e6174696f6e20636861696e206973206e6f742060448201526f61207472757374656420736f7572636560801b6064820152608401610bbb565b60405162c5803160e81b81526001600160a01b037f0000000000000000000000000000000000000000000000000000000000000000169063c5803100908490612e87908b9086908c908c908c908c906004016146b0565b6000604051808303818588803b158015612ea057600080fd5b505af1158015612eb4573d6000803e3d6000fd5b505050505050505050505050565b6060600185856001600160a01b0389168587604051602001612ee996959493929190614717565b604051602081830303815290604052905095945050505050565b6000612f10826001614312565b83511015612f565760405162461bcd60e51b8152602060048201526013602482015272746f55696e74385f6f75744f66426f756e647360681b6044820152606401610bbb565b50016001015190565b600080612f6b8361346f565b90925090506001600160a01b038216612f845761dead91505b6000612f8f826134f4565b9050612f9c878483613529565b9050826001600160a01b03168761ffff167fbf551ec93859b170f9b2141bd9298bf3f64322c6f7beb2543a0cb669834118bf83604051612fde91815260200190565b60405180910390a350505050505050565b600080600080600061300086613535565b945094509450945094506000600660008b61ffff1661ffff16815260200190815260200160002089604051613035919061462e565b90815260408051602092819003830181206001600160401b038c166000908152908452829020818301909252815480825260019092015460ff16151592810183905292509061310e57613087856134f4565b90506130948b3083613529565b604080518082018252828152600160208083019190915261ffff8f16600090815260069091528290209151929350916130ce908d9061462e565b90815260408051602092819003830190206001600160401b038d16600090815290835220825181559101516001909101805460ff19169115159190911790555b6001600160a01b0386163b613165576040516001600160a01b03871681527f9aedf5fdba8716db3b6705ca00150643309995d4f818a249ed6dde6677e7792d9060200160405180910390a1505050505050506122a8565b60208201518b908b908b908b908b908b9087908b90600090613190578b6001600160401b0316613192565b5a5b90506000806131c45a609663eaffd49a60e01b8e8e8e8d8d8d8d8d604051602401612065989796959493929190614778565b91509150811561321d578751602089012060405161ffff8d16907fb8890edbfc1c74692f527444645f95489c3703cc2df42e4a366f5d06fa6cd8849061320f908e908e9086906147ec565b60405180910390a25061322a565b61322a8b8b8b8b85612b18565b50505050505050505050505050505050505050505050565b600061324d836135ec565b61ffff80871660009081526002602090815260408083209389168352929052908120549192509061327f908490614312565b9050600081116132d15760405162461bcd60e51b815260206004820152601a60248201527f4c7a4170703a206d696e4761734c696d6974206e6f74207365740000000000006044820152606401610bbb565b80821015610ff95760405162461bcd60e51b815260206004820152601b60248201527f4c7a4170703a20676173206c696d697420697320746f6f206c6f7700000000006044820152606401610bbb565b6001600160a01b0382166133815760405162461bcd60e51b815260206004820152602160248201527f45524332303a206275726e2066726f6d20746865207a65726f206164647265736044820152607360f81b6064820152608401610bbb565b6001600160a01b038216600090815260096020526040902054818110156133f55760405162461bcd60e51b815260206004820152602260248201527f45524332303a206275726e20616d6f756e7420657863656564732062616c616e604482015261636560f01b6064820152608401610bbb565b6001600160a01b03831660009081526009602052604081208383039055600b80548492906134249084906143b6565b90915550506040518281526000906001600160a01b038516907fddf252ad1be2c89b69c2b068fc378daa952ba7f163c4a11628f55a4df523b3ef9060200160405180910390a3505050565b6000808061347d8482612f03565b60ff1614801561348e575082516029145b6134d55760405162461bcd60e51b815260206004820152601860248201527713d19510dbdc994e881a5b9d985b1a59081c185e5b1bd85960421b6044820152606401610bbb565b6134e083600d613648565b91506134ed8360216136ad565b9050915091565b6000610da97f00000000000000000000000000000000000000000000000000000000000000006001600160401b0384166144c2565b6000611f0c838361370a565b6000808060608160016135488783612f03565b60ff16146135935760405162461bcd60e51b815260206004820152601860248201527713d19510dbdc994e881a5b9d985b1a59081c185e5b1bd85960421b6044820152606401610bbb565b61359e86600d613648565b93506135ab8660216136ad565b92506135b88660296137e9565b94506135c58660496136ad565b90506135e160518088516135d991906143b6565b889190612874565b915091939590929450565b60006022825110156136405760405162461bcd60e51b815260206004820152601c60248201527f4c7a4170703a20696e76616c69642061646170746572506172616d73000000006044820152606401610bbb565b506022015190565b6000613655826014614312565b8351101561369d5760405162461bcd60e51b8152602060048201526015602482015274746f416464726573735f6f75744f66426f756e647360581b6044820152606401610bbb565b500160200151600160601b900490565b60006136ba826008614312565b835110156137015760405162461bcd60e51b8152602060048201526014602482015273746f55696e7436345f6f75744f66426f756e647360601b6044820152606401610bbb565b50016008015190565b6001600160a01b0382166137605760405162461bcd60e51b815260206004820152601f60248201527f45524332303a206d696e7420746f20746865207a65726f2061646472657373006044820152606401610bbb565b80600b60008282546137729190614312565b90915550506001600160a01b0382166000908152600960205260408120805483929061379f908490614312565b90915550506040518181526001600160a01b038316906000907fddf252ad1be2c89b69c2b068fc378daa952ba7f163c4a11628f55a4df523b3ef9060200160405180910390a35050565b60006137f6826020614312565b8351101561383e5760405162461bcd60e51b8152602060048201526015602482015274746f427974657333325f6f75744f66426f756e647360581b6044820152606401610bbb565b50016020015190565b82805461385390614224565b90600052602060002090601f01602090048101928261387557600085556138bb565b82601f1061388e57805160ff19168380011785556138bb565b828001600101855582156138bb579182015b828111156138bb5782518255916020019190600101906138a0565b506138c792915061393f565b5090565b8280546138d790614224565b90600052602060002090601f0160209004810192826138f957600085556138bb565b82601f106139125782800160ff198235161785556138bb565b828001600101855582156138bb579182015b828111156138bb578235825591602001919060010190613924565b5b808211156138c75760008155600101613940565b803561ffff8116811461396657600080fd5b919050565b60008083601f84011261397d57600080fd5b5081356001600160401b0381111561399457600080fd5b6020830191508360208285010111156139ac57600080fd5b9250929050565b80356001600160401b038116811461396657600080fd5b600080600080600080608087890312156139e357600080fd5b6139ec87613954565b955060208701356001600160401b0380821115613a0857600080fd5b613a148a838b0161396b565b9097509550859150613a2860408a016139b3565b94506060890135915080821115613a3e57600080fd5b50613a4b89828a0161396b565b979a9699509497509295939492505050565b600060208284031215613a6f57600080fd5b81356001600160e01b03198116811461174757600080fd5b60005b83811015613aa2578181015183820152602001613a8a565b838111156122a85750506000910152565b60008151808452613acb816020860160208601613a87565b601f01601f19169290920160200192915050565b6020815260006117476020830184613ab3565b600060208284031215613b0457600080fd5b61174782613954565b6001600160a01b0381168114611f8957600080fd5b60008060408385031215613b3557600080fd5b8235613b4081613b0d565b946020939093013593505050565b600080600060608486031215613b6357600080fd5b8335613b6e81613b0d565b92506020840135613b7e81613b0d565b929592945050506040919091013590565b600060608284031215613ba157600080fd5b50919050565b60008060008060008060c08789031215613bc057600080fd5b8635613bcb81613b0d565b9550613bd960208801613954565b945060408701359350606087013592506080870135915060a08701356001600160401b03811115613c0957600080fd5b613c1589828a01613b8f565b9150509295509295509295565b8035801515811461396657600080fd5b60008060008060008060a08789031215613c4b57600080fd5b613c5487613954565b95506020870135945060408701359350613c7060608801613c22565b925060808701356001600160401b03811115613c8b57600080fd5b613a4b89828a0161396b565b600080600060408486031215613cac57600080fd5b613cb584613954565b925060208401356001600160401b03811115613cd057600080fd5b613cdc8682870161396b565b9497909650939450505050565b60008060008060008060008060006101008a8c031215613d0857600080fd5b8935613d1381613b0d565b9850613d2160208b01613954565b975060408a0135965060608a0135955060808a0135945060a08a01356001600160401b0380821115613d5257600080fd5b613d5e8d838e0161396b565b9096509450849150613d7260c08d016139b3565b935060e08c0135915080821115613d8857600080fd5b50613d958c828d01613b8f565b9150509295985092959850929598565b600060208284031215613db757600080fd5b813561174781613b0d565b634e487b7160e01b600052604160045260246000fd5b604051601f8201601f191681016001600160401b0381118282101715613e0057613e00613dc2565b604052919050565b60006001600160401b03821115613e2157613e21613dc2565b50601f01601f191660200190565b600080600060608486031215613e4457600080fd5b613e4d84613954565b925060208401356001600160401b03811115613e6857600080fd5b8401601f81018613613e7957600080fd5b8035613e8c613e8782613e08565b613dd8565b818152876020838501011115613ea157600080fd5b81602084016020830137600060208383010152809450505050613ec6604085016139b3565b90509250925092565b600080600060608486031215613ee457600080fd5b613eed84613954565b9250613efb60208501613c22565b9150613ec660408501613954565b60008060408385031215613f1c57600080fd5b613f2583613954565b9150613f3360208401613954565b90509250929050565b600080600080600080600080600060e08a8c031215613f5a57600080fd5b613f638a613954565b985060208a0135975060408a0135965060608a01356001600160401b0380821115613f8d57600080fd5b613f998d838e0161396b565b9098509650869150613fad60808d016139b3565b9550613fbb60a08d01613c22565b945060c08c0135915080821115613fd157600080fd5b50613fde8c828d0161396b565b915080935050809150509295985092959850929598565b60008060008060006080868803121561400d57600080fd5b61401686613954565b945061402460208701613954565b93506040860135925060608601356001600160401b0381111561404657600080fd5b6140528882890161396b565b969995985093965092949392505050565b6000806040838503121561407657600080fd5b823561408181613b0d565b9150602083013561409181613b0d565b809150509250929050565b6000806000606084860312156140b157600080fd5b6140ba84613954565b92506140c860208501613954565b9150604084013590509250925092565b6000602082840312156140ea57600080fd5b61174782613c22565b6000806000806000806000806000806101008b8d03121561411357600080fd5b61411c8b613954565b995060208b01356001600160401b038082111561413857600080fd5b6141448e838f0161396b565b909b50995089915061415860408e016139b3565b985060608d0135975060808d0135915061417182613b0d565b90955060a08c0135945060c08c0135908082111561418e57600080fd5b5061419b8d828e0161396b565b9150809450508092505060e08b013590509295989b9194979a5092959850565b600080604083850312156141ce57600080fd5b613b4083613954565b600080600080608085870312156141ed57600080fd5b6141f685613954565b935061420460208601613954565b9250604085013561421481613b0d565b9396929550929360600135925050565b600181811c9082168061423857607f821691505b60208210811415613ba157634e487b7160e01b600052602260045260246000fd5b8183823760009101908152919050565b6000808335601e1984360301811261428057600080fd5b8301803591506001600160401b0382111561429a57600080fd5b6020019150368190038213156139ac57600080fd5b6020808252602d908201527f426173654f4654576974684665653a20616d6f756e74206973206c657373207460408201526c1a185b881b5a5b905b5bdd5b9d609a1b606082015260800190565b634e487b7160e01b600052601160045260246000fd5b60008219821115614325576143256142fc565b500190565b81835281816020850137506000828201602090810191909152601f909101601f19169091010190565b61ffff8416815260406020820152600061203460408301848661432a565b60208082526025908201527f4665653a20666565206270206d757374206265203c3d2042505f44454e4f4d496040820152642720aa27a960d91b606082015260800190565b6000828210156143c8576143c86142fc565b500390565b8284823760609190911b6bffffffffffffffffffffffff19169101908152601401919050565b600061ffff80881683528087166020840152508460408301526080606083015261442160808301848661432a565b979650505050505050565b61ffff8616815260806020820152600061444a60808301868861432a565b6001600160401b0394909416604083015250606001529392505050565b61ffff8916815260c06020820152600061448560c08301898b61432a565b6001600160401b038816604084015286606084015285608084015282810360a08401526144b381858761432a565b9b9a5050505050505050505050565b60008160001904831182151516156144dc576144dc6142fc565b500290565b634e487b7160e01b600052601260045260246000fd5b600082614506576145066144e1565b500490565b60006020828403121561451d57600080fd5b81516001600160401b0381111561453357600080fd5b8201601f8101841361454457600080fd5b8051614552613e8782613e08565b81815285602083850101111561456757600080fd5b612034826020830160208601613a87565b61ffff851681526080602082015260006145956080830186613ab3565b6001600160401b038516604084015282810360608401526144218185613ab3565b61ffff861681526001600160a01b038516602082015260a0604082018190526000906145e490830186613ab3565b841515606084015282810360808401526145fe8185613ab3565b98975050505050505050565b6000806040838503121561461d57600080fd5b505080516020909101519092909150565b60008251614640818460208701613a87565b9190910192915050565b61ffff8616815260a06020820152600061466760a0830187613ab3565b6001600160401b038616604084015282810360608401526146888186613ab3565b905082810360808401526145fe8185613ab3565b6000826146ab576146ab6144e1565b500690565b61ffff8716815260c0602082015260006146cd60c0830188613ab3565b82810360408401526146df8188613ab3565b6001600160a01b0387811660608601528616608085015283810360a0850152905061470a8185613ab3565b9998505050505050505050565b60ff60f81b8760f81b16815285600182015260006001600160401b0360c01b808760c01b166021840152856029840152808560c01b166049840152508251614766816051850160208701613a87565b91909101605101979650505050505050565b600061010061ffff8b1683528060208401526147968184018b613ab3565b6001600160401b038a166040850152606084018990526001600160a01b038816608085015260a0840187905283810360c085015290506147d68186613ab3565b9150508260e08301529998505050505050505050565b6060815260006147ff6060830186613ab3565b6001600160401b03949094166020830152506040015291905056fea2646970667358221220f3dc7020ffb0158293df1049b44380c61e55cc28021f557b14b8deea137046a564736f6c634300080c0033",
  "devdoc": {
    "kind": "dev",
    "methods": {
      "allowance(address,address)": {
        "details": "See {IERC20-allowance}."
      },
      "approve(address,uint256)": {
        "details": "See {IERC20-approve}. NOTE: If `amount` is the maximum `uint256`, the allowance is not updated on `transferFrom`. This is semantically equivalent to an infinite approval. Requirements: - `spender` cannot be the zero address."
      },
      "balanceOf(address)": {
        "details": "See {IERC20-balanceOf}."
      },
      "circulatingSupply()": {
        "details": "returns the circulating amount of tokens on current chain"
      },
      "decimals()": {
        "details": "Returns the number of decimals used to get its user representation. For example, if `decimals` equals `2`, a balance of `505` tokens should be displayed to a user as `5.05` (`505 / 10 ** 2`). Tokens usually opt for a value of 18, imitating the relationship between Ether and Wei. This is the value {ERC20} uses, unless this function is overridden; NOTE: This information is only used for _display_ purposes: it in no way affects any of the arithmetic of the contract, including {IERC20-balanceOf} and {IERC20-transfer}."
      },
      "decreaseAllowance(address,uint256)": {
        "details": "Atomically decreases the allowance granted to `spender` by the caller. This is an alternative to {approve} that can be used as a mitigation for problems described in {IERC20-approve}. Emits an {Approval} event indicating the updated allowance. Requirements: - `spender` cannot be the zero address. - `spender` must have allowance for the caller of at least `subtractedValue`."
      },
      "estimateSendFee(uint16,bytes32,uint256,bool,bytes)": {
        "details": "estimate send token `_tokenId` to (`_dstChainId`, `_toAddress`) _dstChainId - L0 defined chain id to send tokens too _toAddress - dynamic bytes array which contains the address to whom you are sending tokens to on the dstChain _amount - amount of the tokens to transfer _useZro - indicates to use zro to pay L0 fees _adapterParam - flexible bytes array to indicate messaging adapter services in L0"
      },
      "increaseAllowance(address,uint256)": {
        "details": "Atomically increases the allowance granted to `spender` by the caller. This is an alternative to {approve} that can be used as a mitigation for problems described in {IERC20-approve}. Emits an {Approval} event indicating the updated allowance. Requirements: - `spender` cannot be the zero address."
      },
      "name()": {
        "details": "Returns the name of the token."
      },
      "owner()": {
        "details": "Returns the address of the current owner."
      },
      "renounceOwnership()": {
        "details": "Leaves the contract without owner. It will not be possible to call `onlyOwner` functions anymore. Can only be called by the current owner. NOTE: Renouncing ownership will leave the contract without an owner, thereby removing any functionality that is only available to the owner."
      },
      "sendFrom(address,uint16,bytes32,uint256,uint256,(address,address,bytes))": {
        "details": "send `_amount` amount of token to (`_dstChainId`, `_toAddress`) from `_from` `_from` the owner of token `_dstChainId` the destination chain identifier `_toAddress` can be any size depending on the `dstChainId`. `_amount` the quantity of tokens in wei `_minAmount` the minimum amount of tokens to receive on dstChain `_refundAddress` the address LayerZero refunds if too much message fee is sent `_zroPaymentAddress` set to address(0x0) if not paying in ZRO (LayerZero Token) `_adapterParams` is a flexible bytes array to indicate messaging adapter services"
      },
      "symbol()": {
        "details": "Returns the symbol of the token, usually a shorter version of the name."
      },
      "token()": {
        "details": "returns the address of the ERC20 token"
      },
      "totalSupply()": {
        "details": "See {IERC20-totalSupply}."
      },
      "transfer(address,uint256)": {
        "details": "See {IERC20-transfer}. Requirements: - `to` cannot be the zero address. - the caller must have a balance of at least `amount`."
      },
      "transferFrom(address,address,uint256)": {
        "details": "See {IERC20-transferFrom}. Emits an {Approval} event indicating the updated allowance. This is not required by the EIP. See the note at the beginning of {ERC20}. NOTE: Does not update the allowance if the current allowance is the maximum `uint256`. Requirements: - `from` and `to` cannot be the zero address. - `from` must have a balance of at least `amount`. - the caller must have allowance for ``from``'s tokens of at least `amount`."
      },
      "transferOwnership(address)": {
        "details": "Transfers ownership of the contract to a new account (`newOwner`). Can only be called by the current owner."
      }
    },
    "version": 1
  },
  "userdoc": {
    "kind": "user",
    "methods": {},
    "version": 1
  },
  "storageLayout": {
    "storage": [
      {
        "astId": 3440,
        "contract": "contracts/OFT.sol:OFT",
        "label": "_owner",
        "offset": 0,
        "slot": "0",
        "type": "t_address"
      },
      {
        "astId": 212,
        "contract": "contracts/OFT.sol:OFT",
        "label": "trustedRemoteLookup",
        "offset": 0,
        "slot": "1",
        "type": "t_mapping(t_uint16,t_bytes_storage)"
      },
      {
        "astId": 218,
        "contract": "contracts/OFT.sol:OFT",
        "label": "minDstGasLookup",
        "offset": 0,
        "slot": "2",
        "type": "t_mapping(t_uint16,t_mapping(t_uint16,t_uint256))"
      },
      {
        "astId": 220,
        "contract": "contracts/OFT.sol:OFT",
        "label": "precrime",
        "offset": 0,
        "slot": "3",
        "type": "t_address"
      },
      {
        "astId": 705,
        "contract": "contracts/OFT.sol:OFT",
        "label": "failedMessages",
        "offset": 0,
        "slot": "4",
        "type": "t_mapping(t_uint16,t_mapping(t_bytes_memory_ptr,t_mapping(t_uint64,t_bytes32)))"
      },
      {
        "astId": 1031,
        "contract": "contracts/OFT.sol:OFT",
        "label": "useCustomAdapterParams",
        "offset": 0,
        "slot": "5",
        "type": "t_bool"
      },
      {
        "astId": 1040,
        "contract": "contracts/OFT.sol:OFT",
        "label": "amountsForCall",
        "offset": 0,
        "slot": "6",
        "type": "t_mapping(t_uint16,t_mapping(t_bytes_memory_ptr,t_mapping(t_uint64,t_struct(AmountForCall)1045_storage)))"
      },
      {
        "astId": 2282,
        "contract": "contracts/OFT.sol:OFT",
        "label": "chainIdToFeeBps",
        "offset": 0,
        "slot": "7",
        "type": "t_mapping(t_uint16,t_struct(FeeConfig)2291_storage)"
      },
      {
        "astId": 2284,
        "contract": "contracts/OFT.sol:OFT",
        "label": "defaultFeeBp",
        "offset": 0,
        "slot": "8",
        "type": "t_uint16"
      },
      {
        "astId": 2286,
        "contract": "contracts/OFT.sol:OFT",
        "label": "feeOwner",
        "offset": 2,
        "slot": "8",
        "type": "t_address"
      },
      {
        "astId": 3561,
        "contract": "contracts/OFT.sol:OFT",
        "label": "_balances",
        "offset": 0,
        "slot": "9",
        "type": "t_mapping(t_address,t_uint256)"
      },
      {
        "astId": 3567,
        "contract": "contracts/OFT.sol:OFT",
        "label": "_allowances",
        "offset": 0,
        "slot": "10",
        "type": "t_mapping(t_address,t_mapping(t_address,t_uint256))"
      },
      {
        "astId": 3569,
        "contract": "contracts/OFT.sol:OFT",
        "label": "_totalSupply",
        "offset": 0,
        "slot": "11",
        "type": "t_uint256"
      },
      {
        "astId": 3571,
        "contract": "contracts/OFT.sol:OFT",
        "label": "_name",
        "offset": 0,
        "slot": "12",
        "type": "t_string_storage"
      },
      {
        "astId": 3573,
        "contract": "contracts/OFT.sol:OFT",
        "label": "_symbol",
        "offset": 0,
        "slot": "13",
        "type": "t_string_storage"
      }
    ],
    "types": {
      "t_address": {
        "encoding": "inplace",
        "label": "address",
        "numberOfBytes": "20"
      },
      "t_bool": {
        "encoding": "inplace",
        "label": "bool",
        "numberOfBytes": "1"
      },
      "t_bytes32": {
        "encoding": "inplace",
        "label": "bytes32",
        "numberOfBytes": "32"
      },
      "t_bytes_memory_ptr": {
        "encoding": "bytes",
        "label": "bytes",
        "numberOfBytes": "32"
      },
      "t_bytes_storage": {
        "encoding": "bytes",
        "label": "bytes",
        "numberOfBytes": "32"
      },
      "t_mapping(t_address,t_mapping(t_address,t_uint256))": {
        "encoding": "mapping",
        "key": "t_address",
        "label": "mapping(address => mapping(address => uint256))",
        "numberOfBytes": "32",
        "value": "t_mapping(t_address,t_uint256)"
      },
      "t_mapping(t_address,t_uint256)": {
        "encoding": "mapping",
        "key": "t_address",
        "label": "mapping(address => uint256)",
        "numberOfBytes": "32",
        "value": "t_uint256"
      },
      "t_mapping(t_bytes_memory_ptr,t_mapping(t_uint64,t_bytes32))": {
        "encoding": "mapping",
        "key": "t_bytes_memory_ptr",
        "label": "mapping(bytes => mapping(uint64 => bytes32))",
        "numberOfBytes": "32",
        "value": "t_mapping(t_uint64,t_bytes32)"
      },
      "t_mapping(t_bytes_memory_ptr,t_mapping(t_uint64,t_struct(AmountForCall)1045_storage))": {
        "encoding": "mapping",
        "key": "t_bytes_memory_ptr",
        "label": "mapping(bytes => mapping(uint64 => struct OFTCoreV2.AmountForCall))",
        "numberOfBytes": "32",
        "value": "t_mapping(t_uint64,t_struct(AmountForCall)1045_storage)"
      },
      "t_mapping(t_uint16,t_bytes_storage)": {
        "encoding": "mapping",
        "key": "t_uint16",
        "label": "mapping(uint16 => bytes)",
        "numberOfBytes": "32",
        "value": "t_bytes_storage"
      },
      "t_mapping(t_uint16,t_mapping(t_bytes_memory_ptr,t_mapping(t_uint64,t_bytes32)))": {
        "encoding": "mapping",
        "key": "t_uint16",
        "label": "mapping(uint16 => mapping(bytes => mapping(uint64 => bytes32)))",
        "numberOfBytes": "32",
        "value": "t_mapping(t_bytes_memory_ptr,t_mapping(t_uint64,t_bytes32))"
      },
      "t_mapping(t_uint16,t_mapping(t_bytes_memory_ptr,t_mapping(t_uint64,t_struct(AmountForCall)1045_storage)))": {
        "encoding": "mapping",
        "key": "t_uint16",
        "label": "mapping(uint16 => mapping(bytes => mapping(uint64 => struct OFTCoreV2.AmountForCall)))",
        "numberOfBytes": "32",
        "value": "t_mapping(t_bytes_memory_ptr,t_mapping(t_uint64,t_struct(AmountForCall)1045_storage))"
      },
      "t_mapping(t_uint16,t_mapping(t_uint16,t_uint256))": {
        "encoding": "mapping",
        "key": "t_uint16",
        "label": "mapping(uint16 => mapping(uint16 => uint256))",
        "numberOfBytes": "32",
        "value": "t_mapping(t_uint16,t_uint256)"
      },
      "t_mapping(t_uint16,t_struct(FeeConfig)2291_storage)": {
        "encoding": "mapping",
        "key": "t_uint16",
        "label": "mapping(uint16 => struct Fee.FeeConfig)",
        "numberOfBytes": "32",
        "value": "t_struct(FeeConfig)2291_storage"
      },
      "t_mapping(t_uint16,t_uint256)": {
        "encoding": "mapping",
        "key": "t_uint16",
        "label": "mapping(uint16 => uint256)",
        "numberOfBytes": "32",
        "value": "t_uint256"
      },
      "t_mapping(t_uint64,t_bytes32)": {
        "encoding": "mapping",
        "key": "t_uint64",
        "label": "mapping(uint64 => bytes32)",
        "numberOfBytes": "32",
        "value": "t_bytes32"
      },
      "t_mapping(t_uint64,t_struct(AmountForCall)1045_storage)": {
        "encoding": "mapping",
        "key": "t_uint64",
        "label": "mapping(uint64 => struct OFTCoreV2.AmountForCall)",
        "numberOfBytes": "32",
        "value": "t_struct(AmountForCall)1045_storage"
      },
      "t_string_storage": {
        "encoding": "bytes",
        "label": "string",
        "numberOfBytes": "32"
      },
      "t_struct(AmountForCall)1045_storage": {
        "encoding": "inplace",
        "label": "struct OFTCoreV2.AmountForCall",
        "members": [
          {
            "astId": 1042,
            "contract": "contracts/OFT.sol:OFT",
            "label": "amount",
            "offset": 0,
            "slot": "0",
            "type": "t_uint256"
          },
          {
            "astId": 1044,
            "contract": "contracts/OFT.sol:OFT",
            "label": "credited",
            "offset": 0,
            "slot": "1",
            "type": "t_bool"
          }
        ],
        "numberOfBytes": "64"
      },
      "t_struct(FeeConfig)2291_storage": {
        "encoding": "inplace",
        "label": "struct Fee.FeeConfig",
        "members": [
          {
            "astId": 2288,
            "contract": "contracts/OFT.sol:OFT",
            "label": "feeBP",
            "offset": 0,
            "slot": "0",
            "type": "t_uint16"
          },
          {
            "astId": 2290,
            "contract": "contracts/OFT.sol:OFT",
            "label": "enabled",
            "offset": 2,
            "slot": "0",
            "type": "t_bool"
          }
        ],
        "numberOfBytes": "32"
      },
      "t_uint16": {
        "encoding": "inplace",
        "label": "uint16",
        "numberOfBytes": "2"
      },
      "t_uint256": {
        "encoding": "inplace",
        "label": "uint256",
        "numberOfBytes": "32"
      },
      "t_uint64": {
        "encoding": "inplace",
        "label": "uint64",
        "numberOfBytes": "8"
      }
    }
  }
}